{
  "contractName": "Hub",
  "abi": [
    {
      "inputs": [
        {
          "internalType": "uint256",
          "name": "_inflation",
          "type": "uint256"
        },
        {
          "internalType": "uint256",
          "name": "_period",
          "type": "uint256"
        },
        {
          "internalType": "string",
          "name": "_symbol",
          "type": "string"
        },
        {
          "internalType": "uint256",
          "name": "_signupBonus",
          "type": "uint256"
        },
        {
          "internalType": "uint256",
          "name": "_initialIssuance",
          "type": "uint256"
        },
        {
          "internalType": "uint256",
          "name": "_timeout",
          "type": "uint256"
        }
      ],
      "stateMutability": "nonpayable",
      "type": "constructor"
    },
    {
      "anonymous": false,
      "inputs": [
        {
          "indexed": true,
          "internalType": "address",
          "name": "from",
          "type": "address"
        },
        {
          "indexed": true,
          "internalType": "address",
          "name": "to",
          "type": "address"
        },
        {
          "indexed": false,
          "internalType": "uint256",
          "name": "amount",
          "type": "uint256"
        }
      ],
      "name": "HubTransfer",
      "type": "event"
    },
    {
      "anonymous": false,
      "inputs": [
        {
          "indexed": true,
          "internalType": "address",
          "name": "organization",
          "type": "address"
        }
      ],
      "name": "OrganizationSignup",
      "type": "event"
    },
    {
      "anonymous": false,
      "inputs": [
        {
          "indexed": true,
          "internalType": "address",
          "name": "user",
          "type": "address"
        },
        {
          "indexed": false,
          "internalType": "address",
          "name": "token",
          "type": "address"
        }
      ],
      "name": "Signup",
      "type": "event"
    },
    {
      "anonymous": false,
      "inputs": [
        {
          "indexed": true,
          "internalType": "address",
          "name": "canSendTo",
          "type": "address"
        },
        {
          "indexed": true,
          "internalType": "address",
          "name": "user",
          "type": "address"
        },
        {
          "indexed": false,
          "internalType": "uint256",
          "name": "limit",
          "type": "uint256"
        }
      ],
      "name": "Trust",
      "type": "event"
    },
    {
      "inputs": [],
      "name": "deployedAt",
      "outputs": [
        {
          "internalType": "uint256",
          "name": "",
          "type": "uint256"
        }
      ],
      "stateMutability": "view",
      "type": "function"
    },
    {
      "inputs": [],
      "name": "divisor",
      "outputs": [
        {
          "internalType": "uint256",
          "name": "",
          "type": "uint256"
        }
      ],
      "stateMutability": "view",
      "type": "function"
    },
    {
      "inputs": [],
      "name": "inflation",
      "outputs": [
        {
          "internalType": "uint256",
          "name": "",
          "type": "uint256"
        }
      ],
      "stateMutability": "view",
      "type": "function"
    },
    {
      "inputs": [],
      "name": "initialIssuance",
      "outputs": [
        {
          "internalType": "uint256",
          "name": "",
          "type": "uint256"
        }
      ],
      "stateMutability": "view",
      "type": "function"
    },
    {
      "inputs": [
        {
          "internalType": "address",
          "name": "",
          "type": "address"
        },
        {
          "internalType": "address",
          "name": "",
          "type": "address"
        }
      ],
      "name": "limits",
      "outputs": [
        {
          "internalType": "uint256",
          "name": "",
          "type": "uint256"
        }
      ],
      "stateMutability": "view",
      "type": "function"
    },
    {
      "inputs": [
        {
          "internalType": "address",
          "name": "",
          "type": "address"
        }
      ],
      "name": "organizations",
      "outputs": [
        {
          "internalType": "bool",
          "name": "",
          "type": "bool"
        }
      ],
      "stateMutability": "view",
      "type": "function"
    },
    {
      "inputs": [],
      "name": "period",
      "outputs": [
        {
          "internalType": "uint256",
          "name": "",
          "type": "uint256"
        }
      ],
      "stateMutability": "view",
      "type": "function"
    },
    {
      "inputs": [
        {
          "internalType": "uint256",
          "name": "",
          "type": "uint256"
        }
      ],
      "name": "seen",
      "outputs": [
        {
          "internalType": "address",
          "name": "",
          "type": "address"
        }
      ],
      "stateMutability": "view",
      "type": "function"
    },
    {
      "inputs": [],
      "name": "signupBonus",
      "outputs": [
        {
          "internalType": "uint256",
          "name": "",
          "type": "uint256"
        }
      ],
      "stateMutability": "view",
      "type": "function"
    },
    {
      "inputs": [],
      "name": "symbol",
      "outputs": [
        {
          "internalType": "string",
          "name": "",
          "type": "string"
        }
      ],
      "stateMutability": "view",
      "type": "function"
    },
    {
      "inputs": [],
      "name": "timeout",
      "outputs": [
        {
          "internalType": "uint256",
          "name": "",
          "type": "uint256"
        }
      ],
      "stateMutability": "view",
      "type": "function"
    },
    {
      "inputs": [
        {
          "internalType": "address",
          "name": "",
          "type": "address"
        }
      ],
      "name": "tokenToUser",
      "outputs": [
        {
          "internalType": "address",
          "name": "",
          "type": "address"
        }
      ],
      "stateMutability": "view",
      "type": "function"
    },
    {
      "inputs": [
        {
          "internalType": "address",
          "name": "",
          "type": "address"
        }
      ],
      "name": "userToToken",
      "outputs": [
        {
          "internalType": "contract Token",
          "name": "",
          "type": "address"
        }
      ],
      "stateMutability": "view",
      "type": "function"
    },
    {
      "inputs": [
        {
          "internalType": "address",
          "name": "",
          "type": "address"
        }
      ],
      "name": "validation",
      "outputs": [
        {
          "internalType": "bool",
          "name": "seen",
          "type": "bool"
        },
        {
          "internalType": "uint256",
          "name": "sent",
          "type": "uint256"
        },
        {
          "internalType": "uint256",
          "name": "received",
          "type": "uint256"
        }
      ],
      "stateMutability": "view",
      "type": "function"
    },
    {
      "inputs": [],
      "name": "periods",
      "outputs": [
        {
          "internalType": "uint256",
          "name": "",
          "type": "uint256"
        }
      ],
      "stateMutability": "view",
      "type": "function"
    },
    {
      "inputs": [],
      "name": "issuance",
      "outputs": [
        {
          "internalType": "uint256",
          "name": "",
          "type": "uint256"
        }
      ],
      "stateMutability": "view",
      "type": "function"
    },
    {
      "inputs": [
        {
          "internalType": "uint256",
          "name": "_periods",
          "type": "uint256"
        }
      ],
      "name": "issuanceByStep",
      "outputs": [
        {
          "internalType": "uint256",
          "name": "",
          "type": "uint256"
        }
      ],
      "stateMutability": "view",
      "type": "function"
    },
    {
      "inputs": [
        {
          "internalType": "uint256",
          "name": "_initial",
          "type": "uint256"
        },
        {
          "internalType": "uint256",
          "name": "_periods",
          "type": "uint256"
        }
      ],
      "name": "inflate",
      "outputs": [
        {
          "internalType": "uint256",
          "name": "",
          "type": "uint256"
        }
      ],
      "stateMutability": "view",
      "type": "function"
    },
    {
      "inputs": [],
      "name": "time",
      "outputs": [
        {
          "internalType": "uint256",
          "name": "",
          "type": "uint256"
        }
      ],
      "stateMutability": "view",
      "type": "function"
    },
    {
      "inputs": [],
      "name": "signup",
      "outputs": [],
      "stateMutability": "nonpayable",
      "type": "function"
    },
    {
      "inputs": [],
      "name": "organizationSignup",
      "outputs": [],
      "stateMutability": "nonpayable",
      "type": "function"
    },
    {
      "inputs": [
        {
          "internalType": "address",
          "name": "user",
          "type": "address"
        },
        {
          "internalType": "uint256",
          "name": "limit",
          "type": "uint256"
        }
      ],
      "name": "trust",
      "outputs": [],
      "stateMutability": "nonpayable",
      "type": "function"
    },
    {
      "inputs": [
        {
          "internalType": "uint256",
          "name": "base",
          "type": "uint256"
        },
        {
          "internalType": "uint256",
          "name": "exponent",
          "type": "uint256"
        }
      ],
      "name": "pow",
      "outputs": [
        {
          "internalType": "uint256",
          "name": "",
          "type": "uint256"
        }
      ],
      "stateMutability": "pure",
      "type": "function"
    },
    {
      "inputs": [
        {
          "internalType": "address",
          "name": "tokenOwner",
          "type": "address"
        },
        {
          "internalType": "address",
          "name": "src",
          "type": "address"
        },
        {
          "internalType": "address",
          "name": "dest",
          "type": "address"
        }
      ],
      "name": "checkSendLimit",
      "outputs": [
        {
          "internalType": "uint256",
          "name": "",
          "type": "uint256"
        }
      ],
      "stateMutability": "view",
      "type": "function"
    },
    {
      "inputs": [
        {
          "internalType": "address[]",
          "name": "tokenOwners",
          "type": "address[]"
        },
        {
          "internalType": "address[]",
          "name": "srcs",
          "type": "address[]"
        },
        {
          "internalType": "address[]",
          "name": "dests",
          "type": "address[]"
        },
        {
          "internalType": "uint256[]",
          "name": "wads",
          "type": "uint256[]"
        }
      ],
      "name": "transferThrough",
      "outputs": [],
      "stateMutability": "nonpayable",
      "type": "function"
    }
  ],
  "bytecode": "0x60806040523480156200001157600080fd5b5060405162003eaa38038062003eaa833981810160405260c08110156200003757600080fd5b815160208301516040808501805191519395929483019291846401000000008211156200006357600080fd5b9083019060208201858111156200007957600080fd5b82516401000000008111828201881017156200009457600080fd5b82525081516020918201929091019080838360005b83811015620000c3578181015183820152602001620000a9565b50505050905090810190601f168015620000f15780820380516001836020036101000a031916815260200191505b50604090815260208201519082015160609092015160008890559093509091506200011c8662000154565b600155600285905583516200013990600390602087019062000582565b5060049290925560055542600655600755506200061e915050565b6000805b6009620001806200016b600a84620001a4565b85620002dc60201b6200133b1790919060201c565b1115620001905760010162000158565b6200019d600a82620001a4565b9392505050565b600082620001b557506000620002d6565b81620001c457506001620002d6565b8160011415620001d6575081620002d6565b60015b6001831115620002b857620001fe6002846200032660201b6200137c1790919060201c565b62000242576200021d84856200037060201b620013bb1790919060201c565b93506200023a600284620002dc60201b6200133b1790919060201c565b9250620002b2565b6200025c81856200037060201b620013bb1790919060201c565b90506200027884856200037060201b620013bb1790919060201c565b9350620002af60026200029b600186620003ce60201b620014191790919060201c565b620002dc60201b6200133b1790919060201c565b92505b620001d9565b620002d281856200037060201b620013bb1790919060201c565b9150505b92915050565b60006200019d83836040518060400160405280601a81526020017f536166654d6174683a206469766973696f6e206279207a65726f0000000000008152506200041860201b60201c565b60006200019d83836040518060400160405280601881526020017f536166654d6174683a206d6f64756c6f206279207a65726f0000000000000000815250620004bf60201b60201c565b6000826200038157506000620002d6565b828202828482816200038f57fe5b04146200019d5760405162461bcd60e51b815260040180806020018281038252602181526020018062003e896021913960400191505060405180910390fd5b60006200019d83836040518060400160405280601e81526020017f536166654d6174683a207375627472616374696f6e206f766572666c6f7700008152506200052560201b60201c565b60008183620004a85760405162461bcd60e51b81526004018080602001828103825283818151815260200191508051906020019080838360005b838110156200046c57818101518382015260200162000452565b50505050905090810190601f1680156200049a5780820380516001836020036101000a031916815260200191505b509250505060405180910390fd5b506000838581620004b557fe5b0495945050505050565b60008183620005115760405162461bcd60e51b81526020600482018181528351602484015283519092839260449091019190850190808383600083156200046c57818101518382015260200162000452565b508284816200051c57fe5b06949350505050565b600081848411156200057a5760405162461bcd60e51b81526020600482018181528351602484015283519092839260449091019190850190808383600083156200046c57818101518382015260200162000452565b505050900390565b828054600181600116156101000203166002900490600052602060002090601f016020900481019282601f10620005c557805160ff1916838001178555620005f5565b82800160010185558215620005f5579182015b82811115620005f5578251825591602001919060010190620005d8565b506200060392915062000607565b5090565b5b8082111562000603576000815560010162000608565b61385b806200062e6000396000f3fe60806040523480156200001157600080fd5b5060043610620001605760003560e01c8063863623bb11620000cf578063863623bb14620003025780638a0ef184146200030c57806395d89b4114620003475780639951d62f14620003c9578063a18b506b14620003f8578063a3eb2b4a1462000421578063a4caeb421462000452578063b7bc0f73146200045c578063be0522e01462000466578063d62fd9a21462000470578063eae4c19f14620006a6578063ef78d4fd14620006b0578063fc22a9f814620006ba5762000160565b806316ada54714620001655780631f2dc5ef146200018157806328d249fe146200018b5780632a93834214620001d05780632e4c697f14620001f65780633fbd653c146200021c5780635a1f7406146200022857806361c4b421146200026557806367cb52d8146200028557806370dea79a146200028f57806377ed63c214620002995780637f501d0414620002e2575b600080fd5b6200016f620006c4565b60408051918252519081900360200190f35b6200016f620006c8565b620001b460048036036020811015620001a357600080fd5b50356001600160a01b0316620006ce565b604080516001600160a01b039092168252519081900360200190f35b6200016f60048036036040811015620001e857600080fd5b5080359060200135620006e9565b6200016f600480360360408110156200020e57600080fd5b508035906020013562000731565b62000226620007f1565b005b62000251600480360360208110156200024057600080fd5b50356001600160a01b0316620008db565b604080519115158252519081900360200190f35b6200016f600480360360208110156200027d57600080fd5b5035620008f0565b6200016f62000900565b6200016f62000906565b620002c260048036036020811015620002b157600080fd5b50356001600160a01b03166200090c565b604080519315158452602084019290925282820152519081900360600190f35b620001b460048036036020811015620002fa57600080fd5b503562000931565b6200016f62000959565b6200016f600480360360608110156200032457600080fd5b506001600160a01b03813581169160208101358216916040909101351662000977565b6200035162000c5b565b6040805160208082528351818301528351919283929083019185019080838360005b838110156200038d57818101518382015260200162000373565b50505050905090810190601f168015620003bb5780820380516001836020036101000a031916815260200191505b509250505060405180910390f35b6200022660048036036040811015620003e157600080fd5b506001600160a01b03813516906020013562000ced565b620001b4600480360360208110156200041057600080fd5b50356001600160a01b031662000ee1565b6200016f600480360360408110156200043957600080fd5b506001600160a01b038135811691602001351662000efc565b6200016f62000f19565b6200022662000f39565b6200016f620010c5565b62000226600480360360808110156200048857600080fd5b810190602081018135600160201b811115620004a357600080fd5b820183602082011115620004b657600080fd5b803590602001918460208302840111600160201b83111715620004d857600080fd5b9190808060200260200160405190810160405280939291908181526020018383602002808284376000920191909152509295949360208101935035915050600160201b8111156200052857600080fd5b8201836020820111156200053b57600080fd5b803590602001918460208302840111600160201b831117156200055d57600080fd5b9190808060200260200160405190810160405280939291908181526020018383602002808284376000920191909152509295949360208101935035915050600160201b811115620005ad57600080fd5b820183602082011115620005c057600080fd5b803590602001918460208302840111600160201b83111715620005e257600080fd5b9190808060200260200160405190810160405280939291908181526020018383602002808284376000920191909152509295949360208101935035915050600160201b8111156200063257600080fd5b8201836020820111156200064557600080fd5b803590602001918460208302840111600160201b831117156200066757600080fd5b919080806020026020016040519081016040528093929190818152602001838360200280828437600092019190915250929550620010cb945050505050565b6200016f62001329565b6200016f6200132f565b6200016f62001335565b4290565b60015481565b6008602052600090815260409020546001600160a01b031681565b600080620006fa6000548462000731565b905060006200070c6001548562000731565b905062000726816200071f8785620013bb565b906200133b565b925050505b92915050565b60008262000742575060006200072b565b8162000751575060016200072b565b8160011415620007635750816200072b565b60015b6001831115620007dd576200077d8360026200137c565b620007a5576200078e8480620013bb565b93506200079d8360026200133b565b9250620007d7565b620007b18482620013bb565b9050620007bf8480620013bb565b9350620007d460026200071f85600162001419565b92505b62000766565b620007e98482620013bb565b949350505050565b336000908152600860205260409020546001600160a01b031615620008485760405162461bcd60e51b815260040180806020018281038252602b815260200180620037af602b913960400191505060405180910390fd5b336000908152600a602052604090205460ff1615620008995760405162461bcd60e51b815260040180806020018281038252602a8152602001806200364d602a913960400191505060405180910390fd5b336000818152600a6020526040808220805460ff19166001179055517fb0b94cff8b84fc67513b977d68a5cdd67550bd9b8d99a34b570e3367b78437869190a2565b600a6020526000908152604090205460ff1681565b60006200072b60055483620006e9565b60045481565b60075481565b600c6020526000908152604090208054600182015460029092015460ff909116919083565b600d81815481106200093f57fe5b6000918252602090912001546001600160a01b0316905081565b6000620009726005546200096c62000f19565b620006e9565b905090565b6001600160a01b038082166000908152600b60209081526040808320938716835292905290812054620009ad5750600062000c54565b6001600160a01b0382811660009081526008602052604090205416158015620009ef57506001600160a01b0382166000908152600a602052604090205460ff16155b15620009fe5750600062000c54565b6001600160a01b038481166000908152600860205260409020541662000a275750600062000c54565b6001600160a01b0380851660009081526008602090815260408083205481516370a0823160e01b815288861660048201529151939416926370a0823192602480840193919291829003018186803b15801562000a8257600080fd5b505afa15801562000a97573d6000803e3d6000fd5b505050506040513d602081101562000aae57600080fd5b505190506001600160a01b03858116908416148062000ae557506001600160a01b0383166000908152600a602052604090205460ff165b1562000af357905062000c54565b6001600160a01b0380861660009081526008602090815260408083205481516370a0823160e01b815288861660048201529151939416926370a0823192602480840193919291829003018186803b15801562000b4e57600080fd5b505afa15801562000b63573d6000803e3d6000fd5b505050506040513d602081101562000b7a57600080fd5b50516001600160a01b038086166000818152600b602090815260408083208c86168452825280832054938352600882528083205481516318160ddd60e01b81529151969750929562000c2a956064956200071f9590949116926318160ddd9260048083019392829003018186803b15801562000bf557600080fd5b505afa15801562000c0a573d6000803e3d6000fd5b505050506040513d602081101562000c2157600080fd5b505190620013bb565b90508181101562000c42576000935050505062000c54565b62000c4e818362001419565b93505050505b9392505050565b6003805460408051602060026001851615610100026000190190941693909304601f8101849004840282018401909252818152929183018282801562000ce55780601f1062000cb95761010080835404028352916020019162000ce5565b820191906000526020600020905b81548152906001019060200180831162000cc757829003601f168201915b505050505081565b336000908152600860205260409020546001600160a01b031615158062000d235750336000908152600a602052604090205460ff165b62000d605760405162461bcd60e51b8152600401808060200182810382526031815260200180620036776031913960400191505060405180910390fd5b336001600160a01b038316141562000dbc576040805162461bcd60e51b815260206004820152601a6024820152792cb7ba9031b0b713ba103ab73a393ab9ba103cb7bab939b2b63360311b604482015290519081900360640190fd5b6001600160a01b0382166000908152600a602052604090205460ff161562000e2b576040805162461bcd60e51b815260206004820152601f60248201527f596f752063616e277420747275737420616e206f7267616e697a6174696f6e00604482015290519081900360640190fd5b606481111562000e6d5760405162461bcd60e51b8152600401808060200182810382526025815260200180620037616025913960400191505060405180910390fd5b336000908152600a602052604090205460ff161562000ed15780158062000e945750806064145b62000ed15760405162461bcd60e51b81526004018080602001828103825260218152602001806200371f6021913960400191505060405180910390fd5b62000edd82826200145d565b5050565b6009602052600090815260409020546001600160a01b031681565b600b60209081526000928352604080842090915290825290205481565b6000620009726002546200071f600654426200141990919063ffffffff16565b336000908152600860205260409020546001600160a01b03161562000f9f576040805162461bcd60e51b8152602060048201526017602482015276596f752063616e2774207369676e20757020747769636560481b604482015290519081900360640190fd5b336000908152600a602052604090205460ff161562000ff05760405162461bcd60e51b815260040180806020018281038252602b815260200180620037da602b913960400191505060405180910390fd5b600033604051620010019062001d86565b6001600160a01b03909116815260405190819003602001906000f0801580156200102f573d6000803e3d6000fd5b5033600081815260086020908152604080832080546001600160a01b0387166001600160a01b031991821681179092559084526009909252909120805490911682179055909150620010839060646200145d565b604080516001600160a01b0383168152905133917f358ba8f768af134eb5af120e9a61dc1ef29b29f597f047b555fc3675064a0342919081900360200190a250565b60005481565b83518251146200110d5760405162461bcd60e51b815260040180806020018281038252602a815260200180620036a8602a913960400191505060405180910390fd5b83518351146200114f5760405162461bcd60e51b8152600401808060200182810382526029815260200180620036246029913960400191505060405180910390fd5b8351815114620011915760405162461bcd60e51b815260040180806020018281038252602c815260200180620036d2602c913960400191505060405180910390fd5b60005b835181101562001316576000848281518110620011ad57fe5b602002602001015190506000848381518110620011c657fe5b602002602001015190506000878481518110620011df57fe5b602002602001015190506000858581518110620011f857fe5b6020026020010151905060006200121183868662000977565b90508082111562001260576040805162461bcd60e51b8152602060048201526014602482015273151c9d5cdd081b1a5b5a5d08195e18d95959195960621b604482015290519081900360640190fd5b6200126d858584620014bf565b6001600160a01b0380841660009081526008602090815260408083205481516308299c0f60e21b81528a8616600482015289861660248201526044810188905291519416936320a6703c93606480840194938390030190829087803b158015620012d657600080fd5b505af1158015620012eb573d6000803e3d6000fd5b505050506040513d60208110156200130257600080fd5b505060019095019450620011949350505050565b5062001323835162001674565b50505050565b60065481565b60025481565b60055481565b600062000c5483836040518060400160405280601a815260200179536166654d6174683a206469766973696f6e206279207a65726f60301b81525062001bc3565b600062000c54838360405180604001604052806018815260200177536166654d6174683a206d6f64756c6f206279207a65726f60401b81525062001c6a565b600082620013cc575060006200072b565b82820282848281620013da57fe5b041462000c545760405162461bcd60e51b8152600401808060200182810382526021815260200180620036fe6021913960400191505060405180910390fd5b600062000c5483836040518060400160405280601e81526020017f536166654d6174683a207375627472616374696f6e206f766572666c6f77000081525062001cd0565b336000818152600b602090815260408083206001600160a01b03871680855290835292819020859055805185815290519293927fe60c754dd8ab0b1b5fccba257d6ebcd7d09e360ab7dd7a6e58198ca1f57cdcec929181900390910190a35050565b6001600160a01b0383166000908152600c602052604090205460ff16156200152b576001600160a01b0383166000908152600c602052604090206001015462001509908262001d2d565b6001600160a01b0384166000908152600c602052604090206001015562001596565b6001600160a01b0383166000818152600c60205260408120805460ff191660019081178255908101849055600d805491820181559091527fd7b6990105719101dabeb77144f2a3385c8033acd3af97e9423a695e81ad1eb50180546001600160a01b03191690911790555b6001600160a01b0382166000908152600c602052604090205460ff161562001602576001600160a01b0382166000908152600c6020526040902060020154620015e0908262001d2d565b6001600160a01b0383166000908152600c60205260409020600201556200166f565b6001600160a01b0382166000818152600c60205260408120805460ff1916600190811782556002909101849055600d805491820181559091527fd7b6990105719101dabeb77144f2a3385c8033acd3af97e9423a695e81ad1eb50180546001600160a01b03191690911790555b505050565b60008060005b600d5481101562001870576200168f62001d94565b600c6000600d8481548110620016a157fe5b60009182526020808320909101546001600160a01b0316835282810193909352604091820190208151606081018352815460ff1615158152600182015493810184905260029091015491810182905292501015620017d2576001600160a01b03841615620017415760405162461bcd60e51b8152600401808060200182810382526021815260200180620037406021913960400191505060405180910390fd5b336001600160a01b0316600d83815481106200175957fe5b6000918252602090912001546001600160a01b031614620017ac5760405162461bcd60e51b8152600401808060200182810382526029815260200180620037866029913960400191505060405180910390fd5b600d8281548110620017ba57fe5b6000918252602090912001546001600160a01b031693505b80602001518160400151111562001866576001600160a01b0383161562001840576040805162461bcd60e51b815260206004820181905260248201527f506174682073656e647320746f206d6f7265207468616e206f6e652064657374604482015290519081900360640190fd5b600d82815481106200184e57fe5b6000918252602090912001546001600160a01b031692505b506001016200167a565b506001600160a01b038216620018cb576040805162461bcd60e51b815260206004820152601b60248201527a5472616e73616374696f6e206d757374206861766520612073726360281b604482015290519081900360640190fd5b6001600160a01b03811662001927576040805162461bcd60e51b815260206004820152601c60248201527f5472616e73616374696f6e206d75737420686176652061206465737400000000604482015290519081900360640190fd5b6001600160a01b0382166000908152600c6020526040902060020154156200198c576040805162461bcd60e51b815260206004820152601360248201527253656e64657220697320726563656976696e6760681b604482015290519081900360640190fd5b6001600160a01b0381166000908152600c602052604090206001015415620019f2576040805162461bcd60e51b8152602060048201526014602482015273526563697069656e742069732073656e64696e6760601b604482015290519081900360640190fd5b6001600160a01b038082166000908152600c60205260408082206002015492851682529020600101541462001a595760405162461bcd60e51b8152600401808060200182810382526021815260200180620038056021913960400191505060405180910390fd5b600d5460018401101562001aae576040805162461bcd60e51b81526020600482015260176024820152765365656e20746f6f206d616e792061646472657373657360481b604482015290519081900360640190fd5b6001600160a01b038281166000818152600c60209081526040918290206001015482519081529151938516937f8451019aab65b4193860ef723cb0d56b475a26a72b7bfc55c1dbd6121015285a9281900390910190a3600d545b6001811062001b6757600c6000600d600184038154811062001b2657fe5b60009182526020808320909101546001600160a01b031683528201929092526040018120805460ff1916815560018101829055600201556000190162001b08565b5062001b76600d600062001db7565b600d54156200166f576040805162461bcd60e51b81526020600482015260146024820152735365656e2073686f756c6420626520656d70747960601b604482015290519081900360640190fd5b6000818362001c535760405162461bcd60e51b81526004018080602001828103825283818151815260200191508051906020019080838360005b8381101562001c1757818101518382015260200162001bfd565b50505050905090810190601f16801562001c455780820380516001836020036101000a031916815260200191505b509250505060405180910390fd5b50600083858162001c6057fe5b0495945050505050565b6000818362001cbc5760405162461bcd60e51b815260206004820181815283516024840152835190928392604490910191908501908083836000831562001c1757818101518382015260200162001bfd565b5082848162001cc757fe5b06949350505050565b6000818484111562001d255760405162461bcd60e51b815260206004820181815283516024840152835190928392604490910191908501908083836000831562001c1757818101518382015260200162001bfd565b505050900390565b60008282018381101562000c54576040805162461bcd60e51b815260206004820152601b60248201527a536166654d6174683a206164646974696f6e206f766572666c6f7760281b604482015290519081900360640190fd5b61182e8062001df683390190565b604051806060016040528060001515815260200160008152602001600081525090565b508054600082559060005260206000209081019062001dd7919062001dda565b50565b5b8082111562001df1576000815560010162001ddb565b509056fe60806040526004805461ff0019166112001790553480156200002057600080fd5b506040516200182e3803806200182e833981810160405260208110156200004657600080fd5b50516001600160a01b0381166200005c57600080fd5b600780546001600160a01b0383166001600160a01b03199182161790915560068054909116331790556200008f6200019e565b6005556200009c620001a2565b6008556006546040805163863623bb60e01b815290516001600160a01b039092169163863623bb91600480820192602092909190829003018186803b158015620000e557600080fd5b505afa158015620000fa573d6000803e3d6000fd5b505050506040513d60208110156200011157600080fd5b505160095560065460408051630cf96a5b60e31b81529051620001979284926001600160a01b03909116916367cb52d891600480820192602092909190829003018186803b1580156200016357600080fd5b505afa15801562000178573d6000803e3d6000fd5b505050506040513d60208110156200018f57600080fd5b505162000221565b50620005e1565b4290565b600080620001f6620001b362000330565b620001c4620001d8600182620003a9565b620003ef60201b62000b4d1790919060201c565b620001e262000453565b6200049960201b62000ba51790919060201c565b90506200021b620002066200019e565b82620004f760201b62000bfe1790919060201c565b91505090565b6001600160a01b0382166200027d576040805162461bcd60e51b815260206004820152601f60248201527f45524332303a206d696e7420746f20746865207a65726f206164647265737300604482015290519081900360640190fd5b6200028b6000838362000541565b620002a781600254620003ef60201b62000b4d1790919060201c565b6002556001600160a01b03821660009081526020818152604090912054620002da91839062000b4d620003ef821b17901c565b6001600160a01b0383166000818152602081815260408083209490945583518581529351929391927fddf252ad1be2c89b69c2b068fc378daa952ba7f163c4a11628f55a4df523b3ef9281900390910190a35050565b6006546040805163eae4c19f60e01b815290516000926001600160a01b03169163eae4c19f916004808301926020929190829003018186803b1580156200037657600080fd5b505afa1580156200038b573d6000803e3d6000fd5b505050506040513d6020811015620003a257600080fd5b5051905090565b6006546040805163526575a160e11b815290516000926001600160a01b03169163a4caeb42916004808301926020929190829003018186803b1580156200037657600080fd5b6000828201838110156200044a576040805162461bcd60e51b815260206004820152601b60248201527f536166654d6174683a206164646974696f6e206f766572666c6f770000000000604482015290519081900360640190fd5b90505b92915050565b6006546040805163ef78d4fd60e01b815290516000926001600160a01b03169163ef78d4fd916004808301926020929190829003018186803b1580156200037657600080fd5b600082620004aa575060006200044d565b82820282848281620004b857fe5b04146200044a5760405162461bcd60e51b81526004018080602001828103825260218152602001806200180d6021913960400191505060405180910390fd5b60006200044a83836040518060400160405280601e81526020017f536166654d6174683a207375627472616374696f6e206f766572666c6f7700008152506200054660201b60201c565b505050565b60008184841115620005d95760405162461bcd60e51b81526004018080602001828103825283818151815260200191508051906020019080838360005b838110156200059d57818101518382015260200162000583565b50505050905090810190601f168015620005cb5780820380516001836020036101000a031916815260200191505b509250505060405180910390fd5b505050900390565b61121c80620005f16000396000f3fe608060405234801561001057600080fd5b50600436106101595760003560e01c80636c050eae116100c95780636c050eae146102c457806370a08231146102cc57806370dea79a146102f257806375f12b21146102fa5780638b4eed81146103025780638da5cb5b1461030a57806395d89b4114610312578063a2e620451461038f578063a457c2d714610397578063a4caeb42146103c3578063a9059cbb146103cb578063d4048089146103f7578063dd62ed3e146103ff578063ef78d4fd1461042d57610159565b806307da68f51461015e578063095ea7b3146101685780630b0aaf27146101a8578063107129dd146101c257806316ada547146101ca57806318160ddd146101d257806320a6703c146101da57806323b872dd14610210578063313ce56714610246578063365a86fc1461026457806339509351146102885780633b6fe91f146102b457806341c30546146102bc575b600080fd5b610166610435565b005b6101946004803603604081101561017e57600080fd5b506001600160a01b03813516906020013561045b565b604080519115158252519081900360200190f35b6101b0610472565b60408051918252519081900360200190f35b6101b061049f565b6101b06104a5565b6101b06104a9565b610194600480360360608110156101f057600080fd5b506001600160a01b038135811691602081013590911690604001356104af565b6101946004803603606081101561022657600080fd5b506001600160a01b038135811691602081013590911690604001356104db565b61024e610544565b6040805160ff9092168252519081900360200190f35b61026c610552565b604080516001600160a01b039092168252519081900360200190f35b6101946004803603604081101561029e57600080fd5b506001600160a01b038135169060200135610561565b6101b0610597565b6101b061060d565b6101b0610659565b6101b0600480360360208110156102e257600080fd5b50356001600160a01b031661078f565b6101b06107aa565b6101946107ef565b6101b0610838565b61026c61083e565b61031a61084d565b6040805160208082528351818301528351919283929083019185019080838360005b8381101561035457818101518382015260200161033c565b50505050905090810190601f1680156103815780820380516001836020036101000a031916815260200191505b509250505060405180910390f35b610166610982565b610194600480360360408110156103ad57600080fd5b506001600160a01b038135169060200135610a37565b6101b0610a86565b610194600480360360408110156103e157600080fd5b506001600160a01b038135169060200135610acb565b6101b0610ad7565b6101b06004803603604081101561041557600080fd5b506001600160a01b0381358116916020013516610add565b6101b0610b08565b6007546001600160a01b0316331461044c57600080fd5b600a805460ff19166001179055565b6000610468338484610c40565b5060015b92915050565b600061049961047f610b08565b61049361048a610597565b60055490610bfe565b90610d2c565b90505b90565b60085481565b4290565b60025490565b6006546000906001600160a01b031633146104c957600080fd5b6104d4848484610d6b565b9392505050565b60006104e8848484610d6b565b61053a843361053585604051806060016040528060288152602001611151602891396001600160a01b038a1660009081526001602090815260408083203384529091529020549190610ec6565b610c40565b5060019392505050565b600454610100900460ff1681565b6006546001600160a01b031681565b3360008181526001602090815260408083206001600160a01b038716845290915281205490916104689185906105359086610b4d565b6006546040805163eae4c19f60e01b815290516000926001600160a01b03169163eae4c19f916004808301926020929190829003018186803b1580156105dc57600080fd5b505afa1580156105f0573d6000803e3d6000fd5b505050506040513d602081101561060657600080fd5b5051905090565b60008061063f61061b610597565b61062b610631600161062b610a86565b90610b4d565b610639610b08565b90610ba5565b905061065361064c6104a5565b8290610bfe565b91505090565b60006106636107ef565b156106705750600061049c565b600554600854600954600092919083610687610472565b90505b6106926104a5565b61069c8585610b4d565b1161075a576106b56106ae8484610ba5565b8690610b4d565b94506106c18484610b4d565b93506106cb610b08565b92506106d8816001610b4d565b600654604080516361c4b42160e01b81526004810184905290519293506001600160a01b03909116916361c4b42191602480820192602092909190829003018186803b15801561072757600080fd5b505afa15801561073b573d6000803e3d6000fd5b505050506040513d602081101561075157600080fd5b5051915061068a565b600061076e856107686104a5565b90610bfe565b905061078461077d8285610ba5565b8790610b4d565b965050505050505090565b6001600160a01b031660009081526020819052604090205490565b6006546040805163386f53cd60e11b815290516000926001600160a01b0316916370dea79a916004808301926020929190829003018186803b1580156105dc57600080fd5b600a5460009060ff16156108055750600161049c565b60006108156005546107686104a5565b905061081f6107aa565b81111561083057600191505061049c565b600091505090565b60055481565b6007546001600160a01b031681565b600654604080516395d89b4160e01b815290516060926001600160a01b0316916395d89b41916004808301926000929190829003018186803b15801561089257600080fd5b505afa1580156108a6573d6000803e3d6000fd5b505050506040513d6000823e601f3d908101601f1916820160405260208110156108cf57600080fd5b8101908080516040519392919084600160201b8211156108ee57600080fd5b90830190602082018581111561090357600080fd5b8251600160201b81118282018810171561091c57600080fd5b82525081516020918201929091019080838360005b83811015610949578181015183820152602001610931565b50505050905090810190601f1680156109765780820380516001836020036101000a031916815260200191505b50604052505050905090565b600061098c610659565b90508015610a345761099c61060d565b6008556109a76104a5565b6005556006546040805163863623bb60e01b815290516001600160a01b039092169163863623bb91600480820192602092909190829003018186803b1580156109ef57600080fd5b505afa158015610a03573d6000803e3d6000fd5b505050506040513d6020811015610a1957600080fd5b5051600955600754610a34906001600160a01b031682610f5d565b50565b60006104683384610535856040518060600160405280602581526020016111c2602591393360009081526001602090815260408083206001600160a01b038d1684529091529020549190610ec6565b6006546040805163526575a160e11b815290516000926001600160a01b03169163a4caeb42916004808301926020929190829003018186803b1580156105dc57600080fd5b60006104d4838361104d565b60095481565b6001600160a01b03918216600090815260016020908152604080832093909416825291909152205490565b6006546040805163ef78d4fd60e01b815290516000926001600160a01b03169163ef78d4fd916004808301926020929190829003018186803b1580156105dc57600080fd5b6000828201838110156104d4576040805162461bcd60e51b815260206004820152601b60248201527a536166654d6174683a206164646974696f6e206f766572666c6f7760281b604482015290519081900360640190fd5b600082610bb45750600061046c565b82820282848281610bc157fe5b04146104d45760405162461bcd60e51b81526004018080602001828103825260218152602001806111306021913960400191505060405180910390fd5b60006104d483836040518060400160405280601e81526020017f536166654d6174683a207375627472616374696f6e206f766572666c6f770000815250610ec6565b6001600160a01b038316610c855760405162461bcd60e51b815260040180806020018281038252602481526020018061119e6024913960400191505060405180910390fd5b6001600160a01b038216610cca5760405162461bcd60e51b81526004018080602001828103825260228152602001806110e86022913960400191505060405180910390fd5b6001600160a01b03808416600081815260016020908152604080832094871680845294825291829020859055815185815291517f8c5be1e5ebec7d5bd14f71427d1e84f3dd0314c0f7b2291e5b200ac8c7c3b9259281900390910190a3505050565b60006104d483836040518060400160405280601a815260200179536166654d6174683a206469766973696f6e206279207a65726f60301b81525061105a565b6001600160a01b038316610db05760405162461bcd60e51b81526004018080602001828103825260258152602001806111796025913960400191505060405180910390fd5b6001600160a01b038216610df55760405162461bcd60e51b81526004018080602001828103825260238152602001806110c56023913960400191505060405180910390fd5b610e008383836110bf565b610e3d8160405180606001604052806026815260200161110a602691396001600160a01b0386166000908152602081905260409020549190610ec6565b6001600160a01b038085166000908152602081905260408082209390935590841681522054610e6c9082610b4d565b6001600160a01b038084166000818152602081815260409182902094909455805185815290519193928716927fddf252ad1be2c89b69c2b068fc378daa952ba7f163c4a11628f55a4df523b3ef92918290030190a3505050565b60008184841115610f555760405162461bcd60e51b81526004018080602001828103825283818151815260200191508051906020019080838360005b83811015610f1a578181015183820152602001610f02565b50505050905090810190601f168015610f475780820380516001836020036101000a031916815260200191505b509250505060405180910390fd5b505050900390565b6001600160a01b038216610fb8576040805162461bcd60e51b815260206004820152601f60248201527f45524332303a206d696e7420746f20746865207a65726f206164647265737300604482015290519081900360640190fd5b610fc4600083836110bf565b600254610fd19082610b4d565b6002556001600160a01b038216600090815260208190526040902054610ff79082610b4d565b6001600160a01b0383166000818152602081815260408083209490945583518581529351929391927fddf252ad1be2c89b69c2b068fc378daa952ba7f163c4a11628f55a4df523b3ef9281900390910190a35050565b6000610468338484610d6b565b600081836110a95760405162461bcd60e51b8152602060048201818152835160248401528351909283926044909101919085019080838360008315610f1a578181015183820152602001610f02565b5060008385816110b557fe5b0495945050505050565b50505056fe45524332303a207472616e7366657220746f20746865207a65726f206164647265737345524332303a20617070726f766520746f20746865207a65726f206164647265737345524332303a207472616e7366657220616d6f756e7420657863656564732062616c616e6365536166654d6174683a206d756c7469706c69636174696f6e206f766572666c6f7745524332303a207472616e7366657220616d6f756e74206578636565647320616c6c6f77616e636545524332303a207472616e736665722066726f6d20746865207a65726f206164647265737345524332303a20617070726f76652066726f6d20746865207a65726f206164647265737345524332303a2064656372656173656420616c6c6f77616e63652062656c6f77207a65726fa26469706673582212202e22c1bdd05753be276c3183b7e4cdb038dbdf9ca4958ee4c21163799f13556264736f6c63430007010033536166654d6174683a206d756c7469706c69636174696f6e206f766572666c6f77546f6b656e73206172726179206c656e677468206d75737420657175616c2073726373206172726179596f752063616e2774207369676e20757020617320616e206f7267616e697a6174696f6e207477696365596f752063616e206f6e6c792074727573742070656f706c6520616674657220796f75277665207369676e656420757021546f6b656e73206172726179206c656e677468206d75737420657175616c206465737473206172726179546f6b656e73206172726179206c656e677468206d75737420657175616c20616d6f756e7473206172726179536166654d6174683a206d756c7469706c69636174696f6e206f766572666c6f7754727573742069732062696e61727920666f72206f7267616e697a6174696f6e73506174682073656e64732066726f6d206d6f7265207468616e206f6e65207372634c696d6974206d75737420626520612070657263656e74616765206f7574206f66203130305061746820646f65736e27742073656e642066726f6d207472616e73616374696f6e2073656e6465724e6f726d616c2075736572732063616e6e6f74207369676e7570206173206f7267616e697a6174696f6e734f7267616e697a6174696f6e732063616e6e6f74207369676e7570206173206e6f726d616c207573657273556e657175616c2073656e7420616e6420726563656976656420616d6f756e7473a2646970667358221220531d5b5ffd2224ceb4764d909688b5de1ca5f9e485d903d8765ba890715c01b964736f6c63430007010033536166654d6174683a206d756c7469706c69636174696f6e206f766572666c6f77",
  "immutableReferences": {},
  "source": "// SPDX-License-Identifier: AGPL\npragma solidity ^0.7.0;\n\nimport \"@openzeppelin/contracts/math/SafeMath.sol\";\nimport \"./Token.sol\";\n\ncontract Hub {\n    using SafeMath for uint256;\n\n    uint256 public inflation; // the inflation rate expressed as 1 + percentage inflation, aka 7% inflation is 107\n    uint256 public divisor; // the largest power of 10 the inflation rate can be divided by\n    uint256 public period; // the amount of sections between inflation steps\n    string public symbol;\n    uint256 public signupBonus; // a one-time payout made immediately on signup\n    uint256 public initialIssuance; // the starting payout per second, this gets inflated by the inflation rate\n    uint256 public deployedAt; // the timestamp this contract was deployed at\n    uint256 public timeout; // longest a token can go without a ubi payout before it gets deactivated\n\n    mapping (address => Token) public userToToken;\n    mapping (address => address) public tokenToUser;\n    mapping (address => bool) public organizations;\n    mapping (address => mapping (address => uint256)) public limits;\n\n    event Signup(address indexed user, address token);\n    event OrganizationSignup(address indexed organization);\n    event Trust(address indexed canSendTo, address indexed user, uint256 limit);\n    event HubTransfer(address indexed from, address indexed to, uint256 amount);\n\n    // some data types used for validating transitive transfers\n    struct transferValidator {\n        bool seen;\n        uint256 sent;\n        uint256 received;\n    }\n    mapping (address => transferValidator) public validation;\n    address[] public seen;\n\n    constructor(\n        uint256 _inflation,\n        uint256 _period,\n        string memory _symbol,\n        uint256 _signupBonus,\n        uint256 _initialIssuance,\n        uint256 _timeout\n    ) {\n        inflation = _inflation;\n        divisor = findDivisor(_inflation);\n        period = _period;\n        symbol = _symbol;\n        signupBonus = _signupBonus;\n        initialIssuance = _initialIssuance;\n        deployedAt = block.timestamp;\n        timeout = _timeout;\n    }\n\n    /// @notice calculates the correct divisor for the given inflation rate\n    /// @dev the divisor is used to maintain precision when doing math with percentages\n    /// @param _inf the inflation rate\n    /// @return the largest power of ten the inflation rate can be divided by\n    function findDivisor(uint256 _inf) internal pure returns (uint256) {\n        uint256 iter = 0;\n        while (_inf.div(pow(10, iter)) > 9) {\n            iter += 1;\n        }\n        return pow(10, iter);\n    }\n\n    /// @notice helper function for finding the amount of inflation periods since this hub was deployed\n    /// @return the amount of periods since hub was deployed\n    function periods() public view returns (uint256) {\n        return (block.timestamp.sub(deployedAt)).div(period);\n    }\n\n    /// @notice calculates the current issuance rate per second\n    /// @dev current issuance is the initial issuance inflated by the amount of inflation periods since the hub was deployed\n    /// @return current issuance rate\n    function issuance() public view returns (uint256) {\n        return inflate(initialIssuance, periods());\n    }\n\n    /// @notice finds the inflation rate at a given inflation period\n    /// @param _periods the step to calculate the issuance rate at\n    /// @return inflation rate as of the given period\n    function issuanceByStep(uint256 _periods) public view returns (uint256) {\n        return inflate(initialIssuance, _periods);\n    }\n\n    /// @notice find the current issuance rate for any initial issuance and amount of periods\n    /// @dev this is basically the calculation for compound interest, with some adjustments because of integer math\n    /// @param _initial the starting issuance rate\n    /// @param _periods the step to calculate the issuance rate as of\n    /// @return initial issuance rate as if interest (inflation) has been compounded period times\n    function inflate(uint256 _initial, uint256 _periods) public view returns (uint256) {\n        // this returns P * (1 + r) ** t - which is a the formula for compound interest if \n        // interest is compounded only once per period\n        // in our case, currentIssuanceRate = initialIssuance * (inflation) ** periods\n        uint256 q = pow(inflation, _periods);\n        uint256 d = pow(divisor, _periods);\n        return (_initial.mul(q)).div(d);\n    }\n\n    /// @notice helper function to return the block timestamp\n    /// @return the block timestamp\n    function time() public view returns (uint256) { return block.timestamp; }\n\n    /// @notice signup to this circles hub - create a circles token and join the trust graph\n    /// @dev signup is permanent, there's no way to unsignup\n    function signup() public {\n        // signup can only be called once\n        require(address(userToToken[msg.sender]) == address(0), \"You can't sign up twice\");\n        // organizations cannot sign up for a token\n        require(organizations[msg.sender] == false, \"Organizations cannot signup as normal users\");\n\n        Token token = new Token(msg.sender);\n        userToToken[msg.sender] = token;\n        tokenToUser[address(token)] = msg.sender;\n        // every user must trust themselves with a weight of 100\n        // this is so that all users accept their own token at all times\n        _trust(msg.sender, 100);\n\n        emit Signup(msg.sender, address(token));\n    }\n\n    /// @notice register an organization address with the hub and join the trust graph\n    /// @dev signup is permanent for organizations too, there's no way to unsignup\n    function organizationSignup() public {\n        // can't register as an organization if you have a token\n        require(address(userToToken[msg.sender]) == address(0), \"Normal users cannot signup as organizations\");\n        // can't register as an organization twice\n        require(organizations[msg.sender] == false, \"You can't sign up as an organization twice\");\n\n        organizations[msg.sender] = true;\n\n        emit OrganizationSignup(msg.sender);\n    }\n\n    /// @notice trust a user, calling this means you're able to receive tokens from this user transitively\n    /// @dev the trust graph is weighted and directed\n    /// @param user the user to be trusted\n    /// @param limit the amount this user is trusted, as a percentage of 100\n    function trust(address user, uint limit) public {\n        // only users who have signed up as tokens or organizations can enter the trust graph\n        require(address(userToToken[msg.sender]) != address(0) || organizations[msg.sender], \"You can only trust people after you've signed up!\");\n        // you must continue to trust yourself 100%\n        require(msg.sender != user, \"You can't untrust yourself\");\n        // organizations can't receive trust since they don't have their own token (ie. there's nothing to trust)\n        require(organizations[user] == false, \"You can't trust an organization\");\n        // must a percentage\n        require(limit <= 100, \"Limit must be a percentage out of 100\");\n        // organizations don't have a token to base send limits off of, so they can only trust at rates 0 or 100\n        if (organizations[msg.sender]) {\n            require(limit == 0 || limit == 100, \"Trust is binary for organizations\");\n        }\n        _trust(user, limit);\n    }\n\n    /// @dev used internally in both the trust function and signup\n    /// @param user the user to be trusted\n    /// @param limit the amount this user is trusted, as a percentage of 100\n    function _trust(address user, uint limit) internal {\n        limits[msg.sender][user] = limit;\n        emit Trust(msg.sender, user, limit);\n    }\n\n    /// @dev this is an implementation of exponentiation by squares\n    /// @param base the base to be used in the calculation\n    /// @param exponent the exponent to be used in the calculation\n    /// @return the result of the calculation\n    function pow(uint256 base, uint256 exponent) public pure returns (uint256) {\n        if (base == 0) {\n            return 0;\n        }\n        if (exponent == 0) {\n            return 1;\n        }\n        if (exponent == 1) {\n            return base;\n        }\n        uint256 y = 1;\n        while(exponent > 1) {\n            if(exponent.mod(2) == 0) {\n                base = base.mul(base);\n                exponent = exponent.div(2);\n            } else {\n                y = base.mul(y);\n                base = base.mul(base);\n                exponent = (exponent.sub(1)).div(2);\n            }\n        }\n        return base.mul(y);\n    }\n\n    /// @notice finds the maximum amount of a specific token that can be sent between two users\n    /// @dev the goal of this function is to always return a sensible number, it's used to validate transfer throughs, and also heavily in the graph/pathfinding services\n    /// @param tokenOwner the safe/owner that the token was minted to\n    /// @param src the sender of the tokens\n    /// @param dest the recipient of the tokens\n    /// @return the amount of tokenowner's token src can send to dest\n    function checkSendLimit(address tokenOwner, address src, address dest) public view returns (uint256) {\n\n        // there is no trust\n        if (limits[dest][tokenOwner] == 0) {\n            return 0;\n        }\n\n        // if dest hasn't signed up, they cannot trust anyone\n        if (address(userToToken[dest]) == address(0) && !organizations[dest] ) {\n            return 0;\n        }\n\n        //if the token doesn't exist, it can't be sent/accepted\n        if (address(userToToken[tokenOwner]) == address(0)) {\n             return 0;\n        }\n\n        uint256 srcBalance = userToToken[tokenOwner].balanceOf(src);\n\n        // if sending dest's token to dest, src can send 100% of their holdings\n        // for organizations, trust is binary - if trust is not 0, src can send 100% of their holdings\n        if (tokenOwner == dest || organizations[dest]) {\n            return srcBalance;\n        }\n\n        // find the amount dest already has of the token that's being sent\n        uint256 destBalance = userToToken[tokenOwner].balanceOf(dest);\n        \n        // find the maximum possible amount based on dest's trust limit for this token\n        uint256 max = (userToToken[dest].totalSupply().mul(limits[dest][tokenOwner])).div(100);\n        \n        // if trustLimit has already been overriden by a direct transfer, nothing more can be sent\n        if (max < destBalance) return 0;\n        \n        // return the max amount dest is willing to hold minus the amount they already have\n        return max.sub(destBalance);\n    }\n\n    /// @dev builds the validation data structures, called for each transaction step of a transtive transactions\n    /// @param src the sender of a single transaction step\n    /// @param dest the recipient of a single transaction step\n    /// @param wad the amount being passed along a single transaction step\n    function buildValidationData(address src, address dest, uint wad) internal {\n        // the validation mapping has this format\n        // { address: {\n        //     seen: whether this user is part of the transaction,\n        //     sent: total amount sent by this user,\n        //     received: total amount received by this user,\n        //    }\n        // }\n        if (validation[src].seen != false) {\n            // if we have seen the addresses, increment their sent amounts\n            validation[src].sent = validation[src].sent.add(wad);\n        } else {\n            // if we haven't, add them to the validation mapping\n            validation[src].seen = true;\n            validation[src].sent = wad;\n            seen.push(src);\n        }\n        if (validation[dest].seen != false) {\n            // if we have seen the addresses, increment their sent amounts\n            validation[dest].received = validation[dest].received.add(wad);\n        } else {\n            // if we haven't, add them to the validation mapping\n            validation[dest].seen = true;\n            validation[dest].received = wad; \n            seen.push(dest);   \n        }\n    }\n\n    /// @dev performs the validation for an attempted transitive transfer\n    /// @param steps the number of steps in the transitive transaction\n    function validateTransferThrough(uint256 steps) internal {\n        // a valid path has only one real sender and receiver\n        address src;\n        address dest;\n        // iterate through the array of all the addresses that were part of the transaction data\n        for (uint i = 0; i < seen.length; i++) {\n            transferValidator memory curr = validation[seen[i]];\n            // if the address sent more than they received, they are the sender\n            if (curr.sent > curr.received) {\n                // if we've already found a sender, transaction is invalid\n                require(src == address(0), \"Path sends from more than one src\");\n                // the real token sender must also be the transaction sender\n                require(seen[i] == msg.sender, \"Path doesn't send from transaction sender\");\n                src = seen[i];\n            }\n            // if the address received more than they sent, they are the recipient\n            if (curr.received > curr.sent) {\n                // if we've already found a recipient, transaction is invalid\n                require(dest == address(0), \"Path sends to more than one dest\");\n                dest = seen[i];\n            }\n        }\n        // a valid path has both a sender and a recipient\n        require(src != address(0), \"Transaction must have a src\");\n        require(dest != address(0), \"Transaction must have a dest\");\n        // sender should not recieve, recipient should not send\n        require(validation[src].received == 0, \"Sender is receiving\");\n        require(validation[dest].sent == 0, \"Recipient is sending\");\n        // the total amounts sent and received by sender and recipient should match\n        require(validation[src].sent == validation[dest].received, \"Unequal sent and received amounts\");\n        // the maximum amount of addresses we should see is one more than steps in the path\n        require(seen.length <= steps + 1, \"Seen too many addresses\");\n        emit HubTransfer(src, dest, validation[src].sent);\n        // clean up the validation datastructures\n        for (uint i = seen.length; i >= 1; i--) {\n            delete validation[seen[i-1]];\n        }\n        delete seen;\n        // sanity check that we cleaned everything up correctly\n        require(seen.length == 0, \"Seen should be empty\");\n    }\n\n    /// @notice walks through tokenOwners, srcs, dests, and amounts array and executes transtive transfer\n    /// @dev tokenOwners[0], srcs[0], dests[0], and wads[0] constitute a transaction step\n    /// @param tokenOwners the owner of the tokens being sent in each transaction step\n    /// @param srcs the sender of each transaction step\n    /// @param dests the recipient of each transaction step\n    /// @param wads the amount for each transaction step\n    function transferThrough(\n        address[] memory tokenOwners,\n        address[] memory srcs,\n        address[] memory dests,\n        uint[] memory wads\n    ) public {\n        // all the arrays must be the same length\n        require(dests.length == tokenOwners.length, \"Tokens array length must equal dests array\");\n        require(srcs.length == tokenOwners.length, \"Tokens array length must equal srcs array\");\n        require(wads.length == tokenOwners.length, \"Tokens array length must equal amounts array\");\n        for (uint i = 0; i < srcs.length; i++) {\n            address src = srcs[i];\n            address dest = dests[i];\n            address token = tokenOwners[i];\n            uint256 wad = wads[i];\n            \n            // check that no trust limits are violated\n            uint256 max = checkSendLimit(token, src, dest);\n            require(wad <= max, \"Trust limit exceeded\");\n\n            buildValidationData(src, dest, wad);\n            \n            // go ahead and do the transfers now so that we don't have to walk through this array again\n            userToToken[token].hubTransfer(src, dest, wad);\n        }\n        // this will revert if there are any problems found\n        validateTransferThrough(srcs.length);\n    }\n}\n\n",
  "sourcePath": "/media/000/Documents/Circles/circles-contracts/contracts/Hub.sol",
  "compiler": {
    "name": "solc",
    "version": "0.7.1+commit.f4a555be.Emscripten.clang"
  },
  "schemaVersion": "3.2.3",
  "updatedAt": "2020-10-14T13:42:13.116Z",
  "devdoc": {
    "kind": "dev",
    "methods": {
      "checkSendLimit(address,address,address)": {
        "details": "the goal of this function is to always return a sensible number, it's used to validate transfer throughs, and also heavily in the graph/pathfinding services",
        "params": {
          "dest": "the recipient of the tokens",
          "src": "the sender of the tokens",
          "tokenOwner": "the safe/owner that the token was minted to"
        },
        "returns": {
          "_0": "the amount of tokenowner's token src can send to dest"
        }
      },
      "inflate(uint256,uint256)": {
        "details": "this is basically the calculation for compound interest, with some adjustments because of integer math",
        "params": {
          "_initial": "the starting issuance rate",
          "_periods": "the step to calculate the issuance rate as of"
        },
        "returns": {
          "_0": "initial issuance rate as if interest (inflation) has been compounded period times"
        }
      },
      "issuance()": {
        "details": "current issuance is the initial issuance inflated by the amount of inflation periods since the hub was deployed",
        "returns": {
          "_0": "current issuance rate"
        }
      },
      "issuanceByStep(uint256)": {
        "params": {
          "_periods": "the step to calculate the issuance rate at"
        },
        "returns": {
          "_0": "inflation rate as of the given period"
        }
      },
      "organizationSignup()": {
        "details": "signup is permanent for organizations too, there's no way to unsignup"
      },
      "periods()": {
        "returns": {
          "_0": "the amount of periods since hub was deployed"
        }
      },
      "pow(uint256,uint256)": {
        "details": "this is an implementation of exponentiation by squares",
        "params": {
          "base": "the base to be used in the calculation",
          "exponent": "the exponent to be used in the calculation"
        },
        "returns": {
          "_0": "the result of the calculation"
        }
      },
      "signup()": {
        "details": "signup is permanent, there's no way to unsignup"
      },
      "time()": {
        "returns": {
          "_0": "the block timestamp"
        }
      },
      "transferThrough(address[],address[],address[],uint256[])": {
        "details": "tokenOwners[0], srcs[0], dests[0], and wads[0] constitute a transaction step",
        "params": {
          "dests": "the recipient of each transaction step",
          "srcs": "the sender of each transaction step",
          "tokenOwners": "the owner of the tokens being sent in each transaction step",
          "wads": "the amount for each transaction step"
        }
      },
      "trust(address,uint256)": {
        "details": "the trust graph is weighted and directed",
        "params": {
          "limit": "the amount this user is trusted, as a percentage of 100",
          "user": "the user to be trusted"
        }
      }
    },
    "version": 1
  },
  "userdoc": {
    "kind": "user",
    "methods": {
      "checkSendLimit(address,address,address)": {
        "notice": "finds the maximum amount of a specific token that can be sent between two users"
      },
      "inflate(uint256,uint256)": {
        "notice": "find the current issuance rate for any initial issuance and amount of periods"
      },
      "issuance()": {
        "notice": "calculates the current issuance rate per second"
      },
      "issuanceByStep(uint256)": {
        "notice": "finds the inflation rate at a given inflation period"
      },
      "organizationSignup()": {
        "notice": "register an organization address with the hub and join the trust graph"
      },
      "periods()": {
        "notice": "helper function for finding the amount of inflation periods since this hub was deployed"
      },
      "signup()": {
        "notice": "signup to this circles hub - create a circles token and join the trust graph"
      },
      "time()": {
        "notice": "helper function to return the block timestamp"
      },
      "transferThrough(address[],address[],address[],uint256[])": {
        "notice": "walks through tokenOwners, srcs, dests, and amounts array and executes transtive transfer"
      },
      "trust(address,uint256)": {
        "notice": "trust a user, calling this means you're able to receive tokens from this user transitively"
      }
    },
    "version": 1
  }
}