{
  "contractName": "Hub",
  "abi": [
    {
      "inputs": [
        {
          "internalType": "uint256",
          "name": "_inflation",
          "type": "uint256"
        },
        {
          "internalType": "uint256",
          "name": "_period",
          "type": "uint256"
        },
        {
          "internalType": "string",
          "name": "_symbol",
          "type": "string"
        },
        {
          "internalType": "uint256",
          "name": "_signupBonus",
          "type": "uint256"
        },
        {
          "internalType": "uint256",
          "name": "_initialIssuance",
          "type": "uint256"
        },
        {
          "internalType": "uint256",
          "name": "_timeout",
          "type": "uint256"
        }
      ],
      "stateMutability": "nonpayable",
      "type": "constructor"
    },
    {
      "anonymous": false,
      "inputs": [
        {
          "indexed": true,
          "internalType": "address",
          "name": "from",
          "type": "address"
        },
        {
          "indexed": true,
          "internalType": "address",
          "name": "to",
          "type": "address"
        },
        {
          "indexed": false,
          "internalType": "uint256",
          "name": "amount",
          "type": "uint256"
        }
      ],
      "name": "HubTransfer",
      "type": "event"
    },
    {
      "anonymous": false,
      "inputs": [
        {
          "indexed": true,
          "internalType": "address",
          "name": "organization",
          "type": "address"
        }
      ],
      "name": "OrganizationSignup",
      "type": "event"
    },
    {
      "anonymous": false,
      "inputs": [
        {
          "indexed": true,
          "internalType": "address",
          "name": "user",
          "type": "address"
        },
        {
          "indexed": false,
          "internalType": "address",
          "name": "token",
          "type": "address"
        }
      ],
      "name": "Signup",
      "type": "event"
    },
    {
      "anonymous": false,
      "inputs": [
        {
          "indexed": true,
          "internalType": "address",
          "name": "canSendTo",
          "type": "address"
        },
        {
          "indexed": true,
          "internalType": "address",
          "name": "user",
          "type": "address"
        },
        {
          "indexed": false,
          "internalType": "uint256",
          "name": "limit",
          "type": "uint256"
        }
      ],
      "name": "Trust",
      "type": "event"
    },
    {
      "inputs": [],
      "name": "deployedAt",
      "outputs": [
        {
          "internalType": "uint256",
          "name": "",
          "type": "uint256"
        }
      ],
      "stateMutability": "view",
      "type": "function"
    },
    {
      "inputs": [],
      "name": "divisor",
      "outputs": [
        {
          "internalType": "uint256",
          "name": "",
          "type": "uint256"
        }
      ],
      "stateMutability": "view",
      "type": "function"
    },
    {
      "inputs": [],
      "name": "inflation",
      "outputs": [
        {
          "internalType": "uint256",
          "name": "",
          "type": "uint256"
        }
      ],
      "stateMutability": "view",
      "type": "function"
    },
    {
      "inputs": [],
      "name": "initialIssuance",
      "outputs": [
        {
          "internalType": "uint256",
          "name": "",
          "type": "uint256"
        }
      ],
      "stateMutability": "view",
      "type": "function"
    },
    {
      "inputs": [
        {
          "internalType": "address",
          "name": "",
          "type": "address"
        },
        {
          "internalType": "address",
          "name": "",
          "type": "address"
        }
      ],
      "name": "limits",
      "outputs": [
        {
          "internalType": "uint256",
          "name": "",
          "type": "uint256"
        }
      ],
      "stateMutability": "view",
      "type": "function"
    },
    {
      "inputs": [
        {
          "internalType": "address",
          "name": "",
          "type": "address"
        }
      ],
      "name": "organizations",
      "outputs": [
        {
          "internalType": "bool",
          "name": "",
          "type": "bool"
        }
      ],
      "stateMutability": "view",
      "type": "function"
    },
    {
      "inputs": [],
      "name": "period",
      "outputs": [
        {
          "internalType": "uint256",
          "name": "",
          "type": "uint256"
        }
      ],
      "stateMutability": "view",
      "type": "function"
    },
    {
      "inputs": [
        {
          "internalType": "uint256",
          "name": "",
          "type": "uint256"
        }
      ],
      "name": "seen",
      "outputs": [
        {
          "internalType": "address",
          "name": "",
          "type": "address"
        }
      ],
      "stateMutability": "view",
      "type": "function"
    },
    {
      "inputs": [],
      "name": "signupBonus",
      "outputs": [
        {
          "internalType": "uint256",
          "name": "",
          "type": "uint256"
        }
      ],
      "stateMutability": "view",
      "type": "function"
    },
    {
      "inputs": [],
      "name": "symbol",
      "outputs": [
        {
          "internalType": "string",
          "name": "",
          "type": "string"
        }
      ],
      "stateMutability": "view",
      "type": "function"
    },
    {
      "inputs": [],
      "name": "timeout",
      "outputs": [
        {
          "internalType": "uint256",
          "name": "",
          "type": "uint256"
        }
      ],
      "stateMutability": "view",
      "type": "function"
    },
    {
      "inputs": [
        {
          "internalType": "address",
          "name": "",
          "type": "address"
        }
      ],
      "name": "tokenToUser",
      "outputs": [
        {
          "internalType": "address",
          "name": "",
          "type": "address"
        }
      ],
      "stateMutability": "view",
      "type": "function"
    },
    {
      "inputs": [
        {
          "internalType": "address",
          "name": "",
          "type": "address"
        }
      ],
      "name": "userToToken",
      "outputs": [
        {
          "internalType": "contract Token",
          "name": "",
          "type": "address"
        }
      ],
      "stateMutability": "view",
      "type": "function"
    },
    {
      "inputs": [
        {
          "internalType": "address",
          "name": "",
          "type": "address"
        }
      ],
      "name": "validation",
      "outputs": [
        {
          "internalType": "address",
          "name": "identity",
          "type": "address"
        },
        {
          "internalType": "uint256",
          "name": "sent",
          "type": "uint256"
        },
        {
          "internalType": "uint256",
          "name": "received",
          "type": "uint256"
        }
      ],
      "stateMutability": "view",
      "type": "function"
    },
    {
      "inputs": [],
      "name": "periods",
      "outputs": [
        {
          "internalType": "uint256",
          "name": "",
          "type": "uint256"
        }
      ],
      "stateMutability": "view",
      "type": "function"
    },
    {
      "inputs": [],
      "name": "issuance",
      "outputs": [
        {
          "internalType": "uint256",
          "name": "",
          "type": "uint256"
        }
      ],
      "stateMutability": "view",
      "type": "function"
    },
    {
      "inputs": [
        {
          "internalType": "uint256",
          "name": "_periods",
          "type": "uint256"
        }
      ],
      "name": "issuanceByStep",
      "outputs": [
        {
          "internalType": "uint256",
          "name": "",
          "type": "uint256"
        }
      ],
      "stateMutability": "view",
      "type": "function"
    },
    {
      "inputs": [
        {
          "internalType": "uint256",
          "name": "_initial",
          "type": "uint256"
        },
        {
          "internalType": "uint256",
          "name": "_periods",
          "type": "uint256"
        }
      ],
      "name": "inflate",
      "outputs": [
        {
          "internalType": "uint256",
          "name": "",
          "type": "uint256"
        }
      ],
      "stateMutability": "view",
      "type": "function"
    },
    {
      "inputs": [],
      "name": "time",
      "outputs": [
        {
          "internalType": "uint256",
          "name": "",
          "type": "uint256"
        }
      ],
      "stateMutability": "view",
      "type": "function"
    },
    {
      "inputs": [],
      "name": "signup",
      "outputs": [],
      "stateMutability": "nonpayable",
      "type": "function"
    },
    {
      "inputs": [],
      "name": "organizationSignup",
      "outputs": [],
      "stateMutability": "nonpayable",
      "type": "function"
    },
    {
      "inputs": [
        {
          "internalType": "address",
          "name": "user",
          "type": "address"
        },
        {
          "internalType": "uint256",
          "name": "limit",
          "type": "uint256"
        }
      ],
      "name": "trust",
      "outputs": [],
      "stateMutability": "nonpayable",
      "type": "function"
    },
    {
      "inputs": [
        {
          "internalType": "uint256",
          "name": "base",
          "type": "uint256"
        },
        {
          "internalType": "uint256",
          "name": "exponent",
          "type": "uint256"
        }
      ],
      "name": "pow",
      "outputs": [
        {
          "internalType": "uint256",
          "name": "",
          "type": "uint256"
        }
      ],
      "stateMutability": "pure",
      "type": "function"
    },
    {
      "inputs": [
        {
          "internalType": "address",
          "name": "tokenOwner",
          "type": "address"
        },
        {
          "internalType": "address",
          "name": "src",
          "type": "address"
        },
        {
          "internalType": "address",
          "name": "dest",
          "type": "address"
        }
      ],
      "name": "checkSendLimit",
      "outputs": [
        {
          "internalType": "uint256",
          "name": "",
          "type": "uint256"
        }
      ],
      "stateMutability": "view",
      "type": "function"
    },
    {
      "inputs": [
        {
          "internalType": "address[]",
          "name": "tokenOwners",
          "type": "address[]"
        },
        {
          "internalType": "address[]",
          "name": "srcs",
          "type": "address[]"
        },
        {
          "internalType": "address[]",
          "name": "dests",
          "type": "address[]"
        },
        {
          "internalType": "uint256[]",
          "name": "wads",
          "type": "uint256[]"
        }
      ],
      "name": "transferThrough",
      "outputs": [],
      "stateMutability": "nonpayable",
      "type": "function"
    }
  ],
  "bytecode": "0x60806040523480156200001157600080fd5b5060405162003e0538038062003e05833981810160405260c08110156200003757600080fd5b815160208301516040808501805191519395929483019291846401000000008211156200006357600080fd5b9083019060208201858111156200007957600080fd5b82516401000000008111828201881017156200009457600080fd5b82525081516020918201929091019080838360005b83811015620000c3578181015183820152602001620000a9565b50505050905090810190601f168015620000f15780820380516001836020036101000a031916815260200191505b50604090815260208201519082015160609092015160008890559093509091506200011c8662000154565b600155600285905583516200013990600390602087019062000582565b5060049290925560055542600655600755506200061e915050565b6000805b6009620001806200016b600a84620001a4565b85620002dc60201b6200128b1790919060201c565b1115620001905760010162000158565b6200019d600a82620001a4565b9392505050565b600082620001b557506000620002d6565b81620001c457506001620002d6565b8160011415620001d6575081620002d6565b60015b6001831115620002b857620001fe6002846200032660201b620012cc1790919060201c565b62000242576200021d84856200037060201b6200130b1790919060201c565b93506200023a600284620002dc60201b6200128b1790919060201c565b9250620002b2565b6200025c81856200037060201b6200130b1790919060201c565b90506200027884856200037060201b6200130b1790919060201c565b9350620002af60026200029b600186620003ce60201b620013691790919060201c565b620002dc60201b6200128b1790919060201c565b92505b620001d9565b620002d281856200037060201b6200130b1790919060201c565b9150505b92915050565b60006200019d83836040518060400160405280601a81526020017f536166654d6174683a206469766973696f6e206279207a65726f0000000000008152506200041860201b60201c565b60006200019d83836040518060400160405280601881526020017f536166654d6174683a206d6f64756c6f206279207a65726f0000000000000000815250620004bf60201b60201c565b6000826200038157506000620002d6565b828202828482816200038f57fe5b04146200019d5760405162461bcd60e51b815260040180806020018281038252602181526020018062003de46021913960400191505060405180910390fd5b60006200019d83836040518060400160405280601e81526020017f536166654d6174683a207375627472616374696f6e206f766572666c6f7700008152506200052560201b60201c565b60008183620004a85760405162461bcd60e51b81526004018080602001828103825283818151815260200191508051906020019080838360005b838110156200046c57818101518382015260200162000452565b50505050905090810190601f1680156200049a5780820380516001836020036101000a031916815260200191505b509250505060405180910390fd5b506000838581620004b557fe5b0495945050505050565b60008183620005115760405162461bcd60e51b81526020600482018181528351602484015283519092839260449091019190850190808383600083156200046c57818101518382015260200162000452565b508284816200051c57fe5b06949350505050565b600081848411156200057a5760405162461bcd60e51b81526020600482018181528351602484015283519092839260449091019190850190808383600083156200046c57818101518382015260200162000452565b505050900390565b828054600181600116156101000203166002900490600052602060002090601f016020900481019282601f10620005c557805160ff1916838001178555620005f5565b82800160010185558215620005f5579182015b82811115620005f5578251825591602001919060010190620005d8565b506200060392915062000607565b5090565b5b8082111562000603576000815560010162000608565b6137b6806200062e6000396000f3fe60806040523480156200001157600080fd5b5060043610620001605760003560e01c8063863623bb11620000cf578063863623bb146200030a5780638a0ef184146200031457806395d89b41146200034f5780639951d62f14620003d1578063a18b506b1462000400578063a3eb2b4a1462000429578063a4caeb42146200045a578063b7bc0f731462000464578063be0522e0146200046e578063d62fd9a21462000478578063eae4c19f14620006ae578063ef78d4fd14620006b8578063fc22a9f814620006c25762000160565b806316ada54714620001655780631f2dc5ef146200018157806328d249fe146200018b5780632a93834214620001d05780632e4c697f14620001f65780633fbd653c146200021c5780635a1f7406146200022857806361c4b421146200026557806367cb52d8146200028557806370dea79a146200028f57806377ed63c214620002995780637f501d0414620002ea575b600080fd5b6200016f620006cc565b60408051918252519081900360200190f35b6200016f620006d0565b620001b460048036036020811015620001a357600080fd5b50356001600160a01b0316620006d6565b604080516001600160a01b039092168252519081900360200190f35b6200016f60048036036040811015620001e857600080fd5b5080359060200135620006f1565b6200016f600480360360408110156200020e57600080fd5b508035906020013562000739565b62000226620007f9565b005b62000251600480360360208110156200024057600080fd5b50356001600160a01b03166200086b565b604080519115158252519081900360200190f35b6200016f600480360360208110156200027d57600080fd5b503562000880565b6200016f62000890565b6200016f62000896565b620002c260048036036020811015620002b157600080fd5b50356001600160a01b03166200089c565b604080516001600160a01b039094168452602084019290925282820152519081900360600190f35b620001b4600480360360208110156200030257600080fd5b5035620008c7565b6200016f620008ef565b6200016f600480360360608110156200032c57600080fd5b506001600160a01b0381358116916020810135821691604090910135166200090d565b6200035962000bf1565b6040805160208082528351818301528351919283929083019185019080838360005b83811015620003955781810151838201526020016200037b565b50505050905090810190601f168015620003c35780820380516001836020036101000a031916815260200191505b509250505060405180910390f35b6200022660048036036040811015620003e957600080fd5b506001600160a01b03813516906020013562000c83565b620001b4600480360360208110156200041857600080fd5b50356001600160a01b031662000e13565b6200016f600480360360408110156200044157600080fd5b506001600160a01b038135811691602001351662000e2e565b6200016f62000e4b565b6200022662000e6b565b6200016f62000f64565b62000226600480360360808110156200049057600080fd5b810190602081018135600160201b811115620004ab57600080fd5b820183602082011115620004be57600080fd5b803590602001918460208302840111600160201b83111715620004e057600080fd5b9190808060200260200160405190810160405280939291908181526020018383602002808284376000920191909152509295949360208101935035915050600160201b8111156200053057600080fd5b8201836020820111156200054357600080fd5b803590602001918460208302840111600160201b831117156200056557600080fd5b9190808060200260200160405190810160405280939291908181526020018383602002808284376000920191909152509295949360208101935035915050600160201b811115620005b557600080fd5b820183602082011115620005c857600080fd5b803590602001918460208302840111600160201b83111715620005ea57600080fd5b9190808060200260200160405190810160405280939291908181526020018383602002808284376000920191909152509295949360208101935035915050600160201b8111156200063a57600080fd5b8201836020820111156200064d57600080fd5b803590602001918460208302840111600160201b831117156200066f57600080fd5b91908080602002602001604051908101604052809392919081815260200183836020028082843760009201919091525092955062000f6a945050505050565b6200016f62001279565b6200016f6200127f565b6200016f62001285565b4290565b60015481565b6008602052600090815260409020546001600160a01b031681565b600080620007026000548462000739565b90506000620007146001548562000739565b90506200072e816200072787856200130b565b906200128b565b925050505b92915050565b6000826200074a5750600062000733565b81620007595750600162000733565b81600114156200076b57508162000733565b60015b6001831115620007e55762000785836002620012cc565b620007ad576200079684806200130b565b9350620007a58360026200128b565b9250620007df565b620007b984826200130b565b9050620007c784806200130b565b9350620007dc60026200072785600162001369565b92505b6200076e565b620007f184826200130b565b949350505050565b336000908152600a602052604090205460ff16156200081757600080fd5b336000818152600a60205260409020805460ff191660011790556200083e906064620013ad565b60405133907fb0b94cff8b84fc67513b977d68a5cdd67550bd9b8d99a34b570e3367b784378690600090a2565b600a6020526000908152604090205460ff1681565b60006200073360055483620006f1565b60045481565b60075481565b600c602052600090815260409020805460018201546002909201546001600160a01b03909116919083565b600d8181548110620008d557fe5b6000918252602090912001546001600160a01b0316905081565b6000620009086005546200090262000e4b565b620006f1565b905090565b6001600160a01b038082166000908152600b60209081526040808320938716835292905290812054620009435750600062000bea565b6001600160a01b03828116600090815260086020526040902054161580156200098557506001600160a01b0382166000908152600a602052604090205460ff16155b15620009945750600062000bea565b6001600160a01b0384811660009081526008602052604090205416620009bd5750600062000bea565b6001600160a01b0380851660009081526008602090815260408083205481516370a0823160e01b815288861660048201529151939416926370a0823192602480840193919291829003018186803b15801562000a1857600080fd5b505afa15801562000a2d573d6000803e3d6000fd5b505050506040513d602081101562000a4457600080fd5b505190506001600160a01b03858116908416148062000a7b57506001600160a01b0383166000908152600a602052604090205460ff165b1562000a8957905062000bea565b6001600160a01b0380861660009081526008602090815260408083205481516370a0823160e01b815288861660048201529151939416926370a0823192602480840193919291829003018186803b15801562000ae457600080fd5b505afa15801562000af9573d6000803e3d6000fd5b505050506040513d602081101562000b1057600080fd5b50516001600160a01b038086166000818152600b602090815260408083208c86168452825280832054938352600882528083205481516318160ddd60e01b81529151969750929562000bc095606495620007279590949116926318160ddd9260048083019392829003018186803b15801562000b8b57600080fd5b505afa15801562000ba0573d6000803e3d6000fd5b505050506040513d602081101562000bb757600080fd5b5051906200130b565b90508181101562000bd8576000935050505062000bea565b62000be4818362001369565b93505050505b9392505050565b6003805460408051602060026001851615610100026000190190941693909304601f8101849004840282018401909252818152929183018282801562000c7b5780601f1062000c4f5761010080835404028352916020019162000c7b565b820191906000526020600020905b81548152906001019060200180831162000c5d57829003601f168201915b505050505081565b336000908152600860205260409020546001600160a01b031615158062000cb95750336000908152600a602052604090205460ff165b62000cf65760405162461bcd60e51b8152600401808060200182810382526031815260200180620036496031913960400191505060405180910390fd5b336001600160a01b038316141562000d52576040805162461bcd60e51b815260206004820152601a6024820152792cb7ba9031b0b713ba103ab73a393ab9ba103cb7bab939b2b63360311b604482015290519081900360640190fd5b6001600160a01b0382166000908152600a602052604090205460ff161562000dc1576040805162461bcd60e51b815260206004820152601f60248201527f596f752063616e277420747275737420616e206f7267616e697a6174696f6e00604482015290519081900360640190fd5b606481111562000e035760405162461bcd60e51b8152600401808060200182810382526025815260200180620037126025913960400191505060405180910390fd5b62000e0f8282620013ad565b5050565b6009602052600090815260409020546001600160a01b031681565b600b60209081526000928352604080842090915290825290205481565b60006200090860025462000727600654426200136990919063ffffffff16565b336000908152600860205260409020546001600160a01b03161562000e8f57600080fd5b60003360405162000ea09062001d22565b6001600160a01b03909116815260405190819003602001906000f08015801562000ece573d6000803e3d6000fd5b5033600081815260086020908152604080832080546001600160a01b0387166001600160a01b03199182168117909255908452600990925290912080549091168217905590915062000f22906064620013ad565b604080516001600160a01b0383168152905133917f358ba8f768af134eb5af120e9a61dc1ef29b29f597f047b555fc3675064a0342919081900360200190a250565b60005481565b835182511462000fac5760405162461bcd60e51b815260040180806020018281038252602a8152602001806200367a602a913960400191505060405180910390fd5b835183511462000fee5760405162461bcd60e51b8152600401808060200182810382526029815260200180620036206029913960400191505060405180910390fd5b8351815114620010305760405162461bcd60e51b815260040180806020018281038252602c815260200180620036a4602c913960400191505060405180910390fd5b60005b8351811015620012665760008482815181106200104c57fe5b6020026020010151905060008483815181106200106557fe5b6020026020010151905060008784815181106200107e57fe5b6020026020010151905060008585815181106200109757fe5b60200260200101519050826001600160a01b0316826001600160a01b031614620011b1576000620010ca8386866200090d565b6001600160a01b038085166000908152600860209081526040918290205482516370a0823160e01b8152898516600482015292519495508594620011649488949216926370a082319260248082019391829003018186803b1580156200112f57600080fd5b505afa15801562001144573d6000803e3d6000fd5b505050506040513d60208110156200115b57600080fd5b5051906200140f565b1115620011af576040805162461bcd60e51b8152602060048201526014602482015273151c9d5cdd081b1a5b5a5d08195e18d95959195960621b604482015290519081900360640190fd5b505b620011be84848362001468565b6001600160a01b0380831660009081526008602090815260408083205481516308299c0f60e21b8152898616600482015288861660248201526044810187905291519416936320a6703c93606480840194938390030190829087803b1580156200122757600080fd5b505af11580156200123c573d6000803e3d6000fd5b505050506040513d60208110156200125357600080fd5b5050600190940193506200103392505050565b506200127383516200161b565b50505050565b60065481565b60025481565b60055481565b600062000bea83836040518060400160405280601a815260200179536166654d6174683a206469766973696f6e206279207a65726f60301b81525062001bb8565b600062000bea838360405180604001604052806018815260200177536166654d6174683a206d6f64756c6f206279207a65726f60401b81525062001c5f565b6000826200131c5750600062000733565b828202828482816200132a57fe5b041462000bea5760405162461bcd60e51b8152600401808060200182810382526021815260200180620036d06021913960400191505060405180910390fd5b600062000bea83836040518060400160405280601e81526020017f536166654d6174683a207375627472616374696f6e206f766572666c6f77000081525062001cc5565b336000818152600b602090815260408083206001600160a01b03871680855290835292819020859055805185815290519293927fe60c754dd8ab0b1b5fccba257d6ebcd7d09e360ab7dd7a6e58198ca1f57cdcec929181900390910190a35050565b60008282018381101562000bea576040805162461bcd60e51b815260206004820152601b60248201527a536166654d6174683a206164646974696f6e206f766572666c6f7760281b604482015290519081900360640190fd5b6001600160a01b038381166000908152600c60205260409020541615620014d3576001600160a01b0383166000908152600c6020526040902060010154620014b190826200140f565b6001600160a01b0384166000908152600c60205260409020600101556200153e565b6001600160a01b0383166000818152600c6020526040812080546001600160a01b0319908116841782556001918201859055600d805492830181559092527fd7b6990105719101dabeb77144f2a3385c8033acd3af97e9423a695e81ad1eb501805490911690911790555b6001600160a01b038281166000908152600c60205260409020541615620015a9576001600160a01b0382166000908152600c60205260409020600201546200158790826200140f565b6001600160a01b0383166000908152600c602052604090206002015562001616565b6001600160a01b0382166000818152600c6020526040812080546001600160a01b0319908116841782556002909101849055600d805460018101825592527fd7b6990105719101dabeb77144f2a3385c8033acd3af97e9423a695e81ad1eb5909101805490911690911790555b505050565b60008060005b600d54811015620017b4576200163662001d30565b600c6000600d84815481106200164857fe5b60009182526020808320909101546001600160a01b039081168452838201949094526040928301909120825160608101845281549094168452600181015491840182905260020154918301829052919250101562001737576001600160a01b03841615620016e85760405162461bcd60e51b8152600401808060200182810382526021815260200180620036f16021913960400191505060405180910390fd5b80516001600160a01b03163314620017325760405162461bcd60e51b8152600401808060200182810382526029815260200180620037376029913960400191505060405180910390fd5b805193505b806020015181604001511115620017aa576001600160a01b03831615620017a5576040805162461bcd60e51b815260206004820181905260248201527f506174682073656e647320746f206d6f7265207468616e206f6e652064657374604482015290519081900360640190fd5b805192505b5060010162001621565b506001600160a01b0382166200180f576040805162461bcd60e51b815260206004820152601b60248201527a5472616e73616374696f6e206d757374206861766520612073726360281b604482015290519081900360640190fd5b6001600160a01b0381166200186b576040805162461bcd60e51b815260206004820152601c60248201527f5472616e73616374696f6e206d75737420686176652061206465737400000000604482015290519081900360640190fd5b6001600160a01b0382166000908152600c602052604090206002015415620018d0576040805162461bcd60e51b815260206004820152601360248201527253656e64657220697320726563656976696e6760681b604482015290519081900360640190fd5b6001600160a01b0381166000908152600c60205260409020600101541562001936576040805162461bcd60e51b8152602060048201526014602482015273526563697069656e742069732073656e64696e6760601b604482015290519081900360640190fd5b6001600160a01b038082166000908152600c6020526040808220600201549285168252902060010154146200199d5760405162461bcd60e51b8152600401808060200182810382526021815260200180620037606021913960400191505060405180910390fd5b600d54600184011015620019f2576040805162461bcd60e51b81526020600482015260176024820152765365656e20746f6f206d616e792061646472657373657360481b604482015290519081900360640190fd5b6001600160a01b038281166000818152600c60209081526040918290206001015482519081529151938516937f8451019aab65b4193860ef723cb0d56b475a26a72b7bfc55c1dbd6121015285a9281900390910190a3600d545b6001811062001b6a576000600c6000600d600185038154811062001a6c57fe5b60009182526020808320909101546001600160a01b03168352820192909252604001812060010191909155600d8054600c918391600019860190811062001aaf57fe5b60009182526020808320909101546001600160a01b03168352820192909252604001812060020191909155600d8054600c918391600019860190811062001af257fe5b6000918252602080832091909101546001600160a01b039081168452908301939093526040909101902080546001600160a01b03191692909116919091179055600d80548062001b3e57fe5b600082815260209020810160001990810180546001600160a01b03191690559081019091550162001a4c565b50600d541562001616576040805162461bcd60e51b81526020600482015260146024820152735365656e2073686f756c6420626520656d70747960601b604482015290519081900360640190fd5b6000818362001c485760405162461bcd60e51b81526004018080602001828103825283818151815260200191508051906020019080838360005b8381101562001c0c57818101518382015260200162001bf2565b50505050905090810190601f16801562001c3a5780820380516001836020036101000a031916815260200191505b509250505060405180910390fd5b50600083858162001c5557fe5b0495945050505050565b6000818362001cb15760405162461bcd60e51b815260206004820181815283516024840152835190928392604490910191908501908083836000831562001c0c57818101518382015260200162001bf2565b5082848162001cbc57fe5b06949350505050565b6000818484111562001d1a5760405162461bcd60e51b815260206004820181815283516024840152835190928392604490910191908501908083836000831562001c0c57818101518382015260200162001bf2565b505050900390565b6118c58062001d5b83390190565b604051806060016040528060006001600160a01b031681526020016000815260200160008152509056fe60806040526004805461ff0019166112001790553480156200002057600080fd5b50604051620018c5380380620018c5833981810160405260208110156200004657600080fd5b50516001600160a01b0381166200005c57600080fd5b600780546001600160a01b0383166001600160a01b03199182161790915560068054909116331790556200008f6200019e565b6005556200009c620001a2565b6008556006546040805163863623bb60e01b815290516001600160a01b039092169163863623bb91600480820192602092909190829003018186803b158015620000e557600080fd5b505afa158015620000fa573d6000803e3d6000fd5b505050506040513d60208110156200011157600080fd5b505160095560065460408051630cf96a5b60e31b81529051620001979284926001600160a01b03909116916367cb52d891600480820192602092909190829003018186803b1580156200016357600080fd5b505afa15801562000178573d6000803e3d6000fd5b505050506040513d60208110156200018f57600080fd5b50516200021c565b50620005dc565b4290565b600062000217620001b26200019e565b62000203620001c06200032b565b620001d1620001e5600182620003a4565b620003ea60201b62000be91790919060201c565b620001ef6200044e565b6200049460201b62000c411790919060201c565b620004f260201b62000c9a1790919060201c565b905090565b6001600160a01b03821662000278576040805162461bcd60e51b815260206004820152601f60248201527f45524332303a206d696e7420746f20746865207a65726f206164647265737300604482015290519081900360640190fd5b62000286600083836200053c565b620002a281600254620003ea60201b62000be91790919060201c565b6002556001600160a01b03821660009081526020818152604090912054620002d591839062000be9620003ea821b17901c565b6001600160a01b0383166000818152602081815260408083209490945583518581529351929391927fddf252ad1be2c89b69c2b068fc378daa952ba7f163c4a11628f55a4df523b3ef9281900390910190a35050565b6006546040805163eae4c19f60e01b815290516000926001600160a01b03169163eae4c19f916004808301926020929190829003018186803b1580156200037157600080fd5b505afa15801562000386573d6000803e3d6000fd5b505050506040513d60208110156200039d57600080fd5b5051905090565b6006546040805163526575a160e11b815290516000926001600160a01b03169163a4caeb42916004808301926020929190829003018186803b1580156200037157600080fd5b60008282018381101562000445576040805162461bcd60e51b815260206004820152601b60248201527f536166654d6174683a206164646974696f6e206f766572666c6f770000000000604482015290519081900360640190fd5b90505b92915050565b6006546040805163ef78d4fd60e01b815290516000926001600160a01b03169163ef78d4fd916004808301926020929190829003018186803b1580156200037157600080fd5b600082620004a55750600062000448565b82820282848281620004b357fe5b0414620004455760405162461bcd60e51b8152600401808060200182810382526021815260200180620018a46021913960400191505060405180910390fd5b60006200044583836040518060400160405280601e81526020017f536166654d6174683a207375627472616374696f6e206f766572666c6f7700008152506200054160201b60201c565b505050565b60008184841115620005d45760405162461bcd60e51b81526004018080602001828103825283818151815260200191508051906020019080838360005b83811015620005985781810151838201526020016200057e565b50505050905090810190601f168015620005c65780820380516001836020036101000a031916815260200191505b509250505060405180910390fd5b505050900390565b6112b880620005ec6000396000f3fe608060405234801561001057600080fd5b506004361061016f5760003560e01c806370a08231116100d457806370a08231146102e257806370dea79a1461030857806375f12b21146103105780637b89cecc146103185780638b4eed81146103205780638da5cb5b1461032857806395d89b4114610330578063a2e62045146103ad578063a457c2d7146103b5578063a4caeb42146103e1578063a9059cbb146103e9578063be0522e014610415578063d40480891461041d578063dd62ed3e14610425578063ef78d4fd146104535761016f565b806307da68f514610174578063095ea7b31461017e578063107129dd146101be57806316ada547146101d857806318160ddd146101e05780631f2dc5ef146101e857806320a6703c146101f057806323b872dd14610226578063313ce5671461025c578063365a86fc1461027a578063395093511461029e5780633b6fe91f146102ca57806341c30546146102d25780636c050eae146102da575b600080fd5b61017c61045b565b005b6101aa6004803603604081101561019457600080fd5b506001600160a01b038135169060200135610481565b604080519115158252519081900360200190f35b6101c6610498565b60408051918252519081900360200190f35b6101c661049e565b6101c66104a3565b6101c66104a9565b6101aa6004803603606081101561020657600080fd5b506001600160a01b0381358116916020810135909116906040013561051f565b6101aa6004803603606081101561023c57600080fd5b506001600160a01b0381358116916020810135909116906040013561054b565b6102646105b4565b6040805160ff9092168252519081900360200190f35b6102826105c2565b604080516001600160a01b039092168252519081900360200190f35b6101aa600480360360408110156102b457600080fd5b506001600160a01b0381351690602001356105d1565b6101c6610607565b6101c661064c565b6101c6610693565b6101c6600480360360208110156102f857600080fd5b50356001600160a01b03166107c3565b6101c66107de565b6101aa610823565b6101c6610868565b6101c661088f565b610282610895565b6103386108a4565b6040805160208082528351818301528351919283929083019185019080838360005b8381101561037257818101518382015260200161035a565b50505050905090810190601f16801561039f5780820380516001836020036101000a031916815260200191505b509250505060405180910390f35b61017c6109d9565b6101aa600480360360408110156103cb57600080fd5b506001600160a01b038135169060200135610a8e565b6101c6610add565b6101aa600480360360408110156103ff57600080fd5b506001600160a01b038135169060200135610b22565b6101c6610b2e565b6101c6610b73565b6101c66004803603604081101561043b57600080fd5b506001600160a01b0381358116916020013516610b79565b6101c6610ba4565b6007546001600160a01b0316331461047257600080fd5b600a805460ff19166001179055565b600061048e338484610cdc565b5060015b92915050565b60085481565b425b90565b60025490565b60065460408051631f2dc5ef60e01b815290516000926001600160a01b031691631f2dc5ef916004808301926020929190829003018186803b1580156104ee57600080fd5b505afa158015610502573d6000803e3d6000fd5b505050506040513d602081101561051857600080fd5b5051905090565b6006546000906001600160a01b0316331461053957600080fd5b610544848484610dc8565b9392505050565b6000610558848484610dc8565b6105aa84336105a5856040518060600160405280602881526020016111ed602891396001600160a01b038a1660009081526001602090815260408083203384529091529020549190610f23565b610cdc565b5060019392505050565b600454610100900460ff1681565b6006546001600160a01b031681565b3360008181526001602090815260408083206001600160a01b0387168452909152812054909161048e9185906105a59086610be9565b6006546040805163eae4c19f60e01b815290516000926001600160a01b03169163eae4c19f916004808301926020929190829003018186803b1580156104ee57600080fd5b600061068e61065961049e565b610688610664610607565b61067461067a6001610674610add565b90610be9565b610682610ba4565b90610c41565b90610c9a565b905090565b600061069d610823565b156106aa575060006104a0565b6005546008546009546000929190836106c1610868565b90505b6106cc61049e565b6106d68585610be9565b11610794576106ef6106e88484610c41565b8690610be9565b94506106fb8484610be9565b9350610705610ba4565b9250610712816001610be9565b600654604080516361c4b42160e01b81526004810184905290519293506001600160a01b03909116916361c4b42191602480820192602092909190829003018186803b15801561076157600080fd5b505afa158015610775573d6000803e3d6000fd5b505050506040513d602081101561078b57600080fd5b505191506106c4565b60006107a28561068861049e565b90506107b86107b18285610c41565b8790610be9565b965050505050505090565b6001600160a01b031660009081526020819052604090205490565b6006546040805163386f53cd60e11b815290516000926001600160a01b0316916370dea79a916004808301926020929190829003018186803b1580156104ee57600080fd5b600a5460009060ff1615610839575060016104a0565b600061084960055461068861049e565b90506108536107de565b8111156108645760019150506104a0565b5090565b600061068e610875610ba4565b610889610880610607565b60055490610c9a565b90610fba565b60055481565b6007546001600160a01b031681565b600654604080516395d89b4160e01b815290516060926001600160a01b0316916395d89b41916004808301926000929190829003018186803b1580156108e957600080fd5b505afa1580156108fd573d6000803e3d6000fd5b505050506040513d6000823e601f3d908101601f19168201604052602081101561092657600080fd5b8101908080516040519392919084600160201b82111561094557600080fd5b90830190602082018581111561095a57600080fd5b8251600160201b81118282018810171561097357600080fd5b82525081516020918201929091019080838360005b838110156109a0578181015183820152602001610988565b50505050905090810190601f1680156109cd5780820380516001836020036101000a031916815260200191505b50604052505050905090565b60006109e3610693565b90508015610a8b576109f361064c565b6008556109fe61049e565b6005556006546040805163863623bb60e01b815290516001600160a01b039092169163863623bb91600480820192602092909190829003018186803b158015610a4657600080fd5b505afa158015610a5a573d6000803e3d6000fd5b505050506040513d6020811015610a7057600080fd5b5051600955600754610a8b906001600160a01b031682610ff9565b50565b600061048e33846105a58560405180606001604052806025815260200161125e602591393360009081526001602090815260408083206001600160a01b038d1684529091529020549190610f23565b6006546040805163526575a160e11b815290516000926001600160a01b03169163a4caeb42916004808301926020929190829003018186803b1580156104ee57600080fd5b600061054483836110e9565b600654604080516305f0291760e51b815290516000926001600160a01b03169163be0522e0916004808301926020929190829003018186803b1580156104ee57600080fd5b60095481565b6001600160a01b03918216600090815260016020908152604080832093909416825291909152205490565b6006546040805163ef78d4fd60e01b815290516000926001600160a01b03169163ef78d4fd916004808301926020929190829003018186803b1580156104ee57600080fd5b600082820183811015610544576040805162461bcd60e51b815260206004820152601b60248201527a536166654d6174683a206164646974696f6e206f766572666c6f7760281b604482015290519081900360640190fd5b600082610c5057506000610492565b82820282848281610c5d57fe5b04146105445760405162461bcd60e51b81526004018080602001828103825260218152602001806111cc6021913960400191505060405180910390fd5b600061054483836040518060400160405280601e81526020017f536166654d6174683a207375627472616374696f6e206f766572666c6f770000815250610f23565b6001600160a01b038316610d215760405162461bcd60e51b815260040180806020018281038252602481526020018061123a6024913960400191505060405180910390fd5b6001600160a01b038216610d665760405162461bcd60e51b81526004018080602001828103825260228152602001806111846022913960400191505060405180910390fd5b6001600160a01b03808416600081815260016020908152604080832094871680845294825291829020859055815185815291517f8c5be1e5ebec7d5bd14f71427d1e84f3dd0314c0f7b2291e5b200ac8c7c3b9259281900390910190a3505050565b6001600160a01b038316610e0d5760405162461bcd60e51b81526004018080602001828103825260258152602001806112156025913960400191505060405180910390fd5b6001600160a01b038216610e525760405162461bcd60e51b81526004018080602001828103825260238152602001806111616023913960400191505060405180910390fd5b610e5d8383836110f6565b610e9a816040518060600160405280602681526020016111a6602691396001600160a01b0386166000908152602081905260409020549190610f23565b6001600160a01b038085166000908152602081905260408082209390935590841681522054610ec99082610be9565b6001600160a01b038084166000818152602081815260409182902094909455805185815290519193928716927fddf252ad1be2c89b69c2b068fc378daa952ba7f163c4a11628f55a4df523b3ef92918290030190a3505050565b60008184841115610fb25760405162461bcd60e51b81526004018080602001828103825283818151815260200191508051906020019080838360005b83811015610f77578181015183820152602001610f5f565b50505050905090810190601f168015610fa45780820380516001836020036101000a031916815260200191505b509250505060405180910390fd5b505050900390565b600061054483836040518060400160405280601a815260200179536166654d6174683a206469766973696f6e206279207a65726f60301b8152506110fb565b6001600160a01b038216611054576040805162461bcd60e51b815260206004820152601f60248201527f45524332303a206d696e7420746f20746865207a65726f206164647265737300604482015290519081900360640190fd5b611060600083836110f6565b60025461106d9082610be9565b6002556001600160a01b0382166000908152602081905260409020546110939082610be9565b6001600160a01b0383166000818152602081815260408083209490945583518581529351929391927fddf252ad1be2c89b69c2b068fc378daa952ba7f163c4a11628f55a4df523b3ef9281900390910190a35050565b600061048e338484610dc8565b505050565b6000818361114a5760405162461bcd60e51b8152602060048201818152835160248401528351909283926044909101919085019080838360008315610f77578181015183820152602001610f5f565b50600083858161115657fe5b049594505050505056fe45524332303a207472616e7366657220746f20746865207a65726f206164647265737345524332303a20617070726f766520746f20746865207a65726f206164647265737345524332303a207472616e7366657220616d6f756e7420657863656564732062616c616e6365536166654d6174683a206d756c7469706c69636174696f6e206f766572666c6f7745524332303a207472616e7366657220616d6f756e74206578636565647320616c6c6f77616e636545524332303a207472616e736665722066726f6d20746865207a65726f206164647265737345524332303a20617070726f76652066726f6d20746865207a65726f206164647265737345524332303a2064656372656173656420616c6c6f77616e63652062656c6f77207a65726fa264697066735822122084b6e6d5d9bb9360428790ceeb61c41431f469737c2b391f47e56d1f33f272b964736f6c63430007010033536166654d6174683a206d756c7469706c69636174696f6e206f766572666c6f77546f6b656e73206172726179206c656e677468206d75737420657175616c2073726373206172726179596f752063616e206f6e6c792074727573742070656f706c6520616674657220796f75277665207369676e656420757021546f6b656e73206172726179206c656e677468206d75737420657175616c206465737473206172726179546f6b656e73206172726179206c656e677468206d75737420657175616c20616d6f756e7473206172726179536166654d6174683a206d756c7469706c69636174696f6e206f766572666c6f77506174682073656e64732066726f6d206d6f7265207468616e206f6e65207372634c696d6974206d75737420626520612070657263656e74616765206f7574206f66203130305061746820646f65736e27742073656e642066726f6d207472616e73616374696f6e2073656e646572556e657175616c2073656e7420616e6420726563656976656420616d6f756e7473a2646970667358221220d1e9eedcc49725e9c5cc1418b8babcec69afa90fec435e402f302100f112a62d64736f6c63430007010033536166654d6174683a206d756c7469706c69636174696f6e206f766572666c6f77",
  "immutableReferences": {},
  "source": "// SPDX-License-Identifier: AGPL\npragma solidity ^0.7.0;\n\nimport \"@openzeppelin/contracts/math/SafeMath.sol\";\nimport \"./Token.sol\";\n\ncontract Hub {\n    using SafeMath for uint256;\n\n    uint256 public inflation; // the inflation rate\n    uint256 public divisor; // the largest power of 10 the inflation rate can be divided by\n    uint256 public period; // the amount of sections between inflation steps\n    string public symbol;\n    uint256 public signupBonus; // a one-time payout made immediately on signup\n    uint256 public initialIssuance; // the starting payout per second, this gets inflated by the inflation rate\n    uint256 public deployedAt; // the timestamp this contract was deployed at\n    uint256 public timeout; // longest a token can go without a ubi payout before it gets deactivated\n\n    mapping (address => Token) public userToToken;\n    mapping (address => address) public tokenToUser;\n    mapping (address => bool) public organizations;\n    mapping (address => mapping (address => uint256)) public limits;\n\n    event Signup(address indexed user, address token);\n    event OrganizationSignup(address indexed organization);\n    event Trust(address indexed canSendTo, address indexed user, uint256 limit);\n    event HubTransfer(address indexed from, address indexed to, uint256 amount);\n\n    // some data types used for validating transitive transfers\n    struct transferValidator {\n        address identity;\n        uint256 sent;\n        uint256 received;\n    }\n    mapping (address => transferValidator) public validation;\n    address[] public seen;\n\n    constructor(\n        uint256 _inflation,\n        uint256 _period,\n        string memory _symbol,\n        uint256 _signupBonus,\n        uint256 _initialIssuance,\n        uint256 _timeout\n    ) {\n        inflation = _inflation;\n        divisor = findDivisor(_inflation);\n        period = _period;\n        symbol = _symbol;\n        signupBonus = _signupBonus;\n        initialIssuance = _initialIssuance;\n        deployedAt = block.timestamp;\n        timeout = _timeout;\n    }\n\n    /// @notice calculates the correct divisor for the given inflation rate\n    /// @dev the divisor is used to maintain precision when doing math with percentages\n    /// @param _inf the inflation rate\n    /// @return the largest power of ten the inflation rate can be divided by\n    function findDivisor(uint256 _inf) internal pure returns (uint256) {\n        uint256 iter = 0;\n        while (_inf.div(pow(10, iter)) > 9) {\n            iter += 1;\n        }\n        return pow(10, iter);\n    }\n\n    /// @notice helper function for finding the amount of inflation periods since this hub was deployed\n    /// @return the amount of periods since hub was deployed\n    function periods() public view returns (uint256) {\n        return (block.timestamp.sub(deployedAt)).div(period);\n    }\n\n    /// @notice calculates the current issuance rate per second\n    /// @dev current issuance is the initial issuance inflated by the amount of inflation periods since the hub was deployed\n    /// @return current issuance rate\n    function issuance() public view returns (uint256) {\n        return inflate(initialIssuance, periods());\n    }\n\n    /// @notice finds the inflation rate at a given inflation period\n    /// @return inflation rate as of the given period\n    function issuanceByStep(uint256 _periods) public view returns (uint256) {\n        return inflate(initialIssuance, _periods);\n    }\n\n    /// @return initial issuance rate as if interest (inflation) has been compounded period times\n    function inflate(uint256 _initial, uint256 _periods) public view returns (uint256) {\n        uint256 q = pow(inflation, _periods);\n        uint256 d = pow(divisor, _periods);\n        return (_initial.mul(q)).div(d);\n    }\n\n    function time() public view returns (uint256) { return block.timestamp; }\n\n    function signup() public {\n        require(address(userToToken[msg.sender]) == address(0));\n\n        Token token = new Token(msg.sender);\n        userToToken[msg.sender] = token;\n        tokenToUser[address(token)] = msg.sender;\n        _trust(msg.sender, 100);\n\n        emit Signup(msg.sender, address(token));\n    }\n\n    function organizationSignup() public {\n        require(organizations[msg.sender] == false);\n\n        organizations[msg.sender] = true;\n        _trust(msg.sender, 100);\n\n        emit OrganizationSignup(msg.sender);\n    }\n\n    // Trust does not have to be reciprocated.\n    // (e.g. I can trust you but you don't have to trust me)\n    function trust(address user, uint limit) public {\n        require(address(userToToken[msg.sender]) != address(0) || organizations[msg.sender], \"You can only trust people after you've signed up!\");\n        require(msg.sender != user, \"You can't untrust yourself\");\n        require(organizations[user] == false, \"You can't trust an organization\");\n        require(limit <= 100, \"Limit must be a percentage out of 100\");\n        _trust(user, limit);\n    }\n\n    function _trust(address user, uint limit) internal {\n        limits[msg.sender][user] = limit;\n        emit Trust(msg.sender, user, limit);\n    }\n\n    function pow(uint256 base, uint256 exponent) public pure returns (uint256) {\n        if (base == 0) {\n            return 0;\n        }\n        if (exponent == 0) {\n            return 1;\n        }\n        if (exponent == 1) {\n            return base;\n        }\n        uint256 y = 1;\n        while(exponent > 1) {\n            if(exponent.mod(2) == 0) {\n                base = base.mul(base);\n                exponent = exponent.div(2);\n            } else {\n                y = base.mul(y);\n                base = base.mul(base);\n                exponent = (exponent.sub(1)).div(2);\n            }\n        }\n        return base.mul(y);\n    }\n\n    /// @return the amount of tokenowner's token src can send to dest\n    function checkSendLimit(address tokenOwner, address src, address dest) public view returns (uint256) {\n\n        // there is no trust\n        if (limits[dest][tokenOwner] == 0) {\n            return 0;\n        }\n\n        // if dest hasn't signed up, they cannot trust anyone\n        if (address(userToToken[dest]) == address(0) && !organizations[dest] ) {\n            return 0;\n        }\n\n        //if the token doesn't exist, return 0\n        // uint256 max = (userToToken[dest].totalSupply().mul(limits[dest][tokenOwner])).div(100);\n        if (address(userToToken[tokenOwner]) == address(0)) {\n             return 0;\n        }\n\n        uint256 srcBalance = userToToken[tokenOwner].balanceOf(src);\n\n        // if sending dest's token to dest, src can send 100% of their holdings\n        if (tokenOwner == dest || organizations[dest]) {\n            return srcBalance;\n        }\n        uint256 destBalance = userToToken[tokenOwner].balanceOf(dest);\n        \n        uint256 max = (userToToken[dest].totalSupply().mul(limits[dest][tokenOwner])).div(100);\n        // if trustLimit has already been overriden by a direct transfer, nothing more can be sent\n        if (max < destBalance) return 0;\n        return max.sub(destBalance);\n    }\n\n    // build the data structures we will use for validation\n    // if we haven't seen the addresses, add them to the validation mapping\n    // if we have, increment their sent/received amounts\n    function buildValidationData(address src, address dest, uint wad) internal {\n        if (validation[src].identity != address(0)) {\n            validation[src].sent = validation[src].sent.add(wad);\n        } else {\n            validation[src].identity = src;\n            validation[src].sent = wad;\n            seen.push(src);\n        }\n        if (validation[dest].identity != address(0)) {\n            validation[dest].received = validation[dest].received.add(wad);\n        } else {\n            validation[dest].identity = dest;\n            validation[dest].received = wad; \n            seen.push(dest);   \n        }\n    }\n\n    function validateTransferThrough(uint256 steps) internal {\n        // a valid path has only one true sender and reciever, for all other\n        // addresses in the path, sent = received\n        // also, the sender should be msg.sender\n        address src;\n        address dest;\n        for (uint i = 0; i < seen.length; i++) {\n            transferValidator memory curr = validation[seen[i]];\n            if (curr.sent > curr.received) {\n                require(src == address(0), \"Path sends from more than one src\");\n                require(curr.identity == msg.sender, \"Path doesn't send from transaction sender\");\n                src = curr.identity;\n            }\n            if (curr.received > curr.sent) {\n                require(dest == address(0), \"Path sends to more than one dest\");\n                dest = curr.identity;\n            }\n        }\n        require(src != address(0), \"Transaction must have a src\");\n        require(dest != address(0), \"Transaction must have a dest\");\n        // sender should not recieve, recipient should not send\n        require(validation[src].received == 0, \"Sender is receiving\");\n        require(validation[dest].sent == 0, \"Recipient is sending\");\n        // the total amounts sent and received by src and dest should match\n        require(validation[src].sent == validation[dest].received, \"Unequal sent and received amounts\");\n        // the maximum amount of addresses we should see is one more than steps in the path\n        require(seen.length <= steps + 1, \"Seen too many addresses\");\n        emit HubTransfer(src, dest, validation[src].sent);\n        // clean up the validation datastructures\n        for (uint i = seen.length; i >= 1; i--) {\n            validation[seen[i-1]].sent = 0;\n            validation[seen[i-1]].received = 0;\n            validation[seen[i-1]].identity = address(0);\n            seen.pop();\n        }\n        // sanity check that we cleaned everything up correctly\n        require(seen.length == 0, \"Seen should be empty\");\n    }\n\n    // Walks through tokenOwners, srcs, dests, and amounts array and\n    // executes transtive transfer - also validates path\n    function transferThrough(\n        address[] memory tokenOwners,\n        address[] memory srcs,\n        address[] memory dests,\n        uint[] memory wads\n    ) public {\n        require(dests.length == tokenOwners.length, \"Tokens array length must equal dests array\");\n        require(srcs.length == tokenOwners.length, \"Tokens array length must equal srcs array\");\n        require(wads.length == tokenOwners.length, \"Tokens array length must equal amounts array\");\n        for (uint i = 0; i < srcs.length; i++) {\n            address src = srcs[i];\n            address dest = dests[i];\n            address token = tokenOwners[i];\n            uint256 wad = wads[i];\n            \n            // check that no trust limits are violated\n            // you always trust yourself 100%\n            if (token != dest) {\n                uint256 max = checkSendLimit(token, src, dest);\n                require(\n                    userToToken[token].balanceOf(dest).add(wad) <= max,\n                    \"Trust limit exceeded\"\n                );\n            }\n\n            buildValidationData(src, dest, wad);\n\n            userToToken[token].hubTransfer(src, dest, wad);\n        }\n        validateTransferThrough(srcs.length);\n    }\n}\n\n",
  "sourcePath": "/media/000/Documents/Circles/circles-contracts/contracts/Hub.sol",
  "compiler": {
    "name": "solc",
    "version": "0.7.1+commit.f4a555be.Emscripten.clang"
  },
  "schemaVersion": "3.2.3",
  "updatedAt": "2020-09-25T09:46:24.720Z",
  "devdoc": {
    "kind": "dev",
    "methods": {
      "checkSendLimit(address,address,address)": {
        "returns": {
          "_0": "the amount of tokenowner's token src can send to dest"
        }
      },
      "inflate(uint256,uint256)": {
        "returns": {
          "_0": "initial issuance rate as if interest (inflation) has been compounded period times"
        }
      },
      "issuance()": {
        "details": "current issuance is the initial issuance inflated by the amount of inflation periods since the hub was deployed",
        "returns": {
          "_0": "current issuance rate"
        }
      },
      "issuanceByStep(uint256)": {
        "returns": {
          "_0": "inflation rate as of the given period"
        }
      },
      "periods()": {
        "returns": {
          "_0": "the amount of periods since hub was deployed"
        }
      }
    },
    "version": 1
  },
  "userdoc": {
    "kind": "user",
    "methods": {
      "issuance()": {
        "notice": "calculates the current issuance rate per second"
      },
      "issuanceByStep(uint256)": {
        "notice": "finds the inflation rate at a given inflation period"
      },
      "periods()": {
        "notice": "helper function for finding the amount of inflation periods since this hub was deployed"
      }
    },
    "version": 1
  }
}