{
  "contractName": "Hub",
  "abi": [
    {
      "inputs": [
        {
          "internalType": "address",
          "name": "_owner",
          "type": "address"
        },
        {
          "internalType": "uint256",
          "name": "_inflation",
          "type": "uint256"
        },
        {
          "internalType": "uint256",
          "name": "_period",
          "type": "uint256"
        },
        {
          "internalType": "string",
          "name": "_symbol",
          "type": "string"
        },
        {
          "internalType": "uint256",
          "name": "_initialPayout",
          "type": "uint256"
        },
        {
          "internalType": "uint256",
          "name": "_initialIssuance",
          "type": "uint256"
        },
        {
          "internalType": "uint256",
          "name": "_timeout",
          "type": "uint256"
        }
      ],
      "stateMutability": "nonpayable",
      "type": "constructor"
    },
    {
      "anonymous": false,
      "inputs": [
        {
          "indexed": true,
          "internalType": "address",
          "name": "from",
          "type": "address"
        },
        {
          "indexed": true,
          "internalType": "address",
          "name": "to",
          "type": "address"
        },
        {
          "indexed": false,
          "internalType": "uint256",
          "name": "amount",
          "type": "uint256"
        }
      ],
      "name": "HubTransfer",
      "type": "event"
    },
    {
      "anonymous": false,
      "inputs": [
        {
          "indexed": true,
          "internalType": "address",
          "name": "organization",
          "type": "address"
        }
      ],
      "name": "OrganizationSignup",
      "type": "event"
    },
    {
      "anonymous": false,
      "inputs": [
        {
          "indexed": true,
          "internalType": "address",
          "name": "user",
          "type": "address"
        },
        {
          "indexed": false,
          "internalType": "address",
          "name": "token",
          "type": "address"
        }
      ],
      "name": "Signup",
      "type": "event"
    },
    {
      "anonymous": false,
      "inputs": [
        {
          "indexed": true,
          "internalType": "address",
          "name": "canSendTo",
          "type": "address"
        },
        {
          "indexed": true,
          "internalType": "address",
          "name": "user",
          "type": "address"
        },
        {
          "indexed": false,
          "internalType": "uint256",
          "name": "limit",
          "type": "uint256"
        }
      ],
      "name": "Trust",
      "type": "event"
    },
    {
      "inputs": [],
      "name": "deployedAt",
      "outputs": [
        {
          "internalType": "uint256",
          "name": "",
          "type": "uint256"
        }
      ],
      "stateMutability": "view",
      "type": "function"
    },
    {
      "inputs": [],
      "name": "divisor",
      "outputs": [
        {
          "internalType": "uint256",
          "name": "",
          "type": "uint256"
        }
      ],
      "stateMutability": "view",
      "type": "function"
    },
    {
      "inputs": [],
      "name": "inflation",
      "outputs": [
        {
          "internalType": "uint256",
          "name": "",
          "type": "uint256"
        }
      ],
      "stateMutability": "view",
      "type": "function"
    },
    {
      "inputs": [],
      "name": "initialIssuance",
      "outputs": [
        {
          "internalType": "uint256",
          "name": "",
          "type": "uint256"
        }
      ],
      "stateMutability": "view",
      "type": "function"
    },
    {
      "inputs": [],
      "name": "initialPayout",
      "outputs": [
        {
          "internalType": "uint256",
          "name": "",
          "type": "uint256"
        }
      ],
      "stateMutability": "view",
      "type": "function"
    },
    {
      "inputs": [
        {
          "internalType": "address",
          "name": "",
          "type": "address"
        },
        {
          "internalType": "address",
          "name": "",
          "type": "address"
        }
      ],
      "name": "limits",
      "outputs": [
        {
          "internalType": "uint256",
          "name": "",
          "type": "uint256"
        }
      ],
      "stateMutability": "view",
      "type": "function"
    },
    {
      "inputs": [
        {
          "internalType": "address",
          "name": "",
          "type": "address"
        }
      ],
      "name": "organizations",
      "outputs": [
        {
          "internalType": "bool",
          "name": "",
          "type": "bool"
        }
      ],
      "stateMutability": "view",
      "type": "function"
    },
    {
      "inputs": [],
      "name": "owner",
      "outputs": [
        {
          "internalType": "address",
          "name": "",
          "type": "address"
        }
      ],
      "stateMutability": "view",
      "type": "function"
    },
    {
      "inputs": [],
      "name": "period",
      "outputs": [
        {
          "internalType": "uint256",
          "name": "",
          "type": "uint256"
        }
      ],
      "stateMutability": "view",
      "type": "function"
    },
    {
      "inputs": [
        {
          "internalType": "uint256",
          "name": "",
          "type": "uint256"
        }
      ],
      "name": "seen",
      "outputs": [
        {
          "internalType": "address",
          "name": "",
          "type": "address"
        }
      ],
      "stateMutability": "view",
      "type": "function"
    },
    {
      "inputs": [],
      "name": "symbol",
      "outputs": [
        {
          "internalType": "string",
          "name": "",
          "type": "string"
        }
      ],
      "stateMutability": "view",
      "type": "function"
    },
    {
      "inputs": [],
      "name": "timeout",
      "outputs": [
        {
          "internalType": "uint256",
          "name": "",
          "type": "uint256"
        }
      ],
      "stateMutability": "view",
      "type": "function"
    },
    {
      "inputs": [
        {
          "internalType": "address",
          "name": "",
          "type": "address"
        }
      ],
      "name": "tokenToUser",
      "outputs": [
        {
          "internalType": "address",
          "name": "",
          "type": "address"
        }
      ],
      "stateMutability": "view",
      "type": "function"
    },
    {
      "inputs": [
        {
          "internalType": "address",
          "name": "",
          "type": "address"
        }
      ],
      "name": "userToToken",
      "outputs": [
        {
          "internalType": "contract Token",
          "name": "",
          "type": "address"
        }
      ],
      "stateMutability": "view",
      "type": "function"
    },
    {
      "inputs": [
        {
          "internalType": "address",
          "name": "",
          "type": "address"
        }
      ],
      "name": "validation",
      "outputs": [
        {
          "internalType": "address",
          "name": "identity",
          "type": "address"
        },
        {
          "internalType": "uint256",
          "name": "sent",
          "type": "uint256"
        },
        {
          "internalType": "uint256",
          "name": "received",
          "type": "uint256"
        }
      ],
      "stateMutability": "view",
      "type": "function"
    },
    {
      "inputs": [],
      "name": "periods",
      "outputs": [
        {
          "internalType": "uint256",
          "name": "",
          "type": "uint256"
        }
      ],
      "stateMutability": "view",
      "type": "function"
    },
    {
      "inputs": [],
      "name": "issuance",
      "outputs": [
        {
          "internalType": "uint256",
          "name": "",
          "type": "uint256"
        }
      ],
      "stateMutability": "view",
      "type": "function"
    },
    {
      "inputs": [
        {
          "internalType": "uint256",
          "name": "_periods",
          "type": "uint256"
        }
      ],
      "name": "issuanceStep",
      "outputs": [
        {
          "internalType": "uint256",
          "name": "",
          "type": "uint256"
        }
      ],
      "stateMutability": "view",
      "type": "function"
    },
    {
      "inputs": [
        {
          "internalType": "uint256",
          "name": "_initial",
          "type": "uint256"
        },
        {
          "internalType": "uint256",
          "name": "_periods",
          "type": "uint256"
        }
      ],
      "name": "inflate",
      "outputs": [
        {
          "internalType": "uint256",
          "name": "",
          "type": "uint256"
        }
      ],
      "stateMutability": "view",
      "type": "function"
    },
    {
      "inputs": [],
      "name": "time",
      "outputs": [
        {
          "internalType": "uint256",
          "name": "",
          "type": "uint256"
        }
      ],
      "stateMutability": "view",
      "type": "function"
    },
    {
      "inputs": [],
      "name": "signup",
      "outputs": [],
      "stateMutability": "nonpayable",
      "type": "function"
    },
    {
      "inputs": [],
      "name": "organizationSignup",
      "outputs": [],
      "stateMutability": "nonpayable",
      "type": "function"
    },
    {
      "inputs": [
        {
          "internalType": "address",
          "name": "user",
          "type": "address"
        },
        {
          "internalType": "uint256",
          "name": "limit",
          "type": "uint256"
        }
      ],
      "name": "trust",
      "outputs": [],
      "stateMutability": "nonpayable",
      "type": "function"
    },
    {
      "inputs": [
        {
          "internalType": "uint256",
          "name": "base",
          "type": "uint256"
        },
        {
          "internalType": "uint256",
          "name": "exponent",
          "type": "uint256"
        }
      ],
      "name": "pow",
      "outputs": [
        {
          "internalType": "uint256",
          "name": "",
          "type": "uint256"
        }
      ],
      "stateMutability": "pure",
      "type": "function"
    },
    {
      "inputs": [
        {
          "internalType": "address",
          "name": "tokenOwner",
          "type": "address"
        },
        {
          "internalType": "address",
          "name": "src",
          "type": "address"
        },
        {
          "internalType": "address",
          "name": "dest",
          "type": "address"
        }
      ],
      "name": "checkSendLimit",
      "outputs": [
        {
          "internalType": "uint256",
          "name": "",
          "type": "uint256"
        }
      ],
      "stateMutability": "view",
      "type": "function"
    },
    {
      "inputs": [
        {
          "internalType": "address[]",
          "name": "tokenOwners",
          "type": "address[]"
        },
        {
          "internalType": "address[]",
          "name": "srcs",
          "type": "address[]"
        },
        {
          "internalType": "address[]",
          "name": "dests",
          "type": "address[]"
        },
        {
          "internalType": "uint256[]",
          "name": "wads",
          "type": "uint256[]"
        }
      ],
      "name": "transferThrough",
      "outputs": [],
      "stateMutability": "nonpayable",
      "type": "function"
    }
  ],
  "bytecode": "0x60806040523480156200001157600080fd5b5060405162003ee738038062003ee7833981810160405260e08110156200003757600080fd5b8151602083015160408085015160608601805192519496939591949391820192846401000000008211156200006b57600080fd5b9083019060208201858111156200008157600080fd5b82516401000000008111828201881017156200009c57600080fd5b82525081516020918201929091019080838360005b83811015620000cb578181015183820152602001620000b1565b50505050905090810190601f168015620000f95780820380516001836020036101000a031916815260200191505b5060409081526020820151908201516060909201519093509091506001600160a01b0387166200012857600080fd5b600080546001600160a01b0319166001600160a01b038916179055600186905562000153866200018c565b6002556003859055835162000170906004906020870190620005ba565b5060059290925560065542600755600855506200065692505050565b6000805b6009620001b8620001a3600a84620001dc565b856200031460201b620013021790919060201c565b1115620001c85760010162000190565b620001d5600a82620001dc565b9392505050565b600082620001ed575060006200030e565b81620001fc575060016200030e565b81600114156200020e5750816200030e565b60015b6001831115620002f057620002366002846200035e60201b620013461790919060201c565b6200027a57620002558485620003a860201b6200138a1790919060201c565b9350620002726002846200031460201b620013021790919060201c565b9250620002ea565b620002948185620003a860201b6200138a1790919060201c565b9050620002b08485620003a860201b6200138a1790919060201c565b9350620002e76002620002d36001866200040660201b620013e81790919060201c565b6200031460201b620013021790919060201c565b92505b62000211565b6200030a8185620003a860201b6200138a1790919060201c565b9150505b92915050565b6000620001d583836040518060400160405280601a81526020017f536166654d6174683a206469766973696f6e206279207a65726f0000000000008152506200045060201b60201c565b6000620001d583836040518060400160405280601881526020017f536166654d6174683a206d6f64756c6f206279207a65726f0000000000000000815250620004f760201b60201c565b600082620003b9575060006200030e565b82820282848281620003c757fe5b0414620001d55760405162461bcd60e51b815260040180806020018281038252602181526020018062003ec66021913960400191505060405180910390fd5b6000620001d583836040518060400160405280601e81526020017f536166654d6174683a207375627472616374696f6e206f766572666c6f7700008152506200055d60201b60201c565b60008183620004e05760405162461bcd60e51b81526004018080602001828103825283818151815260200191508051906020019080838360005b83811015620004a45781810151838201526020016200048a565b50505050905090810190601f168015620004d25780820380516001836020036101000a031916815260200191505b509250505060405180910390fd5b506000838581620004ed57fe5b0495945050505050565b60008183620005495760405162461bcd60e51b8152602060048201818152835160248401528351909283926044909101919085019080838360008315620004a45781810151838201526020016200048a565b508284816200055457fe5b06949350505050565b60008184841115620005b25760405162461bcd60e51b8152602060048201818152835160248401528351909283926044909101919085019080838360008315620004a45781810151838201526020016200048a565b505050900390565b828054600181600116156101000203166002900490600052602060002090601f016020900481019282601f10620005fd57805160ff19168380011785556200062d565b828001600101855582156200062d579182015b828111156200062d57825182559160200191906001019062000610565b506200063b9291506200063f565b5090565b5b808211156200063b576000815560010162000640565b61386080620006666000396000f3fe60806040523480156200001157600080fd5b5060043610620001b45760003560e01c80638da5cb5b11620000f3578063afaa29df11620000a5578063d62fd9a2116200007b578063d62fd9a214620004d6578063eae4c19f146200070c578063ef78d4fd1462000716578063fc22a9f8146200072057620001b4565b8063afaa29df14620004a2578063b7bc0f7314620004c2578063be0522e014620004cc57620001b4565b80638da5cb5b146200038357806395d89b41146200038d5780639951d62f146200040f578063a18b506b146200043e578063a3eb2b4a1462000467578063a4caeb42146200049857620001b4565b80633fbd653c116200016b57806377ed63c2116200014157806377ed63c214620002cd5780637f501d04146200031e578063863623bb146200033e5780638a0ef184146200034857620001b4565b80633fbd653c146200027a5780635a1f7406146200028657806370dea79a14620002c357620001b4565b806316ada54714620001b95780631f2dc5ef14620001d557806328d249fe14620001df5780632a93834214620002245780632e4c697f146200024a57806330387a4f1462000270575b600080fd5b620001c36200072a565b60408051918252519081900360200190f35b620001c36200072e565b6200020860048036036020811015620001f757600080fd5b50356001600160a01b031662000734565b604080516001600160a01b039092168252519081900360200190f35b620001c3600480360360408110156200023c57600080fd5b50803590602001356200074f565b620001c3600480360360408110156200026257600080fd5b508035906020013562000797565b620001c362000857565b620002846200085d565b005b620002af600480360360208110156200029e57600080fd5b50356001600160a01b0316620008cf565b604080519115158252519081900360200190f35b620001c3620008e4565b620002f660048036036020811015620002e557600080fd5b50356001600160a01b0316620008ea565b604080516001600160a01b039094168452602084019290925282820152519081900360600190f35b62000208600480360360208110156200033657600080fd5b503562000915565b620001c36200093d565b620001c3600480360360608110156200036057600080fd5b506001600160a01b0381358116916020810135821691604090910135166200095b565b6200020862000c3f565b6200039762000c4e565b6040805160208082528351818301528351919283929083019185019080838360005b83811015620003d3578181015183820152602001620003b9565b50505050905090810190601f168015620004015780820380516001836020036101000a031916815260200191505b509250505060405180910390f35b62000284600480360360408110156200042757600080fd5b506001600160a01b03813516906020013562000ce0565b62000208600480360360208110156200045657600080fd5b50356001600160a01b031662000e73565b620001c3600480360360408110156200047f57600080fd5b506001600160a01b038135811691602001351662000e8e565b620001c362000eab565b620001c360048036036020811015620004ba57600080fd5b503562000ecb565b6200028462000edb565b620001c362000fdb565b6200028460048036036080811015620004ee57600080fd5b810190602081018135600160201b8111156200050957600080fd5b8201836020820111156200051c57600080fd5b803590602001918460208302840111600160201b831117156200053e57600080fd5b9190808060200260200160405190810160405280939291908181526020018383602002808284376000920191909152509295949360208101935035915050600160201b8111156200058e57600080fd5b820183602082011115620005a157600080fd5b803590602001918460208302840111600160201b83111715620005c357600080fd5b9190808060200260200160405190810160405280939291908181526020018383602002808284376000920191909152509295949360208101935035915050600160201b8111156200061357600080fd5b8201836020820111156200062657600080fd5b803590602001918460208302840111600160201b831117156200064857600080fd5b9190808060200260200160405190810160405280939291908181526020018383602002808284376000920191909152509295949360208101935035915050600160201b8111156200069857600080fd5b820183602082011115620006ab57600080fd5b803590602001918460208302840111600160201b83111715620006cd57600080fd5b91908080602002602001604051908101604052809392919081815260200183836020028082843760009201919091525092955062000fe1945050505050565b620001c3620012f0565b620001c3620012f6565b620001c3620012fc565b4290565b60025481565b6009602052600090815260409020546001600160a01b031681565b600080620007606001548462000797565b90506000620007726002548562000797565b90506200078c816200078587856200138a565b9062001302565b925050505b92915050565b600082620007a85750600062000791565b81620007b75750600162000791565b8160011415620007c957508162000791565b60015b60018311156200084357620007e383600262001346565b6200080b57620007f484806200138a565b93506200080383600262001302565b92506200083d565b6200081784826200138a565b90506200082584806200138a565b93506200083a600262000785856001620013e8565b92505b620007cc565b6200084f84826200138a565b949350505050565b60055481565b336000908152600b602052604090205460ff16156200087b57600080fd5b336000818152600b60205260409020805460ff19166001179055620008a29060646200142c565b60405133907fb0b94cff8b84fc67513b977d68a5cdd67550bd9b8d99a34b570e3367b784378690600090a2565b600b6020526000908152604090205460ff1681565b60085481565b600d602052600090815260409020805460018201546002909201546001600160a01b03909116919083565b600e81815481106200092357fe5b6000918252602090912001546001600160a01b0316905081565b6000620009566006546200095062000eab565b6200074f565b905090565b6001600160a01b038082166000908152600c60209081526040808320938716835292905290812054620009915750600062000c38565b6001600160a01b0382811660009081526009602052604090205416158015620009d357506001600160a01b0382166000908152600b602052604090205460ff16155b15620009e25750600062000c38565b6001600160a01b038481166000908152600960205260409020541662000a0b5750600062000c38565b6001600160a01b0380851660009081526009602090815260408083205481516370a0823160e01b815288861660048201529151939416926370a0823192602480840193919291829003018186803b15801562000a6657600080fd5b505afa15801562000a7b573d6000803e3d6000fd5b505050506040513d602081101562000a9257600080fd5b505190506001600160a01b03858116908416148062000ac957506001600160a01b0383166000908152600b602052604090205460ff165b1562000ad757905062000c38565b6001600160a01b0380861660009081526009602090815260408083205481516370a0823160e01b815288861660048201529151939416926370a0823192602480840193919291829003018186803b15801562000b3257600080fd5b505afa15801562000b47573d6000803e3d6000fd5b505050506040513d602081101562000b5e57600080fd5b50516001600160a01b038086166000818152600c602090815260408083208c86168452825280832054938352600982528083205481516318160ddd60e01b81529151969750929562000c0e95606495620007859590949116926318160ddd9260048083019392829003018186803b15801562000bd957600080fd5b505afa15801562000bee573d6000803e3d6000fd5b505050506040513d602081101562000c0557600080fd5b5051906200138a565b90508181101562000c26576000935050505062000c38565b62000c328183620013e8565b93505050505b9392505050565b6000546001600160a01b031681565b6004805460408051602060026001851615610100026000190190941693909304601f8101849004840282018401909252818152929183018282801562000cd85780601f1062000cac5761010080835404028352916020019162000cd8565b820191906000526020600020905b81548152906001019060200180831162000cba57829003601f168201915b505050505081565b336000908152600960205260409020546001600160a01b031615158062000d165750336000908152600b602052604090205460ff165b62000d535760405162461bcd60e51b8152600401808060200182810382526031815260200180620036f36031913960400191505060405180910390fd5b336001600160a01b038316141562000db2576040805162461bcd60e51b815260206004820152601a60248201527f596f752063616e277420756e747275737420796f757273656c66000000000000604482015290519081900360640190fd5b6001600160a01b0382166000908152600b602052604090205460ff161562000e21576040805162461bcd60e51b815260206004820152601f60248201527f596f752063616e277420747275737420616e206f7267616e697a6174696f6e00604482015290519081900360640190fd5b606481111562000e635760405162461bcd60e51b8152600401808060200182810382526025815260200180620037bc6025913960400191505060405180910390fd5b62000e6f82826200142c565b5050565b600a602052600090815260409020546001600160a01b031681565b600c60209081526000928352604080842090915290825290205481565b6000620009566003546200078560075442620013e890919063ffffffff16565b600062000791600654836200074f565b336000908152600960205260409020546001600160a01b03161562000eff57600080fd5b60003360055460405162000f139062001dab565b6001600160a01b0390921682526020820152604080519182900301906000f08015801562000f45573d6000803e3d6000fd5b5033600081815260096020908152604080832080546001600160a01b0387166001600160a01b03199182168117909255908452600a90925290912080549091168217905590915062000f999060646200142c565b604080516001600160a01b0383168152905133917f358ba8f768af134eb5af120e9a61dc1ef29b29f597f047b555fc3675064a0342919081900360200190a250565b60015481565b8351825114620010235760405162461bcd60e51b815260040180806020018281038252602a81526020018062003724602a913960400191505060405180910390fd5b8351835114620010655760405162461bcd60e51b8152600401808060200182810382526029815260200180620036ca6029913960400191505060405180910390fd5b8351815114620010a75760405162461bcd60e51b815260040180806020018281038252602c8152602001806200374e602c913960400191505060405180910390fd5b60005b8351811015620012dd576000848281518110620010c357fe5b602002602001015190506000848381518110620010dc57fe5b602002602001015190506000878481518110620010f557fe5b6020026020010151905060008585815181106200110e57fe5b60200260200101519050826001600160a01b0316826001600160a01b03161462001228576000620011418386866200095b565b6001600160a01b038085166000908152600960209081526040918290205482516370a0823160e01b8152898516600482015292519495508594620011db9488949216926370a082319260248082019391829003018186803b158015620011a657600080fd5b505afa158015620011bb573d6000803e3d6000fd5b505050506040513d6020811015620011d257600080fd5b5051906200148e565b111562001226576040805162461bcd60e51b8152602060048201526014602482015273151c9d5cdd081b1a5b5a5d08195e18d95959195960621b604482015290519081900360640190fd5b505b62001235848483620014e9565b6001600160a01b0380831660009081526009602090815260408083205481516308299c0f60e21b8152898616600482015288861660248201526044810187905291519416936320a6703c93606480840194938390030190829087803b1580156200129e57600080fd5b505af1158015620012b3573d6000803e3d6000fd5b505050506040513d6020811015620012ca57600080fd5b505060019094019350620010aa92505050565b50620012ea83516200169c565b50505050565b60075481565b60035481565b60065481565b600062000c3883836040518060400160405280601a81526020017f536166654d6174683a206469766973696f6e206279207a65726f00000000000081525062001c41565b600062000c3883836040518060400160405280601881526020017f536166654d6174683a206d6f64756c6f206279207a65726f000000000000000081525062001ce8565b6000826200139b5750600062000791565b82820282848281620013a957fe5b041462000c385760405162461bcd60e51b81526004018080602001828103825260218152602001806200377a6021913960400191505060405180910390fd5b600062000c3883836040518060400160405280601e81526020017f536166654d6174683a207375627472616374696f6e206f766572666c6f77000081525062001d4e565b336000818152600c602090815260408083206001600160a01b03871680855290835292819020859055805185815290519293927fe60c754dd8ab0b1b5fccba257d6ebcd7d09e360ab7dd7a6e58198ca1f57cdcec929181900390910190a35050565b60008282018381101562000c38576040805162461bcd60e51b815260206004820152601b60248201527f536166654d6174683a206164646974696f6e206f766572666c6f770000000000604482015290519081900360640190fd5b6001600160a01b038381166000908152600d6020526040902054161562001554576001600160a01b0383166000908152600d60205260409020600101546200153290826200148e565b6001600160a01b0384166000908152600d6020526040902060010155620015bf565b6001600160a01b0383166000818152600d6020526040812080546001600160a01b0319908116841782556001918201859055600e805492830181559092527fbb7b4a454dc3493923482f07822329ed19e8244eff582cc204f8554c3620c3fd01805490911690911790555b6001600160a01b038281166000908152600d602052604090205416156200162a576001600160a01b0382166000908152600d60205260409020600201546200160890826200148e565b6001600160a01b0383166000908152600d602052604090206002015562001697565b6001600160a01b0382166000818152600d6020526040812080546001600160a01b0319908116841782556002909101849055600e805460018101825592527fbb7b4a454dc3493923482f07822329ed19e8244eff582cc204f8554c3620c3fd909101805490911690911790555b505050565b60008060005b600e548110156200183557620016b762001db9565b600d6000600e8481548110620016c957fe5b60009182526020808320909101546001600160a01b0390811684528382019490945260409283019091208251606081018452815490941684526001810154918401829052600201549183018290529192501015620017b8576001600160a01b03841615620017695760405162461bcd60e51b81526004018080602001828103825260218152602001806200379b6021913960400191505060405180910390fd5b80516001600160a01b03163314620017b35760405162461bcd60e51b8152600401808060200182810382526029815260200180620037e16029913960400191505060405180910390fd5b805193505b8060200151816040015111156200182b576001600160a01b0383161562001826576040805162461bcd60e51b815260206004820181905260248201527f506174682073656e647320746f206d6f7265207468616e206f6e652064657374604482015290519081900360640190fd5b805192505b50600101620016a2565b506001600160a01b03821662001892576040805162461bcd60e51b815260206004820152601b60248201527f5472616e73616374696f6e206d75737420686176652061207372630000000000604482015290519081900360640190fd5b6001600160a01b038116620018ee576040805162461bcd60e51b815260206004820152601c60248201527f5472616e73616374696f6e206d75737420686176652061206465737400000000604482015290519081900360640190fd5b6001600160a01b0382166000908152600d60205260409020600201541562001953576040805162461bcd60e51b815260206004820152601360248201527253656e64657220697320726563656976696e6760681b604482015290519081900360640190fd5b6001600160a01b0381166000908152600d602052604090206001015415620019b9576040805162461bcd60e51b8152602060048201526014602482015273526563697069656e742069732073656e64696e6760601b604482015290519081900360640190fd5b6001600160a01b038082166000908152600d60205260408082206002015492851682529020600101541462001a205760405162461bcd60e51b81526004018080602001828103825260218152602001806200380a6021913960400191505060405180910390fd5b600e5460018401101562001a7b576040805162461bcd60e51b815260206004820152601760248201527f5365656e20746f6f206d616e7920616464726573736573000000000000000000604482015290519081900360640190fd5b6001600160a01b038281166000818152600d60209081526040918290206001015482519081529151938516937f8451019aab65b4193860ef723cb0d56b475a26a72b7bfc55c1dbd6121015285a9281900390910190a3600e545b6001811062001bf3576000600d6000600e600185038154811062001af557fe5b60009182526020808320909101546001600160a01b03168352820192909252604001812060010191909155600e8054600d918391600019860190811062001b3857fe5b60009182526020808320909101546001600160a01b03168352820192909252604001812060020191909155600e8054600d918391600019860190811062001b7b57fe5b6000918252602080832091909101546001600160a01b039081168452908301939093526040909101902080546001600160a01b03191692909116919091179055600e80548062001bc757fe5b600082815260209020810160001990810180546001600160a01b03191690559081019091550162001ad5565b50600e541562001697576040805162461bcd60e51b81526020600482015260146024820152735365656e2073686f756c6420626520656d70747960601b604482015290519081900360640190fd5b6000818362001cd15760405162461bcd60e51b81526004018080602001828103825283818151815260200191508051906020019080838360005b8381101562001c9557818101518382015260200162001c7b565b50505050905090810190601f16801562001cc35780820380516001836020036101000a031916815260200191505b509250505060405180910390fd5b50600083858162001cde57fe5b0495945050505050565b6000818362001d3a5760405162461bcd60e51b815260206004820181815283516024840152835190928392604490910191908501908083836000831562001c9557818101518382015260200162001c7b565b5082848162001d4557fe5b06949350505050565b6000818484111562001da35760405162461bcd60e51b815260206004820181815283516024840152835190928392604490910191908501908083836000831562001c9557818101518382015260200162001c7b565b505050900390565b6118e68062001de483390190565b604051806060016040528060006001600160a01b031681526020016000815260200160008152509056fe60806040526004805461ff0019166112001790553480156200002057600080fd5b50604051620018e6380380620018e6833981810160405260408110156200004657600080fd5b5080516020909101516001600160a01b0382166200006357600080fd5b600780546001600160a01b0384166001600160a01b03199182161790915560068054909116331790556200009662000131565b600555620000a362000135565b6008556006546040805163863623bb60e01b815290516001600160a01b039092169163863623bb91600480820192602092909190829003018186803b158015620000ec57600080fd5b505afa15801562000101573d6000803e3d6000fd5b505050506040513d60208110156200011857600080fd5b5051600955620001298282620001af565b50506200056f565b4290565b6000620001aa6200014562000131565b6200019662000153620002be565b620001646200017860018262000337565b6200037d60201b62000c721790919060201c565b62000182620003e1565b6200042760201b62000ccc1790919060201c565b6200048560201b62000d251790919060201c565b905090565b6001600160a01b0382166200020b576040805162461bcd60e51b815260206004820152601f60248201527f45524332303a206d696e7420746f20746865207a65726f206164647265737300604482015290519081900360640190fd5b6200021960008383620004cf565b62000235816002546200037d60201b62000c721790919060201c565b6002556001600160a01b038216600090815260208181526040909120546200026891839062000c726200037d821b17901c565b6001600160a01b0383166000818152602081815260408083209490945583518581529351929391927fddf252ad1be2c89b69c2b068fc378daa952ba7f163c4a11628f55a4df523b3ef9281900390910190a35050565b6006546040805163eae4c19f60e01b815290516000926001600160a01b03169163eae4c19f916004808301926020929190829003018186803b1580156200030457600080fd5b505afa15801562000319573d6000803e3d6000fd5b505050506040513d60208110156200033057600080fd5b5051905090565b6006546040805163526575a160e11b815290516000926001600160a01b03169163a4caeb42916004808301926020929190829003018186803b1580156200030457600080fd5b600082820183811015620003d8576040805162461bcd60e51b815260206004820152601b60248201527f536166654d6174683a206164646974696f6e206f766572666c6f770000000000604482015290519081900360640190fd5b90505b92915050565b6006546040805163ef78d4fd60e01b815290516000926001600160a01b03169163ef78d4fd916004808301926020929190829003018186803b1580156200030457600080fd5b6000826200043857506000620003db565b828202828482816200044657fe5b0414620003d85760405162461bcd60e51b8152600401808060200182810382526021815260200180620018c56021913960400191505060405180910390fd5b6000620003d883836040518060400160405280601e81526020017f536166654d6174683a207375627472616374696f6e206f766572666c6f770000815250620004d460201b60201c565b505050565b60008184841115620005675760405162461bcd60e51b81526004018080602001828103825283818151815260200191508051906020019080838360005b838110156200052b57818101518382015260200162000511565b50505050905090810190601f168015620005595780820380516001836020036101000a031916815260200191505b509250505060405180910390fd5b505050900390565b611346806200057f6000396000f3fe608060405234801561001057600080fd5b50600436106101cf5760003560e01c80636c050eae11610104578063a2e62045116100a2578063be0522e011610071578063be0522e014610475578063d40480891461047d578063dd62ed3e14610485578063ef78d4fd146104b3576101cf565b8063a2e620451461040d578063a457c2d714610415578063a4caeb4214610441578063a9059cbb14610449576101cf565b806375f12b21116100de57806375f12b21146103785780638b4eed81146103805780638da5cb5b1461038857806395d89b4114610390576101cf565b80636c050eae1461034257806370a082311461034a57806370dea79a14610370576101cf565b80631f2dc5ef11610171578063313ce5671161014b578063313ce567146102cc578063365a86fc146102ea578063395093511461030e57806341c305461461033a576101cf565b80631f2dc5ef1461025857806320a6703c1461026057806323b872dd14610296576101cf565b80630f487c21116101ad5780630f487c2114610238578063107129dd1461024057806316ada5471461024857806318160ddd14610250576101cf565b806306f09ab0146101d457806307da68f5146101ee578063095ea7b3146101f8575b600080fd5b6101dc6104bb565b60408051918252519081900360200190f35b6101f6610532565b005b6102246004803603604081101561020e57600080fd5b506001600160a01b038135169060200135610558565b604080519115158252519081900360200190f35b6101dc61056f565b6101dc61059b565b6101dc6105a1565b6101dc6105a5565b6101dc6105ab565b6102246004803603606081101561027657600080fd5b506001600160a01b038135811691602081013590911690604001356105f0565b610224600480360360608110156102ac57600080fd5b506001600160a01b0381358116916020810135909116906040013561061c565b6102d4610685565b6040805160ff9092168252519081900360200190f35b6102f2610693565b604080516001600160a01b039092168252519081900360200190f35b6102246004803603604081101561032457600080fd5b506001600160a01b0381351690602001356106a2565b6101dc6106d8565b6101dc61071a565b6101dc6004803603602081101561036057600080fd5b50356001600160a01b031661084a565b6101dc610865565b6102246108aa565b6101dc6108ef565b6102f26108f5565b610398610904565b6040805160208082528351818301528351919283929083019185019080838360005b838110156103d25781810151838201526020016103ba565b50505050905090810190601f1680156103ff5780820380516001836020036101000a031916815260200191505b509250505060405180910390f35b6101f6610a3b565b6102246004803603604081101561042b57600080fd5b506001600160a01b038135169060200135610af0565b6101dc610b3f565b6102246004803603604081101561045f57600080fd5b506001600160a01b038135169060200135610b84565b6101dc610bb7565b6101dc610bfc565b6101dc6004803603604081101561049b57600080fd5b506001600160a01b0381358116916020013516610c02565b6101dc610c2d565b6006546040805163eae4c19f60e01b815290516000926001600160a01b03169163eae4c19f916004808301926020929190829003018186803b15801561050057600080fd5b505afa158015610514573d6000803e3d6000fd5b505050506040513d602081101561052a57600080fd5b505190505b90565b6007546001600160a01b0316331461054957600080fd5b600a805460ff19166001179055565b6000610565338484610d67565b5060015b92915050565b600061059661057c610c2d565b6105906105876104bb565b60055490610d25565b90610e53565b905090565b60085481565b4290565b60025490565b60065460408051631f2dc5ef60e01b815290516000926001600160a01b031691631f2dc5ef916004808301926020929190829003018186803b15801561050057600080fd5b6006546000906001600160a01b0316331461060a57600080fd5b610615848484610e95565b9392505050565b6000610629848484610e95565b61067b84336106768560405180606001604052806028815260200161127b602891396001600160a01b038a1660009081526001602090815260408083203384529091529020549190610ff0565b610d67565b5060019392505050565b600454610100900460ff1681565b6006546001600160a01b031681565b3360008181526001602090815260408083206001600160a01b038716845290915281205490916105659185906106769086610c72565b60006105966106e56105a1565b6107146106f06104bb565b6107006107066001610700610b3f565b90610c72565b61070e610c2d565b90610ccc565b90610d25565b60006107246108aa565b156107315750600061052f565b60055460085460095460009291908361074861056f565b90505b6107536105a1565b61075d8585610c72565b1161081b5761077661076f8484610ccc565b8690610c72565b94506107828484610c72565b935061078c610c2d565b9250610799816001610c72565b6006546040805163afaa29df60e01b81526004810184905290519293506001600160a01b039091169163afaa29df91602480820192602092909190829003018186803b1580156107e857600080fd5b505afa1580156107fc573d6000803e3d6000fd5b505050506040513d602081101561081257600080fd5b5051915061074b565b6000610829856107146105a1565b905061083f6108388285610ccc565b8790610c72565b965050505050505090565b6001600160a01b031660009081526020819052604090205490565b6006546040805163386f53cd60e11b815290516000926001600160a01b0316916370dea79a916004808301926020929190829003018186803b15801561050057600080fd5b600a5460009060ff16156108c05750600161052f565b60006108d06005546107146105a1565b90506108da610865565b8111156108eb57600191505061052f565b5090565b60055481565b6007546001600160a01b031681565b600654604080516395d89b4160e01b815290516060926001600160a01b0316916395d89b41916004808301926000929190829003018186803b15801561094957600080fd5b505afa15801561095d573d6000803e3d6000fd5b505050506040513d6000823e601f3d908101601f19168201604052602081101561098657600080fd5b81019080805160405193929190846401000000008211156109a657600080fd5b9083019060208201858111156109bb57600080fd5b82516401000000008111828201881017156109d557600080fd5b82525081516020918201929091019080838360005b83811015610a025781810151838201526020016109ea565b50505050905090810190601f168015610a2f5780820380516001836020036101000a031916815260200191505b50604052505050905090565b6000610a4561071a565b90508015610aed57610a556106d8565b600855610a606105a1565b6005556006546040805163863623bb60e01b815290516001600160a01b039092169163863623bb91600480820192602092909190829003018186803b158015610aa857600080fd5b505afa158015610abc573d6000803e3d6000fd5b505050506040513d6020811015610ad257600080fd5b5051600955600754610aed906001600160a01b031682611087565b50565b60006105653384610676856040518060600160405280602581526020016112ec602591393360009081526001602090815260408083206001600160a01b038d1684529091529020549190610ff0565b6006546040805163526575a160e11b815290516000926001600160a01b03169163a4caeb42916004808301926020929190829003018186803b15801561050057600080fd5b6007546000906001600160a01b0316331415610bad57600780546001600160a01b031916331790555b6106158383611177565b600654604080516305f0291760e51b815290516000926001600160a01b03169163be0522e0916004808301926020929190829003018186803b15801561050057600080fd5b60095481565b6001600160a01b03918216600090815260016020908152604080832093909416825291909152205490565b6006546040805163ef78d4fd60e01b815290516000926001600160a01b03169163ef78d4fd916004808301926020929190829003018186803b15801561050057600080fd5b600082820183811015610615576040805162461bcd60e51b815260206004820152601b60248201527f536166654d6174683a206164646974696f6e206f766572666c6f770000000000604482015290519081900360640190fd5b600082610cdb57506000610569565b82820282848281610ce857fe5b04146106155760405162461bcd60e51b815260040180806020018281038252602181526020018061125a6021913960400191505060405180910390fd5b600061061583836040518060400160405280601e81526020017f536166654d6174683a207375627472616374696f6e206f766572666c6f770000815250610ff0565b6001600160a01b038316610dac5760405162461bcd60e51b81526004018080602001828103825260248152602001806112c86024913960400191505060405180910390fd5b6001600160a01b038216610df15760405162461bcd60e51b81526004018080602001828103825260228152602001806112126022913960400191505060405180910390fd5b6001600160a01b03808416600081815260016020908152604080832094871680845294825291829020859055815185815291517f8c5be1e5ebec7d5bd14f71427d1e84f3dd0314c0f7b2291e5b200ac8c7c3b9259281900390910190a3505050565b600061061583836040518060400160405280601a81526020017f536166654d6174683a206469766973696f6e206279207a65726f000000000000815250611184565b6001600160a01b038316610eda5760405162461bcd60e51b81526004018080602001828103825260258152602001806112a36025913960400191505060405180910390fd5b6001600160a01b038216610f1f5760405162461bcd60e51b81526004018080602001828103825260238152602001806111ef6023913960400191505060405180910390fd5b610f2a8383836111e9565b610f6781604051806060016040528060268152602001611234602691396001600160a01b0386166000908152602081905260409020549190610ff0565b6001600160a01b038085166000908152602081905260408082209390935590841681522054610f969082610c72565b6001600160a01b038084166000818152602081815260409182902094909455805185815290519193928716927fddf252ad1be2c89b69c2b068fc378daa952ba7f163c4a11628f55a4df523b3ef92918290030190a3505050565b6000818484111561107f5760405162461bcd60e51b81526004018080602001828103825283818151815260200191508051906020019080838360005b8381101561104457818101518382015260200161102c565b50505050905090810190601f1680156110715780820380516001836020036101000a031916815260200191505b509250505060405180910390fd5b505050900390565b6001600160a01b0382166110e2576040805162461bcd60e51b815260206004820152601f60248201527f45524332303a206d696e7420746f20746865207a65726f206164647265737300604482015290519081900360640190fd5b6110ee600083836111e9565b6002546110fb9082610c72565b6002556001600160a01b0382166000908152602081905260409020546111219082610c72565b6001600160a01b0383166000818152602081815260408083209490945583518581529351929391927fddf252ad1be2c89b69c2b068fc378daa952ba7f163c4a11628f55a4df523b3ef9281900390910190a35050565b6000610565338484610e95565b600081836111d35760405162461bcd60e51b815260206004820181815283516024840152835190928392604490910191908501908083836000831561104457818101518382015260200161102c565b5060008385816111df57fe5b0495945050505050565b50505056fe45524332303a207472616e7366657220746f20746865207a65726f206164647265737345524332303a20617070726f766520746f20746865207a65726f206164647265737345524332303a207472616e7366657220616d6f756e7420657863656564732062616c616e6365536166654d6174683a206d756c7469706c69636174696f6e206f766572666c6f7745524332303a207472616e7366657220616d6f756e74206578636565647320616c6c6f77616e636545524332303a207472616e736665722066726f6d20746865207a65726f206164647265737345524332303a20617070726f76652066726f6d20746865207a65726f206164647265737345524332303a2064656372656173656420616c6c6f77616e63652062656c6f77207a65726fa2646970667358221220ba6a04e080ef0a7c22d15277cff7213db74c1ef376f536b0babd98c7bd0bfed764736f6c63430007010033536166654d6174683a206d756c7469706c69636174696f6e206f766572666c6f77546f6b656e73206172726179206c656e677468206d75737420657175616c2073726373206172726179596f752063616e206f6e6c792074727573742070656f706c6520616674657220796f75277665207369676e656420757021546f6b656e73206172726179206c656e677468206d75737420657175616c206465737473206172726179546f6b656e73206172726179206c656e677468206d75737420657175616c20616d6f756e7473206172726179536166654d6174683a206d756c7469706c69636174696f6e206f766572666c6f77506174682073656e64732066726f6d206d6f7265207468616e206f6e65207372634c696d6974206d75737420626520612070657263656e74616765206f7574206f66203130305061746820646f65736e27742073656e642066726f6d207472616e73616374696f6e2073656e646572556e657175616c2073656e7420616e6420726563656976656420616d6f756e7473a26469706673582212202f79c6844f956cc785460aa267964033a169f18b93a6c47e03ea83f240f5ac9b64736f6c63430007010033536166654d6174683a206d756c7469706c69636174696f6e206f766572666c6f77",
  "immutableReferences": {},
  "source": "// SPDX-License-Identifier: AGPL\npragma solidity ^0.7.0;\n\nimport \"@openzeppelin/contracts/math/SafeMath.sol\";\nimport \"./Token.sol\";\n\ncontract Hub {\n    using SafeMath for uint256;\n\n    address public owner;\n\n    uint256 public inflation;\n    uint256 public divisor;\n    uint256 public period;\n    string public symbol;\n    uint256 public initialPayout;\n    uint256 public initialIssuance;\n    uint256 public deployedAt;\n    uint256 public timeout;\n\n    mapping (address => Token) public userToToken;\n    mapping (address => address) public tokenToUser;\n    mapping (address => bool) public organizations;\n    mapping (address => mapping (address => uint256)) public limits;\n\n    event Signup(address indexed user, address token);\n    event OrganizationSignup(address indexed organization);\n    event Trust(address indexed canSendTo, address indexed user, uint256 limit);\n    event HubTransfer(address indexed from, address indexed to, uint256 amount);\n\n    struct transferValidator {\n        address identity;\n        uint256 sent;\n        uint256 received;\n    }\n\n    mapping (address => transferValidator) public validation;\n    address[] public seen;\n\n    modifier onlyOwner() {\n        require (msg.sender == owner);\n        _;\n    }\n\n    constructor(\n        address _owner,\n        uint256 _inflation,\n        uint256 _period,\n        string memory _symbol,\n        uint256 _initialPayout,\n        uint256 _initialIssuance,\n        uint256 _timeout\n    ) {\n        require (_owner != address(0));\n        owner = _owner;\n        inflation = _inflation;\n        divisor = findDivisor(_inflation);\n        period = _period;\n        symbol = _symbol;\n        initialPayout = _initialPayout;\n        initialIssuance = _initialIssuance;\n        deployedAt = block.timestamp;\n        timeout = _timeout;\n    }\n\n    function findDivisor(uint256 _inf) internal pure returns (uint256) {\n        uint256 iter = 0;\n        while (_inf.div(pow(10, iter)) > 9) {\n            iter += 1;\n        }\n        return pow(10, iter);\n    }\n\n    /// @return the amount of periods since hub was deployed\n    function periods() public view returns (uint256) {\n        return (block.timestamp.sub(deployedAt)).div(period);\n    }\n\n    /// @return current issuance rate\n    function issuance() public view returns (uint256) {\n        return inflate(initialIssuance, periods());\n    }\n\n    /// @return what the issuance would be at a particular amount of periods\n    function issuanceStep(uint256 _periods) public view returns (uint256) {\n        return inflate(initialIssuance, _periods);\n    }\n\n    /// @return initial issuance rate as if interest (inflation) has been compounded period times\n    function inflate(uint256 _initial, uint256 _periods) public view returns (uint256) {\n        uint256 q = pow(inflation, _periods);\n        uint256 d = pow(divisor, _periods);\n        return (_initial.mul(q)).div(d);\n    }\n\n    function time() public view returns (uint256) { return block.timestamp; }\n\n    function signup() public {\n        require(address(userToToken[msg.sender]) == address(0));\n\n        Token token = new Token(msg.sender, initialPayout);\n        userToToken[msg.sender] = token;\n        tokenToUser[address(token)] = msg.sender;\n        _trust(msg.sender, 100);\n\n        emit Signup(msg.sender, address(token));\n    }\n\n    function organizationSignup() public {\n        require(organizations[msg.sender] == false);\n\n        organizations[msg.sender] = true;\n        _trust(msg.sender, 100);\n\n        emit OrganizationSignup(msg.sender);\n    }\n\n    // Trust does not have to be reciprocated.\n    // (e.g. I can trust you but you don't have to trust me)\n    function trust(address user, uint limit) public {\n        require(address(userToToken[msg.sender]) != address(0) || organizations[msg.sender], \"You can only trust people after you've signed up!\");\n        require(msg.sender != user, \"You can't untrust yourself\");\n        require(organizations[user] == false, \"You can't trust an organization\");\n        require(limit <= 100, \"Limit must be a percentage out of 100\");\n        _trust(user, limit);\n    }\n\n    function _trust(address user, uint limit) internal {\n        limits[msg.sender][user] = limit;\n        emit Trust(msg.sender, user, limit);\n    }\n\n    function pow(uint256 base, uint256 exponent) public pure returns (uint256) {\n        if (base == 0) {\n            return 0;\n        }\n        if (exponent == 0) {\n            return 1;\n        }\n        if (exponent == 1) {\n            return base;\n        }\n        uint256 y = 1;\n        while(exponent > 1) {\n            if(exponent.mod(2) == 0) {\n                base = base.mul(base);\n                exponent = exponent.div(2);\n            } else {\n                y = base.mul(y);\n                base = base.mul(base);\n                exponent = (exponent.sub(1)).div(2);\n            }\n        }\n        return base.mul(y);\n    }\n\n    /// @return the amount of tokenowner's token src can send to dest\n    function checkSendLimit(address tokenOwner, address src, address dest) public view returns (uint256) {\n\n        // there is no trust\n        if (limits[dest][tokenOwner] == 0) {\n            return 0;\n        }\n\n        // if dest hasn't signed up, they cannot trust anyone\n        if (address(userToToken[dest]) == address(0) && !organizations[dest] ) {\n            return 0;\n        }\n\n        //if the token doesn't exist, return 0\n        // uint256 max = (userToToken[dest].totalSupply().mul(limits[dest][tokenOwner])).div(100);\n        if (address(userToToken[tokenOwner]) == address(0)) {\n             return 0;\n        }\n\n        uint256 srcBalance = userToToken[tokenOwner].balanceOf(src);\n\n        // if sending dest's token to dest, src can send 100% of their holdings\n        if (tokenOwner == dest || organizations[dest]) {\n            return srcBalance;\n        }\n        uint256 destBalance = userToToken[tokenOwner].balanceOf(dest);\n        \n        uint256 max = (userToToken[dest].totalSupply().mul(limits[dest][tokenOwner])).div(100);\n        // if trustLimit has already been overriden by a direct transfer, nothing more can be sent\n        if (max < destBalance) return 0;\n        return max.sub(destBalance);\n    }\n\n    // build the data structures we will use for validation\n    // if we haven't seen the addresses, add them to the validation mapping\n    // if we have, increment their sent/received amounts\n    function buildValidationData(address src, address dest, uint wad) internal {\n        if (validation[src].identity != address(0)) {\n            validation[src].sent = validation[src].sent.add(wad);\n        } else {\n            validation[src].identity = src;\n            validation[src].sent = wad;\n            seen.push(src);\n        }\n        if (validation[dest].identity != address(0)) {\n            validation[dest].received = validation[dest].received.add(wad);\n        } else {\n            validation[dest].identity = dest;\n            validation[dest].received = wad; \n            seen.push(dest);   \n        }\n    }\n\n    function validateTransferThrough(uint256 steps) internal {\n        // a valid path has only one true sender and reciever, for all other\n        // addresses in the path, sent = received\n        // also, the sender should be msg.sender\n        address src;\n        address dest;\n        for (uint i = 0; i < seen.length; i++) {\n            transferValidator memory curr = validation[seen[i]];\n            if (curr.sent > curr.received) {\n                require(src == address(0), \"Path sends from more than one src\");\n                require(curr.identity == msg.sender, \"Path doesn't send from transaction sender\");\n                src = curr.identity;\n            }\n            if (curr.received > curr.sent) {\n                require(dest == address(0), \"Path sends to more than one dest\");\n                dest = curr.identity;\n            }\n        }\n        require(src != address(0), \"Transaction must have a src\");\n        require(dest != address(0), \"Transaction must have a dest\");\n        // sender should not recieve, recipient should not send\n        require(validation[src].received == 0, \"Sender is receiving\");\n        require(validation[dest].sent == 0, \"Recipient is sending\");\n        // the total amounts sent and received by src and dest should match\n        require(validation[src].sent == validation[dest].received, \"Unequal sent and received amounts\");\n        // the maximum amount of addresses we should see is one more than steps in the path\n        require(seen.length <= steps + 1, \"Seen too many addresses\");\n        emit HubTransfer(src, dest, validation[src].sent);\n        // clean up the validation datastructures\n        for (uint i = seen.length; i >= 1; i--) {\n            validation[seen[i-1]].sent = 0;\n            validation[seen[i-1]].received = 0;\n            validation[seen[i-1]].identity = address(0);\n            seen.pop();\n        }\n        // sanity check that we cleaned everything up correctly\n        require(seen.length == 0, \"Seen should be empty\");\n    }\n\n    // Walks through tokenOwners, srcs, dests, and amounts array and\n    // executes transtive transfer - also validates path\n    function transferThrough(\n        address[] memory tokenOwners,\n        address[] memory srcs,\n        address[] memory dests,\n        uint[] memory wads\n    ) public {\n        require(dests.length == tokenOwners.length, \"Tokens array length must equal dests array\");\n        require(srcs.length == tokenOwners.length, \"Tokens array length must equal srcs array\");\n        require(wads.length == tokenOwners.length, \"Tokens array length must equal amounts array\");\n        for (uint i = 0; i < srcs.length; i++) {\n            address src = srcs[i];\n            address dest = dests[i];\n            address token = tokenOwners[i];\n            uint256 wad = wads[i];\n            \n            // check that no trust limits are violated\n            // you always trust yourself 100%\n            if (token != dest) {\n                uint256 max = checkSendLimit(token, src, dest);\n                require(\n                    userToToken[token].balanceOf(dest).add(wad) <= max,\n                    \"Trust limit exceeded\"\n                );\n            }\n\n            buildValidationData(src, dest, wad);\n\n            userToToken[token].hubTransfer(src, dest, wad);\n        }\n        validateTransferThrough(srcs.length);\n    }\n}\n\n",
  "sourcePath": "/media/000/Documents/Circles/circles-contracts/contracts/Hub.sol",
  "compiler": {
    "name": "solc",
    "version": "0.7.1+commit.f4a555be.Emscripten.clang"
  },
  "schemaVersion": "3.2.3",
  "updatedAt": "2020-09-18T23:05:42.534Z",
  "devdoc": {
    "kind": "dev",
    "methods": {
      "checkSendLimit(address,address,address)": {
        "returns": {
          "_0": "the amount of tokenowner's token src can send to dest"
        }
      },
      "inflate(uint256,uint256)": {
        "returns": {
          "_0": "initial issuance rate as if interest (inflation) has been compounded period times"
        }
      },
      "issuance()": {
        "returns": {
          "_0": "current issuance rate"
        }
      },
      "issuanceStep(uint256)": {
        "returns": {
          "_0": "what the issuance would be at a particular amount of periods"
        }
      },
      "periods()": {
        "returns": {
          "_0": "the amount of periods since hub was deployed"
        }
      }
    },
    "version": 1
  },
  "userdoc": {
    "kind": "user",
    "methods": {},
    "version": 1
  }
}