{
  "contractName": "Hub",
  "abi": [
    {
      "constant": true,
      "inputs": [],
      "name": "divisor",
      "outputs": [
        {
          "name": "",
          "type": "uint256"
        }
      ],
      "payable": false,
      "stateMutability": "view",
      "type": "function"
    },
    {
      "constant": true,
      "inputs": [
        {
          "name": "",
          "type": "address"
        }
      ],
      "name": "userToToken",
      "outputs": [
        {
          "name": "",
          "type": "address"
        }
      ],
      "payable": false,
      "stateMutability": "view",
      "type": "function"
    },
    {
      "constant": true,
      "inputs": [],
      "name": "initialPayout",
      "outputs": [
        {
          "name": "",
          "type": "uint256"
        }
      ],
      "payable": false,
      "stateMutability": "view",
      "type": "function"
    },
    {
      "constant": true,
      "inputs": [],
      "name": "startingRate",
      "outputs": [
        {
          "name": "",
          "type": "uint256"
        }
      ],
      "payable": false,
      "stateMutability": "view",
      "type": "function"
    },
    {
      "constant": true,
      "inputs": [
        {
          "name": "",
          "type": "address"
        }
      ],
      "name": "validation",
      "outputs": [
        {
          "name": "identity",
          "type": "address"
        },
        {
          "name": "sent",
          "type": "uint256"
        },
        {
          "name": "received",
          "type": "uint256"
        }
      ],
      "payable": false,
      "stateMutability": "view",
      "type": "function"
    },
    {
      "constant": true,
      "inputs": [
        {
          "name": "",
          "type": "uint256"
        }
      ],
      "name": "seen",
      "outputs": [
        {
          "name": "",
          "type": "address"
        }
      ],
      "payable": false,
      "stateMutability": "view",
      "type": "function"
    },
    {
      "constant": true,
      "inputs": [],
      "name": "owner",
      "outputs": [
        {
          "name": "",
          "type": "address"
        }
      ],
      "payable": false,
      "stateMutability": "view",
      "type": "function"
    },
    {
      "constant": true,
      "inputs": [],
      "name": "symbol",
      "outputs": [
        {
          "name": "",
          "type": "string"
        }
      ],
      "payable": false,
      "stateMutability": "view",
      "type": "function"
    },
    {
      "constant": true,
      "inputs": [
        {
          "name": "",
          "type": "address"
        }
      ],
      "name": "tokenToUser",
      "outputs": [
        {
          "name": "",
          "type": "address"
        }
      ],
      "payable": false,
      "stateMutability": "view",
      "type": "function"
    },
    {
      "constant": true,
      "inputs": [
        {
          "name": "",
          "type": "address"
        },
        {
          "name": "",
          "type": "address"
        }
      ],
      "name": "limits",
      "outputs": [
        {
          "name": "",
          "type": "uint256"
        }
      ],
      "payable": false,
      "stateMutability": "view",
      "type": "function"
    },
    {
      "constant": true,
      "inputs": [],
      "name": "inflation",
      "outputs": [
        {
          "name": "",
          "type": "uint256"
        }
      ],
      "payable": false,
      "stateMutability": "view",
      "type": "function"
    },
    {
      "constant": true,
      "inputs": [],
      "name": "deployedAt",
      "outputs": [
        {
          "name": "",
          "type": "uint256"
        }
      ],
      "payable": false,
      "stateMutability": "view",
      "type": "function"
    },
    {
      "constant": true,
      "inputs": [],
      "name": "period",
      "outputs": [
        {
          "name": "",
          "type": "uint256"
        }
      ],
      "payable": false,
      "stateMutability": "view",
      "type": "function"
    },
    {
      "inputs": [
        {
          "name": "_owner",
          "type": "address"
        },
        {
          "name": "_inflation",
          "type": "uint256"
        },
        {
          "name": "_period",
          "type": "uint256"
        },
        {
          "name": "_symbol",
          "type": "string"
        },
        {
          "name": "_initialPayout",
          "type": "uint256"
        },
        {
          "name": "_startingRate",
          "type": "uint256"
        }
      ],
      "payable": false,
      "stateMutability": "nonpayable",
      "type": "constructor"
    },
    {
      "anonymous": false,
      "inputs": [
        {
          "indexed": true,
          "name": "user",
          "type": "address"
        },
        {
          "indexed": false,
          "name": "token",
          "type": "address"
        }
      ],
      "name": "Signup",
      "type": "event"
    },
    {
      "anonymous": false,
      "inputs": [
        {
          "indexed": true,
          "name": "canSendTo",
          "type": "address"
        },
        {
          "indexed": true,
          "name": "user",
          "type": "address"
        },
        {
          "indexed": false,
          "name": "limit",
          "type": "uint256"
        }
      ],
      "name": "Trust",
      "type": "event"
    },
    {
      "anonymous": false,
      "inputs": [
        {
          "indexed": true,
          "name": "from",
          "type": "address"
        },
        {
          "indexed": true,
          "name": "to",
          "type": "address"
        },
        {
          "indexed": false,
          "name": "amount",
          "type": "uint256"
        }
      ],
      "name": "HubTransfer",
      "type": "event"
    },
    {
      "constant": true,
      "inputs": [],
      "name": "periods",
      "outputs": [
        {
          "name": "",
          "type": "uint256"
        }
      ],
      "payable": false,
      "stateMutability": "view",
      "type": "function"
    },
    {
      "constant": true,
      "inputs": [],
      "name": "issuance",
      "outputs": [
        {
          "name": "",
          "type": "uint256"
        }
      ],
      "payable": false,
      "stateMutability": "view",
      "type": "function"
    },
    {
      "constant": true,
      "inputs": [
        {
          "name": "_initial",
          "type": "uint256"
        },
        {
          "name": "_periods",
          "type": "uint256"
        }
      ],
      "name": "inflate",
      "outputs": [
        {
          "name": "",
          "type": "uint256"
        }
      ],
      "payable": false,
      "stateMutability": "view",
      "type": "function"
    },
    {
      "constant": false,
      "inputs": [
        {
          "name": "_newOwner",
          "type": "address"
        }
      ],
      "name": "changeOwner",
      "outputs": [
        {
          "name": "",
          "type": "bool"
        }
      ],
      "payable": false,
      "stateMutability": "nonpayable",
      "type": "function"
    },
    {
      "constant": false,
      "inputs": [
        {
          "name": "_inflation",
          "type": "uint256"
        }
      ],
      "name": "updateInflation",
      "outputs": [
        {
          "name": "",
          "type": "bool"
        }
      ],
      "payable": false,
      "stateMutability": "nonpayable",
      "type": "function"
    },
    {
      "constant": false,
      "inputs": [
        {
          "name": "_symbol",
          "type": "string"
        }
      ],
      "name": "updateSymbol",
      "outputs": [
        {
          "name": "",
          "type": "bool"
        }
      ],
      "payable": false,
      "stateMutability": "nonpayable",
      "type": "function"
    },
    {
      "constant": true,
      "inputs": [],
      "name": "time",
      "outputs": [
        {
          "name": "",
          "type": "uint256"
        }
      ],
      "payable": false,
      "stateMutability": "view",
      "type": "function"
    },
    {
      "constant": false,
      "inputs": [
        {
          "name": "_name",
          "type": "string"
        }
      ],
      "name": "signup",
      "outputs": [
        {
          "name": "",
          "type": "bool"
        }
      ],
      "payable": false,
      "stateMutability": "nonpayable",
      "type": "function"
    },
    {
      "constant": false,
      "inputs": [
        {
          "name": "user",
          "type": "address"
        },
        {
          "name": "limit",
          "type": "uint256"
        }
      ],
      "name": "trust",
      "outputs": [],
      "payable": false,
      "stateMutability": "nonpayable",
      "type": "function"
    },
    {
      "constant": true,
      "inputs": [
        {
          "name": "base",
          "type": "uint256"
        },
        {
          "name": "exponent",
          "type": "uint256"
        }
      ],
      "name": "pow",
      "outputs": [
        {
          "name": "",
          "type": "uint256"
        }
      ],
      "payable": false,
      "stateMutability": "pure",
      "type": "function"
    },
    {
      "constant": true,
      "inputs": [
        {
          "name": "tokenOwner",
          "type": "address"
        },
        {
          "name": "src",
          "type": "address"
        },
        {
          "name": "dest",
          "type": "address"
        }
      ],
      "name": "checkSendLimit",
      "outputs": [
        {
          "name": "",
          "type": "uint256"
        }
      ],
      "payable": false,
      "stateMutability": "view",
      "type": "function"
    },
    {
      "constant": false,
      "inputs": [
        {
          "name": "tokenOwners",
          "type": "address[]"
        },
        {
          "name": "srcs",
          "type": "address[]"
        },
        {
          "name": "dests",
          "type": "address[]"
        },
        {
          "name": "wads",
          "type": "uint256[]"
        }
      ],
      "name": "transferThrough",
      "outputs": [],
      "payable": false,
      "stateMutability": "nonpayable",
      "type": "function"
    }
  ],
  "bytecode": "0x60806040523480156200001157600080fd5b506040516200601b3803806200601b833981018060405260c08110156200003757600080fd5b8101908080519060200190929190805190602001909291908051906020019092919080516401000000008111156200006e57600080fd5b828101905060208101848111156200008557600080fd5b8151856001820283011164010000000082111715620000a357600080fd5b50509291906020018051906020019092919080519060200190929190505050600073ffffffffffffffffffffffffffffffffffffffff168673ffffffffffffffffffffffffffffffffffffffff161415620000fd57600080fd5b856000806101000a81548173ffffffffffffffffffffffffffffffffffffffff021916908373ffffffffffffffffffffffffffffffffffffffff1602179055508460018190555062000155856200019c60201b60201c565b6002819055508360038190555082600490805190602001906200017a929190620003f4565b50816005819055508060068190555042600781905550505050505050620004a3565b600080600090505b6009620001d2620001bd600a846200020060201b60201c565b856200034a60201b620022741790919060201c565b1115620001e557600181019050620001a4565b620001f8600a826200020060201b60201c565b915050919050565b60008083141562000215576000905062000344565b600082141562000229576001905062000344565b60018214156200023c5782905062000344565b6000600190505b6001831115620003265760006200026a6002856200037260201b6200229c1790919060201c565b1415620002b0576200028b84856200039560201b620022361790919060201c565b9350620002a86002846200034a60201b620022741790919060201c565b925062000320565b620002ca81856200039560201b620022361790919060201c565b9050620002e684856200039560201b620022361790919060201c565b93506200031d600262000309600186620003d360201b620022bf1790919060201c565b6200034a60201b620022741790919060201c565b92505b62000243565b6200034081856200039560201b620022361790919060201c565b9150505b92915050565b60008082116200035957600080fd5b60008284816200036557fe5b0490508091505092915050565b6000808214156200038257600080fd5b8183816200038c57fe5b06905092915050565b600080831415620003aa5760009050620003cd565b6000828402905082848281620003bc57fe5b0414620003c857600080fd5b809150505b92915050565b600082821115620003e357600080fd5b600082840390508091505092915050565b828054600181600116156101000203166002900490600052602060002090601f016020900481019282601f106200043757805160ff191683800117855562000468565b8280016001018555821562000468579182015b82811115620004675782518255916020019190600101906200044a565b5b5090506200047791906200047b565b5090565b620004a091905b808211156200049c57600081600090555060010162000482565b5090565b90565b615b6880620004b36000396000f3fe60806040523480156200001157600080fd5b5060043610620001965760003560e01c8063863623bb11620000f3578063a3eb2b4a11620000a5578063be0522e0116200007b578063be0522e014620009a2578063d62fd9a214620009c2578063eae4c19f1462000c45578063ef78d4fd1462000c655762000196565b8063a3eb2b4a14620008a8578063a4caeb421462000923578063a6f9dae114620009435762000196565b8063863623bb14620006415780638a0ef18414620006615780638da5cb5b14620006fc57806395d89b4114620007485780639951d62f14620007d0578063a18b506b14620008215762000196565b806330387a4f116200014d57806330387a4f146200034957806339ee514c1462000369578063519c63771462000389578063537f5312146200046257806377ed63c2146200053b5780637f501d0414620005d05762000196565b806316ada547146200019b5780631f2dc5ef14620001bb57806328d249fe14620001db5780632a93834214620002625780632ad3b3c314620002b15780632e4c697f14620002fa575b600080fd5b620001a562000c85565b6040518082815260200191505060405180910390f35b620001c562000c8d565b6040518082815260200191505060405180910390f35b6200022060048036036020811015620001f357600080fd5b81019080803573ffffffffffffffffffffffffffffffffffffffff16906020019092919050505062000c93565b604051808273ffffffffffffffffffffffffffffffffffffffff1673ffffffffffffffffffffffffffffffffffffffff16815260200191505060405180910390f35b6200029b600480360360408110156200027a57600080fd5b81019080803590602001909291908035906020019092919050505062000cc6565b6040518082815260200191505060405180910390f35b620002e060048036036020811015620002c957600080fd5b810190808035906020019092919050505062000d1e565b604051808215151515815260200191505060405180910390f35b62000333600480360360408110156200031257600080fd5b81019080803590602001909291908035906020019092919050505062000d8a565b6040518082815260200191505060405180910390f35b6200035362000eac565b6040518082815260200191505060405180910390f35b6200037362000eb2565b6040518082815260200191505060405180910390f35b6200044860048036036020811015620003a157600080fd5b8101908080359060200190640100000000811115620003bf57600080fd5b820183602082011115620003d257600080fd5b80359060200191846001830284011164010000000083111715620003f557600080fd5b91908080601f016020809104026020016040519081016040528093929190818152602001838380828437600081840152601f19601f82011690508083019250505050505050919291929050505062000eb8565b604051808215151515815260200191505060405180910390f35b62000521600480360360208110156200047a57600080fd5b81019080803590602001906401000000008111156200049857600080fd5b820183602082011115620004ab57600080fd5b80359060200191846001830284011164010000000083111715620004ce57600080fd5b91908080601f016020809104026020016040519081016040528093929190818152602001838380828437600081840152601f19601f820116905080830192505050505050509192919290505050620011c0565b604051808215151515815260200191505060405180910390f35b62000580600480360360208110156200055357600080fd5b81019080803573ffffffffffffffffffffffffffffffffffffffff1690602001909291905050506200123e565b604051808473ffffffffffffffffffffffffffffffffffffffff1673ffffffffffffffffffffffffffffffffffffffff168152602001838152602001828152602001935050505060405180910390f35b620005ff60048036036020811015620005e857600080fd5b810190808035906020019092919050505062001288565b604051808273ffffffffffffffffffffffffffffffffffffffff1673ffffffffffffffffffffffffffffffffffffffff16815260200191505060405180910390f35b6200064b620012c5565b6040518082815260200191505060405180910390f35b620006e6600480360360608110156200067957600080fd5b81019080803573ffffffffffffffffffffffffffffffffffffffff169060200190929190803573ffffffffffffffffffffffffffffffffffffffff169060200190929190803573ffffffffffffffffffffffffffffffffffffffff169060200190929190505050620012e3565b6040518082815260200191505060405180910390f35b62000706620018f2565b604051808273ffffffffffffffffffffffffffffffffffffffff1673ffffffffffffffffffffffffffffffffffffffff16815260200191505060405180910390f35b6200075262001917565b6040518080602001828103825283818151815260200191508051906020019080838360005b838110156200079457808201518184015260208101905062000777565b50505050905090810190601f168015620007c25780820380516001836020036101000a031916815260200191505b509250505060405180910390f35b6200081f60048036036040811015620007e857600080fd5b81019080803573ffffffffffffffffffffffffffffffffffffffff16906020019092919080359060200190929190505050620019b9565b005b62000866600480360360208110156200083957600080fd5b81019080803573ffffffffffffffffffffffffffffffffffffffff16906020019092919050505062001b53565b604051808273ffffffffffffffffffffffffffffffffffffffff1673ffffffffffffffffffffffffffffffffffffffff16815260200191505060405180910390f35b6200090d60048036036040811015620008c057600080fd5b81019080803573ffffffffffffffffffffffffffffffffffffffff169060200190929190803573ffffffffffffffffffffffffffffffffffffffff16906020019092919050505062001b86565b6040518082815260200191505060405180910390f35b6200092d62001bab565b6040518082815260200191505060405180910390f35b62000988600480360360208110156200095b57600080fd5b81019080803573ffffffffffffffffffffffffffffffffffffffff16906020019092919050505062001bdf565b604051808215151515815260200191505060405180910390f35b620009ac62001cbf565b6040518082815260200191505060405180910390f35b62000c4360048036036080811015620009da57600080fd5b8101908080359060200190640100000000811115620009f857600080fd5b82018360208201111562000a0b57600080fd5b8035906020019184602083028401116401000000008311171562000a2e57600080fd5b919080806020026020016040519081016040528093929190818152602001838360200280828437600081840152601f19601f8201169050808301925050505050505091929192908035906020019064010000000081111562000a8f57600080fd5b82018360208201111562000aa257600080fd5b8035906020019184602083028401116401000000008311171562000ac557600080fd5b919080806020026020016040519081016040528093929190818152602001838360200280828437600081840152601f19601f8201169050808301925050505050505091929192908035906020019064010000000081111562000b2657600080fd5b82018360208201111562000b3957600080fd5b8035906020019184602083028401116401000000008311171562000b5c57600080fd5b919080806020026020016040519081016040528093929190818152602001838360200280828437600081840152601f19601f8201169050808301925050505050505091929192908035906020019064010000000081111562000bbd57600080fd5b82018360208201111562000bd057600080fd5b8035906020019184602083028401116401000000008311171562000bf357600080fd5b919080806020026020016040519081016040528093929190818152602001838360200280828437600081840152601f19601f82011690508083019250505050505050919291929050505062001cc5565b005b62000c4f6200222a565b6040518082815260200191505060405180910390f35b62000c6f62002230565b6040518082815260200191505060405180910390f35b600042905090565b60025481565b60086020528060005260406000206000915054906101000a900473ffffffffffffffffffffffffffffffffffffffff1681565b60008062000cd76001548462000d8a565b9050600062000ce96002548562000d8a565b905062000d148162000d0584886200223690919063ffffffff16565b6200227490919063ffffffff16565b9250505092915050565b60008060009054906101000a900473ffffffffffffffffffffffffffffffffffffffff1673ffffffffffffffffffffffffffffffffffffffff163373ffffffffffffffffffffffffffffffffffffffff161462000d7a57600080fd5b8160018190555060019050919050565b60008083141562000d9f576000905062000ea6565b600082141562000db3576001905062000ea6565b600182141562000dc65782905062000ea6565b6000600190505b600183111562000e8d57600062000def6002856200229c90919063ffffffff16565b141562000e2b5762000e0b84856200223690919063ffffffff16565b935062000e236002846200227490919063ffffffff16565b925062000e87565b62000e4081856200223690919063ffffffff16565b905062000e5784856200223690919063ffffffff16565b935062000e84600262000e75600186620022bf90919063ffffffff16565b6200227490919063ffffffff16565b92505b62000dcd565b62000ea281856200223690919063ffffffff16565b9150505b92915050565b60055481565b60065481565b60008073ffffffffffffffffffffffffffffffffffffffff16600860003373ffffffffffffffffffffffffffffffffffffffff1673ffffffffffffffffffffffffffffffffffffffff16815260200190815260200160002060009054906101000a900473ffffffffffffffffffffffffffffffffffffffff1673ffffffffffffffffffffffffffffffffffffffff161462000f5257600080fd5b6000338360055460405162000f67906200332d565b808473ffffffffffffffffffffffffffffffffffffffff1673ffffffffffffffffffffffffffffffffffffffff16815260200180602001838152602001828103825284818151815260200191508051906020019080838360005b8381101562000fde57808201518184015260208101905062000fc1565b50505050905090810190601f1680156200100c5780820380516001836020036101000a031916815260200191505b50945050505050604051809103906000f08015801562001030573d6000803e3d6000fd5b50905080600860003373ffffffffffffffffffffffffffffffffffffffff1673ffffffffffffffffffffffffffffffffffffffff16815260200190815260200160002060006101000a81548173ffffffffffffffffffffffffffffffffffffffff021916908373ffffffffffffffffffffffffffffffffffffffff16021790555033600960008373ffffffffffffffffffffffffffffffffffffffff1673ffffffffffffffffffffffffffffffffffffffff16815260200190815260200160002060006101000a81548173ffffffffffffffffffffffffffffffffffffffff021916908373ffffffffffffffffffffffffffffffffffffffff1602179055506200113c336064620022e0565b3373ffffffffffffffffffffffffffffffffffffffff167f358ba8f768af134eb5af120e9a61dc1ef29b29f597f047b555fc3675064a034282604051808273ffffffffffffffffffffffffffffffffffffffff1673ffffffffffffffffffffffffffffffffffffffff16815260200191505060405180910390a26001915050919050565b60008060009054906101000a900473ffffffffffffffffffffffffffffffffffffffff1673ffffffffffffffffffffffffffffffffffffffff163373ffffffffffffffffffffffffffffffffffffffff16146200121c57600080fd5b8160049080519060200190620012349291906200333b565b5060019050919050565b600b6020528060005260406000206000915090508060000160009054906101000a900473ffffffffffffffffffffffffffffffffffffffff16908060010154908060020154905083565b600c81815481106200129657fe5b906000526020600020016000915054906101000a900473ffffffffffffffffffffffffffffffffffffffff1681565b6000620012de600654620012d862001bab565b62000cc6565b905090565b600080600a60008473ffffffffffffffffffffffffffffffffffffffff1673ffffffffffffffffffffffffffffffffffffffff16815260200190815260200160002060008673ffffffffffffffffffffffffffffffffffffffff1673ffffffffffffffffffffffffffffffffffffffff168152602001908152602001600020541415620013745760009050620018eb565b600073ffffffffffffffffffffffffffffffffffffffff16600860008473ffffffffffffffffffffffffffffffffffffffff1673ffffffffffffffffffffffffffffffffffffffff16815260200190815260200160002060009054906101000a900473ffffffffffffffffffffffffffffffffffffffff1673ffffffffffffffffffffffffffffffffffffffff161415620014135760009050620018eb565b60006200159d60646200158e600a60008773ffffffffffffffffffffffffffffffffffffffff1673ffffffffffffffffffffffffffffffffffffffff16815260200190815260200160002060008973ffffffffffffffffffffffffffffffffffffffff1673ffffffffffffffffffffffffffffffffffffffff16815260200190815260200160002054600860008873ffffffffffffffffffffffffffffffffffffffff1673ffffffffffffffffffffffffffffffffffffffff16815260200190815260200160002060009054906101000a900473ffffffffffffffffffffffffffffffffffffffff1673ffffffffffffffffffffffffffffffffffffffff166318160ddd6040518163ffffffff1660e01b815260040160206040518083038186803b1580156200154257600080fd5b505afa15801562001557573d6000803e3d6000fd5b505050506040513d60208110156200156e57600080fd5b81019080805190602001909291905050506200223690919063ffffffff16565b6200227490919063ffffffff16565b9050600073ffffffffffffffffffffffffffffffffffffffff16600860008773ffffffffffffffffffffffffffffffffffffffff1673ffffffffffffffffffffffffffffffffffffffff16815260200190815260200160002060009054906101000a900473ffffffffffffffffffffffffffffffffffffffff1673ffffffffffffffffffffffffffffffffffffffff1614156200163e5780915050620018eb565b6000600860008773ffffffffffffffffffffffffffffffffffffffff1673ffffffffffffffffffffffffffffffffffffffff16815260200190815260200160002060009054906101000a900473ffffffffffffffffffffffffffffffffffffffff1673ffffffffffffffffffffffffffffffffffffffff166370a08231866040518263ffffffff1660e01b8152600401808273ffffffffffffffffffffffffffffffffffffffff1673ffffffffffffffffffffffffffffffffffffffff16815260200191505060206040518083038186803b1580156200171d57600080fd5b505afa15801562001732573d6000803e3d6000fd5b505050506040513d60208110156200174957600080fd5b810190808051906020019092919050505090508373ffffffffffffffffffffffffffffffffffffffff168673ffffffffffffffffffffffffffffffffffffffff1614156200179c578092505050620018eb565b6000600860008873ffffffffffffffffffffffffffffffffffffffff1673ffffffffffffffffffffffffffffffffffffffff16815260200190815260200160002060009054906101000a900473ffffffffffffffffffffffffffffffffffffffff1673ffffffffffffffffffffffffffffffffffffffff166370a08231866040518263ffffffff1660e01b8152600401808273ffffffffffffffffffffffffffffffffffffffff1673ffffffffffffffffffffffffffffffffffffffff16815260200191505060206040518083038186803b1580156200187b57600080fd5b505afa15801562001890573d6000803e3d6000fd5b505050506040513d6020811015620018a757600080fd5b8101908080519060200190929190505050905080831015620018d05760009350505050620018eb565b620018e58184620022bf90919063ffffffff16565b93505050505b9392505050565b6000809054906101000a900473ffffffffffffffffffffffffffffffffffffffff1681565b60048054600181600116156101000203166002900480601f016020809104026020016040519081016040528092919081815260200182805460018160011615610100020316600290048015620019b15780601f106200198557610100808354040283529160200191620019b1565b820191906000526020600020905b8154815290600101906020018083116200199357829003601f168201915b505050505081565b600073ffffffffffffffffffffffffffffffffffffffff16600860003373ffffffffffffffffffffffffffffffffffffffff1673ffffffffffffffffffffffffffffffffffffffff16815260200190815260200160002060009054906101000a900473ffffffffffffffffffffffffffffffffffffffff1673ffffffffffffffffffffffffffffffffffffffff16141562001aa0576040517f08c379a000000000000000000000000000000000000000000000000000000000815260040180806020018281038252603181526020018062005a4b6031913960400191505060405180910390fd5b8173ffffffffffffffffffffffffffffffffffffffff163373ffffffffffffffffffffffffffffffffffffffff16141562001b43576040517f08c379a000000000000000000000000000000000000000000000000000000000815260040180806020018281038252601a8152602001807f596f752063616e277420756e747275737420796f757273656c6600000000000081525060200191505060405180910390fd5b62001b4f8282620022e0565b5050565b60096020528060005260406000206000915054906101000a900473ffffffffffffffffffffffffffffffffffffffff1681565b600a602052816000526040600020602052806000526040600020600091509150505481565b600062001bda60035462001bcb60075442620022bf90919063ffffffff16565b6200227490919063ffffffff16565b905090565b60008060009054906101000a900473ffffffffffffffffffffffffffffffffffffffff1673ffffffffffffffffffffffffffffffffffffffff163373ffffffffffffffffffffffffffffffffffffffff161462001c3b57600080fd5b600073ffffffffffffffffffffffffffffffffffffffff168273ffffffffffffffffffffffffffffffffffffffff16141562001c7657600080fd5b816000806101000a81548173ffffffffffffffffffffffffffffffffffffffff021916908373ffffffffffffffffffffffffffffffffffffffff16021790555060019050919050565b60015481565b60058351111562001d3e576040517f08c379a00000000000000000000000000000000000000000000000000000000081526004018080602001828103825260108152602001807f546f6f20636f6d706c657820706174680000000000000000000000000000000081525060200191505060405180910390fd5b835182511462001d9a576040517f08c379a000000000000000000000000000000000000000000000000000000000815260040180806020018281038252602a81526020018062005a7c602a913960400191505060405180910390fd5b835183511462001df6576040517f08c379a000000000000000000000000000000000000000000000000000000000815260040180806020018281038252602981526020018062005a226029913960400191505060405180910390fd5b835181511462001e52576040517f08c379a000000000000000000000000000000000000000000000000000000000815260040180806020018281038252602c81526020018062005aa6602c913960400191505060405180910390fd5b60008090505b83518110156200221757600084828151811062001e7157fe5b60200260200101519050600084838151811062001e8a57fe5b60200260200101519050600087848151811062001ea357fe5b60200260200101519050600085858151811062001ebc57fe5b602002602001015190508273ffffffffffffffffffffffffffffffffffffffff168273ffffffffffffffffffffffffffffffffffffffff16146200209f57600062001f09838686620012e3565b90508082600860008673ffffffffffffffffffffffffffffffffffffffff1673ffffffffffffffffffffffffffffffffffffffff16815260200190815260200160002060009054906101000a900473ffffffffffffffffffffffffffffffffffffffff1673ffffffffffffffffffffffffffffffffffffffff166370a08231876040518263ffffffff1660e01b8152600401808273ffffffffffffffffffffffffffffffffffffffff1673ffffffffffffffffffffffffffffffffffffffff16815260200191505060206040518083038186803b15801562001fea57600080fd5b505afa15801562001fff573d6000803e3d6000fd5b505050506040513d60208110156200201657600080fd5b81019080805190602001909291905050500111156200209d576040517f08c379a00000000000000000000000000000000000000000000000000000000081526004018080602001828103825260148152602001807f5472757374206c696d697420657863656564656400000000000000000000000081525060200191505060405180910390fd5b505b620020ac848483620023ca565b600860008373ffffffffffffffffffffffffffffffffffffffff1673ffffffffffffffffffffffffffffffffffffffff16815260200190815260200160002060009054906101000a900473ffffffffffffffffffffffffffffffffffffffff1673ffffffffffffffffffffffffffffffffffffffff166320a6703c8585846040518463ffffffff1660e01b8152600401808473ffffffffffffffffffffffffffffffffffffffff1673ffffffffffffffffffffffffffffffffffffffff1681526020018373ffffffffffffffffffffffffffffffffffffffff1673ffffffffffffffffffffffffffffffffffffffff1681526020018281526020019350505050602060405180830381600087803b158015620021c757600080fd5b505af1158015620021dc573d6000803e3d6000fd5b505050506040513d6020811015620021f357600080fd5b81019080805190602001909291905050505050505050808060010191505062001e58565b50620022248351620028a1565b50505050565b60075481565b60035481565b6000808314156200224b57600090506200226e565b60008284029050828482816200225d57fe5b04146200226957600080fd5b809150505b92915050565b60008082116200228357600080fd5b60008284816200228f57fe5b0490508091505092915050565b600080821415620022ac57600080fd5b818381620022b657fe5b06905092915050565b600082821115620022cf57600080fd5b600082840390508091505092915050565b80600a60003373ffffffffffffffffffffffffffffffffffffffff1673ffffffffffffffffffffffffffffffffffffffff16815260200190815260200160002060008473ffffffffffffffffffffffffffffffffffffffff1673ffffffffffffffffffffffffffffffffffffffff168152602001908152602001600020819055508173ffffffffffffffffffffffffffffffffffffffff163373ffffffffffffffffffffffffffffffffffffffff167fe60c754dd8ab0b1b5fccba257d6ebcd7d09e360ab7dd7a6e58198ca1f57cdcec836040518082815260200191505060405180910390a35050565b600073ffffffffffffffffffffffffffffffffffffffff16600b60008573ffffffffffffffffffffffffffffffffffffffff1673ffffffffffffffffffffffffffffffffffffffff16815260200190815260200160002060000160009054906101000a900473ffffffffffffffffffffffffffffffffffffffff1673ffffffffffffffffffffffffffffffffffffffff16146200250457620024b881600b60008673ffffffffffffffffffffffffffffffffffffffff1673ffffffffffffffffffffffffffffffffffffffff168152602001908152602001600020600101546200330d90919063ffffffff16565b600b60008573ffffffffffffffffffffffffffffffffffffffff1673ffffffffffffffffffffffffffffffffffffffff1681526020019081526020016000206001018190555062002633565b82600b60008573ffffffffffffffffffffffffffffffffffffffff1673ffffffffffffffffffffffffffffffffffffffff16815260200190815260200160002060000160006101000a81548173ffffffffffffffffffffffffffffffffffffffff021916908373ffffffffffffffffffffffffffffffffffffffff16021790555080600b60008573ffffffffffffffffffffffffffffffffffffffff1673ffffffffffffffffffffffffffffffffffffffff16815260200190815260200160002060010181905550600c8390806001815401808255809150509060018203906000526020600020016000909192909190916101000a81548173ffffffffffffffffffffffffffffffffffffffff021916908373ffffffffffffffffffffffffffffffffffffffff160217905550505b600073ffffffffffffffffffffffffffffffffffffffff16600b60008473ffffffffffffffffffffffffffffffffffffffff1673ffffffffffffffffffffffffffffffffffffffff16815260200190815260200160002060000160009054906101000a900473ffffffffffffffffffffffffffffffffffffffff1673ffffffffffffffffffffffffffffffffffffffff16146200276d576200272181600b60008573ffffffffffffffffffffffffffffffffffffffff1673ffffffffffffffffffffffffffffffffffffffff168152602001908152602001600020600201546200330d90919063ffffffff16565b600b60008473ffffffffffffffffffffffffffffffffffffffff1673ffffffffffffffffffffffffffffffffffffffff168152602001908152602001600020600201819055506200289c565b81600b60008473ffffffffffffffffffffffffffffffffffffffff1673ffffffffffffffffffffffffffffffffffffffff16815260200190815260200160002060000160006101000a81548173ffffffffffffffffffffffffffffffffffffffff021916908373ffffffffffffffffffffffffffffffffffffffff16021790555080600b60008473ffffffffffffffffffffffffffffffffffffffff1673ffffffffffffffffffffffffffffffffffffffff16815260200190815260200160002060020181905550600c8290806001815401808255809150509060018203906000526020600020016000909192909190916101000a81548173ffffffffffffffffffffffffffffffffffffffff021916908373ffffffffffffffffffffffffffffffffffffffff160217905550505b505050565b60008060008090505b600c8054905081101562002ba557620028c2620033c2565b600b6000600c8481548110620028d457fe5b9060005260206000200160009054906101000a900473ffffffffffffffffffffffffffffffffffffffff1673ffffffffffffffffffffffffffffffffffffffff1673ffffffffffffffffffffffffffffffffffffffff1681526020019081526020016000206040518060600160405290816000820160009054906101000a900473ffffffffffffffffffffffffffffffffffffffff1673ffffffffffffffffffffffffffffffffffffffff1673ffffffffffffffffffffffffffffffffffffffff16815260200160018201548152602001600282015481525050905080604001518160200151111562002ada57600073ffffffffffffffffffffffffffffffffffffffff168473ffffffffffffffffffffffffffffffffffffffff161462002a48576040517f08c379a000000000000000000000000000000000000000000000000000000000815260040180806020018281038252602181526020018062005ad26021913960400191505060405180910390fd5b3373ffffffffffffffffffffffffffffffffffffffff16816000015173ffffffffffffffffffffffffffffffffffffffff161462002ad2576040517f08c379a000000000000000000000000000000000000000000000000000000000815260040180806020018281038252602981526020018062005af36029913960400191505060405180910390fd5b806000015193505b80602001518160400151111562002b9657600073ffffffffffffffffffffffffffffffffffffffff168373ffffffffffffffffffffffffffffffffffffffff161462002b8e576040517f08c379a00000000000000000000000000000000000000000000000000000000081526004018080602001828103825260208152602001807f506174682073656e647320746f206d6f7265207468616e206f6e65206465737481525060200191505060405180910390fd5b806000015192505b508080600101915050620028aa565b50600073ffffffffffffffffffffffffffffffffffffffff168273ffffffffffffffffffffffffffffffffffffffff16141562002c4a576040517f08c379a000000000000000000000000000000000000000000000000000000000815260040180806020018281038252601b8152602001807f5472616e73616374696f6e206d7573742068617665206120737263000000000081525060200191505060405180910390fd5b600073ffffffffffffffffffffffffffffffffffffffff168173ffffffffffffffffffffffffffffffffffffffff16141562002cee576040517f08c379a000000000000000000000000000000000000000000000000000000000815260040180806020018281038252601c8152602001807f5472616e73616374696f6e206d7573742068617665206120646573740000000081525060200191505060405180910390fd5b6000600b60008473ffffffffffffffffffffffffffffffffffffffff1673ffffffffffffffffffffffffffffffffffffffff168152602001908152602001600020600201541462002da7576040517f08c379a00000000000000000000000000000000000000000000000000000000081526004018080602001828103825260138152602001807f53656e64657220697320726563656976696e670000000000000000000000000081525060200191505060405180910390fd5b6000600b60008373ffffffffffffffffffffffffffffffffffffffff1673ffffffffffffffffffffffffffffffffffffffff168152602001908152602001600020600101541462002e60576040517f08c379a00000000000000000000000000000000000000000000000000000000081526004018080602001828103825260148152602001807f526563697069656e742069732073656e64696e6700000000000000000000000081525060200191505060405180910390fd5b600b60008273ffffffffffffffffffffffffffffffffffffffff1673ffffffffffffffffffffffffffffffffffffffff16815260200190815260200160002060020154600b60008473ffffffffffffffffffffffffffffffffffffffff1673ffffffffffffffffffffffffffffffffffffffff168152602001908152602001600020600101541462002f3e576040517f08c379a000000000000000000000000000000000000000000000000000000000815260040180806020018281038252602181526020018062005b1c6021913960400191505060405180910390fd5b60018301600c80549050111562002fbd576040517f08c379a00000000000000000000000000000000000000000000000000000000081526004018080602001828103825260178152602001807f5365656e20746f6f206d616e792061646472657373657300000000000000000081525060200191505060405180910390fd5b8073ffffffffffffffffffffffffffffffffffffffff168273ffffffffffffffffffffffffffffffffffffffff167f8451019aab65b4193860ef723cb0d56b475a26a72b7bfc55c1dbd6121015285a600b60008673ffffffffffffffffffffffffffffffffffffffff1673ffffffffffffffffffffffffffffffffffffffff168152602001908152602001600020600101546040518082815260200191505060405180910390a36000600c8054905090505b600181106200328b576000600b6000600c60018503815481106200308f57fe5b9060005260206000200160009054906101000a900473ffffffffffffffffffffffffffffffffffffffff1673ffffffffffffffffffffffffffffffffffffffff1673ffffffffffffffffffffffffffffffffffffffff168152602001908152602001600020600101819055506000600b6000600c60018503815481106200311257fe5b9060005260206000200160009054906101000a900473ffffffffffffffffffffffffffffffffffffffff1673ffffffffffffffffffffffffffffffffffffffff1673ffffffffffffffffffffffffffffffffffffffff168152602001908152602001600020600201819055506000600b6000600c60018503815481106200319557fe5b9060005260206000200160009054906101000a900473ffffffffffffffffffffffffffffffffffffffff1673ffffffffffffffffffffffffffffffffffffffff1673ffffffffffffffffffffffffffffffffffffffff16815260200190815260200160002060000160006101000a81548173ffffffffffffffffffffffffffffffffffffffff021916908373ffffffffffffffffffffffffffffffffffffffff160217905550600c8054806200324757fe5b6001900381819060005260206000200160006101000a81549073ffffffffffffffffffffffffffffffffffffffff021916905590558080600190039150506200306f565b506000600c805490501462003308576040517f08c379a00000000000000000000000000000000000000000000000000000000081526004018080602001828103825260148152602001807f5365656e2073686f756c6420626520656d70747900000000000000000000000081525060200191505060405180910390fd5b505050565b6000808284019050838110156200332357600080fd5b8091505092915050565b612600806200342283390190565b828054600181600116156101000203166002900490600052602060002090601f016020900481019282601f106200337e57805160ff1916838001178555620033af565b82800160010185558215620033af579182015b82811115620033ae57825182559160200191906001019062003391565b5b509050620033be9190620033f9565b5090565b6040518060600160405280600073ffffffffffffffffffffffffffffffffffffffff16815260200160008152602001600081525090565b6200341e91905b808211156200341a57600081600090555060010162003400565b5090565b9056fe60806040526012600360006101000a81548160ff021916908360ff1602179055503480156200002d57600080fd5b506040516200260038038062002600833981018060405260608110156200005357600080fd5b810190808051906020019092919080516401000000008111156200007657600080fd5b828101905060208101848111156200008d57600080fd5b8151856001820283011164010000000082111715620000ab57600080fd5b505092919060200180519060200190929190505050600073ffffffffffffffffffffffffffffffffffffffff168373ffffffffffffffffffffffffffffffffffffffff161415620000fb57600080fd5b81600490805190602001906200011392919062000721565b5082600760006101000a81548173ffffffffffffffffffffffffffffffffffffffff021916908373ffffffffffffffffffffffffffffffffffffffff16021790555033600660006101000a81548173ffffffffffffffffffffffffffffffffffffffff021916908373ffffffffffffffffffffffffffffffffffffffff160217905550620001a66200028960201b60201c565b600581905550620001bc6200029160201b60201c565b600881905550600660009054906101000a900473ffffffffffffffffffffffffffffffffffffffff1673ffffffffffffffffffffffffffffffffffffffff1663863623bb6040518163ffffffff1660e01b815260040160206040518083038186803b1580156200022b57600080fd5b505afa15801562000240573d6000803e3d6000fd5b505050506040513d60208110156200025757600080fd5b81019080805190602001909291905050506009819055506200028083826200033a60201b60201c565b505050620007d0565b600042905090565b600062000335620002a76200028960201b60201c565b62000321620002bb6200049b60201b60201c565b6200030d620002e96001620002d56200054860201b60201c565b620005f560201b62001c321790919060201c565b620002f96200061560201b60201c565b620006c260201b62001c511790919060201c565b620005f560201b62001c321790919060201c565b6200070060201b62001c121790919060201c565b905090565b600073ffffffffffffffffffffffffffffffffffffffff168273ffffffffffffffffffffffffffffffffffffffff1614156200037557600080fd5b6200039181600254620005f560201b62001c321790919060201c565b600281905550620003ef816000808573ffffffffffffffffffffffffffffffffffffffff1673ffffffffffffffffffffffffffffffffffffffff16815260200190815260200160002054620005f560201b62001c321790919060201c565b6000808473ffffffffffffffffffffffffffffffffffffffff1673ffffffffffffffffffffffffffffffffffffffff168152602001908152602001600020819055508173ffffffffffffffffffffffffffffffffffffffff16600073ffffffffffffffffffffffffffffffffffffffff167fddf252ad1be2c89b69c2b068fc378daa952ba7f163c4a11628f55a4df523b3ef836040518082815260200191505060405180910390a35050565b6000600660009054906101000a900473ffffffffffffffffffffffffffffffffffffffff1673ffffffffffffffffffffffffffffffffffffffff1663eae4c19f6040518163ffffffff1660e01b815260040160206040518083038186803b1580156200050657600080fd5b505afa1580156200051b573d6000803e3d6000fd5b505050506040513d60208110156200053257600080fd5b8101908080519060200190929190505050905090565b6000600660009054906101000a900473ffffffffffffffffffffffffffffffffffffffff1673ffffffffffffffffffffffffffffffffffffffff1663a4caeb426040518163ffffffff1660e01b815260040160206040518083038186803b158015620005b357600080fd5b505afa158015620005c8573d6000803e3d6000fd5b505050506040513d6020811015620005df57600080fd5b8101908080519060200190929190505050905090565b6000808284019050838110156200060b57600080fd5b8091505092915050565b6000600660009054906101000a900473ffffffffffffffffffffffffffffffffffffffff1673ffffffffffffffffffffffffffffffffffffffff1663ef78d4fd6040518163ffffffff1660e01b815260040160206040518083038186803b1580156200068057600080fd5b505afa15801562000695573d6000803e3d6000fd5b505050506040513d6020811015620006ac57600080fd5b8101908080519060200190929190505050905090565b600080831415620006d75760009050620006fa565b6000828402905082848281620006e957fe5b0414620006f557600080fd5b809150505b92915050565b6000828211156200071057600080fd5b600082840390508091505092915050565b828054600181600116156101000203166002900490600052602060002090601f016020900481019282601f106200076457805160ff191683800117855562000795565b8280016001018555821562000795579182015b828111156200079457825182559160200191906001019062000777565b5b509050620007a49190620007a8565b5090565b620007cd91905b80821115620007c9576000816000905550600101620007af565b5090565b90565b611e2080620007e06000396000f3fe608060405234801561001057600080fd5b506004361061018e5760003560e01c80636c050eae116100de578063a457c2d711610097578063be0522e011610071578063be0522e014610779578063dd62ed3e14610797578063ef78d4fd1461080f578063f9f8bdb71461082d5761018e565b8063a457c2d71461068f578063a4caeb42146106f5578063a9059cbb146107135761018e565b80636c050eae1461051057806370a082311461052e5780638b4eed81146105865780638da5cb5b146105a457806395d89b41146105ee578063a2e62045146106715761018e565b80631f2dc5ef1161014b578063313ce56711610125578063313ce5671461041e578063365a86fc14610442578063395093511461048c57806341c30546146104f25761018e565b80631f2dc5ef146102f457806320a6703c1461031257806323b872dd146103985761018e565b806306f09ab01461019357806306fdde03146101b1578063095ea7b314610234578063107129dd1461029a57806316ada547146102b857806318160ddd146102d6575b600080fd5b61019b61084b565b6040518082815260200191505060405180910390f35b6101b96108f5565b6040518080602001828103825283818151815260200191508051906020019080838360005b838110156101f95780820151818401526020810190506101de565b50505050905090810190601f1680156102265780820380516001836020036101000a031916815260200191505b509250505060405180910390f35b6102806004803603604081101561024a57600080fd5b81019080803573ffffffffffffffffffffffffffffffffffffffff16906020019092919080359060200190929190505050610993565b604051808215151515815260200191505060405180910390f35b6102a2610abe565b6040518082815260200191505060405180910390f35b6102c0610ac4565b6040518082815260200191505060405180910390f35b6102de610acc565b6040518082815260200191505060405180910390f35b6102fc610ad6565b6040518082815260200191505060405180910390f35b61037e6004803603606081101561032857600080fd5b81019080803573ffffffffffffffffffffffffffffffffffffffff169060200190929190803573ffffffffffffffffffffffffffffffffffffffff16906020019092919080359060200190929190505050610b80565b604051808215151515815260200191505060405180910390f35b610404600480360360608110156103ae57600080fd5b81019080803573ffffffffffffffffffffffffffffffffffffffff169060200190929190803573ffffffffffffffffffffffffffffffffffffffff16906020019092919080359060200190929190505050610bee565b604051808215151515815260200191505060405180910390f35b610426610df6565b604051808260ff1660ff16815260200191505060405180910390f35b61044a610e09565b604051808273ffffffffffffffffffffffffffffffffffffffff1673ffffffffffffffffffffffffffffffffffffffff16815260200191505060405180910390f35b6104d8600480360360408110156104a257600080fd5b81019080803573ffffffffffffffffffffffffffffffffffffffff16906020019092919080359060200190929190505050610e2f565b604051808215151515815260200191505060405180910390f35b6104fa611064565b6040518082815260200191505060405180910390f35b6105186110d1565b6040518082815260200191505060405180910390f35b6105706004803603602081101561054457600080fd5b81019080803573ffffffffffffffffffffffffffffffffffffffff16906020019092919050505061125c565b6040518082815260200191505060405180910390f35b61058e6112a4565b6040518082815260200191505060405180910390f35b6105ac6112aa565b604051808273ffffffffffffffffffffffffffffffffffffffff1673ffffffffffffffffffffffffffffffffffffffff16815260200191505060405180910390f35b6105f66112d0565b6040518080602001828103825283818151815260200191508051906020019080838360005b8381101561063657808201518184015260208101905061061b565b50505050905090810190601f1680156106635780820380516001836020036101000a031916815260200191505b509250505060405180910390f35b6106796113d0565b6040518082815260200191505060405180910390f35b6106db600480360360408110156106a557600080fd5b81019080803573ffffffffffffffffffffffffffffffffffffffff169060200190929190803590602001909291905050506114dc565b604051808215151515815260200191505060405180910390f35b6106fd611711565b6040518082815260200191505060405180910390f35b61075f6004803603604081101561072957600080fd5b81019080803573ffffffffffffffffffffffffffffffffffffffff169060200190929190803590602001909291905050506117bb565b604051808215151515815260200191505060405180910390f35b610781611867565b6040518082815260200191505060405180910390f35b6107f9600480360360408110156107ad57600080fd5b81019080803573ffffffffffffffffffffffffffffffffffffffff169060200190929190803573ffffffffffffffffffffffffffffffffffffffff169060200190929190505050611911565b6040518082815260200191505060405180910390f35b610817611998565b6040518082815260200191505060405180910390f35b610835611a42565b6040518082815260200191505060405180910390f35b6000600660009054906101000a900473ffffffffffffffffffffffffffffffffffffffff1673ffffffffffffffffffffffffffffffffffffffff1663eae4c19f6040518163ffffffff1660e01b815260040160206040518083038186803b1580156108b557600080fd5b505afa1580156108c9573d6000803e3d6000fd5b505050506040513d60208110156108df57600080fd5b8101908080519060200190929190505050905090565b60048054600181600116156101000203166002900480601f01602080910402602001604051908101604052809291908181526020018280546001816001161561010002031660029004801561098b5780601f106109605761010080835404028352916020019161098b565b820191906000526020600020905b81548152906001019060200180831161096e57829003601f168201915b505050505081565b60008073ffffffffffffffffffffffffffffffffffffffff168373ffffffffffffffffffffffffffffffffffffffff1614156109ce57600080fd5b81600160003373ffffffffffffffffffffffffffffffffffffffff1673ffffffffffffffffffffffffffffffffffffffff16815260200190815260200160002060008573ffffffffffffffffffffffffffffffffffffffff1673ffffffffffffffffffffffffffffffffffffffff168152602001908152602001600020819055508273ffffffffffffffffffffffffffffffffffffffff163373ffffffffffffffffffffffffffffffffffffffff167f8c5be1e5ebec7d5bd14f71427d1e84f3dd0314c0f7b2291e5b200ac8c7c3b925846040518082815260200191505060405180910390a36001905092915050565b60085481565b600042905090565b6000600254905090565b6000600660009054906101000a900473ffffffffffffffffffffffffffffffffffffffff1673ffffffffffffffffffffffffffffffffffffffff16631f2dc5ef6040518163ffffffff1660e01b815260040160206040518083038186803b158015610b4057600080fd5b505afa158015610b54573d6000803e3d6000fd5b505050506040513d6020811015610b6a57600080fd5b8101908080519060200190929190505050905090565b6000600660009054906101000a900473ffffffffffffffffffffffffffffffffffffffff1673ffffffffffffffffffffffffffffffffffffffff163373ffffffffffffffffffffffffffffffffffffffff1614610bdc57600080fd5b610be7848484611a48565b9392505050565b6000610c7f82600160008773ffffffffffffffffffffffffffffffffffffffff1673ffffffffffffffffffffffffffffffffffffffff16815260200190815260200160002060003373ffffffffffffffffffffffffffffffffffffffff1673ffffffffffffffffffffffffffffffffffffffff16815260200190815260200160002054611c1290919063ffffffff16565b600160008673ffffffffffffffffffffffffffffffffffffffff1673ffffffffffffffffffffffffffffffffffffffff16815260200190815260200160002060003373ffffffffffffffffffffffffffffffffffffffff1673ffffffffffffffffffffffffffffffffffffffff16815260200190815260200160002081905550610d0a848484611a48565b3373ffffffffffffffffffffffffffffffffffffffff168473ffffffffffffffffffffffffffffffffffffffff167f8c5be1e5ebec7d5bd14f71427d1e84f3dd0314c0f7b2291e5b200ac8c7c3b925600160008873ffffffffffffffffffffffffffffffffffffffff1673ffffffffffffffffffffffffffffffffffffffff16815260200190815260200160002060003373ffffffffffffffffffffffffffffffffffffffff1673ffffffffffffffffffffffffffffffffffffffff168152602001908152602001600020546040518082815260200191505060405180910390a3600190509392505050565b600360009054906101000a900460ff1681565b600660009054906101000a900473ffffffffffffffffffffffffffffffffffffffff1681565b60008073ffffffffffffffffffffffffffffffffffffffff168373ffffffffffffffffffffffffffffffffffffffff161415610e6a57600080fd5b610ef982600160003373ffffffffffffffffffffffffffffffffffffffff1673ffffffffffffffffffffffffffffffffffffffff16815260200190815260200160002060008673ffffffffffffffffffffffffffffffffffffffff1673ffffffffffffffffffffffffffffffffffffffff16815260200190815260200160002054611c3290919063ffffffff16565b600160003373ffffffffffffffffffffffffffffffffffffffff1673ffffffffffffffffffffffffffffffffffffffff16815260200190815260200160002060008573ffffffffffffffffffffffffffffffffffffffff1673ffffffffffffffffffffffffffffffffffffffff168152602001908152602001600020819055508273ffffffffffffffffffffffffffffffffffffffff163373ffffffffffffffffffffffffffffffffffffffff167f8c5be1e5ebec7d5bd14f71427d1e84f3dd0314c0f7b2291e5b200ac8c7c3b925600160003373ffffffffffffffffffffffffffffffffffffffff1673ffffffffffffffffffffffffffffffffffffffff16815260200190815260200160002060008773ffffffffffffffffffffffffffffffffffffffff1673ffffffffffffffffffffffffffffffffffffffff168152602001908152602001600020546040518082815260200191505060405180910390a36001905092915050565b60006110cc611071610ac4565b6110be61107c61084b565b6110b061109a600161108c611711565b611c3290919063ffffffff16565b6110a2611998565b611c5190919063ffffffff16565b611c3290919063ffffffff16565b611c1290919063ffffffff16565b905090565b600080600090506000600554905060006008549050600060095490505b6110f6610ac4565b6111098385611c3290919063ffffffff16565b11611212576111336111248284611c5190919063ffffffff16565b85611c3290919063ffffffff16565b93506111488284611c3290919063ffffffff16565b9250611152611998565b9150600660009054906101000a900473ffffffffffffffffffffffffffffffffffffffff1673ffffffffffffffffffffffffffffffffffffffff16632a9383428260016040518363ffffffff1660e01b8152600401808381526020018281526020019250505060206040518083038186803b1580156111d057600080fd5b505afa1580156111e4573d6000803e3d6000fd5b505050506040513d60208110156111fa57600080fd5b810190808051906020019092919050505090506110ee565b6112506112418261123386611225610ac4565b611c1290919063ffffffff16565b611c5190919063ffffffff16565b85611c3290919063ffffffff16565b93508394505050505090565b60008060008373ffffffffffffffffffffffffffffffffffffffff1673ffffffffffffffffffffffffffffffffffffffff168152602001908152602001600020549050919050565b60055481565b600760009054906101000a900473ffffffffffffffffffffffffffffffffffffffff1681565b6060600660009054906101000a900473ffffffffffffffffffffffffffffffffffffffff1673ffffffffffffffffffffffffffffffffffffffff166395d89b416040518163ffffffff1660e01b815260040160006040518083038186803b15801561133a57600080fd5b505afa15801561134e573d6000803e3d6000fd5b505050506040513d6000823e3d601f19601f82011682018060405250602081101561137857600080fd5b81019080805164010000000081111561139057600080fd5b828101905060208101848111156113a657600080fd5b81518560018202830111640100000000821117156113c357600080fd5b5050929190505050905090565b6000806113db6110d1565b905060008111156114d8576113ee611064565b6008819055506113fc610ac4565b600581905550600660009054906101000a900473ffffffffffffffffffffffffffffffffffffffff1673ffffffffffffffffffffffffffffffffffffffff1663863623bb6040518163ffffffff1660e01b815260040160206040518083038186803b15801561146a57600080fd5b505afa15801561147e573d6000803e3d6000fd5b505050506040513d602081101561149457600080fd5b81019080805190602001909291905050506009819055506114d7600760009054906101000a900473ffffffffffffffffffffffffffffffffffffffff1682611c8b565b5b5090565b60008073ffffffffffffffffffffffffffffffffffffffff168373ffffffffffffffffffffffffffffffffffffffff16141561151757600080fd5b6115a682600160003373ffffffffffffffffffffffffffffffffffffffff1673ffffffffffffffffffffffffffffffffffffffff16815260200190815260200160002060008673ffffffffffffffffffffffffffffffffffffffff1673ffffffffffffffffffffffffffffffffffffffff16815260200190815260200160002054611c1290919063ffffffff16565b600160003373ffffffffffffffffffffffffffffffffffffffff1673ffffffffffffffffffffffffffffffffffffffff16815260200190815260200160002060008573ffffffffffffffffffffffffffffffffffffffff1673ffffffffffffffffffffffffffffffffffffffff168152602001908152602001600020819055508273ffffffffffffffffffffffffffffffffffffffff163373ffffffffffffffffffffffffffffffffffffffff167f8c5be1e5ebec7d5bd14f71427d1e84f3dd0314c0f7b2291e5b200ac8c7c3b925600160003373ffffffffffffffffffffffffffffffffffffffff1673ffffffffffffffffffffffffffffffffffffffff16815260200190815260200160002060008773ffffffffffffffffffffffffffffffffffffffff1673ffffffffffffffffffffffffffffffffffffffff168152602001908152602001600020546040518082815260200191505060405180910390a36001905092915050565b6000600660009054906101000a900473ffffffffffffffffffffffffffffffffffffffff1673ffffffffffffffffffffffffffffffffffffffff1663a4caeb426040518163ffffffff1660e01b815260040160206040518083038186803b15801561177b57600080fd5b505afa15801561178f573d6000803e3d6000fd5b505050506040513d60208110156117a557600080fd5b8101908080519060200190929190505050905090565b6000600760009054906101000a900473ffffffffffffffffffffffffffffffffffffffff1673ffffffffffffffffffffffffffffffffffffffff163373ffffffffffffffffffffffffffffffffffffffff1614156118555733600760006101000a81548173ffffffffffffffffffffffffffffffffffffffff021916908373ffffffffffffffffffffffffffffffffffffffff1602179055505b61185f8383611ddd565b905092915050565b6000600660009054906101000a900473ffffffffffffffffffffffffffffffffffffffff1673ffffffffffffffffffffffffffffffffffffffff1663be0522e06040518163ffffffff1660e01b815260040160206040518083038186803b1580156118d157600080fd5b505afa1580156118e5573d6000803e3d6000fd5b505050506040513d60208110156118fb57600080fd5b8101908080519060200190929190505050905090565b6000600160008473ffffffffffffffffffffffffffffffffffffffff1673ffffffffffffffffffffffffffffffffffffffff16815260200190815260200160002060008373ffffffffffffffffffffffffffffffffffffffff1673ffffffffffffffffffffffffffffffffffffffff16815260200190815260200160002054905092915050565b6000600660009054906101000a900473ffffffffffffffffffffffffffffffffffffffff1673ffffffffffffffffffffffffffffffffffffffff1663ef78d4fd6040518163ffffffff1660e01b815260040160206040518083038186803b158015611a0257600080fd5b505afa158015611a16573d6000803e3d6000fd5b505050506040513d6020811015611a2c57600080fd5b8101908080519060200190929190505050905090565b60095481565b600073ffffffffffffffffffffffffffffffffffffffff168273ffffffffffffffffffffffffffffffffffffffff161415611a8257600080fd5b611ad3816000808673ffffffffffffffffffffffffffffffffffffffff1673ffffffffffffffffffffffffffffffffffffffff16815260200190815260200160002054611c1290919063ffffffff16565b6000808573ffffffffffffffffffffffffffffffffffffffff1673ffffffffffffffffffffffffffffffffffffffff16815260200190815260200160002081905550611b66816000808573ffffffffffffffffffffffffffffffffffffffff1673ffffffffffffffffffffffffffffffffffffffff16815260200190815260200160002054611c3290919063ffffffff16565b6000808473ffffffffffffffffffffffffffffffffffffffff1673ffffffffffffffffffffffffffffffffffffffff168152602001908152602001600020819055508173ffffffffffffffffffffffffffffffffffffffff168373ffffffffffffffffffffffffffffffffffffffff167fddf252ad1be2c89b69c2b068fc378daa952ba7f163c4a11628f55a4df523b3ef836040518082815260200191505060405180910390a3505050565b600082821115611c2157600080fd5b600082840390508091505092915050565b600080828401905083811015611c4757600080fd5b8091505092915050565b600080831415611c645760009050611c85565b6000828402905082848281611c7557fe5b0414611c8057600080fd5b809150505b92915050565b600073ffffffffffffffffffffffffffffffffffffffff168273ffffffffffffffffffffffffffffffffffffffff161415611cc557600080fd5b611cda81600254611c3290919063ffffffff16565b600281905550611d31816000808573ffffffffffffffffffffffffffffffffffffffff1673ffffffffffffffffffffffffffffffffffffffff16815260200190815260200160002054611c3290919063ffffffff16565b6000808473ffffffffffffffffffffffffffffffffffffffff1673ffffffffffffffffffffffffffffffffffffffff168152602001908152602001600020819055508173ffffffffffffffffffffffffffffffffffffffff16600073ffffffffffffffffffffffffffffffffffffffff167fddf252ad1be2c89b69c2b068fc378daa952ba7f163c4a11628f55a4df523b3ef836040518082815260200191505060405180910390a35050565b6000611dea338484611a48565b600190509291505056fea165627a7a72305820b853f5ffa6c25c2bbeb5063f401b469d38e20f89c57041ad0d6c93557e42fe8b0029546f6b656e73206172726179206c656e677468206d75737420657175616c2073726373206172726179596f752063616e206f6e6c792074727573742070656f706c6520616674657220796f75277665207369676e656420757021546f6b656e73206172726179206c656e677468206d75737420657175616c206465737473206172726179546f6b656e73206172726179206c656e677468206d75737420657175616c20616d6f756e7473206172726179506174682073656e64732066726f6d206d6f7265207468616e206f6e65207372635061746820646f65736e27742073656e642066726f6d207472616e73616374696f6e2073656e646572556e657175616c2073656e7420616e6420726563656976656420616d6f756e7473a165627a7a7230582081e45437e3049a17d0aac74357e4023b73b474877cac0966b40244eecda015a30029",
  "source": "pragma solidity ^0.5.0;\n\nimport \"openzeppelin-solidity/contracts/math/SafeMath.sol\";\nimport \"./Token.sol\";\n\ncontract Hub {\n    using SafeMath for uint256;\n\n    address public owner;\n\n    uint256 public inflation;\n    uint256 public divisor;\n    uint256 public period;\n    string public symbol; // = 'CRC';\n    uint256 public initialPayout;\n    uint256 public startingRate;\n    uint256 public deployedAt;\n\n    mapping (address => Token) public userToToken;\n    mapping (address => address) public tokenToUser;\n    mapping (address => mapping (address => uint256)) public limits;\n\n    event Signup(address indexed user, address token);\n    event Trust(address indexed canSendTo, address indexed user, uint256 limit);\n    event HubTransfer(address indexed from, address indexed to, uint256 amount);\n\n    struct transferValidator {\n        address identity;\n        uint256 sent;\n        uint256 received;\n    }\n\n    mapping (address => transferValidator) public validation;\n    address[] public seen;\n\n    modifier onlyOwner() {\n        require (msg.sender == owner);\n        _;\n    }\n\n    constructor(address _owner, uint256 _inflation, uint256 _period, string memory _symbol, uint256 _initialPayout, uint256 _startingRate) public {\n        require (_owner != address(0));\n        owner = _owner;\n        inflation = _inflation;\n        divisor = findDivisor(_inflation);\n        period = _period;\n        symbol = _symbol;\n        initialPayout = _initialPayout;\n        startingRate = _startingRate;\n        deployedAt = block.timestamp;\n    }\n\n    function findDivisor(uint256 _inf) internal pure returns (uint256) {\n        uint256 iter = 0;\n        while (_inf.div(pow(10, iter)) > 9) {\n            iter += 1;\n        }\n        return pow(10, iter);\n    }\n\n    function periods() public view returns (uint256) {\n        return (block.timestamp.sub(deployedAt)).div(period);\n    }\n\n    function issuance() public view returns (uint256) {\n        return inflate(startingRate, periods());\n    }\n\n    function inflate(uint256 _initial, uint256 _periods) public view returns (uint256) {\n        uint256 q = pow(inflation, _periods);\n        uint256 d = pow(divisor, _periods);\n        return (_initial.mul(q)).div(d);\n    }\n\n    function changeOwner(address _newOwner) public onlyOwner returns (bool) {\n        require(_newOwner != address(0));\n        owner = _newOwner;\n        return true;\n    }\n\n    function updateInflation(uint256 _inflation) public onlyOwner returns (bool) {\n        // safety checks on issuance go here\n        inflation = _inflation;\n        return true;\n    }\n\n    function updateSymbol(string memory _symbol) public onlyOwner returns (bool) {\n        symbol = _symbol;\n        return true;\n    }\n\n    function time() public view returns (uint256) { return block.timestamp; }\n\n    // No exit allowed. Once you create a personal token, you're in for good.\n    function signup(string memory _name) public returns (bool) {\n        require(address(userToToken[msg.sender]) == address(0));\n\n        Token token = new Token(msg.sender, _name, initialPayout);\n        userToToken[msg.sender] = token;\n        tokenToUser[address(token)] = msg.sender;\n        _trust(msg.sender, 100);\n\n        emit Signup(msg.sender, address(token));\n        return true;\n    }\n\n    // Trust does not have to be reciprocated.\n    // (e.g. I can trust you but you don't have to trust me)\n    function trust(address user, uint limit) public {\n        require(address(userToToken[msg.sender]) != address(0), \"You can only trust people after you've signed up!\");\n        require(msg.sender != user, \"You can't untrust yourself\");\n        _trust(user, limit);\n    }\n\n    function _trust(address user, uint limit) internal {\n        limits[msg.sender][user] = limit;\n        emit Trust(msg.sender, user, limit);\n    }\n\n    function pow(uint256 base, uint256 exponent) public pure returns (uint256) {\n        if (base == 0) {\n            return 0;\n        }\n        if (exponent == 0) {\n            return 1;\n        }\n        if (exponent == 1) {\n            return base;\n        }\n        uint256 y = 1;\n        while(exponent > 1) {\n            if(exponent.mod(2) == 0) {\n                base = base.mul(base);\n                exponent = exponent.div(2);\n            } else {\n                y = base.mul(y);\n                base = base.mul(base);\n                exponent = (exponent.sub(1)).div(2);\n            }\n        }\n        return base.mul(y);\n    }\n\n    function checkSendLimit(address tokenOwner, address src, address dest) public view returns (uint256) {\n        // there is no trust\n        if (limits[dest][tokenOwner] == 0) {\n            return 0;\n        }\n        // if dest hasn't signed up, they cannot trust anyone\n        if (address(userToToken[dest]) == address(0)) {\n            return 0;\n        }\n\n        // if the token doesn't exist, return max\n        uint256 max = (userToToken[dest].totalSupply().mul(limits[dest][tokenOwner])).div(100);\n        if (address(userToToken[tokenOwner]) == address(0)) {\n            return max;\n        }\n\n        // if sending dest's token to dest, src can send 100% of their holdings\n        uint256 srcBalance = userToToken[tokenOwner].balanceOf(src);\n        if (tokenOwner == dest) {\n            return srcBalance;\n        }\n        uint256 destBalance = userToToken[tokenOwner].balanceOf(dest);\n        \n        // if trustLimit has already been overriden by a direct transfer, nothing more can be sent\n        if (max < destBalance) return 0;\n        return max.sub(destBalance);\n    }\n\n    // build the data structures we will use for validation\n    // if we haven't seen the addresses, add them to the validation mapping\n    // if we have, increment their sent/received amounts\n    function buildValidationData(address src, address dest, uint wad) internal {\n        if (validation[src].identity != address(0)) {\n            validation[src].sent = validation[src].sent.add(wad);\n        } else {\n            validation[src].identity = src;\n            validation[src].sent = wad;\n            seen.push(src);\n        }\n        if (validation[dest].identity != address(0)) {\n            validation[dest].received = validation[dest].received.add(wad);\n        } else {\n            validation[dest].identity = dest;\n            validation[dest].received = wad; \n            seen.push(dest);   \n        }\n    }\n\n    function validateTransferThrough(uint256 steps) internal {\n        // a valid path has only one true sender and reciever, for all other\n        // addresses in the path, sent = received\n        // also, the sender should be msg.sender\n        address src;\n        address dest;\n        for (uint i = 0; i < seen.length; i++) {\n            transferValidator memory curr = validation[seen[i]];\n            if (curr.sent > curr.received) {\n                require(src == address(0), \"Path sends from more than one src\");\n                require(curr.identity == msg.sender, \"Path doesn't send from transaction sender\");\n                src = curr.identity;\n            }\n            if (curr.received > curr.sent) {\n                require(dest == address(0), \"Path sends to more than one dest\");\n                dest = curr.identity;\n            }\n        }\n        require(src != address(0), \"Transaction must have a src\");\n        require(dest != address(0), \"Transaction must have a dest\");\n        // sender should not recieve, recipient should not send\n        require(validation[src].received == 0, \"Sender is receiving\");\n        require(validation[dest].sent == 0, \"Recipient is sending\");\n        // the total amounts sent and received by src and dest should match\n        require(validation[src].sent == validation[dest].received, \"Unequal sent and received amounts\");\n        // the maximum amount of addresses we should see is one more than steps in the path\n        require(seen.length <= steps + 1, \"Seen too many addresses\");\n        emit HubTransfer(src, dest, validation[src].sent);\n        // clean up the validation datastructures\n        for (uint i = seen.length; i >= 1; i--) {\n            validation[seen[i-1]].sent = 0;\n            validation[seen[i-1]].received = 0;\n            validation[seen[i-1]].identity = address(0);\n            seen.pop();\n        }\n        // sanity check that we cleaned everything up correctly\n        require(seen.length == 0, \"Seen should be empty\");\n    }\n\n    // Walks through tokenOwners, srcs, dests, and amounts array and\n    // executes transtive transfer - also validates path\n    function transferThrough(address[] memory tokenOwners, address[] memory srcs, address[] memory dests, uint[] memory wads) public {\n        require(srcs.length <= 5, \"Too complex path\");\n        require(dests.length == tokenOwners.length, \"Tokens array length must equal dests array\");\n        require(srcs.length == tokenOwners.length, \"Tokens array length must equal srcs array\");\n        require(wads.length == tokenOwners.length, \"Tokens array length must equal amounts array\");\n        for (uint i = 0; i < srcs.length; i++) {\n            address src = srcs[i];\n            address dest = dests[i];\n            address token = tokenOwners[i];\n            uint256 wad = wads[i];\n            \n            // check that no trust limits are violated\n            // you always trust yourself 100%\n            if (token != dest) {\n                uint256 max = checkSendLimit(token, src, dest);\n                require(userToToken[token].balanceOf(dest) + wad <= max, \"Trust limit exceeded\");\n            }\n\n            buildValidationData(src, dest, wad);\n\n            userToToken[token].hubTransfer(src, dest, wad);\n        }\n        validateTransferThrough(srcs.length);\n    }\n}\n\n",
  "sourcePath": "/media/000/Documents/Circles/circles-contracts/contracts/Hub.sol",
  "compiler": {
    "name": "solc",
    "version": "0.5.8+commit.23d335f2.Emscripten.clang"
  },
  "schemaVersion": "3.0.15",
  "updatedAt": "2020-02-04T18:38:36.381Z",
  "devdoc": {
    "methods": {}
  },
  "userdoc": {
    "methods": {}
  }
}