{
  "contractName": "Hub",
  "abi": [
    {
      "constant": true,
      "inputs": [],
      "name": "divisor",
      "outputs": [
        {
          "name": "",
          "type": "uint256"
        }
      ],
      "payable": false,
      "stateMutability": "view",
      "type": "function"
    },
    {
      "constant": true,
      "inputs": [
        {
          "name": "",
          "type": "address"
        }
      ],
      "name": "userToToken",
      "outputs": [
        {
          "name": "",
          "type": "address"
        }
      ],
      "payable": false,
      "stateMutability": "view",
      "type": "function"
    },
    {
      "constant": true,
      "inputs": [],
      "name": "initialPayout",
      "outputs": [
        {
          "name": "",
          "type": "uint256"
        }
      ],
      "payable": false,
      "stateMutability": "view",
      "type": "function"
    },
    {
      "constant": true,
      "inputs": [],
      "name": "startingRate",
      "outputs": [
        {
          "name": "",
          "type": "uint256"
        }
      ],
      "payable": false,
      "stateMutability": "view",
      "type": "function"
    },
    {
      "constant": true,
      "inputs": [
        {
          "name": "",
          "type": "address"
        }
      ],
      "name": "validation",
      "outputs": [
        {
          "name": "identity",
          "type": "address"
        },
        {
          "name": "sent",
          "type": "uint256"
        },
        {
          "name": "received",
          "type": "uint256"
        }
      ],
      "payable": false,
      "stateMutability": "view",
      "type": "function"
    },
    {
      "constant": true,
      "inputs": [
        {
          "name": "",
          "type": "uint256"
        }
      ],
      "name": "seen",
      "outputs": [
        {
          "name": "",
          "type": "address"
        }
      ],
      "payable": false,
      "stateMutability": "view",
      "type": "function"
    },
    {
      "constant": true,
      "inputs": [],
      "name": "owner",
      "outputs": [
        {
          "name": "",
          "type": "address"
        }
      ],
      "payable": false,
      "stateMutability": "view",
      "type": "function"
    },
    {
      "constant": true,
      "inputs": [],
      "name": "symbol",
      "outputs": [
        {
          "name": "",
          "type": "string"
        }
      ],
      "payable": false,
      "stateMutability": "view",
      "type": "function"
    },
    {
      "constant": true,
      "inputs": [
        {
          "name": "",
          "type": "address"
        }
      ],
      "name": "tokenToUser",
      "outputs": [
        {
          "name": "",
          "type": "address"
        }
      ],
      "payable": false,
      "stateMutability": "view",
      "type": "function"
    },
    {
      "constant": true,
      "inputs": [
        {
          "name": "",
          "type": "address"
        },
        {
          "name": "",
          "type": "address"
        }
      ],
      "name": "limits",
      "outputs": [
        {
          "name": "",
          "type": "uint256"
        }
      ],
      "payable": false,
      "stateMutability": "view",
      "type": "function"
    },
    {
      "constant": true,
      "inputs": [],
      "name": "inflation",
      "outputs": [
        {
          "name": "",
          "type": "uint256"
        }
      ],
      "payable": false,
      "stateMutability": "view",
      "type": "function"
    },
    {
      "constant": true,
      "inputs": [],
      "name": "deployedAt",
      "outputs": [
        {
          "name": "",
          "type": "uint256"
        }
      ],
      "payable": false,
      "stateMutability": "view",
      "type": "function"
    },
    {
      "constant": true,
      "inputs": [],
      "name": "period",
      "outputs": [
        {
          "name": "",
          "type": "uint256"
        }
      ],
      "payable": false,
      "stateMutability": "view",
      "type": "function"
    },
    {
      "inputs": [
        {
          "name": "_owner",
          "type": "address"
        },
        {
          "name": "_inflation",
          "type": "uint256"
        },
        {
          "name": "_period",
          "type": "uint256"
        },
        {
          "name": "_symbol",
          "type": "string"
        },
        {
          "name": "_initialPayout",
          "type": "uint256"
        },
        {
          "name": "_startingRate",
          "type": "uint256"
        }
      ],
      "payable": false,
      "stateMutability": "nonpayable",
      "type": "constructor"
    },
    {
      "anonymous": false,
      "inputs": [
        {
          "indexed": true,
          "name": "user",
          "type": "address"
        },
        {
          "indexed": false,
          "name": "token",
          "type": "address"
        }
      ],
      "name": "Signup",
      "type": "event"
    },
    {
      "anonymous": false,
      "inputs": [
        {
          "indexed": true,
          "name": "canSendTo",
          "type": "address"
        },
        {
          "indexed": true,
          "name": "user",
          "type": "address"
        },
        {
          "indexed": false,
          "name": "limit",
          "type": "uint256"
        }
      ],
      "name": "Trust",
      "type": "event"
    },
    {
      "anonymous": false,
      "inputs": [
        {
          "indexed": true,
          "name": "from",
          "type": "address"
        },
        {
          "indexed": true,
          "name": "to",
          "type": "address"
        },
        {
          "indexed": false,
          "name": "amount",
          "type": "uint256"
        }
      ],
      "name": "HubTransfer",
      "type": "event"
    },
    {
      "constant": true,
      "inputs": [],
      "name": "periods",
      "outputs": [
        {
          "name": "",
          "type": "uint256"
        }
      ],
      "payable": false,
      "stateMutability": "view",
      "type": "function"
    },
    {
      "constant": true,
      "inputs": [],
      "name": "issuance",
      "outputs": [
        {
          "name": "",
          "type": "uint256"
        }
      ],
      "payable": false,
      "stateMutability": "view",
      "type": "function"
    },
    {
      "constant": true,
      "inputs": [
        {
          "name": "_periods",
          "type": "uint256"
        }
      ],
      "name": "issuanceStep",
      "outputs": [
        {
          "name": "",
          "type": "uint256"
        }
      ],
      "payable": false,
      "stateMutability": "view",
      "type": "function"
    },
    {
      "constant": true,
      "inputs": [
        {
          "name": "_initial",
          "type": "uint256"
        },
        {
          "name": "_periods",
          "type": "uint256"
        }
      ],
      "name": "inflate",
      "outputs": [
        {
          "name": "",
          "type": "uint256"
        }
      ],
      "payable": false,
      "stateMutability": "view",
      "type": "function"
    },
    {
      "constant": false,
      "inputs": [
        {
          "name": "_newOwner",
          "type": "address"
        }
      ],
      "name": "changeOwner",
      "outputs": [
        {
          "name": "",
          "type": "bool"
        }
      ],
      "payable": false,
      "stateMutability": "nonpayable",
      "type": "function"
    },
    {
      "constant": false,
      "inputs": [
        {
          "name": "_inflation",
          "type": "uint256"
        }
      ],
      "name": "updateInflation",
      "outputs": [
        {
          "name": "",
          "type": "bool"
        }
      ],
      "payable": false,
      "stateMutability": "nonpayable",
      "type": "function"
    },
    {
      "constant": false,
      "inputs": [
        {
          "name": "_symbol",
          "type": "string"
        }
      ],
      "name": "updateSymbol",
      "outputs": [
        {
          "name": "",
          "type": "bool"
        }
      ],
      "payable": false,
      "stateMutability": "nonpayable",
      "type": "function"
    },
    {
      "constant": true,
      "inputs": [],
      "name": "time",
      "outputs": [
        {
          "name": "",
          "type": "uint256"
        }
      ],
      "payable": false,
      "stateMutability": "view",
      "type": "function"
    },
    {
      "constant": false,
      "inputs": [
        {
          "name": "_name",
          "type": "string"
        }
      ],
      "name": "signup",
      "outputs": [
        {
          "name": "",
          "type": "bool"
        }
      ],
      "payable": false,
      "stateMutability": "nonpayable",
      "type": "function"
    },
    {
      "constant": false,
      "inputs": [
        {
          "name": "user",
          "type": "address"
        },
        {
          "name": "limit",
          "type": "uint256"
        }
      ],
      "name": "trust",
      "outputs": [],
      "payable": false,
      "stateMutability": "nonpayable",
      "type": "function"
    },
    {
      "constant": true,
      "inputs": [
        {
          "name": "base",
          "type": "uint256"
        },
        {
          "name": "exponent",
          "type": "uint256"
        }
      ],
      "name": "pow",
      "outputs": [
        {
          "name": "",
          "type": "uint256"
        }
      ],
      "payable": false,
      "stateMutability": "pure",
      "type": "function"
    },
    {
      "constant": true,
      "inputs": [
        {
          "name": "tokenOwner",
          "type": "address"
        },
        {
          "name": "src",
          "type": "address"
        },
        {
          "name": "dest",
          "type": "address"
        }
      ],
      "name": "checkSendLimit",
      "outputs": [
        {
          "name": "",
          "type": "uint256"
        }
      ],
      "payable": false,
      "stateMutability": "view",
      "type": "function"
    },
    {
      "constant": false,
      "inputs": [
        {
          "name": "tokenOwners",
          "type": "address[]"
        },
        {
          "name": "srcs",
          "type": "address[]"
        },
        {
          "name": "dests",
          "type": "address[]"
        },
        {
          "name": "wads",
          "type": "uint256[]"
        }
      ],
      "name": "transferThrough",
      "outputs": [],
      "payable": false,
      "stateMutability": "nonpayable",
      "type": "function"
    }
  ],
  "bytecode": "0x60806040523480156200001157600080fd5b506040516200615038038062006150833981018060405260c08110156200003757600080fd5b8101908080519060200190929190805190602001909291908051906020019092919080516401000000008111156200006e57600080fd5b828101905060208101848111156200008557600080fd5b8151856001820283011164010000000082111715620000a357600080fd5b50509291906020018051906020019092919080519060200190929190505050600073ffffffffffffffffffffffffffffffffffffffff168673ffffffffffffffffffffffffffffffffffffffff161415620000fd57600080fd5b856000806101000a81548173ffffffffffffffffffffffffffffffffffffffff021916908373ffffffffffffffffffffffffffffffffffffffff1602179055508460018190555062000155856200019c60201b60201c565b6002819055508360038190555082600490805190602001906200017a929190620003f4565b50816005819055508060068190555042600781905550505050505050620004a3565b600080600090505b6009620001d2620001bd600a846200020060201b60201c565b856200034a60201b620022ee1790919060201c565b1115620001e557600181019050620001a4565b620001f8600a826200020060201b60201c565b915050919050565b60008083141562000215576000905062000344565b600082141562000229576001905062000344565b60018214156200023c5782905062000344565b6000600190505b6001831115620003265760006200026a6002856200037260201b620023161790919060201c565b1415620002b0576200028b84856200039560201b620022b01790919060201c565b9350620002a86002846200034a60201b620022ee1790919060201c565b925062000320565b620002ca81856200039560201b620022b01790919060201c565b9050620002e684856200039560201b620022b01790919060201c565b93506200031d600262000309600186620003d360201b620023391790919060201c565b6200034a60201b620022ee1790919060201c565b92505b62000243565b6200034081856200039560201b620022b01790919060201c565b9150505b92915050565b60008082116200035957600080fd5b60008284816200036557fe5b0490508091505092915050565b6000808214156200038257600080fd5b8183816200038c57fe5b06905092915050565b600080831415620003aa5760009050620003cd565b6000828402905082848281620003bc57fe5b0414620003c857600080fd5b809150505b92915050565b600082821115620003e357600080fd5b600082840390508091505092915050565b828054600181600116156101000203166002900490600052602060002090601f016020900481019282601f106200043757805160ff191683800117855562000468565b8280016001018555821562000468579182015b82811115620004675782518255916020019190600101906200044a565b5b5090506200047791906200047b565b5090565b620004a091905b808211156200049c57600081600090555060010162000482565b5090565b90565b615c9d80620004b36000396000f3fe60806040523480156200001157600080fd5b5060043610620001b45760003560e01c80638a0ef18411620000f3578063a4caeb4211620000a5578063be0522e0116200007b578063be0522e01462000a05578063d62fd9a21462000a25578063eae4c19f1462000ca8578063ef78d4fd1462000cc857620001b4565b8063a4caeb421462000941578063a6f9dae11462000961578063afaa29df14620009c057620001b4565b80638a0ef184146200067f5780638da5cb5b146200071a57806395d89b4114620007665780639951d62f14620007ee578063a18b506b146200083f578063a3eb2b4a14620008c657620001b4565b806330387a4f116200016b578063537f53121162000141578063537f5312146200048057806377ed63c214620005595780637f501d0414620005ee578063863623bb146200065f57620001b4565b806330387a4f146200036757806339ee514c1462000387578063519c637714620003a757620001b4565b806316ada54714620001b95780631f2dc5ef14620001d957806328d249fe14620001f95780632a93834214620002805780632ad3b3c314620002cf5780632e4c697f1462000318575b600080fd5b620001c362000ce8565b6040518082815260200191505060405180910390f35b620001e362000cf0565b6040518082815260200191505060405180910390f35b6200023e600480360360208110156200021157600080fd5b81019080803573ffffffffffffffffffffffffffffffffffffffff16906020019092919050505062000cf6565b604051808273ffffffffffffffffffffffffffffffffffffffff1673ffffffffffffffffffffffffffffffffffffffff16815260200191505060405180910390f35b620002b9600480360360408110156200029857600080fd5b81019080803590602001909291908035906020019092919050505062000d29565b6040518082815260200191505060405180910390f35b620002fe60048036036020811015620002e757600080fd5b810190808035906020019092919050505062000d81565b604051808215151515815260200191505060405180910390f35b62000351600480360360408110156200033057600080fd5b81019080803590602001909291908035906020019092919050505062000ded565b6040518082815260200191505060405180910390f35b6200037162000f0f565b6040518082815260200191505060405180910390f35b6200039162000f15565b6040518082815260200191505060405180910390f35b6200046660048036036020811015620003bf57600080fd5b8101908080359060200190640100000000811115620003dd57600080fd5b820183602082011115620003f057600080fd5b803590602001918460018302840111640100000000831117156200041357600080fd5b91908080601f016020809104026020016040519081016040528093929190818152602001838380828437600081840152601f19601f82011690508083019250505050505050919291929050505062000f1b565b604051808215151515815260200191505060405180910390f35b6200053f600480360360208110156200049857600080fd5b8101908080359060200190640100000000811115620004b657600080fd5b820183602082011115620004c957600080fd5b80359060200191846001830284011164010000000083111715620004ec57600080fd5b91908080601f016020809104026020016040519081016040528093929190818152602001838380828437600081840152601f19601f82011690508083019250505050505050919291929050505062001223565b604051808215151515815260200191505060405180910390f35b6200059e600480360360208110156200057157600080fd5b81019080803573ffffffffffffffffffffffffffffffffffffffff169060200190929190505050620012a1565b604051808473ffffffffffffffffffffffffffffffffffffffff1673ffffffffffffffffffffffffffffffffffffffff168152602001838152602001828152602001935050505060405180910390f35b6200061d600480360360208110156200060657600080fd5b8101908080359060200190929190505050620012eb565b604051808273ffffffffffffffffffffffffffffffffffffffff1673ffffffffffffffffffffffffffffffffffffffff16815260200191505060405180910390f35b6200066962001328565b6040518082815260200191505060405180910390f35b62000704600480360360608110156200069757600080fd5b81019080803573ffffffffffffffffffffffffffffffffffffffff169060200190929190803573ffffffffffffffffffffffffffffffffffffffff169060200190929190803573ffffffffffffffffffffffffffffffffffffffff16906020019092919050505062001346565b6040518082815260200191505060405180910390f35b6200072462001955565b604051808273ffffffffffffffffffffffffffffffffffffffff1673ffffffffffffffffffffffffffffffffffffffff16815260200191505060405180910390f35b620007706200197a565b6040518080602001828103825283818151815260200191508051906020019080838360005b83811015620007b257808201518184015260208101905062000795565b50505050905090810190601f168015620007e05780820380516001836020036101000a031916815260200191505b509250505060405180910390f35b6200083d600480360360408110156200080657600080fd5b81019080803573ffffffffffffffffffffffffffffffffffffffff1690602001909291908035906020019092919050505062001a1c565b005b62000884600480360360208110156200085757600080fd5b81019080803573ffffffffffffffffffffffffffffffffffffffff16906020019092919050505062001bb6565b604051808273ffffffffffffffffffffffffffffffffffffffff1673ffffffffffffffffffffffffffffffffffffffff16815260200191505060405180910390f35b6200092b60048036036040811015620008de57600080fd5b81019080803573ffffffffffffffffffffffffffffffffffffffff169060200190929190803573ffffffffffffffffffffffffffffffffffffffff16906020019092919050505062001be9565b6040518082815260200191505060405180910390f35b6200094b62001c0e565b6040518082815260200191505060405180910390f35b620009a6600480360360208110156200097957600080fd5b81019080803573ffffffffffffffffffffffffffffffffffffffff16906020019092919050505062001c42565b604051808215151515815260200191505060405180910390f35b620009ef60048036036020811015620009d857600080fd5b810190808035906020019092919050505062001d22565b6040518082815260200191505060405180910390f35b62000a0f62001d39565b6040518082815260200191505060405180910390f35b62000ca66004803603608081101562000a3d57600080fd5b810190808035906020019064010000000081111562000a5b57600080fd5b82018360208201111562000a6e57600080fd5b8035906020019184602083028401116401000000008311171562000a9157600080fd5b919080806020026020016040519081016040528093929190818152602001838360200280828437600081840152601f19601f8201169050808301925050505050505091929192908035906020019064010000000081111562000af257600080fd5b82018360208201111562000b0557600080fd5b8035906020019184602083028401116401000000008311171562000b2857600080fd5b919080806020026020016040519081016040528093929190818152602001838360200280828437600081840152601f19601f8201169050808301925050505050505091929192908035906020019064010000000081111562000b8957600080fd5b82018360208201111562000b9c57600080fd5b8035906020019184602083028401116401000000008311171562000bbf57600080fd5b919080806020026020016040519081016040528093929190818152602001838360200280828437600081840152601f19601f8201169050808301925050505050505091929192908035906020019064010000000081111562000c2057600080fd5b82018360208201111562000c3357600080fd5b8035906020019184602083028401116401000000008311171562000c5657600080fd5b919080806020026020016040519081016040528093929190818152602001838360200280828437600081840152601f19601f82011690508083019250505050505050919291929050505062001d3f565b005b62000cb2620022a4565b6040518082815260200191505060405180910390f35b62000cd2620022aa565b6040518082815260200191505060405180910390f35b600042905090565b60025481565b60086020528060005260406000206000915054906101000a900473ffffffffffffffffffffffffffffffffffffffff1681565b60008062000d3a6001548462000ded565b9050600062000d4c6002548562000ded565b905062000d778162000d688488620022b090919063ffffffff16565b620022ee90919063ffffffff16565b9250505092915050565b60008060009054906101000a900473ffffffffffffffffffffffffffffffffffffffff1673ffffffffffffffffffffffffffffffffffffffff163373ffffffffffffffffffffffffffffffffffffffff161462000ddd57600080fd5b8160018190555060019050919050565b60008083141562000e02576000905062000f09565b600082141562000e16576001905062000f09565b600182141562000e295782905062000f09565b6000600190505b600183111562000ef057600062000e526002856200231690919063ffffffff16565b141562000e8e5762000e6e8485620022b090919063ffffffff16565b935062000e86600284620022ee90919063ffffffff16565b925062000eea565b62000ea38185620022b090919063ffffffff16565b905062000eba8485620022b090919063ffffffff16565b935062000ee7600262000ed86001866200233990919063ffffffff16565b620022ee90919063ffffffff16565b92505b62000e30565b62000f058185620022b090919063ffffffff16565b9150505b92915050565b60055481565b60065481565b60008073ffffffffffffffffffffffffffffffffffffffff16600860003373ffffffffffffffffffffffffffffffffffffffff1673ffffffffffffffffffffffffffffffffffffffff16815260200190815260200160002060009054906101000a900473ffffffffffffffffffffffffffffffffffffffff1673ffffffffffffffffffffffffffffffffffffffff161462000fb557600080fd5b6000338360055460405162000fca90620033a7565b808473ffffffffffffffffffffffffffffffffffffffff1673ffffffffffffffffffffffffffffffffffffffff16815260200180602001838152602001828103825284818151815260200191508051906020019080838360005b838110156200104157808201518184015260208101905062001024565b50505050905090810190601f1680156200106f5780820380516001836020036101000a031916815260200191505b50945050505050604051809103906000f08015801562001093573d6000803e3d6000fd5b50905080600860003373ffffffffffffffffffffffffffffffffffffffff1673ffffffffffffffffffffffffffffffffffffffff16815260200190815260200160002060006101000a81548173ffffffffffffffffffffffffffffffffffffffff021916908373ffffffffffffffffffffffffffffffffffffffff16021790555033600960008373ffffffffffffffffffffffffffffffffffffffff1673ffffffffffffffffffffffffffffffffffffffff16815260200190815260200160002060006101000a81548173ffffffffffffffffffffffffffffffffffffffff021916908373ffffffffffffffffffffffffffffffffffffffff1602179055506200119f3360646200235a565b3373ffffffffffffffffffffffffffffffffffffffff167f358ba8f768af134eb5af120e9a61dc1ef29b29f597f047b555fc3675064a034282604051808273ffffffffffffffffffffffffffffffffffffffff1673ffffffffffffffffffffffffffffffffffffffff16815260200191505060405180910390a26001915050919050565b60008060009054906101000a900473ffffffffffffffffffffffffffffffffffffffff1673ffffffffffffffffffffffffffffffffffffffff163373ffffffffffffffffffffffffffffffffffffffff16146200127f57600080fd5b816004908051906020019062001297929190620033b5565b5060019050919050565b600b6020528060005260406000206000915090508060000160009054906101000a900473ffffffffffffffffffffffffffffffffffffffff16908060010154908060020154905083565b600c8181548110620012f957fe5b906000526020600020016000915054906101000a900473ffffffffffffffffffffffffffffffffffffffff1681565b6000620013416006546200133b62001c0e565b62000d29565b905090565b600080600a60008473ffffffffffffffffffffffffffffffffffffffff1673ffffffffffffffffffffffffffffffffffffffff16815260200190815260200160002060008673ffffffffffffffffffffffffffffffffffffffff1673ffffffffffffffffffffffffffffffffffffffff168152602001908152602001600020541415620013d757600090506200194e565b600073ffffffffffffffffffffffffffffffffffffffff16600860008473ffffffffffffffffffffffffffffffffffffffff1673ffffffffffffffffffffffffffffffffffffffff16815260200190815260200160002060009054906101000a900473ffffffffffffffffffffffffffffffffffffffff1673ffffffffffffffffffffffffffffffffffffffff1614156200147657600090506200194e565b6000620016006064620015f1600a60008773ffffffffffffffffffffffffffffffffffffffff1673ffffffffffffffffffffffffffffffffffffffff16815260200190815260200160002060008973ffffffffffffffffffffffffffffffffffffffff1673ffffffffffffffffffffffffffffffffffffffff16815260200190815260200160002054600860008873ffffffffffffffffffffffffffffffffffffffff1673ffffffffffffffffffffffffffffffffffffffff16815260200190815260200160002060009054906101000a900473ffffffffffffffffffffffffffffffffffffffff1673ffffffffffffffffffffffffffffffffffffffff166318160ddd6040518163ffffffff1660e01b815260040160206040518083038186803b158015620015a557600080fd5b505afa158015620015ba573d6000803e3d6000fd5b505050506040513d6020811015620015d157600080fd5b8101908080519060200190929190505050620022b090919063ffffffff16565b620022ee90919063ffffffff16565b9050600073ffffffffffffffffffffffffffffffffffffffff16600860008773ffffffffffffffffffffffffffffffffffffffff1673ffffffffffffffffffffffffffffffffffffffff16815260200190815260200160002060009054906101000a900473ffffffffffffffffffffffffffffffffffffffff1673ffffffffffffffffffffffffffffffffffffffff161415620016a157809150506200194e565b6000600860008773ffffffffffffffffffffffffffffffffffffffff1673ffffffffffffffffffffffffffffffffffffffff16815260200190815260200160002060009054906101000a900473ffffffffffffffffffffffffffffffffffffffff1673ffffffffffffffffffffffffffffffffffffffff166370a08231866040518263ffffffff1660e01b8152600401808273ffffffffffffffffffffffffffffffffffffffff1673ffffffffffffffffffffffffffffffffffffffff16815260200191505060206040518083038186803b1580156200178057600080fd5b505afa15801562001795573d6000803e3d6000fd5b505050506040513d6020811015620017ac57600080fd5b810190808051906020019092919050505090508373ffffffffffffffffffffffffffffffffffffffff168673ffffffffffffffffffffffffffffffffffffffff161415620017ff5780925050506200194e565b6000600860008873ffffffffffffffffffffffffffffffffffffffff1673ffffffffffffffffffffffffffffffffffffffff16815260200190815260200160002060009054906101000a900473ffffffffffffffffffffffffffffffffffffffff1673ffffffffffffffffffffffffffffffffffffffff166370a08231866040518263ffffffff1660e01b8152600401808273ffffffffffffffffffffffffffffffffffffffff1673ffffffffffffffffffffffffffffffffffffffff16815260200191505060206040518083038186803b158015620018de57600080fd5b505afa158015620018f3573d6000803e3d6000fd5b505050506040513d60208110156200190a57600080fd5b81019080805190602001909291905050509050808310156200193357600093505050506200194e565b6200194881846200233990919063ffffffff16565b93505050505b9392505050565b6000809054906101000a900473ffffffffffffffffffffffffffffffffffffffff1681565b60048054600181600116156101000203166002900480601f01602080910402602001604051908101604052809291908181526020018280546001816001161561010002031660029004801562001a145780601f10620019e85761010080835404028352916020019162001a14565b820191906000526020600020905b815481529060010190602001808311620019f657829003601f168201915b505050505081565b600073ffffffffffffffffffffffffffffffffffffffff16600860003373ffffffffffffffffffffffffffffffffffffffff1673ffffffffffffffffffffffffffffffffffffffff16815260200190815260200160002060009054906101000a900473ffffffffffffffffffffffffffffffffffffffff1673ffffffffffffffffffffffffffffffffffffffff16141562001b03576040517f08c379a000000000000000000000000000000000000000000000000000000000815260040180806020018281038252603181526020018062005b806031913960400191505060405180910390fd5b8173ffffffffffffffffffffffffffffffffffffffff163373ffffffffffffffffffffffffffffffffffffffff16141562001ba6576040517f08c379a000000000000000000000000000000000000000000000000000000000815260040180806020018281038252601a8152602001807f596f752063616e277420756e747275737420796f757273656c6600000000000081525060200191505060405180910390fd5b62001bb282826200235a565b5050565b60096020528060005260406000206000915054906101000a900473ffffffffffffffffffffffffffffffffffffffff1681565b600a602052816000526040600020602052806000526040600020600091509150505481565b600062001c3d60035462001c2e600754426200233990919063ffffffff16565b620022ee90919063ffffffff16565b905090565b60008060009054906101000a900473ffffffffffffffffffffffffffffffffffffffff1673ffffffffffffffffffffffffffffffffffffffff163373ffffffffffffffffffffffffffffffffffffffff161462001c9e57600080fd5b600073ffffffffffffffffffffffffffffffffffffffff168273ffffffffffffffffffffffffffffffffffffffff16141562001cd957600080fd5b816000806101000a81548173ffffffffffffffffffffffffffffffffffffffff021916908373ffffffffffffffffffffffffffffffffffffffff16021790555060019050919050565b600062001d326006548362000d29565b9050919050565b60015481565b60058351111562001db8576040517f08c379a00000000000000000000000000000000000000000000000000000000081526004018080602001828103825260108152602001807f546f6f20636f6d706c657820706174680000000000000000000000000000000081525060200191505060405180910390fd5b835182511462001e14576040517f08c379a000000000000000000000000000000000000000000000000000000000815260040180806020018281038252602a81526020018062005bb1602a913960400191505060405180910390fd5b835183511462001e70576040517f08c379a000000000000000000000000000000000000000000000000000000000815260040180806020018281038252602981526020018062005b576029913960400191505060405180910390fd5b835181511462001ecc576040517f08c379a000000000000000000000000000000000000000000000000000000000815260040180806020018281038252602c81526020018062005bdb602c913960400191505060405180910390fd5b60008090505b83518110156200229157600084828151811062001eeb57fe5b60200260200101519050600084838151811062001f0457fe5b60200260200101519050600087848151811062001f1d57fe5b60200260200101519050600085858151811062001f3657fe5b602002602001015190508273ffffffffffffffffffffffffffffffffffffffff168273ffffffffffffffffffffffffffffffffffffffff16146200211957600062001f8383868662001346565b90508082600860008673ffffffffffffffffffffffffffffffffffffffff1673ffffffffffffffffffffffffffffffffffffffff16815260200190815260200160002060009054906101000a900473ffffffffffffffffffffffffffffffffffffffff1673ffffffffffffffffffffffffffffffffffffffff166370a08231876040518263ffffffff1660e01b8152600401808273ffffffffffffffffffffffffffffffffffffffff1673ffffffffffffffffffffffffffffffffffffffff16815260200191505060206040518083038186803b1580156200206457600080fd5b505afa15801562002079573d6000803e3d6000fd5b505050506040513d60208110156200209057600080fd5b810190808051906020019092919050505001111562002117576040517f08c379a00000000000000000000000000000000000000000000000000000000081526004018080602001828103825260148152602001807f5472757374206c696d697420657863656564656400000000000000000000000081525060200191505060405180910390fd5b505b6200212684848362002444565b600860008373ffffffffffffffffffffffffffffffffffffffff1673ffffffffffffffffffffffffffffffffffffffff16815260200190815260200160002060009054906101000a900473ffffffffffffffffffffffffffffffffffffffff1673ffffffffffffffffffffffffffffffffffffffff166320a6703c8585846040518463ffffffff1660e01b8152600401808473ffffffffffffffffffffffffffffffffffffffff1673ffffffffffffffffffffffffffffffffffffffff1681526020018373ffffffffffffffffffffffffffffffffffffffff1673ffffffffffffffffffffffffffffffffffffffff1681526020018281526020019350505050602060405180830381600087803b1580156200224157600080fd5b505af115801562002256573d6000803e3d6000fd5b505050506040513d60208110156200226d57600080fd5b81019080805190602001909291905050505050505050808060010191505062001ed2565b506200229e83516200291b565b50505050565b60075481565b60035481565b600080831415620022c55760009050620022e8565b6000828402905082848281620022d757fe5b0414620022e357600080fd5b809150505b92915050565b6000808211620022fd57600080fd5b60008284816200230957fe5b0490508091505092915050565b6000808214156200232657600080fd5b8183816200233057fe5b06905092915050565b6000828211156200234957600080fd5b600082840390508091505092915050565b80600a60003373ffffffffffffffffffffffffffffffffffffffff1673ffffffffffffffffffffffffffffffffffffffff16815260200190815260200160002060008473ffffffffffffffffffffffffffffffffffffffff1673ffffffffffffffffffffffffffffffffffffffff168152602001908152602001600020819055508173ffffffffffffffffffffffffffffffffffffffff163373ffffffffffffffffffffffffffffffffffffffff167fe60c754dd8ab0b1b5fccba257d6ebcd7d09e360ab7dd7a6e58198ca1f57cdcec836040518082815260200191505060405180910390a35050565b600073ffffffffffffffffffffffffffffffffffffffff16600b60008573ffffffffffffffffffffffffffffffffffffffff1673ffffffffffffffffffffffffffffffffffffffff16815260200190815260200160002060000160009054906101000a900473ffffffffffffffffffffffffffffffffffffffff1673ffffffffffffffffffffffffffffffffffffffff16146200257e576200253281600b60008673ffffffffffffffffffffffffffffffffffffffff1673ffffffffffffffffffffffffffffffffffffffff168152602001908152602001600020600101546200338790919063ffffffff16565b600b60008573ffffffffffffffffffffffffffffffffffffffff1673ffffffffffffffffffffffffffffffffffffffff16815260200190815260200160002060010181905550620026ad565b82600b60008573ffffffffffffffffffffffffffffffffffffffff1673ffffffffffffffffffffffffffffffffffffffff16815260200190815260200160002060000160006101000a81548173ffffffffffffffffffffffffffffffffffffffff021916908373ffffffffffffffffffffffffffffffffffffffff16021790555080600b60008573ffffffffffffffffffffffffffffffffffffffff1673ffffffffffffffffffffffffffffffffffffffff16815260200190815260200160002060010181905550600c8390806001815401808255809150509060018203906000526020600020016000909192909190916101000a81548173ffffffffffffffffffffffffffffffffffffffff021916908373ffffffffffffffffffffffffffffffffffffffff160217905550505b600073ffffffffffffffffffffffffffffffffffffffff16600b60008473ffffffffffffffffffffffffffffffffffffffff1673ffffffffffffffffffffffffffffffffffffffff16815260200190815260200160002060000160009054906101000a900473ffffffffffffffffffffffffffffffffffffffff1673ffffffffffffffffffffffffffffffffffffffff1614620027e7576200279b81600b60008573ffffffffffffffffffffffffffffffffffffffff1673ffffffffffffffffffffffffffffffffffffffff168152602001908152602001600020600201546200338790919063ffffffff16565b600b60008473ffffffffffffffffffffffffffffffffffffffff1673ffffffffffffffffffffffffffffffffffffffff1681526020019081526020016000206002018190555062002916565b81600b60008473ffffffffffffffffffffffffffffffffffffffff1673ffffffffffffffffffffffffffffffffffffffff16815260200190815260200160002060000160006101000a81548173ffffffffffffffffffffffffffffffffffffffff021916908373ffffffffffffffffffffffffffffffffffffffff16021790555080600b60008473ffffffffffffffffffffffffffffffffffffffff1673ffffffffffffffffffffffffffffffffffffffff16815260200190815260200160002060020181905550600c8290806001815401808255809150509060018203906000526020600020016000909192909190916101000a81548173ffffffffffffffffffffffffffffffffffffffff021916908373ffffffffffffffffffffffffffffffffffffffff160217905550505b505050565b60008060008090505b600c8054905081101562002c1f576200293c6200343c565b600b6000600c84815481106200294e57fe5b9060005260206000200160009054906101000a900473ffffffffffffffffffffffffffffffffffffffff1673ffffffffffffffffffffffffffffffffffffffff1673ffffffffffffffffffffffffffffffffffffffff1681526020019081526020016000206040518060600160405290816000820160009054906101000a900473ffffffffffffffffffffffffffffffffffffffff1673ffffffffffffffffffffffffffffffffffffffff1673ffffffffffffffffffffffffffffffffffffffff16815260200160018201548152602001600282015481525050905080604001518160200151111562002b5457600073ffffffffffffffffffffffffffffffffffffffff168473ffffffffffffffffffffffffffffffffffffffff161462002ac2576040517f08c379a000000000000000000000000000000000000000000000000000000000815260040180806020018281038252602181526020018062005c076021913960400191505060405180910390fd5b3373ffffffffffffffffffffffffffffffffffffffff16816000015173ffffffffffffffffffffffffffffffffffffffff161462002b4c576040517f08c379a000000000000000000000000000000000000000000000000000000000815260040180806020018281038252602981526020018062005c286029913960400191505060405180910390fd5b806000015193505b80602001518160400151111562002c1057600073ffffffffffffffffffffffffffffffffffffffff168373ffffffffffffffffffffffffffffffffffffffff161462002c08576040517f08c379a00000000000000000000000000000000000000000000000000000000081526004018080602001828103825260208152602001807f506174682073656e647320746f206d6f7265207468616e206f6e65206465737481525060200191505060405180910390fd5b806000015192505b50808060010191505062002924565b50600073ffffffffffffffffffffffffffffffffffffffff168273ffffffffffffffffffffffffffffffffffffffff16141562002cc4576040517f08c379a000000000000000000000000000000000000000000000000000000000815260040180806020018281038252601b8152602001807f5472616e73616374696f6e206d7573742068617665206120737263000000000081525060200191505060405180910390fd5b600073ffffffffffffffffffffffffffffffffffffffff168173ffffffffffffffffffffffffffffffffffffffff16141562002d68576040517f08c379a000000000000000000000000000000000000000000000000000000000815260040180806020018281038252601c8152602001807f5472616e73616374696f6e206d7573742068617665206120646573740000000081525060200191505060405180910390fd5b6000600b60008473ffffffffffffffffffffffffffffffffffffffff1673ffffffffffffffffffffffffffffffffffffffff168152602001908152602001600020600201541462002e21576040517f08c379a00000000000000000000000000000000000000000000000000000000081526004018080602001828103825260138152602001807f53656e64657220697320726563656976696e670000000000000000000000000081525060200191505060405180910390fd5b6000600b60008373ffffffffffffffffffffffffffffffffffffffff1673ffffffffffffffffffffffffffffffffffffffff168152602001908152602001600020600101541462002eda576040517f08c379a00000000000000000000000000000000000000000000000000000000081526004018080602001828103825260148152602001807f526563697069656e742069732073656e64696e6700000000000000000000000081525060200191505060405180910390fd5b600b60008273ffffffffffffffffffffffffffffffffffffffff1673ffffffffffffffffffffffffffffffffffffffff16815260200190815260200160002060020154600b60008473ffffffffffffffffffffffffffffffffffffffff1673ffffffffffffffffffffffffffffffffffffffff168152602001908152602001600020600101541462002fb8576040517f08c379a000000000000000000000000000000000000000000000000000000000815260040180806020018281038252602181526020018062005c516021913960400191505060405180910390fd5b60018301600c80549050111562003037576040517f08c379a00000000000000000000000000000000000000000000000000000000081526004018080602001828103825260178152602001807f5365656e20746f6f206d616e792061646472657373657300000000000000000081525060200191505060405180910390fd5b8073ffffffffffffffffffffffffffffffffffffffff168273ffffffffffffffffffffffffffffffffffffffff167f8451019aab65b4193860ef723cb0d56b475a26a72b7bfc55c1dbd6121015285a600b60008673ffffffffffffffffffffffffffffffffffffffff1673ffffffffffffffffffffffffffffffffffffffff168152602001908152602001600020600101546040518082815260200191505060405180910390a36000600c8054905090505b6001811062003305576000600b6000600c60018503815481106200310957fe5b9060005260206000200160009054906101000a900473ffffffffffffffffffffffffffffffffffffffff1673ffffffffffffffffffffffffffffffffffffffff1673ffffffffffffffffffffffffffffffffffffffff168152602001908152602001600020600101819055506000600b6000600c60018503815481106200318c57fe5b9060005260206000200160009054906101000a900473ffffffffffffffffffffffffffffffffffffffff1673ffffffffffffffffffffffffffffffffffffffff1673ffffffffffffffffffffffffffffffffffffffff168152602001908152602001600020600201819055506000600b6000600c60018503815481106200320f57fe5b9060005260206000200160009054906101000a900473ffffffffffffffffffffffffffffffffffffffff1673ffffffffffffffffffffffffffffffffffffffff1673ffffffffffffffffffffffffffffffffffffffff16815260200190815260200160002060000160006101000a81548173ffffffffffffffffffffffffffffffffffffffff021916908373ffffffffffffffffffffffffffffffffffffffff160217905550600c805480620032c157fe5b6001900381819060005260206000200160006101000a81549073ffffffffffffffffffffffffffffffffffffffff02191690559055808060019003915050620030e9565b506000600c805490501462003382576040517f08c379a00000000000000000000000000000000000000000000000000000000081526004018080602001828103825260148152602001807f5365656e2073686f756c6420626520656d70747900000000000000000000000081525060200191505060405180910390fd5b505050565b6000808284019050838110156200339d57600080fd5b8091505092915050565b6126bb806200349c83390190565b828054600181600116156101000203166002900490600052602060002090601f016020900481019282601f10620033f857805160ff191683800117855562003429565b8280016001018555821562003429579182015b82811115620034285782518255916020019190600101906200340b565b5b50905062003438919062003473565b5090565b6040518060600160405280600073ffffffffffffffffffffffffffffffffffffffff16815260200160008152602001600081525090565b6200349891905b80821115620034945760008160009055506001016200347a565b5090565b9056fe60806040526012600360006101000a81548160ff021916908360ff1602179055503480156200002d57600080fd5b50604051620026bb380380620026bb833981018060405260608110156200005357600080fd5b810190808051906020019092919080516401000000008111156200007657600080fd5b828101905060208101848111156200008d57600080fd5b8151856001820283011164010000000082111715620000ab57600080fd5b505092919060200180519060200190929190505050600073ffffffffffffffffffffffffffffffffffffffff168373ffffffffffffffffffffffffffffffffffffffff161415620000fb57600080fd5b81600490805190602001906200011392919062000721565b5082600760006101000a81548173ffffffffffffffffffffffffffffffffffffffff021916908373ffffffffffffffffffffffffffffffffffffffff16021790555033600660006101000a81548173ffffffffffffffffffffffffffffffffffffffff021916908373ffffffffffffffffffffffffffffffffffffffff160217905550620001a66200028960201b60201c565b600581905550620001bc6200029160201b60201c565b600881905550600660009054906101000a900473ffffffffffffffffffffffffffffffffffffffff1673ffffffffffffffffffffffffffffffffffffffff1663863623bb6040518163ffffffff1660e01b815260040160206040518083038186803b1580156200022b57600080fd5b505afa15801562000240573d6000803e3d6000fd5b505050506040513d60208110156200025757600080fd5b81019080805190602001909291905050506009819055506200028083826200033a60201b60201c565b505050620007d0565b600042905090565b600062000335620002a76200028960201b60201c565b62000321620002bb6200049b60201b60201c565b6200030d620002e96001620002d56200054860201b60201c565b620005f560201b62001ced1790919060201c565b620002f96200061560201b60201c565b620006c260201b62001d0c1790919060201c565b620005f560201b62001ced1790919060201c565b6200070060201b62001add1790919060201c565b905090565b600073ffffffffffffffffffffffffffffffffffffffff168273ffffffffffffffffffffffffffffffffffffffff1614156200037557600080fd5b6200039181600254620005f560201b62001ced1790919060201c565b600281905550620003ef816000808573ffffffffffffffffffffffffffffffffffffffff1673ffffffffffffffffffffffffffffffffffffffff16815260200190815260200160002054620005f560201b62001ced1790919060201c565b6000808473ffffffffffffffffffffffffffffffffffffffff1673ffffffffffffffffffffffffffffffffffffffff168152602001908152602001600020819055508173ffffffffffffffffffffffffffffffffffffffff16600073ffffffffffffffffffffffffffffffffffffffff167fddf252ad1be2c89b69c2b068fc378daa952ba7f163c4a11628f55a4df523b3ef836040518082815260200191505060405180910390a35050565b6000600660009054906101000a900473ffffffffffffffffffffffffffffffffffffffff1673ffffffffffffffffffffffffffffffffffffffff1663eae4c19f6040518163ffffffff1660e01b815260040160206040518083038186803b1580156200050657600080fd5b505afa1580156200051b573d6000803e3d6000fd5b505050506040513d60208110156200053257600080fd5b8101908080519060200190929190505050905090565b6000600660009054906101000a900473ffffffffffffffffffffffffffffffffffffffff1673ffffffffffffffffffffffffffffffffffffffff1663a4caeb426040518163ffffffff1660e01b815260040160206040518083038186803b158015620005b357600080fd5b505afa158015620005c8573d6000803e3d6000fd5b505050506040513d6020811015620005df57600080fd5b8101908080519060200190929190505050905090565b6000808284019050838110156200060b57600080fd5b8091505092915050565b6000600660009054906101000a900473ffffffffffffffffffffffffffffffffffffffff1673ffffffffffffffffffffffffffffffffffffffff1663ef78d4fd6040518163ffffffff1660e01b815260040160206040518083038186803b1580156200068057600080fd5b505afa15801562000695573d6000803e3d6000fd5b505050506040513d6020811015620006ac57600080fd5b8101908080519060200190929190505050905090565b600080831415620006d75760009050620006fa565b6000828402905082848281620006e957fe5b0414620006f557600080fd5b809150505b92915050565b6000828211156200071057600080fd5b600082840390508091505092915050565b828054600181600116156101000203166002900490600052602060002090601f016020900481019282601f106200076457805160ff191683800117855562000795565b8280016001018555821562000795579182015b828111156200079457825182559160200191906001019062000777565b5b509050620007a49190620007a8565b5090565b620007cd91905b80821115620007c9576000816000905550600101620007af565b5090565b90565b611edb80620007e06000396000f3fe608060405234801561001057600080fd5b50600436106101a95760003560e01c806341c30546116100f9578063a457c2d711610097578063be0522e011610071578063be0522e0146107b2578063dd62ed3e146107d0578063ef78d4fd14610848578063f9f8bdb714610866576101a9565b8063a457c2d7146106c8578063a4caeb421461072e578063a9059cbb1461074c576101a9565b80638b4eed81116100d35780638b4eed81146105bf5780638da5cb5b146105dd57806395d89b4114610627578063a2e62045146106aa576101a9565b806341c305461461052b5780636c050eae1461054957806370a0823114610567576101a9565b806318160ddd1161016657806323b872dd1161014057806323b872dd146103d1578063313ce56714610457578063365a86fc1461047b57806339509351146104c5576101a9565b806318160ddd1461030f5780631f2dc5ef1461032d57806320a6703c1461034b576101a9565b806306f09ab0146101ae57806306fdde03146101cc578063095ea7b31461024f5780630f487c21146102b5578063107129dd146102d357806316ada547146102f1575b600080fd5b6101b6610884565b6040518082815260200191505060405180910390f35b6101d461092e565b6040518080602001828103825283818151815260200191508051906020019080838360005b838110156102145780820151818401526020810190506101f9565b50505050905090810190601f1680156102415780820380516001836020036101000a031916815260200191505b509250505060405180910390f35b61029b6004803603604081101561026557600080fd5b81019080803573ffffffffffffffffffffffffffffffffffffffff169060200190929190803590602001909291905050506109cc565b604051808215151515815260200191505060405180910390f35b6102bd610af7565b6040518082815260200191505060405180910390f35b6102db610b33565b6040518082815260200191505060405180910390f35b6102f9610b39565b6040518082815260200191505060405180910390f35b610317610b41565b6040518082815260200191505060405180910390f35b610335610b4b565b6040518082815260200191505060405180910390f35b6103b76004803603606081101561036157600080fd5b81019080803573ffffffffffffffffffffffffffffffffffffffff169060200190929190803573ffffffffffffffffffffffffffffffffffffffff16906020019092919080359060200190929190505050610bf5565b604051808215151515815260200191505060405180910390f35b61043d600480360360608110156103e757600080fd5b81019080803573ffffffffffffffffffffffffffffffffffffffff169060200190929190803573ffffffffffffffffffffffffffffffffffffffff16906020019092919080359060200190929190505050610c63565b604051808215151515815260200191505060405180910390f35b61045f610e6b565b604051808260ff1660ff16815260200191505060405180910390f35b610483610e7e565b604051808273ffffffffffffffffffffffffffffffffffffffff1673ffffffffffffffffffffffffffffffffffffffff16815260200191505060405180910390f35b610511600480360360408110156104db57600080fd5b81019080803573ffffffffffffffffffffffffffffffffffffffff16906020019092919080359060200190929190505050610ea4565b604051808215151515815260200191505060405180910390f35b6105336110d9565b6040518082815260200191505060405180910390f35b610551611146565b6040518082815260200191505060405180910390f35b6105a96004803603602081101561057d57600080fd5b81019080803573ffffffffffffffffffffffffffffffffffffffff1690602001909291905050506112f1565b6040518082815260200191505060405180910390f35b6105c7611339565b6040518082815260200191505060405180910390f35b6105e561133f565b604051808273ffffffffffffffffffffffffffffffffffffffff1673ffffffffffffffffffffffffffffffffffffffff16815260200191505060405180910390f35b61062f611365565b6040518080602001828103825283818151815260200191508051906020019080838360005b8381101561066f578082015181840152602081019050610654565b50505050905090810190601f16801561069c5780820380516001836020036101000a031916815260200191505b509250505060405180910390f35b6106b2611465565b6040518082815260200191505060405180910390f35b610714600480360360408110156106de57600080fd5b81019080803573ffffffffffffffffffffffffffffffffffffffff16906020019092919080359060200190929190505050611571565b604051808215151515815260200191505060405180910390f35b6107366117a6565b6040518082815260200191505060405180910390f35b6107986004803603604081101561076257600080fd5b81019080803573ffffffffffffffffffffffffffffffffffffffff16906020019092919080359060200190929190505050611850565b604051808215151515815260200191505060405180910390f35b6107ba6118fc565b6040518082815260200191505060405180910390f35b610832600480360360408110156107e657600080fd5b81019080803573ffffffffffffffffffffffffffffffffffffffff169060200190929190803573ffffffffffffffffffffffffffffffffffffffff1690602001909291905050506119a6565b6040518082815260200191505060405180910390f35b610850611a2d565b6040518082815260200191505060405180910390f35b61086e611ad7565b6040518082815260200191505060405180910390f35b6000600660009054906101000a900473ffffffffffffffffffffffffffffffffffffffff1673ffffffffffffffffffffffffffffffffffffffff1663eae4c19f6040518163ffffffff1660e01b815260040160206040518083038186803b1580156108ee57600080fd5b505afa158015610902573d6000803e3d6000fd5b505050506040513d602081101561091857600080fd5b8101908080519060200190929190505050905090565b60048054600181600116156101000203166002900480601f0160208091040260200160405190810160405280929190818152602001828054600181600116156101000203166002900480156109c45780601f10610999576101008083540402835291602001916109c4565b820191906000526020600020905b8154815290600101906020018083116109a757829003601f168201915b505050505081565b60008073ffffffffffffffffffffffffffffffffffffffff168373ffffffffffffffffffffffffffffffffffffffff161415610a0757600080fd5b81600160003373ffffffffffffffffffffffffffffffffffffffff1673ffffffffffffffffffffffffffffffffffffffff16815260200190815260200160002060008573ffffffffffffffffffffffffffffffffffffffff1673ffffffffffffffffffffffffffffffffffffffff168152602001908152602001600020819055508273ffffffffffffffffffffffffffffffffffffffff163373ffffffffffffffffffffffffffffffffffffffff167f8c5be1e5ebec7d5bd14f71427d1e84f3dd0314c0f7b2291e5b200ac8c7c3b925846040518082815260200191505060405180910390a36001905092915050565b6000610b2e610b04611a2d565b610b20610b0f610884565b600554611add90919063ffffffff16565b611afd90919063ffffffff16565b905090565b60085481565b600042905090565b6000600254905090565b6000600660009054906101000a900473ffffffffffffffffffffffffffffffffffffffff1673ffffffffffffffffffffffffffffffffffffffff16631f2dc5ef6040518163ffffffff1660e01b815260040160206040518083038186803b158015610bb557600080fd5b505afa158015610bc9573d6000803e3d6000fd5b505050506040513d6020811015610bdf57600080fd5b8101908080519060200190929190505050905090565b6000600660009054906101000a900473ffffffffffffffffffffffffffffffffffffffff1673ffffffffffffffffffffffffffffffffffffffff163373ffffffffffffffffffffffffffffffffffffffff1614610c5157600080fd5b610c5c848484611b23565b9392505050565b6000610cf482600160008773ffffffffffffffffffffffffffffffffffffffff1673ffffffffffffffffffffffffffffffffffffffff16815260200190815260200160002060003373ffffffffffffffffffffffffffffffffffffffff1673ffffffffffffffffffffffffffffffffffffffff16815260200190815260200160002054611add90919063ffffffff16565b600160008673ffffffffffffffffffffffffffffffffffffffff1673ffffffffffffffffffffffffffffffffffffffff16815260200190815260200160002060003373ffffffffffffffffffffffffffffffffffffffff1673ffffffffffffffffffffffffffffffffffffffff16815260200190815260200160002081905550610d7f848484611b23565b3373ffffffffffffffffffffffffffffffffffffffff168473ffffffffffffffffffffffffffffffffffffffff167f8c5be1e5ebec7d5bd14f71427d1e84f3dd0314c0f7b2291e5b200ac8c7c3b925600160008873ffffffffffffffffffffffffffffffffffffffff1673ffffffffffffffffffffffffffffffffffffffff16815260200190815260200160002060003373ffffffffffffffffffffffffffffffffffffffff1673ffffffffffffffffffffffffffffffffffffffff168152602001908152602001600020546040518082815260200191505060405180910390a3600190509392505050565b600360009054906101000a900460ff1681565b600660009054906101000a900473ffffffffffffffffffffffffffffffffffffffff1681565b60008073ffffffffffffffffffffffffffffffffffffffff168373ffffffffffffffffffffffffffffffffffffffff161415610edf57600080fd5b610f6e82600160003373ffffffffffffffffffffffffffffffffffffffff1673ffffffffffffffffffffffffffffffffffffffff16815260200190815260200160002060008673ffffffffffffffffffffffffffffffffffffffff1673ffffffffffffffffffffffffffffffffffffffff16815260200190815260200160002054611ced90919063ffffffff16565b600160003373ffffffffffffffffffffffffffffffffffffffff1673ffffffffffffffffffffffffffffffffffffffff16815260200190815260200160002060008573ffffffffffffffffffffffffffffffffffffffff1673ffffffffffffffffffffffffffffffffffffffff168152602001908152602001600020819055508273ffffffffffffffffffffffffffffffffffffffff163373ffffffffffffffffffffffffffffffffffffffff167f8c5be1e5ebec7d5bd14f71427d1e84f3dd0314c0f7b2291e5b200ac8c7c3b925600160003373ffffffffffffffffffffffffffffffffffffffff1673ffffffffffffffffffffffffffffffffffffffff16815260200190815260200160002060008773ffffffffffffffffffffffffffffffffffffffff1673ffffffffffffffffffffffffffffffffffffffff168152602001908152602001600020546040518082815260200191505060405180910390a36001905092915050565b60006111416110e6610b39565b6111336110f1610884565b61112561110f60016111016117a6565b611ced90919063ffffffff16565b611117611a2d565b611d0c90919063ffffffff16565b611ced90919063ffffffff16565b611add90919063ffffffff16565b905090565b60008060009050600060055490506000600854905060006009549050600061116c610af7565b90505b611177610b39565b61118a8486611ced90919063ffffffff16565b116112a0576111b46111a58385611d0c90919063ffffffff16565b86611ced90919063ffffffff16565b94506111c98385611ced90919063ffffffff16565b93506111d3611a2d565b92506111e9600182611ced90919063ffffffff16565b9050600660009054906101000a900473ffffffffffffffffffffffffffffffffffffffff1673ffffffffffffffffffffffffffffffffffffffff1663afaa29df826040518263ffffffff1660e01b81526004018082815260200191505060206040518083038186803b15801561125e57600080fd5b505afa158015611272573d6000803e3d6000fd5b505050506040513d602081101561128857600080fd5b8101908080519060200190929190505050915061116f565b60006112bc856112ae610b39565b611add90919063ffffffff16565b90506112e36112d48483611d0c90919063ffffffff16565b87611ced90919063ffffffff16565b955085965050505050505090565b60008060008373ffffffffffffffffffffffffffffffffffffffff1673ffffffffffffffffffffffffffffffffffffffff168152602001908152602001600020549050919050565b60055481565b600760009054906101000a900473ffffffffffffffffffffffffffffffffffffffff1681565b6060600660009054906101000a900473ffffffffffffffffffffffffffffffffffffffff1673ffffffffffffffffffffffffffffffffffffffff166395d89b416040518163ffffffff1660e01b815260040160006040518083038186803b1580156113cf57600080fd5b505afa1580156113e3573d6000803e3d6000fd5b505050506040513d6000823e3d601f19601f82011682018060405250602081101561140d57600080fd5b81019080805164010000000081111561142557600080fd5b8281019050602081018481111561143b57600080fd5b815185600182028301116401000000008211171561145857600080fd5b5050929190505050905090565b600080611470611146565b9050600081111561156d576114836110d9565b600881905550611491610b39565b600581905550600660009054906101000a900473ffffffffffffffffffffffffffffffffffffffff1673ffffffffffffffffffffffffffffffffffffffff1663863623bb6040518163ffffffff1660e01b815260040160206040518083038186803b1580156114ff57600080fd5b505afa158015611513573d6000803e3d6000fd5b505050506040513d602081101561152957600080fd5b810190808051906020019092919050505060098190555061156c600760009054906101000a900473ffffffffffffffffffffffffffffffffffffffff1682611d46565b5b5090565b60008073ffffffffffffffffffffffffffffffffffffffff168373ffffffffffffffffffffffffffffffffffffffff1614156115ac57600080fd5b61163b82600160003373ffffffffffffffffffffffffffffffffffffffff1673ffffffffffffffffffffffffffffffffffffffff16815260200190815260200160002060008673ffffffffffffffffffffffffffffffffffffffff1673ffffffffffffffffffffffffffffffffffffffff16815260200190815260200160002054611add90919063ffffffff16565b600160003373ffffffffffffffffffffffffffffffffffffffff1673ffffffffffffffffffffffffffffffffffffffff16815260200190815260200160002060008573ffffffffffffffffffffffffffffffffffffffff1673ffffffffffffffffffffffffffffffffffffffff168152602001908152602001600020819055508273ffffffffffffffffffffffffffffffffffffffff163373ffffffffffffffffffffffffffffffffffffffff167f8c5be1e5ebec7d5bd14f71427d1e84f3dd0314c0f7b2291e5b200ac8c7c3b925600160003373ffffffffffffffffffffffffffffffffffffffff1673ffffffffffffffffffffffffffffffffffffffff16815260200190815260200160002060008773ffffffffffffffffffffffffffffffffffffffff1673ffffffffffffffffffffffffffffffffffffffff168152602001908152602001600020546040518082815260200191505060405180910390a36001905092915050565b6000600660009054906101000a900473ffffffffffffffffffffffffffffffffffffffff1673ffffffffffffffffffffffffffffffffffffffff1663a4caeb426040518163ffffffff1660e01b815260040160206040518083038186803b15801561181057600080fd5b505afa158015611824573d6000803e3d6000fd5b505050506040513d602081101561183a57600080fd5b8101908080519060200190929190505050905090565b6000600760009054906101000a900473ffffffffffffffffffffffffffffffffffffffff1673ffffffffffffffffffffffffffffffffffffffff163373ffffffffffffffffffffffffffffffffffffffff1614156118ea5733600760006101000a81548173ffffffffffffffffffffffffffffffffffffffff021916908373ffffffffffffffffffffffffffffffffffffffff1602179055505b6118f48383611e98565b905092915050565b6000600660009054906101000a900473ffffffffffffffffffffffffffffffffffffffff1673ffffffffffffffffffffffffffffffffffffffff1663be0522e06040518163ffffffff1660e01b815260040160206040518083038186803b15801561196657600080fd5b505afa15801561197a573d6000803e3d6000fd5b505050506040513d602081101561199057600080fd5b8101908080519060200190929190505050905090565b6000600160008473ffffffffffffffffffffffffffffffffffffffff1673ffffffffffffffffffffffffffffffffffffffff16815260200190815260200160002060008373ffffffffffffffffffffffffffffffffffffffff1673ffffffffffffffffffffffffffffffffffffffff16815260200190815260200160002054905092915050565b6000600660009054906101000a900473ffffffffffffffffffffffffffffffffffffffff1673ffffffffffffffffffffffffffffffffffffffff1663ef78d4fd6040518163ffffffff1660e01b815260040160206040518083038186803b158015611a9757600080fd5b505afa158015611aab573d6000803e3d6000fd5b505050506040513d6020811015611ac157600080fd5b8101908080519060200190929190505050905090565b60095481565b600082821115611aec57600080fd5b600082840390508091505092915050565b6000808211611b0b57600080fd5b6000828481611b1657fe5b0490508091505092915050565b600073ffffffffffffffffffffffffffffffffffffffff168273ffffffffffffffffffffffffffffffffffffffff161415611b5d57600080fd5b611bae816000808673ffffffffffffffffffffffffffffffffffffffff1673ffffffffffffffffffffffffffffffffffffffff16815260200190815260200160002054611add90919063ffffffff16565b6000808573ffffffffffffffffffffffffffffffffffffffff1673ffffffffffffffffffffffffffffffffffffffff16815260200190815260200160002081905550611c41816000808573ffffffffffffffffffffffffffffffffffffffff1673ffffffffffffffffffffffffffffffffffffffff16815260200190815260200160002054611ced90919063ffffffff16565b6000808473ffffffffffffffffffffffffffffffffffffffff1673ffffffffffffffffffffffffffffffffffffffff168152602001908152602001600020819055508173ffffffffffffffffffffffffffffffffffffffff168373ffffffffffffffffffffffffffffffffffffffff167fddf252ad1be2c89b69c2b068fc378daa952ba7f163c4a11628f55a4df523b3ef836040518082815260200191505060405180910390a3505050565b600080828401905083811015611d0257600080fd5b8091505092915050565b600080831415611d1f5760009050611d40565b6000828402905082848281611d3057fe5b0414611d3b57600080fd5b809150505b92915050565b600073ffffffffffffffffffffffffffffffffffffffff168273ffffffffffffffffffffffffffffffffffffffff161415611d8057600080fd5b611d9581600254611ced90919063ffffffff16565b600281905550611dec816000808573ffffffffffffffffffffffffffffffffffffffff1673ffffffffffffffffffffffffffffffffffffffff16815260200190815260200160002054611ced90919063ffffffff16565b6000808473ffffffffffffffffffffffffffffffffffffffff1673ffffffffffffffffffffffffffffffffffffffff168152602001908152602001600020819055508173ffffffffffffffffffffffffffffffffffffffff16600073ffffffffffffffffffffffffffffffffffffffff167fddf252ad1be2c89b69c2b068fc378daa952ba7f163c4a11628f55a4df523b3ef836040518082815260200191505060405180910390a35050565b6000611ea5338484611b23565b600190509291505056fea165627a7a72305820a7dc5045b0bd816f1fe634e2a4333eda97bef16964e4a06e48e5703451803fbc0029546f6b656e73206172726179206c656e677468206d75737420657175616c2073726373206172726179596f752063616e206f6e6c792074727573742070656f706c6520616674657220796f75277665207369676e656420757021546f6b656e73206172726179206c656e677468206d75737420657175616c206465737473206172726179546f6b656e73206172726179206c656e677468206d75737420657175616c20616d6f756e7473206172726179506174682073656e64732066726f6d206d6f7265207468616e206f6e65207372635061746820646f65736e27742073656e642066726f6d207472616e73616374696f6e2073656e646572556e657175616c2073656e7420616e6420726563656976656420616d6f756e7473a165627a7a72305820253546139586831a1af064bad6209acd8099b8944e9b1e1fab9bfc468e17ed030029",
  "source": "pragma solidity ^0.5.0;\n\nimport \"openzeppelin-solidity/contracts/math/SafeMath.sol\";\nimport \"./Token.sol\";\n\ncontract Hub {\n    using SafeMath for uint256;\n\n    address public owner;\n\n    uint256 public inflation;\n    uint256 public divisor;\n    uint256 public period;\n    string public symbol; // = 'CRC';\n    uint256 public initialPayout;\n    uint256 public startingRate;\n    uint256 public deployedAt;\n\n    mapping (address => Token) public userToToken;\n    mapping (address => address) public tokenToUser;\n    mapping (address => mapping (address => uint256)) public limits;\n\n    event Signup(address indexed user, address token);\n    event Trust(address indexed canSendTo, address indexed user, uint256 limit);\n    event HubTransfer(address indexed from, address indexed to, uint256 amount);\n\n    struct transferValidator {\n        address identity;\n        uint256 sent;\n        uint256 received;\n    }\n\n    mapping (address => transferValidator) public validation;\n    address[] public seen;\n\n    modifier onlyOwner() {\n        require (msg.sender == owner);\n        _;\n    }\n\n    constructor(address _owner, uint256 _inflation, uint256 _period, string memory _symbol, uint256 _initialPayout, uint256 _startingRate) public {\n        require (_owner != address(0));\n        owner = _owner;\n        inflation = _inflation;\n        divisor = findDivisor(_inflation);\n        period = _period;\n        symbol = _symbol;\n        initialPayout = _initialPayout;\n        startingRate = _startingRate;\n        deployedAt = block.timestamp;\n    }\n\n    function findDivisor(uint256 _inf) internal pure returns (uint256) {\n        uint256 iter = 0;\n        while (_inf.div(pow(10, iter)) > 9) {\n            iter += 1;\n        }\n        return pow(10, iter);\n    }\n\n    function periods() public view returns (uint256) {\n        return (block.timestamp.sub(deployedAt)).div(period);\n    }\n\n    function issuance() public view returns (uint256) {\n        return inflate(startingRate, periods());\n    }\n\n    function issuanceStep(uint256 _periods) public view returns (uint256) {\n        return inflate(startingRate, _periods);\n    }\n\n    function inflate(uint256 _initial, uint256 _periods) public view returns (uint256) {\n        uint256 q = pow(inflation, _periods);\n        uint256 d = pow(divisor, _periods);\n        return (_initial.mul(q)).div(d);\n    }\n\n    function changeOwner(address _newOwner) public onlyOwner returns (bool) {\n        require(_newOwner != address(0));\n        owner = _newOwner;\n        return true;\n    }\n\n    function updateInflation(uint256 _inflation) public onlyOwner returns (bool) {\n        // safety checks on issuance go here\n        inflation = _inflation;\n        return true;\n    }\n\n    function updateSymbol(string memory _symbol) public onlyOwner returns (bool) {\n        symbol = _symbol;\n        return true;\n    }\n\n    function time() public view returns (uint256) { return block.timestamp; }\n\n    // No exit allowed. Once you create a personal token, you're in for good.\n    function signup(string memory _name) public returns (bool) {\n        require(address(userToToken[msg.sender]) == address(0));\n\n        Token token = new Token(msg.sender, _name, initialPayout);\n        userToToken[msg.sender] = token;\n        tokenToUser[address(token)] = msg.sender;\n        _trust(msg.sender, 100);\n\n        emit Signup(msg.sender, address(token));\n        return true;\n    }\n\n    // Trust does not have to be reciprocated.\n    // (e.g. I can trust you but you don't have to trust me)\n    function trust(address user, uint limit) public {\n        require(address(userToToken[msg.sender]) != address(0), \"You can only trust people after you've signed up!\");\n        require(msg.sender != user, \"You can't untrust yourself\");\n        _trust(user, limit);\n    }\n\n    function _trust(address user, uint limit) internal {\n        limits[msg.sender][user] = limit;\n        emit Trust(msg.sender, user, limit);\n    }\n\n    function pow(uint256 base, uint256 exponent) public pure returns (uint256) {\n        if (base == 0) {\n            return 0;\n        }\n        if (exponent == 0) {\n            return 1;\n        }\n        if (exponent == 1) {\n            return base;\n        }\n        uint256 y = 1;\n        while(exponent > 1) {\n            if(exponent.mod(2) == 0) {\n                base = base.mul(base);\n                exponent = exponent.div(2);\n            } else {\n                y = base.mul(y);\n                base = base.mul(base);\n                exponent = (exponent.sub(1)).div(2);\n            }\n        }\n        return base.mul(y);\n    }\n\n    function checkSendLimit(address tokenOwner, address src, address dest) public view returns (uint256) {\n        // there is no trust\n        if (limits[dest][tokenOwner] == 0) {\n            return 0;\n        }\n        // if dest hasn't signed up, they cannot trust anyone\n        if (address(userToToken[dest]) == address(0)) {\n            return 0;\n        }\n\n        // if the token doesn't exist, return max\n        uint256 max = (userToToken[dest].totalSupply().mul(limits[dest][tokenOwner])).div(100);\n        if (address(userToToken[tokenOwner]) == address(0)) {\n            return max;\n        }\n\n        // if sending dest's token to dest, src can send 100% of their holdings\n        uint256 srcBalance = userToToken[tokenOwner].balanceOf(src);\n        if (tokenOwner == dest) {\n            return srcBalance;\n        }\n        uint256 destBalance = userToToken[tokenOwner].balanceOf(dest);\n        \n        // if trustLimit has already been overriden by a direct transfer, nothing more can be sent\n        if (max < destBalance) return 0;\n        return max.sub(destBalance);\n    }\n\n    // build the data structures we will use for validation\n    // if we haven't seen the addresses, add them to the validation mapping\n    // if we have, increment their sent/received amounts\n    function buildValidationData(address src, address dest, uint wad) internal {\n        if (validation[src].identity != address(0)) {\n            validation[src].sent = validation[src].sent.add(wad);\n        } else {\n            validation[src].identity = src;\n            validation[src].sent = wad;\n            seen.push(src);\n        }\n        if (validation[dest].identity != address(0)) {\n            validation[dest].received = validation[dest].received.add(wad);\n        } else {\n            validation[dest].identity = dest;\n            validation[dest].received = wad; \n            seen.push(dest);   \n        }\n    }\n\n    function validateTransferThrough(uint256 steps) internal {\n        // a valid path has only one true sender and reciever, for all other\n        // addresses in the path, sent = received\n        // also, the sender should be msg.sender\n        address src;\n        address dest;\n        for (uint i = 0; i < seen.length; i++) {\n            transferValidator memory curr = validation[seen[i]];\n            if (curr.sent > curr.received) {\n                require(src == address(0), \"Path sends from more than one src\");\n                require(curr.identity == msg.sender, \"Path doesn't send from transaction sender\");\n                src = curr.identity;\n            }\n            if (curr.received > curr.sent) {\n                require(dest == address(0), \"Path sends to more than one dest\");\n                dest = curr.identity;\n            }\n        }\n        require(src != address(0), \"Transaction must have a src\");\n        require(dest != address(0), \"Transaction must have a dest\");\n        // sender should not recieve, recipient should not send\n        require(validation[src].received == 0, \"Sender is receiving\");\n        require(validation[dest].sent == 0, \"Recipient is sending\");\n        // the total amounts sent and received by src and dest should match\n        require(validation[src].sent == validation[dest].received, \"Unequal sent and received amounts\");\n        // the maximum amount of addresses we should see is one more than steps in the path\n        require(seen.length <= steps + 1, \"Seen too many addresses\");\n        emit HubTransfer(src, dest, validation[src].sent);\n        // clean up the validation datastructures\n        for (uint i = seen.length; i >= 1; i--) {\n            validation[seen[i-1]].sent = 0;\n            validation[seen[i-1]].received = 0;\n            validation[seen[i-1]].identity = address(0);\n            seen.pop();\n        }\n        // sanity check that we cleaned everything up correctly\n        require(seen.length == 0, \"Seen should be empty\");\n    }\n\n    // Walks through tokenOwners, srcs, dests, and amounts array and\n    // executes transtive transfer - also validates path\n    function transferThrough(address[] memory tokenOwners, address[] memory srcs, address[] memory dests, uint[] memory wads) public {\n        require(srcs.length <= 5, \"Too complex path\");\n        require(dests.length == tokenOwners.length, \"Tokens array length must equal dests array\");\n        require(srcs.length == tokenOwners.length, \"Tokens array length must equal srcs array\");\n        require(wads.length == tokenOwners.length, \"Tokens array length must equal amounts array\");\n        for (uint i = 0; i < srcs.length; i++) {\n            address src = srcs[i];\n            address dest = dests[i];\n            address token = tokenOwners[i];\n            uint256 wad = wads[i];\n            \n            // check that no trust limits are violated\n            // you always trust yourself 100%\n            if (token != dest) {\n                uint256 max = checkSendLimit(token, src, dest);\n                require(userToToken[token].balanceOf(dest) + wad <= max, \"Trust limit exceeded\");\n            }\n\n            buildValidationData(src, dest, wad);\n\n            userToToken[token].hubTransfer(src, dest, wad);\n        }\n        validateTransferThrough(srcs.length);\n    }\n}\n\n",
  "sourcePath": "/media/000/Documents/Circles/circles-contracts/contracts/Hub.sol",
  "compiler": {
    "name": "solc",
    "version": "0.5.8+commit.23d335f2.Emscripten.clang"
  },
  "schemaVersion": "3.0.15",
  "updatedAt": "2020-02-05T20:26:09.357Z",
  "devdoc": {
    "methods": {}
  },
  "userdoc": {
    "methods": {}
  }
}