{
  "contractName": "Hub",
  "abi": [
    {
      "constant": true,
      "inputs": [],
      "name": "divisor",
      "outputs": [
        {
          "name": "",
          "type": "uint256"
        }
      ],
      "payable": false,
      "stateMutability": "view",
      "type": "function"
    },
    {
      "constant": true,
      "inputs": [
        {
          "name": "",
          "type": "address"
        }
      ],
      "name": "userToToken",
      "outputs": [
        {
          "name": "",
          "type": "address"
        }
      ],
      "payable": false,
      "stateMutability": "view",
      "type": "function"
    },
    {
      "constant": true,
      "inputs": [],
      "name": "initialPayout",
      "outputs": [
        {
          "name": "",
          "type": "uint256"
        }
      ],
      "payable": false,
      "stateMutability": "view",
      "type": "function"
    },
    {
      "constant": true,
      "inputs": [
        {
          "name": "",
          "type": "address"
        }
      ],
      "name": "validation",
      "outputs": [
        {
          "name": "identity",
          "type": "address"
        },
        {
          "name": "sent",
          "type": "uint256"
        },
        {
          "name": "received",
          "type": "uint256"
        }
      ],
      "payable": false,
      "stateMutability": "view",
      "type": "function"
    },
    {
      "constant": true,
      "inputs": [
        {
          "name": "",
          "type": "uint256"
        }
      ],
      "name": "seen",
      "outputs": [
        {
          "name": "",
          "type": "address"
        }
      ],
      "payable": false,
      "stateMutability": "view",
      "type": "function"
    },
    {
      "constant": true,
      "inputs": [],
      "name": "owner",
      "outputs": [
        {
          "name": "",
          "type": "address"
        }
      ],
      "payable": false,
      "stateMutability": "view",
      "type": "function"
    },
    {
      "constant": true,
      "inputs": [],
      "name": "symbol",
      "outputs": [
        {
          "name": "",
          "type": "string"
        }
      ],
      "payable": false,
      "stateMutability": "view",
      "type": "function"
    },
    {
      "constant": true,
      "inputs": [
        {
          "name": "",
          "type": "address"
        }
      ],
      "name": "tokenToUser",
      "outputs": [
        {
          "name": "",
          "type": "address"
        }
      ],
      "payable": false,
      "stateMutability": "view",
      "type": "function"
    },
    {
      "constant": true,
      "inputs": [
        {
          "name": "",
          "type": "address"
        },
        {
          "name": "",
          "type": "address"
        }
      ],
      "name": "limits",
      "outputs": [
        {
          "name": "",
          "type": "uint256"
        }
      ],
      "payable": false,
      "stateMutability": "view",
      "type": "function"
    },
    {
      "constant": true,
      "inputs": [],
      "name": "inflation",
      "outputs": [
        {
          "name": "",
          "type": "uint256"
        }
      ],
      "payable": false,
      "stateMutability": "view",
      "type": "function"
    },
    {
      "constant": true,
      "inputs": [],
      "name": "deployedAt",
      "outputs": [
        {
          "name": "",
          "type": "uint256"
        }
      ],
      "payable": false,
      "stateMutability": "view",
      "type": "function"
    },
    {
      "constant": true,
      "inputs": [],
      "name": "period",
      "outputs": [
        {
          "name": "",
          "type": "uint256"
        }
      ],
      "payable": false,
      "stateMutability": "view",
      "type": "function"
    },
    {
      "constant": true,
      "inputs": [],
      "name": "initialIssuance",
      "outputs": [
        {
          "name": "",
          "type": "uint256"
        }
      ],
      "payable": false,
      "stateMutability": "view",
      "type": "function"
    },
    {
      "inputs": [
        {
          "name": "_owner",
          "type": "address"
        },
        {
          "name": "_inflation",
          "type": "uint256"
        },
        {
          "name": "_period",
          "type": "uint256"
        },
        {
          "name": "_symbol",
          "type": "string"
        },
        {
          "name": "_initialPayout",
          "type": "uint256"
        },
        {
          "name": "_initialIssuance",
          "type": "uint256"
        }
      ],
      "payable": false,
      "stateMutability": "nonpayable",
      "type": "constructor"
    },
    {
      "anonymous": false,
      "inputs": [
        {
          "indexed": true,
          "name": "user",
          "type": "address"
        },
        {
          "indexed": false,
          "name": "token",
          "type": "address"
        }
      ],
      "name": "Signup",
      "type": "event"
    },
    {
      "anonymous": false,
      "inputs": [
        {
          "indexed": true,
          "name": "canSendTo",
          "type": "address"
        },
        {
          "indexed": true,
          "name": "user",
          "type": "address"
        },
        {
          "indexed": false,
          "name": "limit",
          "type": "uint256"
        }
      ],
      "name": "Trust",
      "type": "event"
    },
    {
      "anonymous": false,
      "inputs": [
        {
          "indexed": true,
          "name": "from",
          "type": "address"
        },
        {
          "indexed": true,
          "name": "to",
          "type": "address"
        },
        {
          "indexed": false,
          "name": "amount",
          "type": "uint256"
        }
      ],
      "name": "HubTransfer",
      "type": "event"
    },
    {
      "constant": true,
      "inputs": [],
      "name": "periods",
      "outputs": [
        {
          "name": "",
          "type": "uint256"
        }
      ],
      "payable": false,
      "stateMutability": "view",
      "type": "function"
    },
    {
      "constant": true,
      "inputs": [],
      "name": "issuance",
      "outputs": [
        {
          "name": "",
          "type": "uint256"
        }
      ],
      "payable": false,
      "stateMutability": "view",
      "type": "function"
    },
    {
      "constant": true,
      "inputs": [
        {
          "name": "_periods",
          "type": "uint256"
        }
      ],
      "name": "issuanceStep",
      "outputs": [
        {
          "name": "",
          "type": "uint256"
        }
      ],
      "payable": false,
      "stateMutability": "view",
      "type": "function"
    },
    {
      "constant": true,
      "inputs": [
        {
          "name": "_initial",
          "type": "uint256"
        },
        {
          "name": "_periods",
          "type": "uint256"
        }
      ],
      "name": "inflate",
      "outputs": [
        {
          "name": "",
          "type": "uint256"
        }
      ],
      "payable": false,
      "stateMutability": "view",
      "type": "function"
    },
    {
      "constant": false,
      "inputs": [
        {
          "name": "_newOwner",
          "type": "address"
        }
      ],
      "name": "changeOwner",
      "outputs": [
        {
          "name": "",
          "type": "bool"
        }
      ],
      "payable": false,
      "stateMutability": "nonpayable",
      "type": "function"
    },
    {
      "constant": false,
      "inputs": [
        {
          "name": "_inflation",
          "type": "uint256"
        }
      ],
      "name": "updateInflation",
      "outputs": [
        {
          "name": "",
          "type": "bool"
        }
      ],
      "payable": false,
      "stateMutability": "nonpayable",
      "type": "function"
    },
    {
      "constant": false,
      "inputs": [
        {
          "name": "_initialIssuance",
          "type": "uint256"
        }
      ],
      "name": "updateRate",
      "outputs": [
        {
          "name": "",
          "type": "bool"
        }
      ],
      "payable": false,
      "stateMutability": "nonpayable",
      "type": "function"
    },
    {
      "constant": false,
      "inputs": [
        {
          "name": "_symbol",
          "type": "string"
        }
      ],
      "name": "updateSymbol",
      "outputs": [
        {
          "name": "",
          "type": "bool"
        }
      ],
      "payable": false,
      "stateMutability": "nonpayable",
      "type": "function"
    },
    {
      "constant": true,
      "inputs": [],
      "name": "time",
      "outputs": [
        {
          "name": "",
          "type": "uint256"
        }
      ],
      "payable": false,
      "stateMutability": "view",
      "type": "function"
    },
    {
      "constant": false,
      "inputs": [
        {
          "name": "_name",
          "type": "string"
        }
      ],
      "name": "signup",
      "outputs": [
        {
          "name": "",
          "type": "bool"
        }
      ],
      "payable": false,
      "stateMutability": "nonpayable",
      "type": "function"
    },
    {
      "constant": false,
      "inputs": [
        {
          "name": "user",
          "type": "address"
        },
        {
          "name": "limit",
          "type": "uint256"
        }
      ],
      "name": "trust",
      "outputs": [],
      "payable": false,
      "stateMutability": "nonpayable",
      "type": "function"
    },
    {
      "constant": true,
      "inputs": [
        {
          "name": "base",
          "type": "uint256"
        },
        {
          "name": "exponent",
          "type": "uint256"
        }
      ],
      "name": "pow",
      "outputs": [
        {
          "name": "",
          "type": "uint256"
        }
      ],
      "payable": false,
      "stateMutability": "pure",
      "type": "function"
    },
    {
      "constant": true,
      "inputs": [
        {
          "name": "tokenOwner",
          "type": "address"
        },
        {
          "name": "src",
          "type": "address"
        },
        {
          "name": "dest",
          "type": "address"
        }
      ],
      "name": "checkSendLimit",
      "outputs": [
        {
          "name": "",
          "type": "uint256"
        }
      ],
      "payable": false,
      "stateMutability": "view",
      "type": "function"
    },
    {
      "constant": false,
      "inputs": [
        {
          "name": "tokenOwners",
          "type": "address[]"
        },
        {
          "name": "srcs",
          "type": "address[]"
        },
        {
          "name": "dests",
          "type": "address[]"
        },
        {
          "name": "wads",
          "type": "uint256[]"
        }
      ],
      "name": "transferThrough",
      "outputs": [],
      "payable": false,
      "stateMutability": "nonpayable",
      "type": "function"
    }
  ],
  "bytecode": "0x60806040523480156200001157600080fd5b506040516200622338038062006223833981018060405260c08110156200003757600080fd5b8101908080519060200190929190805190602001909291908051906020019092919080516401000000008111156200006e57600080fd5b828101905060208101848111156200008557600080fd5b8151856001820283011164010000000082111715620000a357600080fd5b50509291906020018051906020019092919080519060200190929190505050600073ffffffffffffffffffffffffffffffffffffffff168673ffffffffffffffffffffffffffffffffffffffff161415620000fd57600080fd5b856000806101000a81548173ffffffffffffffffffffffffffffffffffffffff021916908373ffffffffffffffffffffffffffffffffffffffff1602179055508460018190555062000155856200019c60201b60201c565b6002819055508360038190555082600490805190602001906200017a929190620003f4565b50816005819055508060068190555042600781905550505050505050620004a3565b600080600090505b6009620001d2620001bd600a846200020060201b60201c565b856200034a60201b620023c11790919060201c565b1115620001e557600181019050620001a4565b620001f8600a826200020060201b60201c565b915050919050565b60008083141562000215576000905062000344565b600082141562000229576001905062000344565b60018214156200023c5782905062000344565b6000600190505b6001831115620003265760006200026a6002856200037260201b620023e91790919060201c565b1415620002b0576200028b84856200039560201b620023831790919060201c565b9350620002a86002846200034a60201b620023c11790919060201c565b925062000320565b620002ca81856200039560201b620023831790919060201c565b9050620002e684856200039560201b620023831790919060201c565b93506200031d600262000309600186620003d360201b6200240c1790919060201c565b6200034a60201b620023c11790919060201c565b92505b62000243565b6200034081856200039560201b620023831790919060201c565b9150505b92915050565b60008082116200035957600080fd5b60008284816200036557fe5b0490508091505092915050565b6000808214156200038257600080fd5b8183816200038c57fe5b06905092915050565b600080831415620003aa5760009050620003cd565b6000828402905082848281620003bc57fe5b0414620003c857600080fd5b809150505b92915050565b600082821115620003e357600080fd5b600082840390508091505092915050565b828054600181600116156101000203166002900490600052602060002090601f016020900481019282601f106200043757805160ff191683800117855562000468565b8280016001018555821562000468579182015b82811115620004675782518255916020019190600101906200044a565b5b5090506200047791906200047b565b5090565b620004a091905b808211156200049c57600081600090555060010162000482565b5090565b90565b615d7080620004b36000396000f3fe60806040523480156200001157600080fd5b5060043610620001d25760003560e01c80638a0ef1841162000111578063a6f9dae111620000a5578063d62fd9a2116200007b578063d62fd9a21462000a6c578063eae4c19f1462000cef578063ef78d4fd1462000d0f578063fc22a9f81462000d2f57620001d2565b8063a6f9dae114620009a8578063afaa29df1462000a07578063be0522e01462000a4c57620001d2565b80639951d62f11620000e75780639951d62f1462000835578063a18b506b1462000886578063a3eb2b4a146200090d578063a4caeb42146200098857620001d2565b80638a0ef18414620006c65780638da5cb5b146200076157806395d89b4114620007ad57620001d2565b806330387a4f116200018957806369ea1771116200015f57806369ea1771146200055757806377ed63c214620005a05780637f501d041462000635578063863623bb14620006a657620001d2565b806330387a4f1462000385578063519c637714620003a5578063537f5312146200047e57620001d2565b806316ada54714620001d75780631f2dc5ef14620001f757806328d249fe14620002175780632a938342146200029e5780632ad3b3c314620002ed5780632e4c697f1462000336575b600080fd5b620001e162000d4f565b6040518082815260200191505060405180910390f35b6200020162000d57565b6040518082815260200191505060405180910390f35b6200025c600480360360208110156200022f57600080fd5b81019080803573ffffffffffffffffffffffffffffffffffffffff16906020019092919050505062000d5d565b604051808273ffffffffffffffffffffffffffffffffffffffff1673ffffffffffffffffffffffffffffffffffffffff16815260200191505060405180910390f35b620002d760048036036040811015620002b657600080fd5b81019080803590602001909291908035906020019092919050505062000d90565b6040518082815260200191505060405180910390f35b6200031c600480360360208110156200030557600080fd5b810190808035906020019092919050505062000de8565b604051808215151515815260200191505060405180910390f35b6200036f600480360360408110156200034e57600080fd5b81019080803590602001909291908035906020019092919050505062000e54565b6040518082815260200191505060405180910390f35b6200038f62000f76565b6040518082815260200191505060405180910390f35b6200046460048036036020811015620003bd57600080fd5b8101908080359060200190640100000000811115620003db57600080fd5b820183602082011115620003ee57600080fd5b803590602001918460018302840111640100000000831117156200041157600080fd5b91908080601f016020809104026020016040519081016040528093929190818152602001838380828437600081840152601f19601f82011690508083019250505050505050919291929050505062000f7c565b604051808215151515815260200191505060405180910390f35b6200053d600480360360208110156200049657600080fd5b8101908080359060200190640100000000811115620004b457600080fd5b820183602082011115620004c757600080fd5b80359060200191846001830284011164010000000083111715620004ea57600080fd5b91908080601f016020809104026020016040519081016040528093929190818152602001838380828437600081840152601f19601f82011690508083019250505050505050919291929050505062001284565b604051808215151515815260200191505060405180910390f35b62000586600480360360208110156200056f57600080fd5b810190808035906020019092919050505062001302565b604051808215151515815260200191505060405180910390f35b620005e560048036036020811015620005b857600080fd5b81019080803573ffffffffffffffffffffffffffffffffffffffff1690602001909291905050506200136e565b604051808473ffffffffffffffffffffffffffffffffffffffff1673ffffffffffffffffffffffffffffffffffffffff168152602001838152602001828152602001935050505060405180910390f35b62000664600480360360208110156200064d57600080fd5b8101908080359060200190929190505050620013b8565b604051808273ffffffffffffffffffffffffffffffffffffffff1673ffffffffffffffffffffffffffffffffffffffff16815260200191505060405180910390f35b620006b0620013f5565b6040518082815260200191505060405180910390f35b6200074b60048036036060811015620006de57600080fd5b81019080803573ffffffffffffffffffffffffffffffffffffffff169060200190929190803573ffffffffffffffffffffffffffffffffffffffff169060200190929190803573ffffffffffffffffffffffffffffffffffffffff16906020019092919050505062001413565b6040518082815260200191505060405180910390f35b6200076b62001a22565b604051808273ffffffffffffffffffffffffffffffffffffffff1673ffffffffffffffffffffffffffffffffffffffff16815260200191505060405180910390f35b620007b762001a47565b6040518080602001828103825283818151815260200191508051906020019080838360005b83811015620007f9578082015181840152602081019050620007dc565b50505050905090810190601f168015620008275780820380516001836020036101000a031916815260200191505b509250505060405180910390f35b62000884600480360360408110156200084d57600080fd5b81019080803573ffffffffffffffffffffffffffffffffffffffff1690602001909291908035906020019092919050505062001ae9565b005b620008cb600480360360208110156200089e57600080fd5b81019080803573ffffffffffffffffffffffffffffffffffffffff16906020019092919050505062001c83565b604051808273ffffffffffffffffffffffffffffffffffffffff1673ffffffffffffffffffffffffffffffffffffffff16815260200191505060405180910390f35b62000972600480360360408110156200092557600080fd5b81019080803573ffffffffffffffffffffffffffffffffffffffff169060200190929190803573ffffffffffffffffffffffffffffffffffffffff16906020019092919050505062001cb6565b6040518082815260200191505060405180910390f35b6200099262001cdb565b6040518082815260200191505060405180910390f35b620009ed60048036036020811015620009c057600080fd5b81019080803573ffffffffffffffffffffffffffffffffffffffff16906020019092919050505062001d0f565b604051808215151515815260200191505060405180910390f35b62000a366004803603602081101562000a1f57600080fd5b810190808035906020019092919050505062001def565b6040518082815260200191505060405180910390f35b62000a5662001e06565b6040518082815260200191505060405180910390f35b62000ced6004803603608081101562000a8457600080fd5b810190808035906020019064010000000081111562000aa257600080fd5b82018360208201111562000ab557600080fd5b8035906020019184602083028401116401000000008311171562000ad857600080fd5b919080806020026020016040519081016040528093929190818152602001838360200280828437600081840152601f19601f8201169050808301925050505050505091929192908035906020019064010000000081111562000b3957600080fd5b82018360208201111562000b4c57600080fd5b8035906020019184602083028401116401000000008311171562000b6f57600080fd5b919080806020026020016040519081016040528093929190818152602001838360200280828437600081840152601f19601f8201169050808301925050505050505091929192908035906020019064010000000081111562000bd057600080fd5b82018360208201111562000be357600080fd5b8035906020019184602083028401116401000000008311171562000c0657600080fd5b919080806020026020016040519081016040528093929190818152602001838360200280828437600081840152601f19601f8201169050808301925050505050505091929192908035906020019064010000000081111562000c6757600080fd5b82018360208201111562000c7a57600080fd5b8035906020019184602083028401116401000000008311171562000c9d57600080fd5b919080806020026020016040519081016040528093929190818152602001838360200280828437600081840152601f19601f82011690508083019250505050505050919291929050505062001e0c565b005b62000cf962002371565b6040518082815260200191505060405180910390f35b62000d1962002377565b6040518082815260200191505060405180910390f35b62000d396200237d565b6040518082815260200191505060405180910390f35b600042905090565b60025481565b60086020528060005260406000206000915054906101000a900473ffffffffffffffffffffffffffffffffffffffff1681565b60008062000da16001548462000e54565b9050600062000db36002548562000e54565b905062000dde8162000dcf84886200238390919063ffffffff16565b620023c190919063ffffffff16565b9250505092915050565b60008060009054906101000a900473ffffffffffffffffffffffffffffffffffffffff1673ffffffffffffffffffffffffffffffffffffffff163373ffffffffffffffffffffffffffffffffffffffff161462000e4457600080fd5b8160018190555060019050919050565b60008083141562000e69576000905062000f70565b600082141562000e7d576001905062000f70565b600182141562000e905782905062000f70565b6000600190505b600183111562000f5757600062000eb9600285620023e990919063ffffffff16565b141562000ef55762000ed584856200238390919063ffffffff16565b935062000eed600284620023c190919063ffffffff16565b925062000f51565b62000f0a81856200238390919063ffffffff16565b905062000f2184856200238390919063ffffffff16565b935062000f4e600262000f3f6001866200240c90919063ffffffff16565b620023c190919063ffffffff16565b92505b62000e97565b62000f6c81856200238390919063ffffffff16565b9150505b92915050565b60055481565b60008073ffffffffffffffffffffffffffffffffffffffff16600860003373ffffffffffffffffffffffffffffffffffffffff1673ffffffffffffffffffffffffffffffffffffffff16815260200190815260200160002060009054906101000a900473ffffffffffffffffffffffffffffffffffffffff1673ffffffffffffffffffffffffffffffffffffffff16146200101657600080fd5b600033836005546040516200102b906200347a565b808473ffffffffffffffffffffffffffffffffffffffff1673ffffffffffffffffffffffffffffffffffffffff16815260200180602001838152602001828103825284818151815260200191508051906020019080838360005b83811015620010a257808201518184015260208101905062001085565b50505050905090810190601f168015620010d05780820380516001836020036101000a031916815260200191505b50945050505050604051809103906000f080158015620010f4573d6000803e3d6000fd5b50905080600860003373ffffffffffffffffffffffffffffffffffffffff1673ffffffffffffffffffffffffffffffffffffffff16815260200190815260200160002060006101000a81548173ffffffffffffffffffffffffffffffffffffffff021916908373ffffffffffffffffffffffffffffffffffffffff16021790555033600960008373ffffffffffffffffffffffffffffffffffffffff1673ffffffffffffffffffffffffffffffffffffffff16815260200190815260200160002060006101000a81548173ffffffffffffffffffffffffffffffffffffffff021916908373ffffffffffffffffffffffffffffffffffffffff160217905550620012003360646200242d565b3373ffffffffffffffffffffffffffffffffffffffff167f358ba8f768af134eb5af120e9a61dc1ef29b29f597f047b555fc3675064a034282604051808273ffffffffffffffffffffffffffffffffffffffff1673ffffffffffffffffffffffffffffffffffffffff16815260200191505060405180910390a26001915050919050565b60008060009054906101000a900473ffffffffffffffffffffffffffffffffffffffff1673ffffffffffffffffffffffffffffffffffffffff163373ffffffffffffffffffffffffffffffffffffffff1614620012e057600080fd5b8160049080519060200190620012f892919062003488565b5060019050919050565b60008060009054906101000a900473ffffffffffffffffffffffffffffffffffffffff1673ffffffffffffffffffffffffffffffffffffffff163373ffffffffffffffffffffffffffffffffffffffff16146200135e57600080fd5b8160068190555060019050919050565b600b6020528060005260406000206000915090508060000160009054906101000a900473ffffffffffffffffffffffffffffffffffffffff16908060010154908060020154905083565b600c8181548110620013c657fe5b906000526020600020016000915054906101000a900473ffffffffffffffffffffffffffffffffffffffff1681565b60006200140e6006546200140862001cdb565b62000d90565b905090565b600080600a60008473ffffffffffffffffffffffffffffffffffffffff1673ffffffffffffffffffffffffffffffffffffffff16815260200190815260200160002060008673ffffffffffffffffffffffffffffffffffffffff1673ffffffffffffffffffffffffffffffffffffffff168152602001908152602001600020541415620014a4576000905062001a1b565b600073ffffffffffffffffffffffffffffffffffffffff16600860008473ffffffffffffffffffffffffffffffffffffffff1673ffffffffffffffffffffffffffffffffffffffff16815260200190815260200160002060009054906101000a900473ffffffffffffffffffffffffffffffffffffffff1673ffffffffffffffffffffffffffffffffffffffff16141562001543576000905062001a1b565b6000620016cd6064620016be600a60008773ffffffffffffffffffffffffffffffffffffffff1673ffffffffffffffffffffffffffffffffffffffff16815260200190815260200160002060008973ffffffffffffffffffffffffffffffffffffffff1673ffffffffffffffffffffffffffffffffffffffff16815260200190815260200160002054600860008873ffffffffffffffffffffffffffffffffffffffff1673ffffffffffffffffffffffffffffffffffffffff16815260200190815260200160002060009054906101000a900473ffffffffffffffffffffffffffffffffffffffff1673ffffffffffffffffffffffffffffffffffffffff166318160ddd6040518163ffffffff1660e01b815260040160206040518083038186803b1580156200167257600080fd5b505afa15801562001687573d6000803e3d6000fd5b505050506040513d60208110156200169e57600080fd5b81019080805190602001909291905050506200238390919063ffffffff16565b620023c190919063ffffffff16565b9050600073ffffffffffffffffffffffffffffffffffffffff16600860008773ffffffffffffffffffffffffffffffffffffffff1673ffffffffffffffffffffffffffffffffffffffff16815260200190815260200160002060009054906101000a900473ffffffffffffffffffffffffffffffffffffffff1673ffffffffffffffffffffffffffffffffffffffff1614156200176e578091505062001a1b565b6000600860008773ffffffffffffffffffffffffffffffffffffffff1673ffffffffffffffffffffffffffffffffffffffff16815260200190815260200160002060009054906101000a900473ffffffffffffffffffffffffffffffffffffffff1673ffffffffffffffffffffffffffffffffffffffff166370a08231866040518263ffffffff1660e01b8152600401808273ffffffffffffffffffffffffffffffffffffffff1673ffffffffffffffffffffffffffffffffffffffff16815260200191505060206040518083038186803b1580156200184d57600080fd5b505afa15801562001862573d6000803e3d6000fd5b505050506040513d60208110156200187957600080fd5b810190808051906020019092919050505090508373ffffffffffffffffffffffffffffffffffffffff168673ffffffffffffffffffffffffffffffffffffffff161415620018cc57809250505062001a1b565b6000600860008873ffffffffffffffffffffffffffffffffffffffff1673ffffffffffffffffffffffffffffffffffffffff16815260200190815260200160002060009054906101000a900473ffffffffffffffffffffffffffffffffffffffff1673ffffffffffffffffffffffffffffffffffffffff166370a08231866040518263ffffffff1660e01b8152600401808273ffffffffffffffffffffffffffffffffffffffff1673ffffffffffffffffffffffffffffffffffffffff16815260200191505060206040518083038186803b158015620019ab57600080fd5b505afa158015620019c0573d6000803e3d6000fd5b505050506040513d6020811015620019d757600080fd5b810190808051906020019092919050505090508083101562001a00576000935050505062001a1b565b62001a1581846200240c90919063ffffffff16565b93505050505b9392505050565b6000809054906101000a900473ffffffffffffffffffffffffffffffffffffffff1681565b60048054600181600116156101000203166002900480601f01602080910402602001604051908101604052809291908181526020018280546001816001161561010002031660029004801562001ae15780601f1062001ab55761010080835404028352916020019162001ae1565b820191906000526020600020905b81548152906001019060200180831162001ac357829003601f168201915b505050505081565b600073ffffffffffffffffffffffffffffffffffffffff16600860003373ffffffffffffffffffffffffffffffffffffffff1673ffffffffffffffffffffffffffffffffffffffff16815260200190815260200160002060009054906101000a900473ffffffffffffffffffffffffffffffffffffffff1673ffffffffffffffffffffffffffffffffffffffff16141562001bd0576040517f08c379a000000000000000000000000000000000000000000000000000000000815260040180806020018281038252603181526020018062005c536031913960400191505060405180910390fd5b8173ffffffffffffffffffffffffffffffffffffffff163373ffffffffffffffffffffffffffffffffffffffff16141562001c73576040517f08c379a000000000000000000000000000000000000000000000000000000000815260040180806020018281038252601a8152602001807f596f752063616e277420756e747275737420796f757273656c6600000000000081525060200191505060405180910390fd5b62001c7f82826200242d565b5050565b60096020528060005260406000206000915054906101000a900473ffffffffffffffffffffffffffffffffffffffff1681565b600a602052816000526040600020602052806000526040600020600091509150505481565b600062001d0a60035462001cfb600754426200240c90919063ffffffff16565b620023c190919063ffffffff16565b905090565b60008060009054906101000a900473ffffffffffffffffffffffffffffffffffffffff1673ffffffffffffffffffffffffffffffffffffffff163373ffffffffffffffffffffffffffffffffffffffff161462001d6b57600080fd5b600073ffffffffffffffffffffffffffffffffffffffff168273ffffffffffffffffffffffffffffffffffffffff16141562001da657600080fd5b816000806101000a81548173ffffffffffffffffffffffffffffffffffffffff021916908373ffffffffffffffffffffffffffffffffffffffff16021790555060019050919050565b600062001dff6006548362000d90565b9050919050565b60015481565b60058351111562001e85576040517f08c379a00000000000000000000000000000000000000000000000000000000081526004018080602001828103825260108152602001807f546f6f20636f6d706c657820706174680000000000000000000000000000000081525060200191505060405180910390fd5b835182511462001ee1576040517f08c379a000000000000000000000000000000000000000000000000000000000815260040180806020018281038252602a81526020018062005c84602a913960400191505060405180910390fd5b835183511462001f3d576040517f08c379a000000000000000000000000000000000000000000000000000000000815260040180806020018281038252602981526020018062005c2a6029913960400191505060405180910390fd5b835181511462001f99576040517f08c379a000000000000000000000000000000000000000000000000000000000815260040180806020018281038252602c81526020018062005cae602c913960400191505060405180910390fd5b60008090505b83518110156200235e57600084828151811062001fb857fe5b60200260200101519050600084838151811062001fd157fe5b60200260200101519050600087848151811062001fea57fe5b6020026020010151905060008585815181106200200357fe5b602002602001015190508273ffffffffffffffffffffffffffffffffffffffff168273ffffffffffffffffffffffffffffffffffffffff1614620021e65760006200205083868662001413565b90508082600860008673ffffffffffffffffffffffffffffffffffffffff1673ffffffffffffffffffffffffffffffffffffffff16815260200190815260200160002060009054906101000a900473ffffffffffffffffffffffffffffffffffffffff1673ffffffffffffffffffffffffffffffffffffffff166370a08231876040518263ffffffff1660e01b8152600401808273ffffffffffffffffffffffffffffffffffffffff1673ffffffffffffffffffffffffffffffffffffffff16815260200191505060206040518083038186803b1580156200213157600080fd5b505afa15801562002146573d6000803e3d6000fd5b505050506040513d60208110156200215d57600080fd5b8101908080519060200190929190505050011115620021e4576040517f08c379a00000000000000000000000000000000000000000000000000000000081526004018080602001828103825260148152602001807f5472757374206c696d697420657863656564656400000000000000000000000081525060200191505060405180910390fd5b505b620021f384848362002517565b600860008373ffffffffffffffffffffffffffffffffffffffff1673ffffffffffffffffffffffffffffffffffffffff16815260200190815260200160002060009054906101000a900473ffffffffffffffffffffffffffffffffffffffff1673ffffffffffffffffffffffffffffffffffffffff166320a6703c8585846040518463ffffffff1660e01b8152600401808473ffffffffffffffffffffffffffffffffffffffff1673ffffffffffffffffffffffffffffffffffffffff1681526020018373ffffffffffffffffffffffffffffffffffffffff1673ffffffffffffffffffffffffffffffffffffffff1681526020018281526020019350505050602060405180830381600087803b1580156200230e57600080fd5b505af115801562002323573d6000803e3d6000fd5b505050506040513d60208110156200233a57600080fd5b81019080805190602001909291905050505050505050808060010191505062001f9f565b506200236b8351620029ee565b50505050565b60075481565b60035481565b60065481565b600080831415620023985760009050620023bb565b6000828402905082848281620023aa57fe5b0414620023b657600080fd5b809150505b92915050565b6000808211620023d057600080fd5b6000828481620023dc57fe5b0490508091505092915050565b600080821415620023f957600080fd5b8183816200240357fe5b06905092915050565b6000828211156200241c57600080fd5b600082840390508091505092915050565b80600a60003373ffffffffffffffffffffffffffffffffffffffff1673ffffffffffffffffffffffffffffffffffffffff16815260200190815260200160002060008473ffffffffffffffffffffffffffffffffffffffff1673ffffffffffffffffffffffffffffffffffffffff168152602001908152602001600020819055508173ffffffffffffffffffffffffffffffffffffffff163373ffffffffffffffffffffffffffffffffffffffff167fe60c754dd8ab0b1b5fccba257d6ebcd7d09e360ab7dd7a6e58198ca1f57cdcec836040518082815260200191505060405180910390a35050565b600073ffffffffffffffffffffffffffffffffffffffff16600b60008573ffffffffffffffffffffffffffffffffffffffff1673ffffffffffffffffffffffffffffffffffffffff16815260200190815260200160002060000160009054906101000a900473ffffffffffffffffffffffffffffffffffffffff1673ffffffffffffffffffffffffffffffffffffffff161462002651576200260581600b60008673ffffffffffffffffffffffffffffffffffffffff1673ffffffffffffffffffffffffffffffffffffffff168152602001908152602001600020600101546200345a90919063ffffffff16565b600b60008573ffffffffffffffffffffffffffffffffffffffff1673ffffffffffffffffffffffffffffffffffffffff1681526020019081526020016000206001018190555062002780565b82600b60008573ffffffffffffffffffffffffffffffffffffffff1673ffffffffffffffffffffffffffffffffffffffff16815260200190815260200160002060000160006101000a81548173ffffffffffffffffffffffffffffffffffffffff021916908373ffffffffffffffffffffffffffffffffffffffff16021790555080600b60008573ffffffffffffffffffffffffffffffffffffffff1673ffffffffffffffffffffffffffffffffffffffff16815260200190815260200160002060010181905550600c8390806001815401808255809150509060018203906000526020600020016000909192909190916101000a81548173ffffffffffffffffffffffffffffffffffffffff021916908373ffffffffffffffffffffffffffffffffffffffff160217905550505b600073ffffffffffffffffffffffffffffffffffffffff16600b60008473ffffffffffffffffffffffffffffffffffffffff1673ffffffffffffffffffffffffffffffffffffffff16815260200190815260200160002060000160009054906101000a900473ffffffffffffffffffffffffffffffffffffffff1673ffffffffffffffffffffffffffffffffffffffff1614620028ba576200286e81600b60008573ffffffffffffffffffffffffffffffffffffffff1673ffffffffffffffffffffffffffffffffffffffff168152602001908152602001600020600201546200345a90919063ffffffff16565b600b60008473ffffffffffffffffffffffffffffffffffffffff1673ffffffffffffffffffffffffffffffffffffffff16815260200190815260200160002060020181905550620029e9565b81600b60008473ffffffffffffffffffffffffffffffffffffffff1673ffffffffffffffffffffffffffffffffffffffff16815260200190815260200160002060000160006101000a81548173ffffffffffffffffffffffffffffffffffffffff021916908373ffffffffffffffffffffffffffffffffffffffff16021790555080600b60008473ffffffffffffffffffffffffffffffffffffffff1673ffffffffffffffffffffffffffffffffffffffff16815260200190815260200160002060020181905550600c8290806001815401808255809150509060018203906000526020600020016000909192909190916101000a81548173ffffffffffffffffffffffffffffffffffffffff021916908373ffffffffffffffffffffffffffffffffffffffff160217905550505b505050565b60008060008090505b600c8054905081101562002cf25762002a0f6200350f565b600b6000600c848154811062002a2157fe5b9060005260206000200160009054906101000a900473ffffffffffffffffffffffffffffffffffffffff1673ffffffffffffffffffffffffffffffffffffffff1673ffffffffffffffffffffffffffffffffffffffff1681526020019081526020016000206040518060600160405290816000820160009054906101000a900473ffffffffffffffffffffffffffffffffffffffff1673ffffffffffffffffffffffffffffffffffffffff1673ffffffffffffffffffffffffffffffffffffffff16815260200160018201548152602001600282015481525050905080604001518160200151111562002c2757600073ffffffffffffffffffffffffffffffffffffffff168473ffffffffffffffffffffffffffffffffffffffff161462002b95576040517f08c379a000000000000000000000000000000000000000000000000000000000815260040180806020018281038252602181526020018062005cda6021913960400191505060405180910390fd5b3373ffffffffffffffffffffffffffffffffffffffff16816000015173ffffffffffffffffffffffffffffffffffffffff161462002c1f576040517f08c379a000000000000000000000000000000000000000000000000000000000815260040180806020018281038252602981526020018062005cfb6029913960400191505060405180910390fd5b806000015193505b80602001518160400151111562002ce357600073ffffffffffffffffffffffffffffffffffffffff168373ffffffffffffffffffffffffffffffffffffffff161462002cdb576040517f08c379a00000000000000000000000000000000000000000000000000000000081526004018080602001828103825260208152602001807f506174682073656e647320746f206d6f7265207468616e206f6e65206465737481525060200191505060405180910390fd5b806000015192505b508080600101915050620029f7565b50600073ffffffffffffffffffffffffffffffffffffffff168273ffffffffffffffffffffffffffffffffffffffff16141562002d97576040517f08c379a000000000000000000000000000000000000000000000000000000000815260040180806020018281038252601b8152602001807f5472616e73616374696f6e206d7573742068617665206120737263000000000081525060200191505060405180910390fd5b600073ffffffffffffffffffffffffffffffffffffffff168173ffffffffffffffffffffffffffffffffffffffff16141562002e3b576040517f08c379a000000000000000000000000000000000000000000000000000000000815260040180806020018281038252601c8152602001807f5472616e73616374696f6e206d7573742068617665206120646573740000000081525060200191505060405180910390fd5b6000600b60008473ffffffffffffffffffffffffffffffffffffffff1673ffffffffffffffffffffffffffffffffffffffff168152602001908152602001600020600201541462002ef4576040517f08c379a00000000000000000000000000000000000000000000000000000000081526004018080602001828103825260138152602001807f53656e64657220697320726563656976696e670000000000000000000000000081525060200191505060405180910390fd5b6000600b60008373ffffffffffffffffffffffffffffffffffffffff1673ffffffffffffffffffffffffffffffffffffffff168152602001908152602001600020600101541462002fad576040517f08c379a00000000000000000000000000000000000000000000000000000000081526004018080602001828103825260148152602001807f526563697069656e742069732073656e64696e6700000000000000000000000081525060200191505060405180910390fd5b600b60008273ffffffffffffffffffffffffffffffffffffffff1673ffffffffffffffffffffffffffffffffffffffff16815260200190815260200160002060020154600b60008473ffffffffffffffffffffffffffffffffffffffff1673ffffffffffffffffffffffffffffffffffffffff16815260200190815260200160002060010154146200308b576040517f08c379a000000000000000000000000000000000000000000000000000000000815260040180806020018281038252602181526020018062005d246021913960400191505060405180910390fd5b60018301600c8054905011156200310a576040517f08c379a00000000000000000000000000000000000000000000000000000000081526004018080602001828103825260178152602001807f5365656e20746f6f206d616e792061646472657373657300000000000000000081525060200191505060405180910390fd5b8073ffffffffffffffffffffffffffffffffffffffff168273ffffffffffffffffffffffffffffffffffffffff167f8451019aab65b4193860ef723cb0d56b475a26a72b7bfc55c1dbd6121015285a600b60008673ffffffffffffffffffffffffffffffffffffffff1673ffffffffffffffffffffffffffffffffffffffff168152602001908152602001600020600101546040518082815260200191505060405180910390a36000600c8054905090505b60018110620033d8576000600b6000600c6001850381548110620031dc57fe5b9060005260206000200160009054906101000a900473ffffffffffffffffffffffffffffffffffffffff1673ffffffffffffffffffffffffffffffffffffffff1673ffffffffffffffffffffffffffffffffffffffff168152602001908152602001600020600101819055506000600b6000600c60018503815481106200325f57fe5b9060005260206000200160009054906101000a900473ffffffffffffffffffffffffffffffffffffffff1673ffffffffffffffffffffffffffffffffffffffff1673ffffffffffffffffffffffffffffffffffffffff168152602001908152602001600020600201819055506000600b6000600c6001850381548110620032e257fe5b9060005260206000200160009054906101000a900473ffffffffffffffffffffffffffffffffffffffff1673ffffffffffffffffffffffffffffffffffffffff1673ffffffffffffffffffffffffffffffffffffffff16815260200190815260200160002060000160006101000a81548173ffffffffffffffffffffffffffffffffffffffff021916908373ffffffffffffffffffffffffffffffffffffffff160217905550600c8054806200339457fe5b6001900381819060005260206000200160006101000a81549073ffffffffffffffffffffffffffffffffffffffff02191690559055808060019003915050620031bc565b506000600c805490501462003455576040517f08c379a00000000000000000000000000000000000000000000000000000000081526004018080602001828103825260148152602001807f5365656e2073686f756c6420626520656d70747900000000000000000000000081525060200191505060405180910390fd5b505050565b6000808284019050838110156200347057600080fd5b8091505092915050565b6126bb806200356f83390190565b828054600181600116156101000203166002900490600052602060002090601f016020900481019282601f10620034cb57805160ff1916838001178555620034fc565b82800160010185558215620034fc579182015b82811115620034fb578251825591602001919060010190620034de565b5b5090506200350b919062003546565b5090565b6040518060600160405280600073ffffffffffffffffffffffffffffffffffffffff16815260200160008152602001600081525090565b6200356b91905b80821115620035675760008160009055506001016200354d565b5090565b9056fe60806040526012600360006101000a81548160ff021916908360ff1602179055503480156200002d57600080fd5b50604051620026bb380380620026bb833981018060405260608110156200005357600080fd5b810190808051906020019092919080516401000000008111156200007657600080fd5b828101905060208101848111156200008d57600080fd5b8151856001820283011164010000000082111715620000ab57600080fd5b505092919060200180519060200190929190505050600073ffffffffffffffffffffffffffffffffffffffff168373ffffffffffffffffffffffffffffffffffffffff161415620000fb57600080fd5b81600490805190602001906200011392919062000721565b5082600760006101000a81548173ffffffffffffffffffffffffffffffffffffffff021916908373ffffffffffffffffffffffffffffffffffffffff16021790555033600660006101000a81548173ffffffffffffffffffffffffffffffffffffffff021916908373ffffffffffffffffffffffffffffffffffffffff160217905550620001a66200028960201b60201c565b600581905550620001bc6200029160201b60201c565b600881905550600660009054906101000a900473ffffffffffffffffffffffffffffffffffffffff1673ffffffffffffffffffffffffffffffffffffffff1663863623bb6040518163ffffffff1660e01b815260040160206040518083038186803b1580156200022b57600080fd5b505afa15801562000240573d6000803e3d6000fd5b505050506040513d60208110156200025757600080fd5b81019080805190602001909291905050506009819055506200028083826200033a60201b60201c565b505050620007d0565b600042905090565b600062000335620002a76200028960201b60201c565b62000321620002bb6200049b60201b60201c565b6200030d620002e96001620002d56200054860201b60201c565b620005f560201b62001ced1790919060201c565b620002f96200061560201b60201c565b620006c260201b62001d0c1790919060201c565b620005f560201b62001ced1790919060201c565b6200070060201b62001add1790919060201c565b905090565b600073ffffffffffffffffffffffffffffffffffffffff168273ffffffffffffffffffffffffffffffffffffffff1614156200037557600080fd5b6200039181600254620005f560201b62001ced1790919060201c565b600281905550620003ef816000808573ffffffffffffffffffffffffffffffffffffffff1673ffffffffffffffffffffffffffffffffffffffff16815260200190815260200160002054620005f560201b62001ced1790919060201c565b6000808473ffffffffffffffffffffffffffffffffffffffff1673ffffffffffffffffffffffffffffffffffffffff168152602001908152602001600020819055508173ffffffffffffffffffffffffffffffffffffffff16600073ffffffffffffffffffffffffffffffffffffffff167fddf252ad1be2c89b69c2b068fc378daa952ba7f163c4a11628f55a4df523b3ef836040518082815260200191505060405180910390a35050565b6000600660009054906101000a900473ffffffffffffffffffffffffffffffffffffffff1673ffffffffffffffffffffffffffffffffffffffff1663eae4c19f6040518163ffffffff1660e01b815260040160206040518083038186803b1580156200050657600080fd5b505afa1580156200051b573d6000803e3d6000fd5b505050506040513d60208110156200053257600080fd5b8101908080519060200190929190505050905090565b6000600660009054906101000a900473ffffffffffffffffffffffffffffffffffffffff1673ffffffffffffffffffffffffffffffffffffffff1663a4caeb426040518163ffffffff1660e01b815260040160206040518083038186803b158015620005b357600080fd5b505afa158015620005c8573d6000803e3d6000fd5b505050506040513d6020811015620005df57600080fd5b8101908080519060200190929190505050905090565b6000808284019050838110156200060b57600080fd5b8091505092915050565b6000600660009054906101000a900473ffffffffffffffffffffffffffffffffffffffff1673ffffffffffffffffffffffffffffffffffffffff1663ef78d4fd6040518163ffffffff1660e01b815260040160206040518083038186803b1580156200068057600080fd5b505afa15801562000695573d6000803e3d6000fd5b505050506040513d6020811015620006ac57600080fd5b8101908080519060200190929190505050905090565b600080831415620006d75760009050620006fa565b6000828402905082848281620006e957fe5b0414620006f557600080fd5b809150505b92915050565b6000828211156200071057600080fd5b600082840390508091505092915050565b828054600181600116156101000203166002900490600052602060002090601f016020900481019282601f106200076457805160ff191683800117855562000795565b8280016001018555821562000795579182015b828111156200079457825182559160200191906001019062000777565b5b509050620007a49190620007a8565b5090565b620007cd91905b80821115620007c9576000816000905550600101620007af565b5090565b90565b611edb80620007e06000396000f3fe608060405234801561001057600080fd5b50600436106101a95760003560e01c806341c30546116100f9578063a457c2d711610097578063be0522e011610071578063be0522e0146107b2578063d4048089146107d0578063dd62ed3e146107ee578063ef78d4fd14610866576101a9565b8063a457c2d7146106c8578063a4caeb421461072e578063a9059cbb1461074c576101a9565b80638b4eed81116100d35780638b4eed81146105bf5780638da5cb5b146105dd57806395d89b4114610627578063a2e62045146106aa576101a9565b806341c305461461052b5780636c050eae1461054957806370a0823114610567576101a9565b806318160ddd1161016657806323b872dd1161014057806323b872dd146103d1578063313ce56714610457578063365a86fc1461047b57806339509351146104c5576101a9565b806318160ddd1461030f5780631f2dc5ef1461032d57806320a6703c1461034b576101a9565b806306f09ab0146101ae57806306fdde03146101cc578063095ea7b31461024f5780630f487c21146102b5578063107129dd146102d357806316ada547146102f1575b600080fd5b6101b6610884565b6040518082815260200191505060405180910390f35b6101d461092e565b6040518080602001828103825283818151815260200191508051906020019080838360005b838110156102145780820151818401526020810190506101f9565b50505050905090810190601f1680156102415780820380516001836020036101000a031916815260200191505b509250505060405180910390f35b61029b6004803603604081101561026557600080fd5b81019080803573ffffffffffffffffffffffffffffffffffffffff169060200190929190803590602001909291905050506109cc565b604051808215151515815260200191505060405180910390f35b6102bd610af7565b6040518082815260200191505060405180910390f35b6102db610b33565b6040518082815260200191505060405180910390f35b6102f9610b39565b6040518082815260200191505060405180910390f35b610317610b41565b6040518082815260200191505060405180910390f35b610335610b4b565b6040518082815260200191505060405180910390f35b6103b76004803603606081101561036157600080fd5b81019080803573ffffffffffffffffffffffffffffffffffffffff169060200190929190803573ffffffffffffffffffffffffffffffffffffffff16906020019092919080359060200190929190505050610bf5565b604051808215151515815260200191505060405180910390f35b61043d600480360360608110156103e757600080fd5b81019080803573ffffffffffffffffffffffffffffffffffffffff169060200190929190803573ffffffffffffffffffffffffffffffffffffffff16906020019092919080359060200190929190505050610c63565b604051808215151515815260200191505060405180910390f35b61045f610e6b565b604051808260ff1660ff16815260200191505060405180910390f35b610483610e7e565b604051808273ffffffffffffffffffffffffffffffffffffffff1673ffffffffffffffffffffffffffffffffffffffff16815260200191505060405180910390f35b610511600480360360408110156104db57600080fd5b81019080803573ffffffffffffffffffffffffffffffffffffffff16906020019092919080359060200190929190505050610ea4565b604051808215151515815260200191505060405180910390f35b6105336110d9565b6040518082815260200191505060405180910390f35b610551611146565b6040518082815260200191505060405180910390f35b6105a96004803603602081101561057d57600080fd5b81019080803573ffffffffffffffffffffffffffffffffffffffff1690602001909291905050506112f1565b6040518082815260200191505060405180910390f35b6105c7611339565b6040518082815260200191505060405180910390f35b6105e561133f565b604051808273ffffffffffffffffffffffffffffffffffffffff1673ffffffffffffffffffffffffffffffffffffffff16815260200191505060405180910390f35b61062f611365565b6040518080602001828103825283818151815260200191508051906020019080838360005b8381101561066f578082015181840152602081019050610654565b50505050905090810190601f16801561069c5780820380516001836020036101000a031916815260200191505b509250505060405180910390f35b6106b2611465565b6040518082815260200191505060405180910390f35b610714600480360360408110156106de57600080fd5b81019080803573ffffffffffffffffffffffffffffffffffffffff16906020019092919080359060200190929190505050611571565b604051808215151515815260200191505060405180910390f35b6107366117a6565b6040518082815260200191505060405180910390f35b6107986004803603604081101561076257600080fd5b81019080803573ffffffffffffffffffffffffffffffffffffffff16906020019092919080359060200190929190505050611850565b604051808215151515815260200191505060405180910390f35b6107ba6118fc565b6040518082815260200191505060405180910390f35b6107d86119a6565b6040518082815260200191505060405180910390f35b6108506004803603604081101561080457600080fd5b81019080803573ffffffffffffffffffffffffffffffffffffffff169060200190929190803573ffffffffffffffffffffffffffffffffffffffff1690602001909291905050506119ac565b6040518082815260200191505060405180910390f35b61086e611a33565b6040518082815260200191505060405180910390f35b6000600660009054906101000a900473ffffffffffffffffffffffffffffffffffffffff1673ffffffffffffffffffffffffffffffffffffffff1663eae4c19f6040518163ffffffff1660e01b815260040160206040518083038186803b1580156108ee57600080fd5b505afa158015610902573d6000803e3d6000fd5b505050506040513d602081101561091857600080fd5b8101908080519060200190929190505050905090565b60048054600181600116156101000203166002900480601f0160208091040260200160405190810160405280929190818152602001828054600181600116156101000203166002900480156109c45780601f10610999576101008083540402835291602001916109c4565b820191906000526020600020905b8154815290600101906020018083116109a757829003601f168201915b505050505081565b60008073ffffffffffffffffffffffffffffffffffffffff168373ffffffffffffffffffffffffffffffffffffffff161415610a0757600080fd5b81600160003373ffffffffffffffffffffffffffffffffffffffff1673ffffffffffffffffffffffffffffffffffffffff16815260200190815260200160002060008573ffffffffffffffffffffffffffffffffffffffff1673ffffffffffffffffffffffffffffffffffffffff168152602001908152602001600020819055508273ffffffffffffffffffffffffffffffffffffffff163373ffffffffffffffffffffffffffffffffffffffff167f8c5be1e5ebec7d5bd14f71427d1e84f3dd0314c0f7b2291e5b200ac8c7c3b925846040518082815260200191505060405180910390a36001905092915050565b6000610b2e610b04611a33565b610b20610b0f610884565b600554611add90919063ffffffff16565b611afd90919063ffffffff16565b905090565b60085481565b600042905090565b6000600254905090565b6000600660009054906101000a900473ffffffffffffffffffffffffffffffffffffffff1673ffffffffffffffffffffffffffffffffffffffff16631f2dc5ef6040518163ffffffff1660e01b815260040160206040518083038186803b158015610bb557600080fd5b505afa158015610bc9573d6000803e3d6000fd5b505050506040513d6020811015610bdf57600080fd5b8101908080519060200190929190505050905090565b6000600660009054906101000a900473ffffffffffffffffffffffffffffffffffffffff1673ffffffffffffffffffffffffffffffffffffffff163373ffffffffffffffffffffffffffffffffffffffff1614610c5157600080fd5b610c5c848484611b23565b9392505050565b6000610cf482600160008773ffffffffffffffffffffffffffffffffffffffff1673ffffffffffffffffffffffffffffffffffffffff16815260200190815260200160002060003373ffffffffffffffffffffffffffffffffffffffff1673ffffffffffffffffffffffffffffffffffffffff16815260200190815260200160002054611add90919063ffffffff16565b600160008673ffffffffffffffffffffffffffffffffffffffff1673ffffffffffffffffffffffffffffffffffffffff16815260200190815260200160002060003373ffffffffffffffffffffffffffffffffffffffff1673ffffffffffffffffffffffffffffffffffffffff16815260200190815260200160002081905550610d7f848484611b23565b3373ffffffffffffffffffffffffffffffffffffffff168473ffffffffffffffffffffffffffffffffffffffff167f8c5be1e5ebec7d5bd14f71427d1e84f3dd0314c0f7b2291e5b200ac8c7c3b925600160008873ffffffffffffffffffffffffffffffffffffffff1673ffffffffffffffffffffffffffffffffffffffff16815260200190815260200160002060003373ffffffffffffffffffffffffffffffffffffffff1673ffffffffffffffffffffffffffffffffffffffff168152602001908152602001600020546040518082815260200191505060405180910390a3600190509392505050565b600360009054906101000a900460ff1681565b600660009054906101000a900473ffffffffffffffffffffffffffffffffffffffff1681565b60008073ffffffffffffffffffffffffffffffffffffffff168373ffffffffffffffffffffffffffffffffffffffff161415610edf57600080fd5b610f6e82600160003373ffffffffffffffffffffffffffffffffffffffff1673ffffffffffffffffffffffffffffffffffffffff16815260200190815260200160002060008673ffffffffffffffffffffffffffffffffffffffff1673ffffffffffffffffffffffffffffffffffffffff16815260200190815260200160002054611ced90919063ffffffff16565b600160003373ffffffffffffffffffffffffffffffffffffffff1673ffffffffffffffffffffffffffffffffffffffff16815260200190815260200160002060008573ffffffffffffffffffffffffffffffffffffffff1673ffffffffffffffffffffffffffffffffffffffff168152602001908152602001600020819055508273ffffffffffffffffffffffffffffffffffffffff163373ffffffffffffffffffffffffffffffffffffffff167f8c5be1e5ebec7d5bd14f71427d1e84f3dd0314c0f7b2291e5b200ac8c7c3b925600160003373ffffffffffffffffffffffffffffffffffffffff1673ffffffffffffffffffffffffffffffffffffffff16815260200190815260200160002060008773ffffffffffffffffffffffffffffffffffffffff1673ffffffffffffffffffffffffffffffffffffffff168152602001908152602001600020546040518082815260200191505060405180910390a36001905092915050565b60006111416110e6610b39565b6111336110f1610884565b61112561110f60016111016117a6565b611ced90919063ffffffff16565b611117611a33565b611d0c90919063ffffffff16565b611ced90919063ffffffff16565b611add90919063ffffffff16565b905090565b60008060009050600060055490506000600854905060006009549050600061116c610af7565b90505b611177610b39565b61118a8486611ced90919063ffffffff16565b116112a0576111b46111a58385611d0c90919063ffffffff16565b86611ced90919063ffffffff16565b94506111c98385611ced90919063ffffffff16565b93506111d3611a33565b92506111e9600182611ced90919063ffffffff16565b9050600660009054906101000a900473ffffffffffffffffffffffffffffffffffffffff1673ffffffffffffffffffffffffffffffffffffffff1663afaa29df826040518263ffffffff1660e01b81526004018082815260200191505060206040518083038186803b15801561125e57600080fd5b505afa158015611272573d6000803e3d6000fd5b505050506040513d602081101561128857600080fd5b8101908080519060200190929190505050915061116f565b60006112bc856112ae610b39565b611add90919063ffffffff16565b90506112e36112d48483611d0c90919063ffffffff16565b87611ced90919063ffffffff16565b955085965050505050505090565b60008060008373ffffffffffffffffffffffffffffffffffffffff1673ffffffffffffffffffffffffffffffffffffffff168152602001908152602001600020549050919050565b60055481565b600760009054906101000a900473ffffffffffffffffffffffffffffffffffffffff1681565b6060600660009054906101000a900473ffffffffffffffffffffffffffffffffffffffff1673ffffffffffffffffffffffffffffffffffffffff166395d89b416040518163ffffffff1660e01b815260040160006040518083038186803b1580156113cf57600080fd5b505afa1580156113e3573d6000803e3d6000fd5b505050506040513d6000823e3d601f19601f82011682018060405250602081101561140d57600080fd5b81019080805164010000000081111561142557600080fd5b8281019050602081018481111561143b57600080fd5b815185600182028301116401000000008211171561145857600080fd5b5050929190505050905090565b600080611470611146565b9050600081111561156d576114836110d9565b600881905550611491610b39565b600581905550600660009054906101000a900473ffffffffffffffffffffffffffffffffffffffff1673ffffffffffffffffffffffffffffffffffffffff1663863623bb6040518163ffffffff1660e01b815260040160206040518083038186803b1580156114ff57600080fd5b505afa158015611513573d6000803e3d6000fd5b505050506040513d602081101561152957600080fd5b810190808051906020019092919050505060098190555061156c600760009054906101000a900473ffffffffffffffffffffffffffffffffffffffff1682611d46565b5b5090565b60008073ffffffffffffffffffffffffffffffffffffffff168373ffffffffffffffffffffffffffffffffffffffff1614156115ac57600080fd5b61163b82600160003373ffffffffffffffffffffffffffffffffffffffff1673ffffffffffffffffffffffffffffffffffffffff16815260200190815260200160002060008673ffffffffffffffffffffffffffffffffffffffff1673ffffffffffffffffffffffffffffffffffffffff16815260200190815260200160002054611add90919063ffffffff16565b600160003373ffffffffffffffffffffffffffffffffffffffff1673ffffffffffffffffffffffffffffffffffffffff16815260200190815260200160002060008573ffffffffffffffffffffffffffffffffffffffff1673ffffffffffffffffffffffffffffffffffffffff168152602001908152602001600020819055508273ffffffffffffffffffffffffffffffffffffffff163373ffffffffffffffffffffffffffffffffffffffff167f8c5be1e5ebec7d5bd14f71427d1e84f3dd0314c0f7b2291e5b200ac8c7c3b925600160003373ffffffffffffffffffffffffffffffffffffffff1673ffffffffffffffffffffffffffffffffffffffff16815260200190815260200160002060008773ffffffffffffffffffffffffffffffffffffffff1673ffffffffffffffffffffffffffffffffffffffff168152602001908152602001600020546040518082815260200191505060405180910390a36001905092915050565b6000600660009054906101000a900473ffffffffffffffffffffffffffffffffffffffff1673ffffffffffffffffffffffffffffffffffffffff1663a4caeb426040518163ffffffff1660e01b815260040160206040518083038186803b15801561181057600080fd5b505afa158015611824573d6000803e3d6000fd5b505050506040513d602081101561183a57600080fd5b8101908080519060200190929190505050905090565b6000600760009054906101000a900473ffffffffffffffffffffffffffffffffffffffff1673ffffffffffffffffffffffffffffffffffffffff163373ffffffffffffffffffffffffffffffffffffffff1614156118ea5733600760006101000a81548173ffffffffffffffffffffffffffffffffffffffff021916908373ffffffffffffffffffffffffffffffffffffffff1602179055505b6118f48383611e98565b905092915050565b6000600660009054906101000a900473ffffffffffffffffffffffffffffffffffffffff1673ffffffffffffffffffffffffffffffffffffffff1663be0522e06040518163ffffffff1660e01b815260040160206040518083038186803b15801561196657600080fd5b505afa15801561197a573d6000803e3d6000fd5b505050506040513d602081101561199057600080fd5b8101908080519060200190929190505050905090565b60095481565b6000600160008473ffffffffffffffffffffffffffffffffffffffff1673ffffffffffffffffffffffffffffffffffffffff16815260200190815260200160002060008373ffffffffffffffffffffffffffffffffffffffff1673ffffffffffffffffffffffffffffffffffffffff16815260200190815260200160002054905092915050565b6000600660009054906101000a900473ffffffffffffffffffffffffffffffffffffffff1673ffffffffffffffffffffffffffffffffffffffff1663ef78d4fd6040518163ffffffff1660e01b815260040160206040518083038186803b158015611a9d57600080fd5b505afa158015611ab1573d6000803e3d6000fd5b505050506040513d6020811015611ac757600080fd5b8101908080519060200190929190505050905090565b600082821115611aec57600080fd5b600082840390508091505092915050565b6000808211611b0b57600080fd5b6000828481611b1657fe5b0490508091505092915050565b600073ffffffffffffffffffffffffffffffffffffffff168273ffffffffffffffffffffffffffffffffffffffff161415611b5d57600080fd5b611bae816000808673ffffffffffffffffffffffffffffffffffffffff1673ffffffffffffffffffffffffffffffffffffffff16815260200190815260200160002054611add90919063ffffffff16565b6000808573ffffffffffffffffffffffffffffffffffffffff1673ffffffffffffffffffffffffffffffffffffffff16815260200190815260200160002081905550611c41816000808573ffffffffffffffffffffffffffffffffffffffff1673ffffffffffffffffffffffffffffffffffffffff16815260200190815260200160002054611ced90919063ffffffff16565b6000808473ffffffffffffffffffffffffffffffffffffffff1673ffffffffffffffffffffffffffffffffffffffff168152602001908152602001600020819055508173ffffffffffffffffffffffffffffffffffffffff168373ffffffffffffffffffffffffffffffffffffffff167fddf252ad1be2c89b69c2b068fc378daa952ba7f163c4a11628f55a4df523b3ef836040518082815260200191505060405180910390a3505050565b600080828401905083811015611d0257600080fd5b8091505092915050565b600080831415611d1f5760009050611d40565b6000828402905082848281611d3057fe5b0414611d3b57600080fd5b809150505b92915050565b600073ffffffffffffffffffffffffffffffffffffffff168273ffffffffffffffffffffffffffffffffffffffff161415611d8057600080fd5b611d9581600254611ced90919063ffffffff16565b600281905550611dec816000808573ffffffffffffffffffffffffffffffffffffffff1673ffffffffffffffffffffffffffffffffffffffff16815260200190815260200160002054611ced90919063ffffffff16565b6000808473ffffffffffffffffffffffffffffffffffffffff1673ffffffffffffffffffffffffffffffffffffffff168152602001908152602001600020819055508173ffffffffffffffffffffffffffffffffffffffff16600073ffffffffffffffffffffffffffffffffffffffff167fddf252ad1be2c89b69c2b068fc378daa952ba7f163c4a11628f55a4df523b3ef836040518082815260200191505060405180910390a35050565b6000611ea5338484611b23565b600190509291505056fea165627a7a7230582012ed32963e92feac7e35a859ef74e70b8de8368be95965384374577e5cecb3b20029546f6b656e73206172726179206c656e677468206d75737420657175616c2073726373206172726179596f752063616e206f6e6c792074727573742070656f706c6520616674657220796f75277665207369676e656420757021546f6b656e73206172726179206c656e677468206d75737420657175616c206465737473206172726179546f6b656e73206172726179206c656e677468206d75737420657175616c20616d6f756e7473206172726179506174682073656e64732066726f6d206d6f7265207468616e206f6e65207372635061746820646f65736e27742073656e642066726f6d207472616e73616374696f6e2073656e646572556e657175616c2073656e7420616e6420726563656976656420616d6f756e7473a165627a7a72305820d963fcd5ba7914967ddd0c48a3b21075d8fc8c7ad3404123605d0a73567a4ed60029",
  "source": "pragma solidity ^0.5.0;\n\nimport \"openzeppelin-solidity/contracts/math/SafeMath.sol\";\nimport \"./Token.sol\";\n\ncontract Hub {\n    using SafeMath for uint256;\n\n    address public owner;\n\n    uint256 public inflation;\n    uint256 public divisor;\n    uint256 public period;\n    string public symbol; // = 'CRC';\n    uint256 public initialPayout;\n    uint256 public initialIssuance;\n    uint256 public deployedAt;\n\n    mapping (address => Token) public userToToken;\n    mapping (address => address) public tokenToUser;\n    mapping (address => mapping (address => uint256)) public limits;\n\n    event Signup(address indexed user, address token);\n    event Trust(address indexed canSendTo, address indexed user, uint256 limit);\n    event HubTransfer(address indexed from, address indexed to, uint256 amount);\n\n    struct transferValidator {\n        address identity;\n        uint256 sent;\n        uint256 received;\n    }\n\n    mapping (address => transferValidator) public validation;\n    address[] public seen;\n\n    modifier onlyOwner() {\n        require (msg.sender == owner);\n        _;\n    }\n\n    constructor(address _owner, uint256 _inflation, uint256 _period, string memory _symbol, uint256 _initialPayout, uint256 _initialIssuance) public {\n        require (_owner != address(0));\n        owner = _owner;\n        inflation = _inflation;\n        divisor = findDivisor(_inflation);\n        period = _period;\n        symbol = _symbol;\n        initialPayout = _initialPayout;\n        initialIssuance = _initialIssuance;\n        deployedAt = block.timestamp;\n    }\n\n    function findDivisor(uint256 _inf) internal pure returns (uint256) {\n        uint256 iter = 0;\n        while (_inf.div(pow(10, iter)) > 9) {\n            iter += 1;\n        }\n        return pow(10, iter);\n    }\n\n    function periods() public view returns (uint256) {\n        return (block.timestamp.sub(deployedAt)).div(period);\n    }\n\n    function issuance() public view returns (uint256) {\n        return inflate(initialIssuance, periods());\n    }\n\n    function issuanceStep(uint256 _periods) public view returns (uint256) {\n        return inflate(initialIssuance, _periods);\n    }\n\n    function inflate(uint256 _initial, uint256 _periods) public view returns (uint256) {\n        uint256 q = pow(inflation, _periods);\n        uint256 d = pow(divisor, _periods);\n        return (_initial.mul(q)).div(d);\n    }\n\n    function changeOwner(address _newOwner) public onlyOwner returns (bool) {\n        require(_newOwner != address(0));\n        owner = _newOwner;\n        return true;\n    }\n\n    function updateInflation(uint256 _inflation) public onlyOwner returns (bool) {\n        inflation = _inflation;\n        return true;\n    }\n\n    function updateRate(uint256 _initialIssuance) public onlyOwner returns (bool) {\n        initialIssuance = _initialIssuance;\n        return true;\n    }\n\n    function updateSymbol(string memory _symbol) public onlyOwner returns (bool) {\n        symbol = _symbol;\n        return true;\n    }\n\n    function time() public view returns (uint256) { return block.timestamp; }\n\n    // No exit allowed. Once you create a personal token, you're in for good.\n    function signup(string memory _name) public returns (bool) {\n        require(address(userToToken[msg.sender]) == address(0));\n\n        Token token = new Token(msg.sender, _name, initialPayout);\n        userToToken[msg.sender] = token;\n        tokenToUser[address(token)] = msg.sender;\n        _trust(msg.sender, 100);\n\n        emit Signup(msg.sender, address(token));\n        return true;\n    }\n\n    // Trust does not have to be reciprocated.\n    // (e.g. I can trust you but you don't have to trust me)\n    function trust(address user, uint limit) public {\n        require(address(userToToken[msg.sender]) != address(0), \"You can only trust people after you've signed up!\");\n        require(msg.sender != user, \"You can't untrust yourself\");\n        _trust(user, limit);\n    }\n\n    function _trust(address user, uint limit) internal {\n        limits[msg.sender][user] = limit;\n        emit Trust(msg.sender, user, limit);\n    }\n\n    function pow(uint256 base, uint256 exponent) public pure returns (uint256) {\n        if (base == 0) {\n            return 0;\n        }\n        if (exponent == 0) {\n            return 1;\n        }\n        if (exponent == 1) {\n            return base;\n        }\n        uint256 y = 1;\n        while(exponent > 1) {\n            if(exponent.mod(2) == 0) {\n                base = base.mul(base);\n                exponent = exponent.div(2);\n            } else {\n                y = base.mul(y);\n                base = base.mul(base);\n                exponent = (exponent.sub(1)).div(2);\n            }\n        }\n        return base.mul(y);\n    }\n\n    function checkSendLimit(address tokenOwner, address src, address dest) public view returns (uint256) {\n        // there is no trust\n        if (limits[dest][tokenOwner] == 0) {\n            return 0;\n        }\n        // if dest hasn't signed up, they cannot trust anyone\n        if (address(userToToken[dest]) == address(0)) {\n            return 0;\n        }\n\n        // if the token doesn't exist, return max\n        uint256 max = (userToToken[dest].totalSupply().mul(limits[dest][tokenOwner])).div(100);\n        if (address(userToToken[tokenOwner]) == address(0)) {\n            return max;\n        }\n\n        // if sending dest's token to dest, src can send 100% of their holdings\n        uint256 srcBalance = userToToken[tokenOwner].balanceOf(src);\n        if (tokenOwner == dest) {\n            return srcBalance;\n        }\n        uint256 destBalance = userToToken[tokenOwner].balanceOf(dest);\n        \n        // if trustLimit has already been overriden by a direct transfer, nothing more can be sent\n        if (max < destBalance) return 0;\n        return max.sub(destBalance);\n    }\n\n    // build the data structures we will use for validation\n    // if we haven't seen the addresses, add them to the validation mapping\n    // if we have, increment their sent/received amounts\n    function buildValidationData(address src, address dest, uint wad) internal {\n        if (validation[src].identity != address(0)) {\n            validation[src].sent = validation[src].sent.add(wad);\n        } else {\n            validation[src].identity = src;\n            validation[src].sent = wad;\n            seen.push(src);\n        }\n        if (validation[dest].identity != address(0)) {\n            validation[dest].received = validation[dest].received.add(wad);\n        } else {\n            validation[dest].identity = dest;\n            validation[dest].received = wad; \n            seen.push(dest);   \n        }\n    }\n\n    function validateTransferThrough(uint256 steps) internal {\n        // a valid path has only one true sender and reciever, for all other\n        // addresses in the path, sent = received\n        // also, the sender should be msg.sender\n        address src;\n        address dest;\n        for (uint i = 0; i < seen.length; i++) {\n            transferValidator memory curr = validation[seen[i]];\n            if (curr.sent > curr.received) {\n                require(src == address(0), \"Path sends from more than one src\");\n                require(curr.identity == msg.sender, \"Path doesn't send from transaction sender\");\n                src = curr.identity;\n            }\n            if (curr.received > curr.sent) {\n                require(dest == address(0), \"Path sends to more than one dest\");\n                dest = curr.identity;\n            }\n        }\n        require(src != address(0), \"Transaction must have a src\");\n        require(dest != address(0), \"Transaction must have a dest\");\n        // sender should not recieve, recipient should not send\n        require(validation[src].received == 0, \"Sender is receiving\");\n        require(validation[dest].sent == 0, \"Recipient is sending\");\n        // the total amounts sent and received by src and dest should match\n        require(validation[src].sent == validation[dest].received, \"Unequal sent and received amounts\");\n        // the maximum amount of addresses we should see is one more than steps in the path\n        require(seen.length <= steps + 1, \"Seen too many addresses\");\n        emit HubTransfer(src, dest, validation[src].sent);\n        // clean up the validation datastructures\n        for (uint i = seen.length; i >= 1; i--) {\n            validation[seen[i-1]].sent = 0;\n            validation[seen[i-1]].received = 0;\n            validation[seen[i-1]].identity = address(0);\n            seen.pop();\n        }\n        // sanity check that we cleaned everything up correctly\n        require(seen.length == 0, \"Seen should be empty\");\n    }\n\n    // Walks through tokenOwners, srcs, dests, and amounts array and\n    // executes transtive transfer - also validates path\n    function transferThrough(address[] memory tokenOwners, address[] memory srcs, address[] memory dests, uint[] memory wads) public {\n        require(srcs.length <= 5, \"Too complex path\");\n        require(dests.length == tokenOwners.length, \"Tokens array length must equal dests array\");\n        require(srcs.length == tokenOwners.length, \"Tokens array length must equal srcs array\");\n        require(wads.length == tokenOwners.length, \"Tokens array length must equal amounts array\");\n        for (uint i = 0; i < srcs.length; i++) {\n            address src = srcs[i];\n            address dest = dests[i];\n            address token = tokenOwners[i];\n            uint256 wad = wads[i];\n            \n            // check that no trust limits are violated\n            // you always trust yourself 100%\n            if (token != dest) {\n                uint256 max = checkSendLimit(token, src, dest);\n                require(userToToken[token].balanceOf(dest) + wad <= max, \"Trust limit exceeded\");\n            }\n\n            buildValidationData(src, dest, wad);\n\n            userToToken[token].hubTransfer(src, dest, wad);\n        }\n        validateTransferThrough(srcs.length);\n    }\n}\n\n",
  "sourcePath": "/media/000/Documents/Circles/circles-contracts/contracts/Hub.sol",
  "compiler": {
    "name": "solc",
    "version": "0.5.8+commit.23d335f2.Emscripten.clang"
  },
  "schemaVersion": "3.0.15",
  "updatedAt": "2020-07-06T09:41:05.629Z",
  "devdoc": {
    "methods": {}
  },
  "userdoc": {
    "methods": {}
  }
}