{
  "contractName": "Hub",
  "abi": [
    {
      "constant": true,
      "inputs": [
        {
          "name": "",
          "type": "address"
        }
      ],
      "name": "userToToken",
      "outputs": [
        {
          "name": "",
          "type": "address"
        }
      ],
      "payable": false,
      "stateMutability": "view",
      "type": "function"
    },
    {
      "constant": true,
      "inputs": [],
      "name": "issuanceRate",
      "outputs": [
        {
          "name": "",
          "type": "uint256"
        }
      ],
      "payable": false,
      "stateMutability": "view",
      "type": "function"
    },
    {
      "constant": true,
      "inputs": [
        {
          "name": "",
          "type": "address"
        }
      ],
      "name": "relayers",
      "outputs": [
        {
          "name": "",
          "type": "bool"
        }
      ],
      "payable": false,
      "stateMutability": "view",
      "type": "function"
    },
    {
      "constant": true,
      "inputs": [],
      "name": "owner",
      "outputs": [
        {
          "name": "",
          "type": "address"
        }
      ],
      "payable": false,
      "stateMutability": "view",
      "type": "function"
    },
    {
      "constant": true,
      "inputs": [],
      "name": "symbol",
      "outputs": [
        {
          "name": "",
          "type": "string"
        }
      ],
      "payable": false,
      "stateMutability": "view",
      "type": "function"
    },
    {
      "constant": true,
      "inputs": [
        {
          "name": "",
          "type": "address"
        }
      ],
      "name": "tokenToUser",
      "outputs": [
        {
          "name": "",
          "type": "address"
        }
      ],
      "payable": false,
      "stateMutability": "view",
      "type": "function"
    },
    {
      "constant": true,
      "inputs": [
        {
          "name": "",
          "type": "address"
        },
        {
          "name": "",
          "type": "address"
        }
      ],
      "name": "limits",
      "outputs": [
        {
          "name": "",
          "type": "uint256"
        }
      ],
      "payable": false,
      "stateMutability": "view",
      "type": "function"
    },
    {
      "constant": true,
      "inputs": [],
      "name": "demurrageRate",
      "outputs": [
        {
          "name": "",
          "type": "uint256"
        }
      ],
      "payable": false,
      "stateMutability": "view",
      "type": "function"
    },
    {
      "inputs": [
        {
          "name": "_owner",
          "type": "address"
        },
        {
          "name": "_issuance",
          "type": "uint256"
        },
        {
          "name": "_demurrage",
          "type": "uint256"
        },
        {
          "name": "_symbol",
          "type": "string"
        },
        {
          "name": "_initialPayout",
          "type": "uint256"
        }
      ],
      "payable": false,
      "stateMutability": "nonpayable",
      "type": "constructor"
    },
    {
      "anonymous": false,
      "inputs": [
        {
          "indexed": true,
          "name": "user",
          "type": "address"
        },
        {
          "indexed": false,
          "name": "token",
          "type": "address"
        }
      ],
      "name": "Signup",
      "type": "event"
    },
    {
      "anonymous": false,
      "inputs": [
        {
          "indexed": true,
          "name": "from",
          "type": "address"
        },
        {
          "indexed": true,
          "name": "to",
          "type": "address"
        },
        {
          "indexed": false,
          "name": "limit",
          "type": "uint256"
        }
      ],
      "name": "Trust",
      "type": "event"
    },
    {
      "constant": false,
      "inputs": [
        {
          "name": "_newOwner",
          "type": "address"
        }
      ],
      "name": "changeOwner",
      "outputs": [
        {
          "name": "",
          "type": "bool"
        }
      ],
      "payable": false,
      "stateMutability": "nonpayable",
      "type": "function"
    },
    {
      "constant": false,
      "inputs": [
        {
          "name": "_relayer",
          "type": "address"
        },
        {
          "name": "isRelayer",
          "type": "bool"
        }
      ],
      "name": "updateRelayer",
      "outputs": [
        {
          "name": "",
          "type": "bool"
        }
      ],
      "payable": false,
      "stateMutability": "nonpayable",
      "type": "function"
    },
    {
      "constant": false,
      "inputs": [
        {
          "name": "_issuance",
          "type": "uint256"
        }
      ],
      "name": "updateIssuance",
      "outputs": [
        {
          "name": "",
          "type": "bool"
        }
      ],
      "payable": false,
      "stateMutability": "nonpayable",
      "type": "function"
    },
    {
      "constant": false,
      "inputs": [
        {
          "name": "_demurrage",
          "type": "uint256"
        }
      ],
      "name": "updateDemurrage",
      "outputs": [
        {
          "name": "",
          "type": "bool"
        }
      ],
      "payable": false,
      "stateMutability": "nonpayable",
      "type": "function"
    },
    {
      "constant": false,
      "inputs": [
        {
          "name": "_symbol",
          "type": "string"
        }
      ],
      "name": "updateSymbol",
      "outputs": [
        {
          "name": "",
          "type": "bool"
        }
      ],
      "payable": false,
      "stateMutability": "nonpayable",
      "type": "function"
    },
    {
      "constant": true,
      "inputs": [],
      "name": "time",
      "outputs": [
        {
          "name": "",
          "type": "uint256"
        }
      ],
      "payable": false,
      "stateMutability": "view",
      "type": "function"
    },
    {
      "constant": true,
      "inputs": [
        {
          "name": "_address",
          "type": "address"
        }
      ],
      "name": "trustable",
      "outputs": [
        {
          "name": "",
          "type": "bool"
        }
      ],
      "payable": false,
      "stateMutability": "view",
      "type": "function"
    },
    {
      "constant": false,
      "inputs": [
        {
          "name": "_name",
          "type": "string"
        }
      ],
      "name": "signup",
      "outputs": [
        {
          "name": "",
          "type": "bool"
        }
      ],
      "payable": false,
      "stateMutability": "nonpayable",
      "type": "function"
    },
    {
      "constant": false,
      "inputs": [
        {
          "name": "toTrust",
          "type": "address"
        },
        {
          "name": "limit",
          "type": "uint256"
        }
      ],
      "name": "trust",
      "outputs": [],
      "payable": false,
      "stateMutability": "nonpayable",
      "type": "function"
    },
    {
      "constant": true,
      "inputs": [
        {
          "name": "from",
          "type": "address"
        },
        {
          "name": "to",
          "type": "address"
        }
      ],
      "name": "checkSendLimit",
      "outputs": [
        {
          "name": "",
          "type": "uint256"
        }
      ],
      "payable": false,
      "stateMutability": "view",
      "type": "function"
    },
    {
      "constant": false,
      "inputs": [
        {
          "name": "users",
          "type": "address[]"
        },
        {
          "name": "wad",
          "type": "uint256"
        }
      ],
      "name": "transferThrough",
      "outputs": [],
      "payable": false,
      "stateMutability": "nonpayable",
      "type": "function"
    }
  ],
  "bytecode": "0x60806040523480156200001157600080fd5b5060405162003dcc38038062003dcc833981018060405260a08110156200003757600080fd5b8101908080519060200190929190805190602001909291908051906020019092919080516401000000008111156200006e57600080fd5b828101905060208101848111156200008557600080fd5b8151856001820283011164010000000082111715620000a357600080fd5b505092919060200180519060200190929190505050600073ffffffffffffffffffffffffffffffffffffffff168573ffffffffffffffffffffffffffffffffffffffff1614151515620000f557600080fd5b846000806101000a81548173ffffffffffffffffffffffffffffffffffffffff021916908373ffffffffffffffffffffffffffffffffffffffff160217905550836001819055508260028190555081600390805190602001906200015b9291906200016e565b508060048190555050505050506200021d565b828054600181600116156101000203166002900490600052602060002090601f016020900481019282601f10620001b157805160ff1916838001178555620001e2565b82800160010185558215620001e2579182015b82811115620001e1578251825591602001919060010190620001c4565b5b509050620001f19190620001f5565b5090565b6200021a91905b8082111562000216576000816000905550600101620001fc565b5090565b90565b613b9f806200022d6000396000f3fe6080604052600436106200011b576000357c0100000000000000000000000000000000000000000000000000000000900463ffffffff16806316ada547146200012057806328d249fe146200014e57806332d9cb1a14620001e35780633c9ae2ba14620002505780634510c50c146200027e578063519c637714620002d55780635300f84114620003bc578063537f531214620004295780636659459914620005105780638da5cb5b14620005675780639549294114620005c157806395d89b4114620006975780639951d62f146200072d5780639dbf5eca146200078c578063a18b506b1462000805578063a3eb2b4a146200089a578063a6f9dae11462000923578063ae853faf1462000990578063ef3bf3ad14620009be575b600080fd5b3480156200012d57600080fd5b506200013862000a47565b6040518082815260200191505060405180910390f35b3480156200015b57600080fd5b50620001a1600480360360208110156200017457600080fd5b81019080803573ffffffffffffffffffffffffffffffffffffffff16906020019092919050505062000a4f565b604051808273ffffffffffffffffffffffffffffffffffffffff1673ffffffffffffffffffffffffffffffffffffffff16815260200191505060405180910390f35b348015620001f057600080fd5b5062000236600480360360208110156200020957600080fd5b81019080803573ffffffffffffffffffffffffffffffffffffffff16906020019092919050505062000a82565b604051808215151515815260200191505060405180910390f35b3480156200025d57600080fd5b506200026862000b1a565b6040518082815260200191505060405180910390f35b3480156200028b57600080fd5b50620002bb60048036036020811015620002a457600080fd5b810190808035906020019092919050505062000b20565b604051808215151515815260200191505060405180910390f35b348015620002e257600080fd5b50620003a260048036036020811015620002fb57600080fd5b81019080803590602001906401000000008111156200031957600080fd5b8201836020820111156200032c57600080fd5b803590602001918460018302840111640100000000831117156200034f57600080fd5b91908080601f016020809104026020016040519081016040528093929190818152602001838380828437600081840152601f19601f82011690508083019250505050505050919291929050505062000b8e565b604051808215151515815260200191505060405180910390f35b348015620003c957600080fd5b506200040f60048036036020811015620003e257600080fd5b81019080803573ffffffffffffffffffffffffffffffffffffffff16906020019092919050505062000e87565b604051808215151515815260200191505060405180910390f35b3480156200043657600080fd5b50620004f6600480360360208110156200044f57600080fd5b81019080803590602001906401000000008111156200046d57600080fd5b8201836020820111156200048057600080fd5b80359060200191846001830284011164010000000083111715620004a357600080fd5b91908080601f016020809104026020016040519081016040528093929190818152602001838380828437600081840152601f19601f82011690508083019250505050505050919291929050505062000ea7565b604051808215151515815260200191505060405180910390f35b3480156200051d57600080fd5b506200054d600480360360208110156200053657600080fd5b810190808035906020019092919050505062000f27565b604051808215151515815260200191505060405180910390f35b3480156200057457600080fd5b506200057f62000f95565b604051808273ffffffffffffffffffffffffffffffffffffffff1673ffffffffffffffffffffffffffffffffffffffff16815260200191505060405180910390f35b348015620005ce57600080fd5b506200069560048036036040811015620005e757600080fd5b81019080803590602001906401000000008111156200060557600080fd5b8201836020820111156200061857600080fd5b803590602001918460208302840111640100000000831117156200063b57600080fd5b919080806020026020016040519081016040528093929190818152602001838360200280828437600081840152601f19601f8201169050808301925050505050505091929192908035906020019092919050505062000fba565b005b348015620006a457600080fd5b50620006af620014eb565b6040518080602001828103825283818151815260200191508051906020019080838360005b83811015620006f1578082015181840152602081019050620006d4565b50505050905090810190601f1680156200071f5780820380516001836020036101000a031916815260200191505b509250505060405180910390f35b3480156200073a57600080fd5b506200078a600480360360408110156200075357600080fd5b81019080803573ffffffffffffffffffffffffffffffffffffffff169060200190929190803590602001909291905050506200158d565b005b3480156200079957600080fd5b50620007eb60048036036040811015620007b257600080fd5b81019080803573ffffffffffffffffffffffffffffffffffffffff1690602001909291908035151590602001909291905050506200168e565b604051808215151515815260200191505060405180910390f35b3480156200081257600080fd5b5062000858600480360360208110156200082b57600080fd5b81019080803573ffffffffffffffffffffffffffffffffffffffff1690602001909291905050506200178a565b604051808273ffffffffffffffffffffffffffffffffffffffff1673ffffffffffffffffffffffffffffffffffffffff16815260200191505060405180910390f35b348015620008a757600080fd5b506200090d60048036036040811015620008c057600080fd5b81019080803573ffffffffffffffffffffffffffffffffffffffff169060200190929190803573ffffffffffffffffffffffffffffffffffffffff169060200190929190505050620017bd565b6040518082815260200191505060405180910390f35b3480156200093057600080fd5b5062000976600480360360208110156200094957600080fd5b81019080803573ffffffffffffffffffffffffffffffffffffffff169060200190929190505050620017e2565b604051808215151515815260200191505060405180910390f35b3480156200099d57600080fd5b50620009a8620018c6565b6040518082815260200191505060405180910390f35b348015620009cb57600080fd5b5062000a3160048036036040811015620009e457600080fd5b81019080803573ffffffffffffffffffffffffffffffffffffffff169060200190929190803573ffffffffffffffffffffffffffffffffffffffff169060200190929190505050620018cc565b6040518082815260200191505060405180910390f35b600042905090565b60066020528060005260406000206000915054906101000a900473ffffffffffffffffffffffffffffffffffffffff1681565b60008073ffffffffffffffffffffffffffffffffffffffff16600660008473ffffffffffffffffffffffffffffffffffffffff1673ffffffffffffffffffffffffffffffffffffffff16815260200190815260200160002060009054906101000a900473ffffffffffffffffffffffffffffffffffffffff1673ffffffffffffffffffffffffffffffffffffffff1614159050919050565b60015481565b60008060009054906101000a900473ffffffffffffffffffffffffffffffffffffffff1673ffffffffffffffffffffffffffffffffffffffff163373ffffffffffffffffffffffffffffffffffffffff1614151562000b7e57600080fd5b8160028190555060019050919050565b60008073ffffffffffffffffffffffffffffffffffffffff16600660003373ffffffffffffffffffffffffffffffffffffffff1673ffffffffffffffffffffffffffffffffffffffff16815260200190815260200160002060009054906101000a900473ffffffffffffffffffffffffffffffffffffffff1673ffffffffffffffffffffffffffffffffffffffff1614151562000c2a57600080fd5b6000338360045462000c3b62001c59565b808473ffffffffffffffffffffffffffffffffffffffff1673ffffffffffffffffffffffffffffffffffffffff16815260200180602001838152602001828103825284818151815260200191508051906020019080838360005b8381101562000cb257808201518184015260208101905062000c95565b50505050905090810190601f16801562000ce05780820380516001836020036101000a031916815260200191505b50945050505050604051809103906000f08015801562000d04573d6000803e3d6000fd5b50905080600660003373ffffffffffffffffffffffffffffffffffffffff1673ffffffffffffffffffffffffffffffffffffffff16815260200190815260200160002060006101000a81548173ffffffffffffffffffffffffffffffffffffffff021916908373ffffffffffffffffffffffffffffffffffffffff16021790555033600760008373ffffffffffffffffffffffffffffffffffffffff1673ffffffffffffffffffffffffffffffffffffffff16815260200190815260200160002060006101000a81548173ffffffffffffffffffffffffffffffffffffffff021916908373ffffffffffffffffffffffffffffffffffffffff1602179055503373ffffffffffffffffffffffffffffffffffffffff167f358ba8f768af134eb5af120e9a61dc1ef29b29f597f047b555fc3675064a034282604051808273ffffffffffffffffffffffffffffffffffffffff1673ffffffffffffffffffffffffffffffffffffffff16815260200191505060405180910390a26001915050919050565b60056020528060005260406000206000915054906101000a900460ff1681565b60008060009054906101000a900473ffffffffffffffffffffffffffffffffffffffff1673ffffffffffffffffffffffffffffffffffffffff163373ffffffffffffffffffffffffffffffffffffffff1614151562000f0557600080fd5b816003908051906020019062000f1d92919062001c6a565b5060019050919050565b60008060009054906101000a900473ffffffffffffffffffffffffffffffffffffffff1673ffffffffffffffffffffffffffffffffffffffff163373ffffffffffffffffffffffffffffffffffffffff1614151562000f8557600080fd5b8160018190555060019050919050565b6000809054906101000a900473ffffffffffffffffffffffffffffffffffffffff1681565b600582511115151562000fcc57600080fd5b600033905060008090505b8351811015620014e5576000848281518110151562000ff257fe5b9060200190602002015190506000620011ab670de0b6b3a76400006200119c600860008673ffffffffffffffffffffffffffffffffffffffff1673ffffffffffffffffffffffffffffffffffffffff16815260200190815260200160002060008873ffffffffffffffffffffffffffffffffffffffff1673ffffffffffffffffffffffffffffffffffffffff16815260200190815260200160002054600660008773ffffffffffffffffffffffffffffffffffffffff1673ffffffffffffffffffffffffffffffffffffffff16815260200190815260200160002060009054906101000a900473ffffffffffffffffffffffffffffffffffffffff1673ffffffffffffffffffffffffffffffffffffffff166318160ddd6040518163ffffffff167c010000000000000000000000000000000000000000000000000000000002815260040160206040518083038186803b1580156200115057600080fd5b505afa15801562001165573d6000803e3d6000fd5b505050506040513d60208110156200117c57600080fd5b810190808051906020019092919050505062001bc890919063ffffffff16565b62001c0a90919063ffffffff16565b90508085600660008773ffffffffffffffffffffffffffffffffffffffff1673ffffffffffffffffffffffffffffffffffffffff16815260200190815260200160002060009054906101000a900473ffffffffffffffffffffffffffffffffffffffff1673ffffffffffffffffffffffffffffffffffffffff166370a08231856040518263ffffffff167c0100000000000000000000000000000000000000000000000000000000028152600401808273ffffffffffffffffffffffffffffffffffffffff1673ffffffffffffffffffffffffffffffffffffffff16815260200191505060206040518083038186803b158015620012a857600080fd5b505afa158015620012bd573d6000803e3d6000fd5b505050506040513d6020811015620012d457600080fd5b810190808051906020019092919050505001111515156200135d576040517f08c379a00000000000000000000000000000000000000000000000000000000081526004018080602001828103825260148152602001807f5472757374206c696d697420657863656564656400000000000000000000000081525060200191505060405180910390fd5b600660008573ffffffffffffffffffffffffffffffffffffffff1673ffffffffffffffffffffffffffffffffffffffff16815260200190815260200160002060009054906101000a900473ffffffffffffffffffffffffffffffffffffffff1673ffffffffffffffffffffffffffffffffffffffff166320a6703c8584886040518463ffffffff167c0100000000000000000000000000000000000000000000000000000000028152600401808473ffffffffffffffffffffffffffffffffffffffff1673ffffffffffffffffffffffffffffffffffffffff1681526020018373ffffffffffffffffffffffffffffffffffffffff1673ffffffffffffffffffffffffffffffffffffffff1681526020018281526020019350505050602060405180830381600087803b1580156200149457600080fd5b505af1158015620014a9573d6000803e3d6000fd5b505050506040513d6020811015620014c057600080fd5b8101908080519060200190929190505050508193505050808060010191505062000fd7565b50505050565b60038054600181600116156101000203166002900480601f016020809104026020016040519081016040528092919081815260200182805460018160011615610100020316600290048015620015855780601f10620015595761010080835404028352916020019162001585565b820191906000526020600020905b8154815290600101906020018083116200156757829003601f168201915b505050505081565b620015988262000a82565b1515620015a457600080fd5b80600860003373ffffffffffffffffffffffffffffffffffffffff1673ffffffffffffffffffffffffffffffffffffffff16815260200190815260200160002060008473ffffffffffffffffffffffffffffffffffffffff1673ffffffffffffffffffffffffffffffffffffffff168152602001908152602001600020819055508173ffffffffffffffffffffffffffffffffffffffff163373ffffffffffffffffffffffffffffffffffffffff167fe60c754dd8ab0b1b5fccba257d6ebcd7d09e360ab7dd7a6e58198ca1f57cdcec836040518082815260200191505060405180910390a35050565b60008060009054906101000a900473ffffffffffffffffffffffffffffffffffffffff1673ffffffffffffffffffffffffffffffffffffffff163373ffffffffffffffffffffffffffffffffffffffff16141515620016ec57600080fd5b600073ffffffffffffffffffffffffffffffffffffffff168373ffffffffffffffffffffffffffffffffffffffff16141515156200172957600080fd5b81600560008573ffffffffffffffffffffffffffffffffffffffff1673ffffffffffffffffffffffffffffffffffffffff16815260200190815260200160002060006101000a81548160ff0219169083151502179055506001905092915050565b60076020528060005260406000206000915054906101000a900473ffffffffffffffffffffffffffffffffffffffff1681565b6008602052816000526040600020602052806000526040600020600091509150505481565b60008060009054906101000a900473ffffffffffffffffffffffffffffffffffffffff1673ffffffffffffffffffffffffffffffffffffffff163373ffffffffffffffffffffffffffffffffffffffff161415156200184057600080fd5b600073ffffffffffffffffffffffffffffffffffffffff168273ffffffffffffffffffffffffffffffffffffffff16141515156200187d57600080fd5b816000806101000a81548173ffffffffffffffffffffffffffffffffffffffff021916908373ffffffffffffffffffffffffffffffffffffffff16021790555060019050919050565b60025481565b60008062001a73606462001a64600860008773ffffffffffffffffffffffffffffffffffffffff1673ffffffffffffffffffffffffffffffffffffffff16815260200190815260200160002060008873ffffffffffffffffffffffffffffffffffffffff1673ffffffffffffffffffffffffffffffffffffffff16815260200190815260200160002054600660008873ffffffffffffffffffffffffffffffffffffffff1673ffffffffffffffffffffffffffffffffffffffff16815260200190815260200160002060009054906101000a900473ffffffffffffffffffffffffffffffffffffffff1673ffffffffffffffffffffffffffffffffffffffff166318160ddd6040518163ffffffff167c010000000000000000000000000000000000000000000000000000000002815260040160206040518083038186803b15801562001a1857600080fd5b505afa15801562001a2d573d6000803e3d6000fd5b505050506040513d602081101562001a4457600080fd5b810190808051906020019092919050505062001bc890919063ffffffff16565b62001c0a90919063ffffffff16565b905062001bbf600660008573ffffffffffffffffffffffffffffffffffffffff1673ffffffffffffffffffffffffffffffffffffffff16815260200190815260200160002060009054906101000a900473ffffffffffffffffffffffffffffffffffffffff1673ffffffffffffffffffffffffffffffffffffffff166370a08231866040518263ffffffff167c0100000000000000000000000000000000000000000000000000000000028152600401808273ffffffffffffffffffffffffffffffffffffffff1673ffffffffffffffffffffffffffffffffffffffff16815260200191505060206040518083038186803b15801562001b7257600080fd5b505afa15801562001b87573d6000803e3d6000fd5b505050506040513d602081101562001b9e57600080fd5b81019080805190602001909291905050508262001c3690919063ffffffff16565b91505092915050565b60008083141562001bdd576000905062001c04565b6000828402905082848281151562001bf157fe5b0414151562001bff57600080fd5b809150505b92915050565b6000808211151562001c1b57600080fd5b6000828481151562001c2957fe5b0490508091505092915050565b600082821115151562001c4857600080fd5b600082840390508091505092915050565b604051611e5a8062001d1a83390190565b828054600181600116156101000203166002900490600052602060002090601f016020900481019282601f1062001cad57805160ff191683800117855562001cde565b8280016001018555821562001cde579182015b8281111562001cdd57825182559160200191906001019062001cc0565b5b50905062001ced919062001cf1565b5090565b62001d1691905b8082111562001d1257600081600090555060010162001cf8565b5090565b9056fe60806040526012600360006101000a81548160ff021916908360ff1602179055503480156200002d57600080fd5b5060405162001e5a38038062001e5a833981018060405260608110156200005357600080fd5b810190808051906020019092919080516401000000008111156200007657600080fd5b828101905060208101848111156200008d57600080fd5b8151856001820283011164010000000082111715620000ab57600080fd5b505092919060200180519060200190929190505050600073ffffffffffffffffffffffffffffffffffffffff168373ffffffffffffffffffffffffffffffffffffffff1614151515620000fd57600080fd5b8160049080519060200190620001159291906200037a565b5082600860006101000a81548173ffffffffffffffffffffffffffffffffffffffff021916908373ffffffffffffffffffffffffffffffffffffffff16021790555033600660006101000a81548173ffffffffffffffffffffffffffffffffffffffff021916908373ffffffffffffffffffffffffffffffffffffffff160217905550620001b1620001db640100000000026401000000009004565b600581905550620001d28382620001e3640100000000026401000000009004565b50505062000429565b600042905090565b600073ffffffffffffffffffffffffffffffffffffffff168273ffffffffffffffffffffffffffffffffffffffff16141515156200022057600080fd5b620002458160025462000358640100000000026200192f179091906401000000009004565b600281905550620002ac816000808573ffffffffffffffffffffffffffffffffffffffff1673ffffffffffffffffffffffffffffffffffffffff1681526020019081526020016000205462000358640100000000026200192f179091906401000000009004565b6000808473ffffffffffffffffffffffffffffffffffffffff1673ffffffffffffffffffffffffffffffffffffffff168152602001908152602001600020819055508173ffffffffffffffffffffffffffffffffffffffff16600073ffffffffffffffffffffffffffffffffffffffff167fddf252ad1be2c89b69c2b068fc378daa952ba7f163c4a11628f55a4df523b3ef836040518082815260200191505060405180910390a35050565b60008082840190508381101515156200037057600080fd5b8091505092915050565b828054600181600116156101000203166002900490600052602060002090601f016020900481019282601f10620003bd57805160ff1916838001178555620003ee565b82800160010185558215620003ee579182015b82811115620003ed578251825591602001919060010190620003d0565b5b509050620003fd919062000401565b5090565b6200042691905b808211156200042257600081600090555060010162000408565b5090565b90565b611a2180620004396000396000f3fe608060405260043610610112576000357c0100000000000000000000000000000000000000000000000000000000900463ffffffff16806306fdde0314610117578063095ea7b3146101a757806318160ddd1461021a57806320a6703c1461024557806323b872dd146102d8578063313ce5671461036b578063365a86fc1461039c57806339509351146103f35780636c050eae1461046657806370a08231146104915780638b4eed81146104f65780638da5cb5b1461052157806395d89b4114610578578063a2e6204514610608578063a457c2d71461061f578063a6f9dae114610692578063a9059cbb146106fb578063dd62ed3e1461076e578063f77c4791146107f3578063fbf08da91461084a575b600080fd5b34801561012357600080fd5b5061012c6108b3565b6040518080602001828103825283818151815260200191508051906020019080838360005b8381101561016c578082015181840152602081019050610151565b50505050905090810190601f1680156101995780820380516001836020036101000a031916815260200191505b509250505060405180910390f35b3480156101b357600080fd5b50610200600480360360408110156101ca57600080fd5b81019080803573ffffffffffffffffffffffffffffffffffffffff16906020019092919080359060200190929190505050610951565b604051808215151515815260200191505060405180910390f35b34801561022657600080fd5b5061022f610965565b6040518082815260200191505060405180910390f35b34801561025157600080fd5b506102be6004803603606081101561026857600080fd5b81019080803573ffffffffffffffffffffffffffffffffffffffff169060200190929190803573ffffffffffffffffffffffffffffffffffffffff16906020019092919080359060200190929190505050610974565b604051808215151515815260200191505060405180910390f35b3480156102e457600080fd5b50610351600480360360608110156102fb57600080fd5b81019080803573ffffffffffffffffffffffffffffffffffffffff169060200190929190803573ffffffffffffffffffffffffffffffffffffffff169060200190929190803590602001909291905050506109e4565b604051808215151515815260200191505060405180910390f35b34801561037757600080fd5b50610380610bec565b604051808260ff1660ff16815260200191505060405180910390f35b3480156103a857600080fd5b506103b1610bff565b604051808273ffffffffffffffffffffffffffffffffffffffff1673ffffffffffffffffffffffffffffffffffffffff16815260200191505060405180910390f35b3480156103ff57600080fd5b5061044c6004803603604081101561041657600080fd5b81019080803573ffffffffffffffffffffffffffffffffffffffff16906020019092919080359060200190929190505050610c25565b604051808215151515815260200191505060405180910390f35b34801561047257600080fd5b5061047b610e5c565b6040518082815260200191505060405180910390f35b34801561049d57600080fd5b506104e0600480360360208110156104b457600080fd5b81019080803573ffffffffffffffffffffffffffffffffffffffff169060200190929190505050610f5a565b6040518082815260200191505060405180910390f35b34801561050257600080fd5b5061050b610f71565b6040518082815260200191505060405180910390f35b34801561052d57600080fd5b50610536610f77565b604051808273ffffffffffffffffffffffffffffffffffffffff1673ffffffffffffffffffffffffffffffffffffffff16815260200191505060405180910390f35b34801561058457600080fd5b5061058d610f9d565b6040518080602001828103825283818151815260200191508051906020019080838360005b838110156105cd5780820151818401526020810190506105b2565b50505050905090810190601f1680156105fa5780820380516001836020036101000a031916815260200191505b509250505060405180910390f35b34801561061457600080fd5b5061061d6110b9565b005b34801561062b57600080fd5b506106786004803603604081101561064257600080fd5b81019080803573ffffffffffffffffffffffffffffffffffffffff1690602001909291908035906020019092919050505061110c565b604051808215151515815260200191505060405180910390f35b34801561069e57600080fd5b506106e1600480360360208110156106b557600080fd5b81019080803573ffffffffffffffffffffffffffffffffffffffff169060200190929190505050611343565b604051808215151515815260200191505060405180910390f35b34801561070757600080fd5b506107546004803603604081101561071e57600080fd5b81019080803573ffffffffffffffffffffffffffffffffffffffff16906020019092919080359060200190929190505050611427565b604051808215151515815260200191505060405180910390f35b34801561077a57600080fd5b506107dd6004803603604081101561079157600080fd5b81019080803573ffffffffffffffffffffffffffffffffffffffff169060200190929190803573ffffffffffffffffffffffffffffffffffffffff169060200190929190505050611479565b6040518082815260200191505060405180910390f35b3480156107ff57600080fd5b50610808611500565b604051808273ffffffffffffffffffffffffffffffffffffffff1673ffffffffffffffffffffffffffffffffffffffff16815260200191505060405180910390f35b34801561085657600080fd5b506108996004803603602081101561086d57600080fd5b81019080803573ffffffffffffffffffffffffffffffffffffffff169060200190929190505050611526565b604051808215151515815260200191505060405180910390f35b60048054600181600116156101000203166002900480601f0160208091040260200160405190810160405280929190818152602001828054600181600116156101000203166002900480156109495780601f1061091e57610100808354040283529160200191610949565b820191906000526020600020905b81548152906001019060200180831161092c57829003601f168201915b505050505081565b600061095d838361160a565b905092915050565b600061096f611737565b905090565b6000600660009054906101000a900473ffffffffffffffffffffffffffffffffffffffff1673ffffffffffffffffffffffffffffffffffffffff163373ffffffffffffffffffffffffffffffffffffffff161415156109d257600080fd5b6109dd848484611741565b9392505050565b6000610a7582600160008773ffffffffffffffffffffffffffffffffffffffff1673ffffffffffffffffffffffffffffffffffffffff16815260200190815260200160002060003373ffffffffffffffffffffffffffffffffffffffff1673ffffffffffffffffffffffffffffffffffffffff1681526020019081526020016000205461190d90919063ffffffff16565b600160008673ffffffffffffffffffffffffffffffffffffffff1673ffffffffffffffffffffffffffffffffffffffff16815260200190815260200160002060003373ffffffffffffffffffffffffffffffffffffffff1673ffffffffffffffffffffffffffffffffffffffff16815260200190815260200160002081905550610b00848484611741565b3373ffffffffffffffffffffffffffffffffffffffff168473ffffffffffffffffffffffffffffffffffffffff167f8c5be1e5ebec7d5bd14f71427d1e84f3dd0314c0f7b2291e5b200ac8c7c3b925600160008873ffffffffffffffffffffffffffffffffffffffff1673ffffffffffffffffffffffffffffffffffffffff16815260200190815260200160002060003373ffffffffffffffffffffffffffffffffffffffff1673ffffffffffffffffffffffffffffffffffffffff168152602001908152602001600020546040518082815260200191505060405180910390a3600190509392505050565b600360009054906101000a900460ff1681565b600660009054906101000a900473ffffffffffffffffffffffffffffffffffffffff1681565b60008073ffffffffffffffffffffffffffffffffffffffff168373ffffffffffffffffffffffffffffffffffffffff1614151515610c6257600080fd5b610cf182600160003373ffffffffffffffffffffffffffffffffffffffff1673ffffffffffffffffffffffffffffffffffffffff16815260200190815260200160002060008673ffffffffffffffffffffffffffffffffffffffff1673ffffffffffffffffffffffffffffffffffffffff1681526020019081526020016000205461192f90919063ffffffff16565b600160003373ffffffffffffffffffffffffffffffffffffffff1673ffffffffffffffffffffffffffffffffffffffff16815260200190815260200160002060008573ffffffffffffffffffffffffffffffffffffffff1673ffffffffffffffffffffffffffffffffffffffff168152602001908152602001600020819055508273ffffffffffffffffffffffffffffffffffffffff163373ffffffffffffffffffffffffffffffffffffffff167f8c5be1e5ebec7d5bd14f71427d1e84f3dd0314c0f7b2291e5b200ac8c7c3b925600160003373ffffffffffffffffffffffffffffffffffffffff1673ffffffffffffffffffffffffffffffffffffffff16815260200190815260200160002060008773ffffffffffffffffffffffffffffffffffffffff1673ffffffffffffffffffffffffffffffffffffffff168152602001908152602001600020546040518082815260200191505060405180910390a36001905092915050565b600080610e7b600554610e6d611950565b61190d90919063ffffffff16565b90506000600660009054906101000a900473ffffffffffffffffffffffffffffffffffffffff1673ffffffffffffffffffffffffffffffffffffffff16633c9ae2ba6040518163ffffffff167c010000000000000000000000000000000000000000000000000000000002815260040160206040518083038186803b158015610f0357600080fd5b505afa158015610f17573d6000803e3d6000fd5b505050506040513d6020811015610f2d57600080fd5b81019080805190602001909291905050509050610f53828261195890919063ffffffff16565b9250505090565b600080610f6683611996565b905080915050919050565b60055481565b600860009054906101000a900473ffffffffffffffffffffffffffffffffffffffff1681565b6060600660009054906101000a900473ffffffffffffffffffffffffffffffffffffffff1673ffffffffffffffffffffffffffffffffffffffff166395d89b416040518163ffffffff167c010000000000000000000000000000000000000000000000000000000002815260040160006040518083038186803b15801561102357600080fd5b505afa158015611037573d6000803e3d6000fd5b505050506040513d6000823e3d601f19601f82011682018060405250602081101561106157600080fd5b81019080805164010000000081111561107957600080fd5b8281019050602081018481111561108f57600080fd5b81518560018202830111640100000000821117156110ac57600080fd5b5050929190505050905090565b60006110c3610e5c565b90506110cd611950565b6005819055507e098457d5059532053339e27f35a9a51bf3e70411156881f497e56d7576922d816040518082815260200191505060405180910390a150565b60008073ffffffffffffffffffffffffffffffffffffffff168373ffffffffffffffffffffffffffffffffffffffff161415151561114957600080fd5b6111d882600160003373ffffffffffffffffffffffffffffffffffffffff1673ffffffffffffffffffffffffffffffffffffffff16815260200190815260200160002060008673ffffffffffffffffffffffffffffffffffffffff1673ffffffffffffffffffffffffffffffffffffffff1681526020019081526020016000205461190d90919063ffffffff16565b600160003373ffffffffffffffffffffffffffffffffffffffff1673ffffffffffffffffffffffffffffffffffffffff16815260200190815260200160002060008573ffffffffffffffffffffffffffffffffffffffff1673ffffffffffffffffffffffffffffffffffffffff168152602001908152602001600020819055508273ffffffffffffffffffffffffffffffffffffffff163373ffffffffffffffffffffffffffffffffffffffff167f8c5be1e5ebec7d5bd14f71427d1e84f3dd0314c0f7b2291e5b200ac8c7c3b925600160003373ffffffffffffffffffffffffffffffffffffffff1673ffffffffffffffffffffffffffffffffffffffff16815260200190815260200160002060008773ffffffffffffffffffffffffffffffffffffffff1673ffffffffffffffffffffffffffffffffffffffff168152602001908152602001600020546040518082815260200191505060405180910390a36001905092915050565b6000600860009054906101000a900473ffffffffffffffffffffffffffffffffffffffff1673ffffffffffffffffffffffffffffffffffffffff163373ffffffffffffffffffffffffffffffffffffffff161415156113a157600080fd5b600073ffffffffffffffffffffffffffffffffffffffff168273ffffffffffffffffffffffffffffffffffffffff16141515156113dd57600080fd5b81600860006101000a81548173ffffffffffffffffffffffffffffffffffffffff021916908373ffffffffffffffffffffffffffffffffffffffff16021790555060019050919050565b60003073ffffffffffffffffffffffffffffffffffffffff163373ffffffffffffffffffffffffffffffffffffffff16141515611467576114666110b9565b5b61147183836119de565b905092915050565b6000600160008473ffffffffffffffffffffffffffffffffffffffff1673ffffffffffffffffffffffffffffffffffffffff16815260200190815260200160002060008373ffffffffffffffffffffffffffffffffffffffff1673ffffffffffffffffffffffffffffffffffffffff16815260200190815260200160002054905092915050565b600760009054906101000a900473ffffffffffffffffffffffffffffffffffffffff1681565b6000600860009054906101000a900473ffffffffffffffffffffffffffffffffffffffff1673ffffffffffffffffffffffffffffffffffffffff163373ffffffffffffffffffffffffffffffffffffffff1614151561158457600080fd5b600073ffffffffffffffffffffffffffffffffffffffff168273ffffffffffffffffffffffffffffffffffffffff16141515156115c057600080fd5b81600660006101000a81548173ffffffffffffffffffffffffffffffffffffffff021916908373ffffffffffffffffffffffffffffffffffffffff16021790555060019050919050565b60008073ffffffffffffffffffffffffffffffffffffffff168373ffffffffffffffffffffffffffffffffffffffff161415151561164757600080fd5b81600160003373ffffffffffffffffffffffffffffffffffffffff1673ffffffffffffffffffffffffffffffffffffffff16815260200190815260200160002060008573ffffffffffffffffffffffffffffffffffffffff1673ffffffffffffffffffffffffffffffffffffffff168152602001908152602001600020819055508273ffffffffffffffffffffffffffffffffffffffff163373ffffffffffffffffffffffffffffffffffffffff167f8c5be1e5ebec7d5bd14f71427d1e84f3dd0314c0f7b2291e5b200ac8c7c3b925846040518082815260200191505060405180910390a36001905092915050565b6000600254905090565b600073ffffffffffffffffffffffffffffffffffffffff168273ffffffffffffffffffffffffffffffffffffffff161415151561177d57600080fd5b6117ce816000808673ffffffffffffffffffffffffffffffffffffffff1673ffffffffffffffffffffffffffffffffffffffff1681526020019081526020016000205461190d90919063ffffffff16565b6000808573ffffffffffffffffffffffffffffffffffffffff1673ffffffffffffffffffffffffffffffffffffffff16815260200190815260200160002081905550611861816000808573ffffffffffffffffffffffffffffffffffffffff1673ffffffffffffffffffffffffffffffffffffffff1681526020019081526020016000205461192f90919063ffffffff16565b6000808473ffffffffffffffffffffffffffffffffffffffff1673ffffffffffffffffffffffffffffffffffffffff168152602001908152602001600020819055508173ffffffffffffffffffffffffffffffffffffffff168373ffffffffffffffffffffffffffffffffffffffff167fddf252ad1be2c89b69c2b068fc378daa952ba7f163c4a11628f55a4df523b3ef836040518082815260200191505060405180910390a3505050565b600082821115151561191e57600080fd5b600082840390508091505092915050565b600080828401905083811015151561194657600080fd5b8091505092915050565b600042905090565b60008083141561196b5760009050611990565b6000828402905082848281151561197e57fe5b0414151561198b57600080fd5b809150505b92915050565b60008060008373ffffffffffffffffffffffffffffffffffffffff1673ffffffffffffffffffffffffffffffffffffffff168152602001908152602001600020549050919050565b60006119eb338484611741565b600190509291505056fea165627a7a723058202ee497bc3823d1fc5d59d9c6cf82499227543b9f2253dfdab46ff76cd98cbadd0029a165627a7a72305820b07e8be73095eb05a1b7f2693b6ca9a747ed54ddce0336cb4105e6d3a3855d540029",
  "source": "pragma solidity ^0.5.0;\n\nimport \"openzeppelin-solidity/contracts/math/SafeMath.sol\";\nimport \"./Token.sol\";\n\n//finish update function in token\n//what should initial demurrage rate be? And initial issuance?\n//more events in Token\n//parallel transfer helper\n//abstract ownership utils?\n\ncontract Hub {\n    using SafeMath for uint256;\n\n    address public owner;\n\n    uint256 public issuanceRate; // = 1736111111111111; // ~1050 tokens per week\n    uint256 public demurrageRate; // = 0;\n    string public symbol; // = 'CRC';\n    uint256 initialPayout;\n\n    mapping (address => bool) public relayers;\n    mapping (address => Token) public userToToken;\n    mapping (address => address) public tokenToUser;\n    mapping (address => mapping (address => uint256)) public limits;\n\n    event Signup(address indexed user, address token);\n    event Trust(address indexed from, address indexed to, uint256 limit);\n\n    modifier onlyOwner() {\n        require (msg.sender == owner);\n        _;\n    }\n\n    constructor(address _owner, uint256 _issuance, uint256 _demurrage, string memory _symbol, uint256 _initialPayout) public {\n        require (_owner != address(0));\n        owner = _owner;\n        issuanceRate = _issuance;\n        demurrageRate = _demurrage;\n        symbol = _symbol;\n        initialPayout = _initialPayout;\n    }\n\n    function changeOwner(address _newOwner) public onlyOwner returns (bool) {\n        require(_newOwner != address(0));\n        owner = _newOwner;\n        return true;\n    }\n\n    function updateRelayer(address _relayer, bool isRelayer) public onlyOwner returns (bool) {\n        require(_relayer != address(0));\n        relayers[_relayer] = isRelayer;\n        return true;\n    }\n\n    function updateIssuance(uint256 _issuance) public onlyOwner returns (bool) {\n        // safety checks on issuance go here\n        issuanceRate = _issuance;\n        return true;\n    }\n\n    function updateDemurrage(uint256 _demurrage) public onlyOwner returns (bool) {\n        // safety checks on demurrage go here\n        demurrageRate = _demurrage;\n        return true;\n    }\n\n    function updateSymbol(string memory _symbol) public onlyOwner returns (bool) {\n        //maybe we don't need to validate this one?\n        symbol = _symbol;\n        return true;\n    }\n\n    function time() public view returns (uint) { return block.timestamp; }\n\n    function trustable(address _address) public view returns (bool) {\n        return (address(userToToken[_address]) != address(0));\n    }\n\n    // No exit allowed. Once you create a personal token, you're in for good.\n    function signup(string memory _name) public returns (bool) {\n        require(address(userToToken[msg.sender]) == address(0));\n\n        Token token = new Token(msg.sender, _name, initialPayout);\n        userToToken[msg.sender] = token;\n        tokenToUser[address(token)] = msg.sender;\n\n        emit Signup(msg.sender, address(token));\n        return true;\n    }\n\n    // Trust does not have to be reciprocated.\n    // (e.g. I can trust you but you don't have to trust me)\n    function trust(address toTrust, uint limit) public {\n        require(trustable(toTrust));\n        limits[msg.sender][toTrust] = limit;\n        emit Trust(msg.sender, toTrust, limit);\n    }\n\n    function checkSendLimit(address from, address to) public view returns (uint256) {\n        uint256 max = (userToToken[to].totalSupply().mul(limits[to][from])).div(100);\n        return max.sub(userToToken[to].balanceOf(from));\n    }\n\n    // Starts with msg.sender then ,\n    // iterates through the nodes list swapping the nth token for the n+1 token\n    function transferThrough(address[] memory users, uint wad) public {\n        require(users.length <= 5);\n        address prev = msg.sender;\n        for (uint i = 0; i < users.length; i++) {\n            address curr = users[i];\n            uint256 max = (userToToken[curr].totalSupply().mul(limits[curr][prev])).div(1000000000000000000);\n\n            require(userToToken[prev].balanceOf(curr) + wad <= max, \"Trust limit exceeded\");\n\n            userToToken[prev].hubTransfer(prev, curr, wad);\n            prev = curr;\n\n        }\n    }\n\n}\n\n",
  "sourcePath": "/media/000/Documents/Circles/circles-contracts/contracts/Hub.sol",
  "compiler": {
    "name": "solc",
    "version": "0.5.0+commit.1d4f565a.Emscripten.clang"
  },
  "schemaVersion": "3.0.8",
  "updatedAt": "2019-09-09T17:38:55.714Z",
  "devdoc": {
    "methods": {}
  },
  "userdoc": {
    "methods": {}
  }
}