{
  "contractName": "MockHub",
  "abi": [
    {
      "inputs": [
        {
          "internalType": "address",
          "name": "_owner",
          "type": "address"
        },
        {
          "internalType": "uint256",
          "name": "_inflation",
          "type": "uint256"
        },
        {
          "internalType": "uint256",
          "name": "_period",
          "type": "uint256"
        },
        {
          "internalType": "string",
          "name": "_symbol",
          "type": "string"
        },
        {
          "internalType": "uint256",
          "name": "_initialPayout",
          "type": "uint256"
        },
        {
          "internalType": "uint256",
          "name": "_startingRate",
          "type": "uint256"
        }
      ],
      "stateMutability": "nonpayable",
      "type": "constructor"
    },
    {
      "anonymous": false,
      "inputs": [
        {
          "indexed": true,
          "internalType": "address",
          "name": "from",
          "type": "address"
        },
        {
          "indexed": true,
          "internalType": "address",
          "name": "to",
          "type": "address"
        },
        {
          "indexed": false,
          "internalType": "uint256",
          "name": "amount",
          "type": "uint256"
        }
      ],
      "name": "HubTransfer",
      "type": "event"
    },
    {
      "anonymous": false,
      "inputs": [
        {
          "indexed": true,
          "internalType": "address",
          "name": "user",
          "type": "address"
        },
        {
          "indexed": false,
          "internalType": "address",
          "name": "token",
          "type": "address"
        }
      ],
      "name": "Signup",
      "type": "event"
    },
    {
      "anonymous": false,
      "inputs": [
        {
          "indexed": true,
          "internalType": "address",
          "name": "canSendTo",
          "type": "address"
        },
        {
          "indexed": true,
          "internalType": "address",
          "name": "user",
          "type": "address"
        },
        {
          "indexed": false,
          "internalType": "uint256",
          "name": "limit",
          "type": "uint256"
        }
      ],
      "name": "Trust",
      "type": "event"
    },
    {
      "inputs": [
        {
          "internalType": "address",
          "name": "tokenOwner",
          "type": "address"
        },
        {
          "internalType": "address",
          "name": "src",
          "type": "address"
        },
        {
          "internalType": "address",
          "name": "dest",
          "type": "address"
        }
      ],
      "name": "checkSendLimit",
      "outputs": [
        {
          "internalType": "uint256",
          "name": "",
          "type": "uint256"
        }
      ],
      "stateMutability": "view",
      "type": "function"
    },
    {
      "inputs": [],
      "name": "deployedAt",
      "outputs": [
        {
          "internalType": "uint256",
          "name": "",
          "type": "uint256"
        }
      ],
      "stateMutability": "view",
      "type": "function"
    },
    {
      "inputs": [],
      "name": "divisor",
      "outputs": [
        {
          "internalType": "uint256",
          "name": "",
          "type": "uint256"
        }
      ],
      "stateMutability": "view",
      "type": "function"
    },
    {
      "inputs": [
        {
          "internalType": "uint256",
          "name": "_initial",
          "type": "uint256"
        },
        {
          "internalType": "uint256",
          "name": "_periods",
          "type": "uint256"
        }
      ],
      "name": "inflate",
      "outputs": [
        {
          "internalType": "uint256",
          "name": "",
          "type": "uint256"
        }
      ],
      "stateMutability": "view",
      "type": "function"
    },
    {
      "inputs": [],
      "name": "inflation",
      "outputs": [
        {
          "internalType": "uint256",
          "name": "",
          "type": "uint256"
        }
      ],
      "stateMutability": "view",
      "type": "function"
    },
    {
      "inputs": [],
      "name": "initialIssuance",
      "outputs": [
        {
          "internalType": "uint256",
          "name": "",
          "type": "uint256"
        }
      ],
      "stateMutability": "view",
      "type": "function"
    },
    {
      "inputs": [],
      "name": "initialPayout",
      "outputs": [
        {
          "internalType": "uint256",
          "name": "",
          "type": "uint256"
        }
      ],
      "stateMutability": "view",
      "type": "function"
    },
    {
      "inputs": [],
      "name": "issuance",
      "outputs": [
        {
          "internalType": "uint256",
          "name": "",
          "type": "uint256"
        }
      ],
      "stateMutability": "view",
      "type": "function"
    },
    {
      "inputs": [
        {
          "internalType": "uint256",
          "name": "_periods",
          "type": "uint256"
        }
      ],
      "name": "issuanceStep",
      "outputs": [
        {
          "internalType": "uint256",
          "name": "",
          "type": "uint256"
        }
      ],
      "stateMutability": "view",
      "type": "function"
    },
    {
      "inputs": [
        {
          "internalType": "address",
          "name": "",
          "type": "address"
        },
        {
          "internalType": "address",
          "name": "",
          "type": "address"
        }
      ],
      "name": "limits",
      "outputs": [
        {
          "internalType": "uint256",
          "name": "",
          "type": "uint256"
        }
      ],
      "stateMutability": "view",
      "type": "function"
    },
    {
      "inputs": [],
      "name": "owner",
      "outputs": [
        {
          "internalType": "address",
          "name": "",
          "type": "address"
        }
      ],
      "stateMutability": "view",
      "type": "function"
    },
    {
      "inputs": [],
      "name": "period",
      "outputs": [
        {
          "internalType": "uint256",
          "name": "",
          "type": "uint256"
        }
      ],
      "stateMutability": "view",
      "type": "function"
    },
    {
      "inputs": [],
      "name": "periods",
      "outputs": [
        {
          "internalType": "uint256",
          "name": "",
          "type": "uint256"
        }
      ],
      "stateMutability": "view",
      "type": "function"
    },
    {
      "inputs": [
        {
          "internalType": "uint256",
          "name": "base",
          "type": "uint256"
        },
        {
          "internalType": "uint256",
          "name": "exponent",
          "type": "uint256"
        }
      ],
      "name": "pow",
      "outputs": [
        {
          "internalType": "uint256",
          "name": "",
          "type": "uint256"
        }
      ],
      "stateMutability": "pure",
      "type": "function"
    },
    {
      "inputs": [
        {
          "internalType": "uint256",
          "name": "",
          "type": "uint256"
        }
      ],
      "name": "seen",
      "outputs": [
        {
          "internalType": "address",
          "name": "",
          "type": "address"
        }
      ],
      "stateMutability": "view",
      "type": "function"
    },
    {
      "inputs": [],
      "name": "signup",
      "outputs": [],
      "stateMutability": "nonpayable",
      "type": "function"
    },
    {
      "inputs": [],
      "name": "symbol",
      "outputs": [
        {
          "internalType": "string",
          "name": "",
          "type": "string"
        }
      ],
      "stateMutability": "view",
      "type": "function"
    },
    {
      "inputs": [],
      "name": "time",
      "outputs": [
        {
          "internalType": "uint256",
          "name": "",
          "type": "uint256"
        }
      ],
      "stateMutability": "view",
      "type": "function"
    },
    {
      "inputs": [
        {
          "internalType": "address",
          "name": "",
          "type": "address"
        }
      ],
      "name": "tokenToUser",
      "outputs": [
        {
          "internalType": "address",
          "name": "",
          "type": "address"
        }
      ],
      "stateMutability": "view",
      "type": "function"
    },
    {
      "inputs": [
        {
          "internalType": "address[]",
          "name": "tokenOwners",
          "type": "address[]"
        },
        {
          "internalType": "address[]",
          "name": "srcs",
          "type": "address[]"
        },
        {
          "internalType": "address[]",
          "name": "dests",
          "type": "address[]"
        },
        {
          "internalType": "uint256[]",
          "name": "wads",
          "type": "uint256[]"
        }
      ],
      "name": "transferThrough",
      "outputs": [],
      "stateMutability": "nonpayable",
      "type": "function"
    },
    {
      "inputs": [
        {
          "internalType": "address",
          "name": "user",
          "type": "address"
        },
        {
          "internalType": "uint256",
          "name": "limit",
          "type": "uint256"
        }
      ],
      "name": "trust",
      "outputs": [],
      "stateMutability": "nonpayable",
      "type": "function"
    },
    {
      "inputs": [
        {
          "internalType": "address",
          "name": "",
          "type": "address"
        }
      ],
      "name": "userToToken",
      "outputs": [
        {
          "internalType": "contract Token",
          "name": "",
          "type": "address"
        }
      ],
      "stateMutability": "view",
      "type": "function"
    },
    {
      "inputs": [
        {
          "internalType": "address",
          "name": "",
          "type": "address"
        }
      ],
      "name": "validation",
      "outputs": [
        {
          "internalType": "address",
          "name": "identity",
          "type": "address"
        },
        {
          "internalType": "uint256",
          "name": "sent",
          "type": "uint256"
        },
        {
          "internalType": "uint256",
          "name": "received",
          "type": "uint256"
        }
      ],
      "stateMutability": "view",
      "type": "function"
    },
    {
      "inputs": [],
      "name": "getSeen",
      "outputs": [
        {
          "internalType": "uint256",
          "name": "",
          "type": "uint256"
        }
      ],
      "stateMutability": "view",
      "type": "function"
    },
    {
      "inputs": [
        {
          "internalType": "address",
          "name": "user",
          "type": "address"
        }
      ],
      "name": "getValidation",
      "outputs": [
        {
          "internalType": "address",
          "name": "",
          "type": "address"
        },
        {
          "internalType": "uint256",
          "name": "",
          "type": "uint256"
        },
        {
          "internalType": "uint256",
          "name": "",
          "type": "uint256"
        }
      ],
      "stateMutability": "view",
      "type": "function"
    }
  ],
  "bytecode": "0x60806040523480156200001157600080fd5b506040516200669538038062006695833981810160405260c08110156200003757600080fd5b81019080805190602001909291908051906020019092919080519060200190929190805160405193929190846401000000008211156200007657600080fd5b838201915060208201858111156200008d57600080fd5b8251866001820283011164010000000082111715620000ab57600080fd5b8083526020830192505050908051906020019080838360005b83811015620000e1578082015181840152602081019050620000c4565b50505050905090810190601f1680156200010f5780820380516001836020036101000a031916815260200191505b506040526020018051906020019092919080519060200190929190505050858585858585600073ffffffffffffffffffffffffffffffffffffffff168673ffffffffffffffffffffffffffffffffffffffff1614156200016e57600080fd5b856000806101000a81548173ffffffffffffffffffffffffffffffffffffffff021916908373ffffffffffffffffffffffffffffffffffffffff16021790555084600181905550620001c6856200021360201b60201c565b600281905550836003819055508260049080519060200190620001eb92919062000797565b508160058190555080600681905550426007819055505050505050505050505050506200083d565b600080600090505b60096200024962000234600a846200027760201b60201c565b85620003c160201b62001f0b1790919060201c565b11156200025c576001810190506200021b565b6200026f600a826200027760201b60201c565b915050919050565b6000808314156200028c5760009050620003bb565b6000821415620002a05760019050620003bb565b6001821415620002b357829050620003bb565b6000600190505b60018311156200039d576000620002e16002856200041360201b62001f571790919060201c565b141562000327576200030284856200046560201b62001fa31790919060201c565b93506200031f600284620003c160201b62001f0b1790919060201c565b925062000397565b6200034181856200046560201b62001fa31790919060201c565b90506200035d84856200046560201b62001fa31790919060201c565b935062000394600262000380600186620004f060201b6200202e1790919060201c565b620003c160201b62001f0b1790919060201c565b92505b620002ba565b620003b781856200046560201b62001fa31790919060201c565b9150505b92915050565b60006200040b83836040518060400160405280601a81526020017f536166654d6174683a206469766973696f6e206279207a65726f0000000000008152506200054260201b60201c565b905092915050565b60006200045d83836040518060400160405280601881526020017f536166654d6174683a206d6f64756c6f206279207a65726f00000000000000008152506200060d60201b60201c565b905092915050565b6000808314156200047a5760009050620004ea565b60008284029050828482816200048c57fe5b0414620004e5576040517f08c379a0000000000000000000000000000000000000000000000000000000008152600401808060200182810382526021815260200180620066746021913960400191505060405180910390fd5b809150505b92915050565b60006200053a83836040518060400160405280601e81526020017f536166654d6174683a207375627472616374696f6e206f766572666c6f770000815250620006d360201b60201c565b905092915050565b60008083118290620005f2576040517f08c379a00000000000000000000000000000000000000000000000000000000081526004018080602001828103825283818151815260200191508051906020019080838360005b83811015620005b657808201518184015260208101905062000599565b50505050905090810190601f168015620005e45780820380516001836020036101000a031916815260200191505b509250505060405180910390fd5b506000838581620005ff57fe5b049050809150509392505050565b6000808314158290620006be576040517f08c379a00000000000000000000000000000000000000000000000000000000081526004018080602001828103825283818151815260200191508051906020019080838360005b838110156200068257808201518184015260208101905062000665565b50505050905090810190601f168015620006b05780820380516001836020036101000a031916815260200191505b509250505060405180910390fd5b50828481620006c957fe5b0690509392505050565b600083831115829062000784576040517f08c379a00000000000000000000000000000000000000000000000000000000081526004018080602001828103825283818151815260200191508051906020019080838360005b83811015620007485780820151818401526020810190506200072b565b50505050905090810190601f168015620007765780820380516001836020036101000a031916815260200191505b509250505060405180910390fd5b5060008385039050809150509392505050565b828054600181600116156101000203166002900490600052602060002090601f016020900481019282601f10620007da57805160ff19168380011785556200080b565b828001600101855582156200080b579182015b828111156200080a578251825591602001919060010190620007ed565b5b5090506200081a91906200081e565b5090565b5b80821115620008395760008160009055506001016200081f565b5090565b615e27806200084d6000396000f3fe60806040523480156200001157600080fd5b5060043610620001965760003560e01c80638da5cb5b11620000f3578063afaa29df11620000a5578063d62fd9a2116200007b578063d62fd9a214620007ca578063eae4c19f1462000a4d578063ef78d4fd1462000a6d578063fc22a9f81462000a8d5762000196565b8063afaa29df1462000759578063b7bc0f73146200079e578063be0522e014620007aa5762000196565b80638da5cb5b146200053e57806395d89b4114620005745780639951d62f14620005fc578063a18b506b146200064d578063a3eb2b4a14620006be578063a4caeb4214620007395762000196565b806330387a4f116200014d57806330387a4f14620003695780634ee94b1d146200038957806377ed63c214620003a95780637f501d041462000428578063863623bb14620004835780638a0ef18414620004a35762000196565b806316ada547146200019b5780631f2dc5ef14620001bb57806327cd4de114620001db57806328d249fe146200025a5780632a93834214620002cb5780632e4c697f146200031a575b600080fd5b620001a562000aad565b6040518082815260200191505060405180910390f35b620001c562000ab5565b6040518082815260200191505060405180910390f35b6200022060048036036020811015620001f357600080fd5b81019080803573ffffffffffffffffffffffffffffffffffffffff16906020019092919050505062000abb565b604051808473ffffffffffffffffffffffffffffffffffffffff168152602001838152602001828152602001935050505060405180910390f35b6200029f600480360360208110156200027257600080fd5b81019080803573ffffffffffffffffffffffffffffffffffffffff16906020019092919050505062000bb6565b604051808273ffffffffffffffffffffffffffffffffffffffff16815260200191505060405180910390f35b6200030460048036036040811015620002e357600080fd5b81019080803590602001909291908035906020019092919050505062000be9565b6040518082815260200191505060405180910390f35b62000353600480360360408110156200033257600080fd5b81019080803590602001909291908035906020019092919050505062000c41565b6040518082815260200191505060405180910390f35b6200037362000d63565b6040518082815260200191505060405180910390f35b6200039362000d69565b6040518082815260200191505060405180910390f35b620003ee60048036036020811015620003c157600080fd5b81019080803573ffffffffffffffffffffffffffffffffffffffff16906020019092919050505062000d76565b604051808473ffffffffffffffffffffffffffffffffffffffff168152602001838152602001828152602001935050505060405180910390f35b62000457600480360360208110156200044057600080fd5b810190808035906020019092919050505062000dc0565b604051808273ffffffffffffffffffffffffffffffffffffffff16815260200191505060405180910390f35b6200048d62000dfd565b6040518082815260200191505060405180910390f35b6200052860048036036060811015620004bb57600080fd5b81019080803573ffffffffffffffffffffffffffffffffffffffff169060200190929190803573ffffffffffffffffffffffffffffffffffffffff169060200190929190803573ffffffffffffffffffffffffffffffffffffffff16906020019092919050505062000e1b565b6040518082815260200191505060405180910390f35b62000548620013fe565b604051808273ffffffffffffffffffffffffffffffffffffffff16815260200191505060405180910390f35b6200057e62001422565b6040518080602001828103825283818151815260200191508051906020019080838360005b83811015620005c0578082015181840152602081019050620005a3565b50505050905090810190601f168015620005ee5780820380516001836020036101000a031916815260200191505b509250505060405180910390f35b6200064b600480360360408110156200061457600080fd5b81019080803573ffffffffffffffffffffffffffffffffffffffff16906020019092919080359060200190929190505050620014c4565b005b62000692600480360360208110156200066557600080fd5b81019080803573ffffffffffffffffffffffffffffffffffffffff169060200190929190505050620016ba565b604051808273ffffffffffffffffffffffffffffffffffffffff16815260200191505060405180910390f35b6200072360048036036040811015620006d657600080fd5b81019080803573ffffffffffffffffffffffffffffffffffffffff169060200190929190803573ffffffffffffffffffffffffffffffffffffffff169060200190929190505050620016ed565b6040518082815260200191505060405180910390f35b6200074362001712565b6040518082815260200191505060405180910390f35b62000788600480360360208110156200077157600080fd5b810190808035906020019092919050505062001746565b6040518082815260200191505060405180910390f35b620007a86200175d565b005b620007b4620019c1565b6040518082815260200191505060405180910390f35b62000a4b60048036036080811015620007e257600080fd5b81019080803590602001906401000000008111156200080057600080fd5b8201836020820111156200081357600080fd5b803590602001918460208302840111640100000000831117156200083657600080fd5b919080806020026020016040519081016040528093929190818152602001838360200280828437600081840152601f19601f820116905080830192505050505050509192919290803590602001906401000000008111156200089757600080fd5b820183602082011115620008aa57600080fd5b80359060200191846020830284011164010000000083111715620008cd57600080fd5b919080806020026020016040519081016040528093929190818152602001838360200280828437600081840152601f19601f820116905080830192505050505050509192919290803590602001906401000000008111156200092e57600080fd5b8201836020820111156200094157600080fd5b803590602001918460208302840111640100000000831117156200096457600080fd5b919080806020026020016040519081016040528093929190818152602001838360200280828437600081840152601f19601f82011690508083019250505050505050919291929080359060200190640100000000811115620009c557600080fd5b820183602082011115620009d857600080fd5b80359060200191846020830284011164010000000083111715620009fb57600080fd5b919080806020026020016040519081016040528093929190818152602001838360200280828437600081840152601f19601f820116905080830192505050505050509192919290505050620019c7565b005b62000a5762001ef9565b6040518082815260200191505060405180910390f35b62000a7762001eff565b6040518082815260200191505060405180910390f35b62000a9762001f05565b6040518082815260200191505060405180910390f35b600042905090565b60025481565b6000806000600b60008573ffffffffffffffffffffffffffffffffffffffff1673ffffffffffffffffffffffffffffffffffffffff16815260200190815260200160002060000160009054906101000a900473ffffffffffffffffffffffffffffffffffffffff16600b60008673ffffffffffffffffffffffffffffffffffffffff1673ffffffffffffffffffffffffffffffffffffffff16815260200190815260200160002060010154600b60008773ffffffffffffffffffffffffffffffffffffffff1673ffffffffffffffffffffffffffffffffffffffff168152602001908152602001600020600201549250925092509193909250565b60086020528060005260406000206000915054906101000a900473ffffffffffffffffffffffffffffffffffffffff1681565b60008062000bfa6001548462000c41565b9050600062000c0c6002548562000c41565b905062000c378162000c28848862001fa390919063ffffffff16565b62001f0b90919063ffffffff16565b9250505092915050565b60008083141562000c56576000905062000d5d565b600082141562000c6a576001905062000d5d565b600182141562000c7d5782905062000d5d565b6000600190505b600183111562000d4457600062000ca660028562001f5790919063ffffffff16565b141562000ce25762000cc2848562001fa390919063ffffffff16565b935062000cda60028462001f0b90919063ffffffff16565b925062000d3e565b62000cf7818562001fa390919063ffffffff16565b905062000d0e848562001fa390919063ffffffff16565b935062000d3b600262000d2c6001866200202e90919063ffffffff16565b62001f0b90919063ffffffff16565b92505b62000c84565b62000d59818562001fa390919063ffffffff16565b9150505b92915050565b60055481565b6000600c80549050905090565b600b6020528060005260406000206000915090508060000160009054906101000a900473ffffffffffffffffffffffffffffffffffffffff16908060010154908060020154905083565b600c818154811062000dce57fe5b906000526020600020016000915054906101000a900473ffffffffffffffffffffffffffffffffffffffff1681565b600062000e1660065462000e1062001712565b62000be9565b905090565b600080600a60008473ffffffffffffffffffffffffffffffffffffffff1673ffffffffffffffffffffffffffffffffffffffff16815260200190815260200160002060008673ffffffffffffffffffffffffffffffffffffffff1673ffffffffffffffffffffffffffffffffffffffff16815260200190815260200160002054141562000eac5760009050620013f7565b600073ffffffffffffffffffffffffffffffffffffffff16600860008473ffffffffffffffffffffffffffffffffffffffff1673ffffffffffffffffffffffffffffffffffffffff16815260200190815260200160002060009054906101000a900473ffffffffffffffffffffffffffffffffffffffff1673ffffffffffffffffffffffffffffffffffffffff16141562000f4b5760009050620013f7565b6000620010d56064620010c6600a60008773ffffffffffffffffffffffffffffffffffffffff1673ffffffffffffffffffffffffffffffffffffffff16815260200190815260200160002060008973ffffffffffffffffffffffffffffffffffffffff1673ffffffffffffffffffffffffffffffffffffffff16815260200190815260200160002054600860008873ffffffffffffffffffffffffffffffffffffffff1673ffffffffffffffffffffffffffffffffffffffff16815260200190815260200160002060009054906101000a900473ffffffffffffffffffffffffffffffffffffffff1673ffffffffffffffffffffffffffffffffffffffff166318160ddd6040518163ffffffff1660e01b815260040160206040518083038186803b1580156200107a57600080fd5b505afa1580156200108f573d6000803e3d6000fd5b505050506040513d6020811015620010a657600080fd5b810190808051906020019092919050505062001fa390919063ffffffff16565b62001f0b90919063ffffffff16565b9050600073ffffffffffffffffffffffffffffffffffffffff16600860008773ffffffffffffffffffffffffffffffffffffffff1673ffffffffffffffffffffffffffffffffffffffff16815260200190815260200160002060009054906101000a900473ffffffffffffffffffffffffffffffffffffffff1673ffffffffffffffffffffffffffffffffffffffff161415620011765780915050620013f7565b6000600860008773ffffffffffffffffffffffffffffffffffffffff1673ffffffffffffffffffffffffffffffffffffffff16815260200190815260200160002060009054906101000a900473ffffffffffffffffffffffffffffffffffffffff1673ffffffffffffffffffffffffffffffffffffffff166370a08231866040518263ffffffff1660e01b8152600401808273ffffffffffffffffffffffffffffffffffffffff16815260200191505060206040518083038186803b1580156200123f57600080fd5b505afa15801562001254573d6000803e3d6000fd5b505050506040513d60208110156200126b57600080fd5b810190808051906020019092919050505090508373ffffffffffffffffffffffffffffffffffffffff168673ffffffffffffffffffffffffffffffffffffffff161415620012be578092505050620013f7565b6000600860008873ffffffffffffffffffffffffffffffffffffffff1673ffffffffffffffffffffffffffffffffffffffff16815260200190815260200160002060009054906101000a900473ffffffffffffffffffffffffffffffffffffffff1673ffffffffffffffffffffffffffffffffffffffff166370a08231866040518263ffffffff1660e01b8152600401808273ffffffffffffffffffffffffffffffffffffffff16815260200191505060206040518083038186803b1580156200138757600080fd5b505afa1580156200139c573d6000803e3d6000fd5b505050506040513d6020811015620013b357600080fd5b8101908080519060200190929190505050905080831015620013dc5760009350505050620013f7565b620013f181846200202e90919063ffffffff16565b93505050505b9392505050565b60008054906101000a900473ffffffffffffffffffffffffffffffffffffffff1681565b60048054600181600116156101000203166002900480601f016020809104026020016040519081016040528092919081815260200182805460018160011615610100020316600290048015620014bc5780601f106200149057610100808354040283529160200191620014bc565b820191906000526020600020905b8154815290600101906020018083116200149e57829003601f168201915b505050505081565b600073ffffffffffffffffffffffffffffffffffffffff16600860003373ffffffffffffffffffffffffffffffffffffffff1673ffffffffffffffffffffffffffffffffffffffff16815260200190815260200160002060009054906101000a900473ffffffffffffffffffffffffffffffffffffffff1673ffffffffffffffffffffffffffffffffffffffff161415620015ab576040517f08c379a000000000000000000000000000000000000000000000000000000000815260040180806020018281038252603181526020018062005cba6031913960400191505060405180910390fd5b8173ffffffffffffffffffffffffffffffffffffffff163373ffffffffffffffffffffffffffffffffffffffff1614156200164e576040517f08c379a000000000000000000000000000000000000000000000000000000000815260040180806020018281038252601a8152602001807f596f752063616e277420756e747275737420796f757273656c6600000000000081525060200191505060405180910390fd5b6064811115620016aa576040517f08c379a000000000000000000000000000000000000000000000000000000000815260040180806020018281038252602581526020018062005d836025913960400191505060405180910390fd5b620016b682826200207a565b5050565b60096020528060005260406000206000915054906101000a900473ffffffffffffffffffffffffffffffffffffffff1681565b600a602052816000526040600020602052806000526040600020600091509150505481565b60006200174160035462001732600754426200202e90919063ffffffff16565b62001f0b90919063ffffffff16565b905090565b6000620017566006548362000be9565b9050919050565b600073ffffffffffffffffffffffffffffffffffffffff16600860003373ffffffffffffffffffffffffffffffffffffffff1673ffffffffffffffffffffffffffffffffffffffff16815260200190815260200160002060009054906101000a900473ffffffffffffffffffffffffffffffffffffffff1673ffffffffffffffffffffffffffffffffffffffff1614620017f657600080fd5b6000336005546040516200180a906200337c565b808373ffffffffffffffffffffffffffffffffffffffff16815260200182815260200192505050604051809103906000f0801580156200184e573d6000803e3d6000fd5b50905080600860003373ffffffffffffffffffffffffffffffffffffffff1673ffffffffffffffffffffffffffffffffffffffff16815260200190815260200160002060006101000a81548173ffffffffffffffffffffffffffffffffffffffff021916908373ffffffffffffffffffffffffffffffffffffffff16021790555033600960008373ffffffffffffffffffffffffffffffffffffffff1673ffffffffffffffffffffffffffffffffffffffff16815260200190815260200160002060006101000a81548173ffffffffffffffffffffffffffffffffffffffff021916908373ffffffffffffffffffffffffffffffffffffffff1602179055506200195a3360646200207a565b3373ffffffffffffffffffffffffffffffffffffffff167f358ba8f768af134eb5af120e9a61dc1ef29b29f597f047b555fc3675064a034282604051808273ffffffffffffffffffffffffffffffffffffffff16815260200191505060405180910390a250565b60015481565b60058351111562001a40576040517f08c379a00000000000000000000000000000000000000000000000000000000081526004018080602001828103825260108152602001807f546f6f20636f6d706c657820706174680000000000000000000000000000000081525060200191505060405180910390fd5b835182511462001a9c576040517f08c379a000000000000000000000000000000000000000000000000000000000815260040180806020018281038252602a81526020018062005ceb602a913960400191505060405180910390fd5b835183511462001af8576040517f08c379a000000000000000000000000000000000000000000000000000000000815260040180806020018281038252602981526020018062005c916029913960400191505060405180910390fd5b835181511462001b54576040517f08c379a000000000000000000000000000000000000000000000000000000000815260040180806020018281038252602c81526020018062005d15602c913960400191505060405180910390fd5b60005b835181101562001ee657600084828151811062001b7057fe5b60200260200101519050600084838151811062001b8957fe5b60200260200101519050600087848151811062001ba257fe5b60200260200101519050600085858151811062001bbb57fe5b602002602001015190508273ffffffffffffffffffffffffffffffffffffffff168273ffffffffffffffffffffffffffffffffffffffff161462001d9a57600062001c0883868662000e1b565b90508062001d2383600860008773ffffffffffffffffffffffffffffffffffffffff1673ffffffffffffffffffffffffffffffffffffffff16815260200190815260200160002060009054906101000a900473ffffffffffffffffffffffffffffffffffffffff1673ffffffffffffffffffffffffffffffffffffffff166370a08231886040518263ffffffff1660e01b8152600401808273ffffffffffffffffffffffffffffffffffffffff16815260200191505060206040518083038186803b15801562001cd757600080fd5b505afa15801562001cec573d6000803e3d6000fd5b505050506040513d602081101562001d0357600080fd5b81019080805190602001909291905050506200216490919063ffffffff16565b111562001d98576040517f08c379a00000000000000000000000000000000000000000000000000000000081526004018080602001828103825260148152602001807f5472757374206c696d697420657863656564656400000000000000000000000081525060200191505060405180910390fd5b505b62001da7848483620021ed565b600860008373ffffffffffffffffffffffffffffffffffffffff1673ffffffffffffffffffffffffffffffffffffffff16815260200190815260200160002060009054906101000a900473ffffffffffffffffffffffffffffffffffffffff1673ffffffffffffffffffffffffffffffffffffffff166320a6703c8585846040518463ffffffff1660e01b8152600401808473ffffffffffffffffffffffffffffffffffffffff1681526020018373ffffffffffffffffffffffffffffffffffffffff1681526020018281526020019350505050602060405180830381600087803b15801562001e9657600080fd5b505af115801562001eab573d6000803e3d6000fd5b505050506040513d602081101562001ec257600080fd5b81019080805190602001909291905050505050505050808060010191505062001b57565b5062001ef38351620026be565b50505050565b60075481565b60035481565b60065481565b600062001f4f83836040518060400160405280601a81526020017f536166654d6174683a206469766973696f6e206279207a65726f00000000000081525062003127565b905092915050565b600062001f9b83836040518060400160405280601881526020017f536166654d6174683a206d6f64756c6f206279207a65726f0000000000000000815250620031f2565b905092915050565b60008083141562001fb8576000905062002028565b600082840290508284828162001fca57fe5b041462002023576040517f08c379a000000000000000000000000000000000000000000000000000000000815260040180806020018281038252602181526020018062005d416021913960400191505060405180910390fd5b809150505b92915050565b60006200207283836040518060400160405280601e81526020017f536166654d6174683a207375627472616374696f6e206f766572666c6f770000815250620032b8565b905092915050565b80600a60003373ffffffffffffffffffffffffffffffffffffffff1673ffffffffffffffffffffffffffffffffffffffff16815260200190815260200160002060008473ffffffffffffffffffffffffffffffffffffffff1673ffffffffffffffffffffffffffffffffffffffff168152602001908152602001600020819055508173ffffffffffffffffffffffffffffffffffffffff163373ffffffffffffffffffffffffffffffffffffffff167fe60c754dd8ab0b1b5fccba257d6ebcd7d09e360ab7dd7a6e58198ca1f57cdcec836040518082815260200191505060405180910390a35050565b600080828401905083811015620021e3576040517f08c379a000000000000000000000000000000000000000000000000000000000815260040180806020018281038252601b8152602001807f536166654d6174683a206164646974696f6e206f766572666c6f77000000000081525060200191505060405180910390fd5b8091505092915050565b600073ffffffffffffffffffffffffffffffffffffffff16600b60008573ffffffffffffffffffffffffffffffffffffffff1673ffffffffffffffffffffffffffffffffffffffff16815260200190815260200160002060000160009054906101000a900473ffffffffffffffffffffffffffffffffffffffff1673ffffffffffffffffffffffffffffffffffffffff16146200232757620022db81600b60008673ffffffffffffffffffffffffffffffffffffffff1673ffffffffffffffffffffffffffffffffffffffff168152602001908152602001600020600101546200216490919063ffffffff16565b600b60008573ffffffffffffffffffffffffffffffffffffffff1673ffffffffffffffffffffffffffffffffffffffff1681526020019081526020016000206001018190555062002453565b82600b60008573ffffffffffffffffffffffffffffffffffffffff1673ffffffffffffffffffffffffffffffffffffffff16815260200190815260200160002060000160006101000a81548173ffffffffffffffffffffffffffffffffffffffff021916908373ffffffffffffffffffffffffffffffffffffffff16021790555080600b60008573ffffffffffffffffffffffffffffffffffffffff1673ffffffffffffffffffffffffffffffffffffffff16815260200190815260200160002060010181905550600c839080600181540180825580915050600190039060005260206000200160009091909190916101000a81548173ffffffffffffffffffffffffffffffffffffffff021916908373ffffffffffffffffffffffffffffffffffffffff1602179055505b600073ffffffffffffffffffffffffffffffffffffffff16600b60008473ffffffffffffffffffffffffffffffffffffffff1673ffffffffffffffffffffffffffffffffffffffff16815260200190815260200160002060000160009054906101000a900473ffffffffffffffffffffffffffffffffffffffff1673ffffffffffffffffffffffffffffffffffffffff16146200258d576200254181600b60008573ffffffffffffffffffffffffffffffffffffffff1673ffffffffffffffffffffffffffffffffffffffff168152602001908152602001600020600201546200216490919063ffffffff16565b600b60008473ffffffffffffffffffffffffffffffffffffffff1673ffffffffffffffffffffffffffffffffffffffff16815260200190815260200160002060020181905550620026b9565b81600b60008473ffffffffffffffffffffffffffffffffffffffff1673ffffffffffffffffffffffffffffffffffffffff16815260200190815260200160002060000160006101000a81548173ffffffffffffffffffffffffffffffffffffffff021916908373ffffffffffffffffffffffffffffffffffffffff16021790555080600b60008473ffffffffffffffffffffffffffffffffffffffff1673ffffffffffffffffffffffffffffffffffffffff16815260200190815260200160002060020181905550600c829080600181540180825580915050600190039060005260206000200160009091909190916101000a81548173ffffffffffffffffffffffffffffffffffffffff021916908373ffffffffffffffffffffffffffffffffffffffff1602179055505b505050565b60008060005b600c80549050811015620029bf57620026dc6200338a565b600b6000600c8481548110620026ee57fe5b9060005260206000200160009054906101000a900473ffffffffffffffffffffffffffffffffffffffff1673ffffffffffffffffffffffffffffffffffffffff1673ffffffffffffffffffffffffffffffffffffffff1681526020019081526020016000206040518060600160405290816000820160009054906101000a900473ffffffffffffffffffffffffffffffffffffffff1673ffffffffffffffffffffffffffffffffffffffff1673ffffffffffffffffffffffffffffffffffffffff168152602001600182015481526020016002820154815250509050806040015181602001511115620028f457600073ffffffffffffffffffffffffffffffffffffffff168473ffffffffffffffffffffffffffffffffffffffff161462002862576040517f08c379a000000000000000000000000000000000000000000000000000000000815260040180806020018281038252602181526020018062005d626021913960400191505060405180910390fd5b3373ffffffffffffffffffffffffffffffffffffffff16816000015173ffffffffffffffffffffffffffffffffffffffff1614620028ec576040517f08c379a000000000000000000000000000000000000000000000000000000000815260040180806020018281038252602981526020018062005da86029913960400191505060405180910390fd5b806000015193505b806020015181604001511115620029b057600073ffffffffffffffffffffffffffffffffffffffff168373ffffffffffffffffffffffffffffffffffffffff1614620029a8576040517f08c379a00000000000000000000000000000000000000000000000000000000081526004018080602001828103825260208152602001807f506174682073656e647320746f206d6f7265207468616e206f6e65206465737481525060200191505060405180910390fd5b806000015192505b508080600101915050620026c4565b50600073ffffffffffffffffffffffffffffffffffffffff168273ffffffffffffffffffffffffffffffffffffffff16141562002a64576040517f08c379a000000000000000000000000000000000000000000000000000000000815260040180806020018281038252601b8152602001807f5472616e73616374696f6e206d7573742068617665206120737263000000000081525060200191505060405180910390fd5b600073ffffffffffffffffffffffffffffffffffffffff168173ffffffffffffffffffffffffffffffffffffffff16141562002b08576040517f08c379a000000000000000000000000000000000000000000000000000000000815260040180806020018281038252601c8152602001807f5472616e73616374696f6e206d7573742068617665206120646573740000000081525060200191505060405180910390fd5b6000600b60008473ffffffffffffffffffffffffffffffffffffffff1673ffffffffffffffffffffffffffffffffffffffff168152602001908152602001600020600201541462002bc1576040517f08c379a00000000000000000000000000000000000000000000000000000000081526004018080602001828103825260138152602001807f53656e64657220697320726563656976696e670000000000000000000000000081525060200191505060405180910390fd5b6000600b60008373ffffffffffffffffffffffffffffffffffffffff1673ffffffffffffffffffffffffffffffffffffffff168152602001908152602001600020600101541462002c7a576040517f08c379a00000000000000000000000000000000000000000000000000000000081526004018080602001828103825260148152602001807f526563697069656e742069732073656e64696e6700000000000000000000000081525060200191505060405180910390fd5b600b60008273ffffffffffffffffffffffffffffffffffffffff1673ffffffffffffffffffffffffffffffffffffffff16815260200190815260200160002060020154600b60008473ffffffffffffffffffffffffffffffffffffffff1673ffffffffffffffffffffffffffffffffffffffff168152602001908152602001600020600101541462002d58576040517f08c379a000000000000000000000000000000000000000000000000000000000815260040180806020018281038252602181526020018062005dd16021913960400191505060405180910390fd5b60018301600c80549050111562002dd7576040517f08c379a00000000000000000000000000000000000000000000000000000000081526004018080602001828103825260178152602001807f5365656e20746f6f206d616e792061646472657373657300000000000000000081525060200191505060405180910390fd5b8073ffffffffffffffffffffffffffffffffffffffff168273ffffffffffffffffffffffffffffffffffffffff167f8451019aab65b4193860ef723cb0d56b475a26a72b7bfc55c1dbd6121015285a600b60008673ffffffffffffffffffffffffffffffffffffffff1673ffffffffffffffffffffffffffffffffffffffff168152602001908152602001600020600101546040518082815260200191505060405180910390a36000600c8054905090505b60018110620030a5576000600b6000600c600185038154811062002ea957fe5b9060005260206000200160009054906101000a900473ffffffffffffffffffffffffffffffffffffffff1673ffffffffffffffffffffffffffffffffffffffff1673ffffffffffffffffffffffffffffffffffffffff168152602001908152602001600020600101819055506000600b6000600c600185038154811062002f2c57fe5b9060005260206000200160009054906101000a900473ffffffffffffffffffffffffffffffffffffffff1673ffffffffffffffffffffffffffffffffffffffff1673ffffffffffffffffffffffffffffffffffffffff168152602001908152602001600020600201819055506000600b6000600c600185038154811062002faf57fe5b9060005260206000200160009054906101000a900473ffffffffffffffffffffffffffffffffffffffff1673ffffffffffffffffffffffffffffffffffffffff1673ffffffffffffffffffffffffffffffffffffffff16815260200190815260200160002060000160006101000a81548173ffffffffffffffffffffffffffffffffffffffff021916908373ffffffffffffffffffffffffffffffffffffffff160217905550600c8054806200306157fe5b6001900381819060005260206000200160006101000a81549073ffffffffffffffffffffffffffffffffffffffff0219169055905580806001900391505062002e89565b506000600c805490501462003122576040517f08c379a00000000000000000000000000000000000000000000000000000000081526004018080602001828103825260148152602001807f5365656e2073686f756c6420626520656d70747900000000000000000000000081525060200191505060405180910390fd5b505050565b60008083118290620031d7576040517f08c379a00000000000000000000000000000000000000000000000000000000081526004018080602001828103825283818151815260200191508051906020019080838360005b838110156200319b5780820151818401526020810190506200317e565b50505050905090810190601f168015620031c95780820380516001836020036101000a031916815260200191505b509250505060405180910390fd5b506000838581620031e457fe5b049050809150509392505050565b6000808314158290620032a3576040517f08c379a00000000000000000000000000000000000000000000000000000000081526004018080602001828103825283818151815260200191508051906020019080838360005b83811015620032675780820151818401526020810190506200324a565b50505050905090810190601f168015620032955780820380516001836020036101000a031916815260200191505b509250505060405180910390fd5b50828481620032ae57fe5b0690509392505050565b600083831115829062003369576040517f08c379a00000000000000000000000000000000000000000000000000000000081526004018080602001828103825283818151815260200191508051906020019080838360005b838110156200332d57808201518184015260208101905062003310565b50505050905090810190601f1680156200335b5780820380516001836020036101000a031916815260200191505b509250505060405180910390fd5b5060008385039050809150509392505050565b6128cf80620033c283390190565b6040518060600160405280600073ffffffffffffffffffffffffffffffffffffffff1681526020016000815260200160008152509056fe60806040526012600460016101000a81548160ff021916908360ff1602179055503480156200002d57600080fd5b50604051620028cf380380620028cf833981810160405260408110156200005357600080fd5b810190808051906020019092919080519060200190929190505050600073ffffffffffffffffffffffffffffffffffffffff168273ffffffffffffffffffffffffffffffffffffffff161415620000a957600080fd5b81600760006101000a81548173ffffffffffffffffffffffffffffffffffffffff021916908373ffffffffffffffffffffffffffffffffffffffff16021790555033600660006101000a81548173ffffffffffffffffffffffffffffffffffffffff021916908373ffffffffffffffffffffffffffffffffffffffff1602179055506200013b6200021d60201b60201c565b600581905550620001516200022560201b60201c565b600881905550600660009054906101000a900473ffffffffffffffffffffffffffffffffffffffff1673ffffffffffffffffffffffffffffffffffffffff1663863623bb6040518163ffffffff1660e01b815260040160206040518083038186803b158015620001c057600080fd5b505afa158015620001d5573d6000803e3d6000fd5b505050506040513d6020811015620001ec57600080fd5b8101908080519060200190929190505050600981905550620002158282620002ce60201b60201c565b5050620008e2565b600042905090565b6000620002c96200023b6200021d60201b60201c565b620002b56200024f620004ac60201b60201c565b620002a16200027d6001620002696200055960201b60201c565b6200060660201b620014921790919060201c565b6200028d6200068f60201b60201c565b6200073c60201b6200151a1790919060201c565b6200060660201b620014921790919060201c565b620007c760201b620015a01790919060201c565b905090565b600073ffffffffffffffffffffffffffffffffffffffff168273ffffffffffffffffffffffffffffffffffffffff16141562000372576040517f08c379a000000000000000000000000000000000000000000000000000000000815260040180806020018281038252601f8152602001807f45524332303a206d696e7420746f20746865207a65726f20616464726573730081525060200191505060405180910390fd5b62000386600083836200081960201b60201c565b620003a2816002546200060660201b620014921790919060201c565b60028190555062000400816000808573ffffffffffffffffffffffffffffffffffffffff1673ffffffffffffffffffffffffffffffffffffffff168152602001908152602001600020546200060660201b620014921790919060201c565b6000808473ffffffffffffffffffffffffffffffffffffffff1673ffffffffffffffffffffffffffffffffffffffff168152602001908152602001600020819055508173ffffffffffffffffffffffffffffffffffffffff16600073ffffffffffffffffffffffffffffffffffffffff167fddf252ad1be2c89b69c2b068fc378daa952ba7f163c4a11628f55a4df523b3ef836040518082815260200191505060405180910390a35050565b6000600660009054906101000a900473ffffffffffffffffffffffffffffffffffffffff1673ffffffffffffffffffffffffffffffffffffffff1663eae4c19f6040518163ffffffff1660e01b815260040160206040518083038186803b1580156200051757600080fd5b505afa1580156200052c573d6000803e3d6000fd5b505050506040513d60208110156200054357600080fd5b8101908080519060200190929190505050905090565b6000600660009054906101000a900473ffffffffffffffffffffffffffffffffffffffff1673ffffffffffffffffffffffffffffffffffffffff1663a4caeb426040518163ffffffff1660e01b815260040160206040518083038186803b158015620005c457600080fd5b505afa158015620005d9573d6000803e3d6000fd5b505050506040513d6020811015620005f057600080fd5b8101908080519060200190929190505050905090565b60008082840190508381101562000685576040517f08c379a000000000000000000000000000000000000000000000000000000000815260040180806020018281038252601b8152602001807f536166654d6174683a206164646974696f6e206f766572666c6f77000000000081525060200191505060405180910390fd5b8091505092915050565b6000600660009054906101000a900473ffffffffffffffffffffffffffffffffffffffff1673ffffffffffffffffffffffffffffffffffffffff1663ef78d4fd6040518163ffffffff1660e01b815260040160206040518083038186803b158015620006fa57600080fd5b505afa1580156200070f573d6000803e3d6000fd5b505050506040513d60208110156200072657600080fd5b8101908080519060200190929190505050905090565b600080831415620007515760009050620007c1565b60008284029050828482816200076357fe5b0414620007bc576040517f08c379a0000000000000000000000000000000000000000000000000000000008152600401808060200182810382526021815260200180620028ae6021913960400191505060405180910390fd5b809150505b92915050565b60006200081183836040518060400160405280601e81526020017f536166654d6174683a207375627472616374696f6e206f766572666c6f7700008152506200081e60201b60201c565b905092915050565b505050565b6000838311158290620008cf576040517f08c379a00000000000000000000000000000000000000000000000000000000081526004018080602001828103825283818151815260200191508051906020019080838360005b838110156200089357808201518184015260208101905062000876565b50505050905090810190601f168015620008c15780820380516001836020036101000a031916815260200191505b509250505060405180910390fd5b5060008385039050809150509392505050565b611fbc80620008f26000396000f3fe608060405234801561001057600080fd5b506004361061018e5760003560e01c80636c050eae116100de578063a457c2d711610097578063be0522e011610071578063be0522e0146106c5578063d4048089146106e3578063dd62ed3e14610701578063ef78d4fd146107795761018e565b8063a457c2d7146105df578063a4caeb4214610643578063a9059cbb146106615761018e565b80636c050eae1461048a57806370a08231146104a85780638b4eed81146105005780638da5cb5b1461051e57806395d89b4114610552578063a2e62045146105d55761018e565b80631f2dc5ef1161014b578063313ce56711610125578063313ce567146103b3578063365a86fc146103d4578063395093511461040857806341c305461461046c5761018e565b80631f2dc5ef1461028d57806320a6703c146102ab57806323b872dd1461032f5761018e565b806306f09ab014610193578063095ea7b3146101b15780630f487c2114610215578063107129dd1461023357806316ada5471461025157806318160ddd1461026f575b600080fd5b61019b610797565b6040518082815260200191505060405180910390f35b6101fd600480360360408110156101c757600080fd5b81019080803573ffffffffffffffffffffffffffffffffffffffff16906020019092919080359060200190929190505050610841565b60405180821515815260200191505060405180910390f35b61021d61085f565b6040518082815260200191505060405180910390f35b61023b61089b565b6040518082815260200191505060405180910390f35b6102596108a1565b6040518082815260200191505060405180910390f35b6102776108a9565b6040518082815260200191505060405180910390f35b6102956108b3565b6040518082815260200191505060405180910390f35b610317600480360360608110156102c157600080fd5b81019080803573ffffffffffffffffffffffffffffffffffffffff169060200190929190803573ffffffffffffffffffffffffffffffffffffffff1690602001909291908035906020019092919050505061095d565b60405180821515815260200191505060405180910390f35b61039b6004803603606081101561034557600080fd5b81019080803573ffffffffffffffffffffffffffffffffffffffff169060200190929190803573ffffffffffffffffffffffffffffffffffffffff169060200190929190803590602001909291905050506109cb565b60405180821515815260200191505060405180910390f35b6103bb610aa4565b604051808260ff16815260200191505060405180910390f35b6103dc610ab7565b604051808273ffffffffffffffffffffffffffffffffffffffff16815260200191505060405180910390f35b6104546004803603604081101561041e57600080fd5b81019080803573ffffffffffffffffffffffffffffffffffffffff16906020019092919080359060200190929190505050610add565b60405180821515815260200191505060405180910390f35b610474610b90565b6040518082815260200191505060405180910390f35b610492610bfd565b6040518082815260200191505060405180910390f35b6104ea600480360360208110156104be57600080fd5b81019080803573ffffffffffffffffffffffffffffffffffffffff169060200190929190505050610da8565b6040518082815260200191505060405180910390f35b610508610df0565b6040518082815260200191505060405180910390f35b610526610df6565b604051808273ffffffffffffffffffffffffffffffffffffffff16815260200191505060405180910390f35b61055a610e1c565b6040518080602001828103825283818151815260200191508051906020019080838360005b8381101561059a57808201518184015260208101905061057f565b50505050905090810190601f1680156105c75780820380516001836020036101000a031916815260200191505b509250505060405180910390f35b6105dd610f84565b005b61062b600480360360408110156105f557600080fd5b81019080803573ffffffffffffffffffffffffffffffffffffffff1690602001909291908035906020019092919050505061108e565b60405180821515815260200191505060405180910390f35b61064b61115b565b6040518082815260200191505060405180910390f35b6106ad6004803603604081101561067757600080fd5b81019080803573ffffffffffffffffffffffffffffffffffffffff16906020019092919080359060200190929190505050611205565b60405180821515815260200191505060405180910390f35b6106cd6112b1565b6040518082815260200191505060405180910390f35b6106eb61135b565b6040518082815260200191505060405180910390f35b6107636004803603604081101561071757600080fd5b81019080803573ffffffffffffffffffffffffffffffffffffffff169060200190929190803573ffffffffffffffffffffffffffffffffffffffff169060200190929190505050611361565b6040518082815260200191505060405180910390f35b6107816113e8565b6040518082815260200191505060405180910390f35b6000600660009054906101000a900473ffffffffffffffffffffffffffffffffffffffff1673ffffffffffffffffffffffffffffffffffffffff1663eae4c19f6040518163ffffffff1660e01b815260040160206040518083038186803b15801561080157600080fd5b505afa158015610815573d6000803e3d6000fd5b505050506040513d602081101561082b57600080fd5b8101908080519060200190929190505050905090565b600061085561084e6115ea565b84846115f2565b6001905092915050565b600061089661086c6113e8565b610888610877610797565b6005546115a090919063ffffffff16565b6117e990919063ffffffff16565b905090565b60085481565b600042905090565b6000600254905090565b6000600660009054906101000a900473ffffffffffffffffffffffffffffffffffffffff1673ffffffffffffffffffffffffffffffffffffffff16631f2dc5ef6040518163ffffffff1660e01b815260040160206040518083038186803b15801561091d57600080fd5b505afa158015610931573d6000803e3d6000fd5b505050506040513d602081101561094757600080fd5b8101908080519060200190929190505050905090565b6000600660009054906101000a900473ffffffffffffffffffffffffffffffffffffffff1673ffffffffffffffffffffffffffffffffffffffff163373ffffffffffffffffffffffffffffffffffffffff16146109b957600080fd5b6109c4848484611833565b9392505050565b60006109d8848484611833565b610a99846109e46115ea565b610a9485604051806060016040528060288152602001611ef160289139600160008b73ffffffffffffffffffffffffffffffffffffffff1673ffffffffffffffffffffffffffffffffffffffff1681526020019081526020016000206000610a4a6115ea565b73ffffffffffffffffffffffffffffffffffffffff1673ffffffffffffffffffffffffffffffffffffffff16815260200190815260200160002054611af49092919063ffffffff16565b6115f2565b600190509392505050565b600460019054906101000a900460ff1681565b600660009054906101000a900473ffffffffffffffffffffffffffffffffffffffff1681565b6000610b86610aea6115ea565b84610b818560016000610afb6115ea565b73ffffffffffffffffffffffffffffffffffffffff1673ffffffffffffffffffffffffffffffffffffffff16815260200190815260200160002060008973ffffffffffffffffffffffffffffffffffffffff1673ffffffffffffffffffffffffffffffffffffffff1681526020019081526020016000205461149290919063ffffffff16565b6115f2565b6001905092915050565b6000610bf8610b9d6108a1565b610bea610ba8610797565b610bdc610bc66001610bb861115b565b61149290919063ffffffff16565b610bce6113e8565b61151a90919063ffffffff16565b61149290919063ffffffff16565b6115a090919063ffffffff16565b905090565b600080600090506000600554905060006008549050600060095490506000610c2361085f565b90505b610c2e6108a1565b610c41848661149290919063ffffffff16565b11610d5757610c6b610c5c838561151a90919063ffffffff16565b8661149290919063ffffffff16565b9450610c80838561149290919063ffffffff16565b9350610c8a6113e8565b9250610ca060018261149290919063ffffffff16565b9050600660009054906101000a900473ffffffffffffffffffffffffffffffffffffffff1673ffffffffffffffffffffffffffffffffffffffff1663afaa29df826040518263ffffffff1660e01b81526004018082815260200191505060206040518083038186803b158015610d1557600080fd5b505afa158015610d29573d6000803e3d6000fd5b505050506040513d6020811015610d3f57600080fd5b81019080805190602001909291905050509150610c26565b6000610d7385610d656108a1565b6115a090919063ffffffff16565b9050610d9a610d8b848361151a90919063ffffffff16565b8761149290919063ffffffff16565b955085965050505050505090565b60008060008373ffffffffffffffffffffffffffffffffffffffff1673ffffffffffffffffffffffffffffffffffffffff168152602001908152602001600020549050919050565b60055481565b600760009054906101000a900473ffffffffffffffffffffffffffffffffffffffff1681565b6060600660009054906101000a900473ffffffffffffffffffffffffffffffffffffffff1673ffffffffffffffffffffffffffffffffffffffff166395d89b416040518163ffffffff1660e01b815260040160006040518083038186803b158015610e8657600080fd5b505afa158015610e9a573d6000803e3d6000fd5b505050506040513d6000823e3d601f19601f820116820180604052506020811015610ec457600080fd5b8101908080516040519392919084640100000000821115610ee457600080fd5b83820191506020820185811115610efa57600080fd5b8251866001820283011164010000000082111715610f1757600080fd5b8083526020830192505050908051906020019080838360005b83811015610f4b578082015181840152602081019050610f30565b50505050905090810190601f168015610f785780820380516001836020036101000a031916815260200191505b50604052505050905090565b6000610f8e610bfd565b9050600081111561108b57610fa1610b90565b600881905550610faf6108a1565b600581905550600660009054906101000a900473ffffffffffffffffffffffffffffffffffffffff1673ffffffffffffffffffffffffffffffffffffffff1663863623bb6040518163ffffffff1660e01b815260040160206040518083038186803b15801561101d57600080fd5b505afa158015611031573d6000803e3d6000fd5b505050506040513d602081101561104757600080fd5b810190808051906020019092919050505060098190555061108a600760009054906101000a900473ffffffffffffffffffffffffffffffffffffffff1682611bb4565b5b50565b600061115161109b6115ea565b8461114c85604051806060016040528060258152602001611f6260259139600160006110c56115ea565b73ffffffffffffffffffffffffffffffffffffffff1673ffffffffffffffffffffffffffffffffffffffff16815260200190815260200160002060008a73ffffffffffffffffffffffffffffffffffffffff1673ffffffffffffffffffffffffffffffffffffffff16815260200190815260200160002054611af49092919063ffffffff16565b6115f2565b6001905092915050565b6000600660009054906101000a900473ffffffffffffffffffffffffffffffffffffffff1673ffffffffffffffffffffffffffffffffffffffff1663a4caeb426040518163ffffffff1660e01b815260040160206040518083038186803b1580156111c557600080fd5b505afa1580156111d9573d6000803e3d6000fd5b505050506040513d60208110156111ef57600080fd5b8101908080519060200190929190505050905090565b6000600760009054906101000a900473ffffffffffffffffffffffffffffffffffffffff1673ffffffffffffffffffffffffffffffffffffffff163373ffffffffffffffffffffffffffffffffffffffff16141561129f5733600760006101000a81548173ffffffffffffffffffffffffffffffffffffffff021916908373ffffffffffffffffffffffffffffffffffffffff1602179055505b6112a98383611d7b565b905092915050565b6000600660009054906101000a900473ffffffffffffffffffffffffffffffffffffffff1673ffffffffffffffffffffffffffffffffffffffff1663be0522e06040518163ffffffff1660e01b815260040160206040518083038186803b15801561131b57600080fd5b505afa15801561132f573d6000803e3d6000fd5b505050506040513d602081101561134557600080fd5b8101908080519060200190929190505050905090565b60095481565b6000600160008473ffffffffffffffffffffffffffffffffffffffff1673ffffffffffffffffffffffffffffffffffffffff16815260200190815260200160002060008373ffffffffffffffffffffffffffffffffffffffff1673ffffffffffffffffffffffffffffffffffffffff16815260200190815260200160002054905092915050565b6000600660009054906101000a900473ffffffffffffffffffffffffffffffffffffffff1673ffffffffffffffffffffffffffffffffffffffff1663ef78d4fd6040518163ffffffff1660e01b815260040160206040518083038186803b15801561145257600080fd5b505afa158015611466573d6000803e3d6000fd5b505050506040513d602081101561147c57600080fd5b8101908080519060200190929190505050905090565b600080828401905083811015611510576040517f08c379a000000000000000000000000000000000000000000000000000000000815260040180806020018281038252601b8152602001807f536166654d6174683a206164646974696f6e206f766572666c6f77000000000081525060200191505060405180910390fd5b8091505092915050565b60008083141561152d576000905061159a565b600082840290508284828161153e57fe5b0414611595576040517f08c379a0000000000000000000000000000000000000000000000000000000008152600401808060200182810382526021815260200180611ed06021913960400191505060405180910390fd5b809150505b92915050565b60006115e283836040518060400160405280601e81526020017f536166654d6174683a207375627472616374696f6e206f766572666c6f770000815250611af4565b905092915050565b600033905090565b600073ffffffffffffffffffffffffffffffffffffffff168373ffffffffffffffffffffffffffffffffffffffff161415611678576040517f08c379a0000000000000000000000000000000000000000000000000000000008152600401808060200182810382526024815260200180611f3e6024913960400191505060405180910390fd5b600073ffffffffffffffffffffffffffffffffffffffff168273ffffffffffffffffffffffffffffffffffffffff1614156116fe576040517f08c379a0000000000000000000000000000000000000000000000000000000008152600401808060200182810382526022815260200180611e886022913960400191505060405180910390fd5b80600160008573ffffffffffffffffffffffffffffffffffffffff1673ffffffffffffffffffffffffffffffffffffffff16815260200190815260200160002060008473ffffffffffffffffffffffffffffffffffffffff1673ffffffffffffffffffffffffffffffffffffffff168152602001908152602001600020819055508173ffffffffffffffffffffffffffffffffffffffff168373ffffffffffffffffffffffffffffffffffffffff167f8c5be1e5ebec7d5bd14f71427d1e84f3dd0314c0f7b2291e5b200ac8c7c3b925836040518082815260200191505060405180910390a3505050565b600061182b83836040518060400160405280601a81526020017f536166654d6174683a206469766973696f6e206279207a65726f000000000000815250611d99565b905092915050565b600073ffffffffffffffffffffffffffffffffffffffff168373ffffffffffffffffffffffffffffffffffffffff1614156118b9576040517f08c379a0000000000000000000000000000000000000000000000000000000008152600401808060200182810382526025815260200180611f196025913960400191505060405180910390fd5b600073ffffffffffffffffffffffffffffffffffffffff168273ffffffffffffffffffffffffffffffffffffffff16141561193f576040517f08c379a0000000000000000000000000000000000000000000000000000000008152600401808060200182810382526023815260200180611e656023913960400191505060405180910390fd5b61194a838383611e5f565b6119b581604051806060016040528060268152602001611eaa602691396000808773ffffffffffffffffffffffffffffffffffffffff1673ffffffffffffffffffffffffffffffffffffffff16815260200190815260200160002054611af49092919063ffffffff16565b6000808573ffffffffffffffffffffffffffffffffffffffff1673ffffffffffffffffffffffffffffffffffffffff16815260200190815260200160002081905550611a48816000808573ffffffffffffffffffffffffffffffffffffffff1673ffffffffffffffffffffffffffffffffffffffff1681526020019081526020016000205461149290919063ffffffff16565b6000808473ffffffffffffffffffffffffffffffffffffffff1673ffffffffffffffffffffffffffffffffffffffff168152602001908152602001600020819055508173ffffffffffffffffffffffffffffffffffffffff168373ffffffffffffffffffffffffffffffffffffffff167fddf252ad1be2c89b69c2b068fc378daa952ba7f163c4a11628f55a4df523b3ef836040518082815260200191505060405180910390a3505050565b6000838311158290611ba1576040517f08c379a00000000000000000000000000000000000000000000000000000000081526004018080602001828103825283818151815260200191508051906020019080838360005b83811015611b66578082015181840152602081019050611b4b565b50505050905090810190601f168015611b935780820380516001836020036101000a031916815260200191505b509250505060405180910390fd5b5060008385039050809150509392505050565b600073ffffffffffffffffffffffffffffffffffffffff168273ffffffffffffffffffffffffffffffffffffffff161415611c57576040517f08c379a000000000000000000000000000000000000000000000000000000000815260040180806020018281038252601f8152602001807f45524332303a206d696e7420746f20746865207a65726f20616464726573730081525060200191505060405180910390fd5b611c6360008383611e5f565b611c788160025461149290919063ffffffff16565b600281905550611ccf816000808573ffffffffffffffffffffffffffffffffffffffff1673ffffffffffffffffffffffffffffffffffffffff1681526020019081526020016000205461149290919063ffffffff16565b6000808473ffffffffffffffffffffffffffffffffffffffff1673ffffffffffffffffffffffffffffffffffffffff168152602001908152602001600020819055508173ffffffffffffffffffffffffffffffffffffffff16600073ffffffffffffffffffffffffffffffffffffffff167fddf252ad1be2c89b69c2b068fc378daa952ba7f163c4a11628f55a4df523b3ef836040518082815260200191505060405180910390a35050565b6000611d8f611d886115ea565b8484611833565b6001905092915050565b60008083118290611e45576040517f08c379a00000000000000000000000000000000000000000000000000000000081526004018080602001828103825283818151815260200191508051906020019080838360005b83811015611e0a578082015181840152602081019050611def565b50505050905090810190601f168015611e375780820380516001836020036101000a031916815260200191505b509250505060405180910390fd5b506000838581611e5157fe5b049050809150509392505050565b50505056fe45524332303a207472616e7366657220746f20746865207a65726f206164647265737345524332303a20617070726f766520746f20746865207a65726f206164647265737345524332303a207472616e7366657220616d6f756e7420657863656564732062616c616e6365536166654d6174683a206d756c7469706c69636174696f6e206f766572666c6f7745524332303a207472616e7366657220616d6f756e74206578636565647320616c6c6f77616e636545524332303a207472616e736665722066726f6d20746865207a65726f206164647265737345524332303a20617070726f76652066726f6d20746865207a65726f206164647265737345524332303a2064656372656173656420616c6c6f77616e63652062656c6f77207a65726fa264697066735822122031f96f2a01bc30933489dff9b3eaaa5e88418f62d6d09f21ca7bf21176e5c3db64736f6c63430007000033536166654d6174683a206d756c7469706c69636174696f6e206f766572666c6f77546f6b656e73206172726179206c656e677468206d75737420657175616c2073726373206172726179596f752063616e206f6e6c792074727573742070656f706c6520616674657220796f75277665207369676e656420757021546f6b656e73206172726179206c656e677468206d75737420657175616c206465737473206172726179546f6b656e73206172726179206c656e677468206d75737420657175616c20616d6f756e7473206172726179536166654d6174683a206d756c7469706c69636174696f6e206f766572666c6f77506174682073656e64732066726f6d206d6f7265207468616e206f6e65207372634c696d6974206d75737420626520612070657263656e74616765206f7574206f66203130305061746820646f65736e27742073656e642066726f6d207472616e73616374696f6e2073656e646572556e657175616c2073656e7420616e6420726563656976656420616d6f756e7473a26469706673582212201a048e0191a64c19a8dcc99e07e012db647233ed53903a5e787062b1fed7a50764736f6c63430007000033536166654d6174683a206d756c7469706c69636174696f6e206f766572666c6f77",
  "immutableReferences": {},
  "source": "pragma solidity ^0.7.0;\nimport \"../Hub.sol\";\n\ncontract MockHub is Hub {\n    constructor(\n        address _owner,\n        uint256 _inflation,\n        uint256 _period,\n        string memory _symbol,\n        uint256 _initialPayout,\n        uint256 _startingRate\n    )\n    Hub(_owner, _inflation, _period, _symbol, _initialPayout, _startingRate)\n    {\n\n    }\n\n    function getSeen() public view returns (uint256) {\n        return seen.length;\n    }\n\n    function getValidation(address user) public view returns (address, uint256, uint256) {\n        return (validation[user].identity, validation[user].sent, validation[user].received);\n    }\n}",
  "sourcePath": "/media/000/Documents/Circles/circles-contracts/contracts/mocks/MockHub.sol",
  "compiler": {
    "name": "solc",
    "version": "0.7.0+commit.9e61f92b.Emscripten.clang"
  },
  "schemaVersion": "3.2.3",
  "updatedAt": "2020-08-17T11:31:35.614Z",
  "devdoc": {
    "kind": "dev",
    "methods": {
      "checkSendLimit(address,address,address)": {
        "returns": {
          "_0": "the amount of tokenowner's token src can send to dest"
        }
      },
      "inflate(uint256,uint256)": {
        "returns": {
          "_0": "initial issuance rate as if interest (inflation) has been compounded period times"
        }
      },
      "issuance()": {
        "returns": {
          "_0": "current issuance rate"
        }
      },
      "issuanceStep(uint256)": {
        "returns": {
          "_0": "what the issuance would be at a particular amount of periods"
        }
      },
      "periods()": {
        "returns": {
          "_0": "the amount of periods since hub was deployed"
        }
      }
    },
    "version": 1
  },
  "userdoc": {
    "kind": "user",
    "methods": {},
    "version": 1
  }
}