{
  "contractName": "MockHub",
  "abi": [
    {
      "inputs": [
        {
          "internalType": "uint256",
          "name": "_inflation",
          "type": "uint256"
        },
        {
          "internalType": "uint256",
          "name": "_period",
          "type": "uint256"
        },
        {
          "internalType": "string",
          "name": "_symbol",
          "type": "string"
        },
        {
          "internalType": "uint256",
          "name": "_initialPayout",
          "type": "uint256"
        },
        {
          "internalType": "uint256",
          "name": "_startingRate",
          "type": "uint256"
        },
        {
          "internalType": "uint256",
          "name": "_timeout",
          "type": "uint256"
        }
      ],
      "stateMutability": "nonpayable",
      "type": "constructor"
    },
    {
      "anonymous": false,
      "inputs": [
        {
          "indexed": true,
          "internalType": "address",
          "name": "from",
          "type": "address"
        },
        {
          "indexed": true,
          "internalType": "address",
          "name": "to",
          "type": "address"
        },
        {
          "indexed": false,
          "internalType": "uint256",
          "name": "amount",
          "type": "uint256"
        }
      ],
      "name": "HubTransfer",
      "type": "event"
    },
    {
      "anonymous": false,
      "inputs": [
        {
          "indexed": true,
          "internalType": "address",
          "name": "organization",
          "type": "address"
        }
      ],
      "name": "OrganizationSignup",
      "type": "event"
    },
    {
      "anonymous": false,
      "inputs": [
        {
          "indexed": true,
          "internalType": "address",
          "name": "user",
          "type": "address"
        },
        {
          "indexed": false,
          "internalType": "address",
          "name": "token",
          "type": "address"
        }
      ],
      "name": "Signup",
      "type": "event"
    },
    {
      "anonymous": false,
      "inputs": [
        {
          "indexed": true,
          "internalType": "address",
          "name": "canSendTo",
          "type": "address"
        },
        {
          "indexed": true,
          "internalType": "address",
          "name": "user",
          "type": "address"
        },
        {
          "indexed": false,
          "internalType": "uint256",
          "name": "limit",
          "type": "uint256"
        }
      ],
      "name": "Trust",
      "type": "event"
    },
    {
      "inputs": [
        {
          "internalType": "address",
          "name": "tokenOwner",
          "type": "address"
        },
        {
          "internalType": "address",
          "name": "src",
          "type": "address"
        },
        {
          "internalType": "address",
          "name": "dest",
          "type": "address"
        }
      ],
      "name": "checkSendLimit",
      "outputs": [
        {
          "internalType": "uint256",
          "name": "",
          "type": "uint256"
        }
      ],
      "stateMutability": "view",
      "type": "function"
    },
    {
      "inputs": [],
      "name": "deployedAt",
      "outputs": [
        {
          "internalType": "uint256",
          "name": "",
          "type": "uint256"
        }
      ],
      "stateMutability": "view",
      "type": "function"
    },
    {
      "inputs": [],
      "name": "divisor",
      "outputs": [
        {
          "internalType": "uint256",
          "name": "",
          "type": "uint256"
        }
      ],
      "stateMutability": "view",
      "type": "function"
    },
    {
      "inputs": [
        {
          "internalType": "uint256",
          "name": "_initial",
          "type": "uint256"
        },
        {
          "internalType": "uint256",
          "name": "_periods",
          "type": "uint256"
        }
      ],
      "name": "inflate",
      "outputs": [
        {
          "internalType": "uint256",
          "name": "",
          "type": "uint256"
        }
      ],
      "stateMutability": "view",
      "type": "function"
    },
    {
      "inputs": [],
      "name": "inflation",
      "outputs": [
        {
          "internalType": "uint256",
          "name": "",
          "type": "uint256"
        }
      ],
      "stateMutability": "view",
      "type": "function"
    },
    {
      "inputs": [],
      "name": "initialIssuance",
      "outputs": [
        {
          "internalType": "uint256",
          "name": "",
          "type": "uint256"
        }
      ],
      "stateMutability": "view",
      "type": "function"
    },
    {
      "inputs": [],
      "name": "issuance",
      "outputs": [
        {
          "internalType": "uint256",
          "name": "",
          "type": "uint256"
        }
      ],
      "stateMutability": "view",
      "type": "function"
    },
    {
      "inputs": [
        {
          "internalType": "uint256",
          "name": "_periods",
          "type": "uint256"
        }
      ],
      "name": "issuanceByStep",
      "outputs": [
        {
          "internalType": "uint256",
          "name": "",
          "type": "uint256"
        }
      ],
      "stateMutability": "view",
      "type": "function"
    },
    {
      "inputs": [
        {
          "internalType": "address",
          "name": "",
          "type": "address"
        },
        {
          "internalType": "address",
          "name": "",
          "type": "address"
        }
      ],
      "name": "limits",
      "outputs": [
        {
          "internalType": "uint256",
          "name": "",
          "type": "uint256"
        }
      ],
      "stateMutability": "view",
      "type": "function"
    },
    {
      "inputs": [],
      "name": "organizationSignup",
      "outputs": [],
      "stateMutability": "nonpayable",
      "type": "function"
    },
    {
      "inputs": [
        {
          "internalType": "address",
          "name": "",
          "type": "address"
        }
      ],
      "name": "organizations",
      "outputs": [
        {
          "internalType": "bool",
          "name": "",
          "type": "bool"
        }
      ],
      "stateMutability": "view",
      "type": "function"
    },
    {
      "inputs": [],
      "name": "period",
      "outputs": [
        {
          "internalType": "uint256",
          "name": "",
          "type": "uint256"
        }
      ],
      "stateMutability": "view",
      "type": "function"
    },
    {
      "inputs": [],
      "name": "periods",
      "outputs": [
        {
          "internalType": "uint256",
          "name": "",
          "type": "uint256"
        }
      ],
      "stateMutability": "view",
      "type": "function"
    },
    {
      "inputs": [
        {
          "internalType": "uint256",
          "name": "base",
          "type": "uint256"
        },
        {
          "internalType": "uint256",
          "name": "exponent",
          "type": "uint256"
        }
      ],
      "name": "pow",
      "outputs": [
        {
          "internalType": "uint256",
          "name": "",
          "type": "uint256"
        }
      ],
      "stateMutability": "pure",
      "type": "function"
    },
    {
      "inputs": [
        {
          "internalType": "uint256",
          "name": "",
          "type": "uint256"
        }
      ],
      "name": "seen",
      "outputs": [
        {
          "internalType": "address",
          "name": "",
          "type": "address"
        }
      ],
      "stateMutability": "view",
      "type": "function"
    },
    {
      "inputs": [],
      "name": "signup",
      "outputs": [],
      "stateMutability": "nonpayable",
      "type": "function"
    },
    {
      "inputs": [],
      "name": "signupBonus",
      "outputs": [
        {
          "internalType": "uint256",
          "name": "",
          "type": "uint256"
        }
      ],
      "stateMutability": "view",
      "type": "function"
    },
    {
      "inputs": [],
      "name": "symbol",
      "outputs": [
        {
          "internalType": "string",
          "name": "",
          "type": "string"
        }
      ],
      "stateMutability": "view",
      "type": "function"
    },
    {
      "inputs": [],
      "name": "time",
      "outputs": [
        {
          "internalType": "uint256",
          "name": "",
          "type": "uint256"
        }
      ],
      "stateMutability": "view",
      "type": "function"
    },
    {
      "inputs": [],
      "name": "timeout",
      "outputs": [
        {
          "internalType": "uint256",
          "name": "",
          "type": "uint256"
        }
      ],
      "stateMutability": "view",
      "type": "function"
    },
    {
      "inputs": [
        {
          "internalType": "address",
          "name": "",
          "type": "address"
        }
      ],
      "name": "tokenToUser",
      "outputs": [
        {
          "internalType": "address",
          "name": "",
          "type": "address"
        }
      ],
      "stateMutability": "view",
      "type": "function"
    },
    {
      "inputs": [
        {
          "internalType": "address[]",
          "name": "tokenOwners",
          "type": "address[]"
        },
        {
          "internalType": "address[]",
          "name": "srcs",
          "type": "address[]"
        },
        {
          "internalType": "address[]",
          "name": "dests",
          "type": "address[]"
        },
        {
          "internalType": "uint256[]",
          "name": "wads",
          "type": "uint256[]"
        }
      ],
      "name": "transferThrough",
      "outputs": [],
      "stateMutability": "nonpayable",
      "type": "function"
    },
    {
      "inputs": [
        {
          "internalType": "address",
          "name": "user",
          "type": "address"
        },
        {
          "internalType": "uint256",
          "name": "limit",
          "type": "uint256"
        }
      ],
      "name": "trust",
      "outputs": [],
      "stateMutability": "nonpayable",
      "type": "function"
    },
    {
      "inputs": [
        {
          "internalType": "address",
          "name": "",
          "type": "address"
        }
      ],
      "name": "userToToken",
      "outputs": [
        {
          "internalType": "contract Token",
          "name": "",
          "type": "address"
        }
      ],
      "stateMutability": "view",
      "type": "function"
    },
    {
      "inputs": [
        {
          "internalType": "address",
          "name": "",
          "type": "address"
        }
      ],
      "name": "validation",
      "outputs": [
        {
          "internalType": "bool",
          "name": "seen",
          "type": "bool"
        },
        {
          "internalType": "uint256",
          "name": "sent",
          "type": "uint256"
        },
        {
          "internalType": "uint256",
          "name": "received",
          "type": "uint256"
        }
      ],
      "stateMutability": "view",
      "type": "function"
    },
    {
      "inputs": [],
      "name": "getSeen",
      "outputs": [
        {
          "internalType": "uint256",
          "name": "",
          "type": "uint256"
        }
      ],
      "stateMutability": "view",
      "type": "function"
    },
    {
      "inputs": [
        {
          "internalType": "address",
          "name": "user",
          "type": "address"
        }
      ],
      "name": "getValidation",
      "outputs": [
        {
          "internalType": "bool",
          "name": "",
          "type": "bool"
        },
        {
          "internalType": "uint256",
          "name": "",
          "type": "uint256"
        },
        {
          "internalType": "uint256",
          "name": "",
          "type": "uint256"
        }
      ],
      "stateMutability": "view",
      "type": "function"
    }
  ],
  "bytecode": "0x60806040523480156200001157600080fd5b5060405162003f1d38038062003f1d833981810160405260c08110156200003757600080fd5b815160208301516040808501805191519395929483019291846401000000008211156200006357600080fd5b9083019060208201858111156200007957600080fd5b82516401000000008111828201881017156200009457600080fd5b82525081516020918201929091019080838360005b83811015620000c3578181015183820152602001620000a9565b50505050905090810190601f168015620000f15780820380516001836020036101000a031916815260200191505b5060409081526020820151908201516060909201516000889055909350909150858585858585620001228662000160565b600155600285905583516200013f9060039060208701906200058e565b5060049290925560055542600655600755506200062a975050505050505050565b6000805b60096200018c62000177600a84620001b0565b85620002e860201b6200135c1790919060201c565b11156200019c5760010162000164565b620001a9600a82620001b0565b9392505050565b600082620001c157506000620002e2565b81620001d057506001620002e2565b8160011415620001e2575081620002e2565b60015b6001831115620002c4576200020a6002846200033260201b6200139d1790919060201c565b6200024e576200022984856200037c60201b620013dc1790919060201c565b935062000246600284620002e860201b6200135c1790919060201c565b9250620002be565b6200026881856200037c60201b620013dc1790919060201c565b90506200028484856200037c60201b620013dc1790919060201c565b9350620002bb6002620002a7600186620003da60201b6200143a1790919060201c565b620002e860201b6200135c1790919060201c565b92505b620001e5565b620002de81856200037c60201b620013dc1790919060201c565b9150505b92915050565b6000620001a983836040518060400160405280601a81526020017f536166654d6174683a206469766973696f6e206279207a65726f0000000000008152506200042460201b60201c565b6000620001a983836040518060400160405280601881526020017f536166654d6174683a206d6f64756c6f206279207a65726f0000000000000000815250620004cb60201b60201c565b6000826200038d57506000620002e2565b828202828482816200039b57fe5b0414620001a95760405162461bcd60e51b815260040180806020018281038252602181526020018062003efc6021913960400191505060405180910390fd5b6000620001a983836040518060400160405280601e81526020017f536166654d6174683a207375627472616374696f6e206f766572666c6f7700008152506200053160201b60201c565b60008183620004b45760405162461bcd60e51b81526004018080602001828103825283818151815260200191508051906020019080838360005b83811015620004785781810151838201526020016200045e565b50505050905090810190601f168015620004a65780820380516001836020036101000a031916815260200191505b509250505060405180910390fd5b506000838581620004c157fe5b0495945050505050565b600081836200051d5760405162461bcd60e51b8152602060048201818152835160248401528351909283926044909101919085019080838360008315620004785781810151838201526020016200045e565b508284816200052857fe5b06949350505050565b60008184841115620005865760405162461bcd60e51b8152602060048201818152835160248401528351909283926044909101919085019080838360008315620004785781810151838201526020016200045e565b505050900390565b828054600181600116156101000203166002900490600052602060002090601f016020900481019282601f10620005d157805160ff191683800117855562000601565b8280016001018555821562000601579182015b8281111562000601578251825591602001919060010190620005e4565b506200060f92915062000613565b5090565b5b808211156200060f576000815560010162000614565b6138c2806200063a6000396000f3fe60806040523480156200001157600080fd5b5060043610620001785760003560e01c80637f501d0411620000db5780637f501d04146200032d578063863623bb146200034d5780638a0ef184146200035757806395d89b4114620003925780639951d62f1462000414578063a18b506b1462000443578063a3eb2b4a146200046c578063a4caeb42146200049d578063b7bc0f7314620004a7578063be0522e014620004b1578063d62fd9a214620004bb578063eae4c19f14620006f1578063ef78d4fd14620006fb578063fc22a9f814620007055762000178565b806316ada547146200017d5780631f2dc5ef146200019957806327cd4de114620001a357806328d249fe14620001ec5780632a93834214620002315780632e4c697f14620002575780633fbd653c146200027d5780634ee94b1d14620002895780635a1f7406146200029357806361c4b42114620002d057806367cb52d814620002f057806370dea79a14620002fa57806377ed63c21462000304575b600080fd5b620001876200070f565b60408051918252519081900360200190f35b6200018762000713565b620001cc60048036036020811015620001bb57600080fd5b50356001600160a01b031662000719565b604080519315158452602084019290925282820152519081900360600190f35b62000215600480360360208110156200020457600080fd5b50356001600160a01b031662000745565b604080516001600160a01b039092168252519081900360200190f35b62000187600480360360408110156200024957600080fd5b508035906020013562000760565b62000187600480360360408110156200026f57600080fd5b5080359060200135620007a8565b6200028762000868565b005b6200018762000952565b620002bc60048036036020811015620002ab57600080fd5b50356001600160a01b031662000958565b604080519115158252519081900360200190f35b6200018760048036036020811015620002e857600080fd5b50356200096d565b620001876200097d565b6200018762000983565b620001cc600480360360208110156200031c57600080fd5b50356001600160a01b031662000989565b62000215600480360360208110156200034557600080fd5b5035620009ae565b62000187620009d6565b62000187600480360360608110156200036f57600080fd5b506001600160a01b038135811691602081013582169160409091013516620009f4565b6200039c62000ce0565b6040805160208082528351818301528351919283929083019185019080838360005b83811015620003d8578181015183820152602001620003be565b50505050905090810190601f168015620004065780820380516001836020036101000a031916815260200191505b509250505060405180910390f35b62000287600480360360408110156200042c57600080fd5b506001600160a01b03813516906020013562000d72565b62000215600480360360208110156200045b57600080fd5b50356001600160a01b031662000f02565b62000187600480360360408110156200048457600080fd5b506001600160a01b038135811691602001351662000f1d565b6200018762000f3a565b6200028762000f5a565b62000187620010e6565b6200028760048036036080811015620004d357600080fd5b810190602081018135600160201b811115620004ee57600080fd5b8201836020820111156200050157600080fd5b803590602001918460208302840111600160201b831117156200052357600080fd5b9190808060200260200160405190810160405280939291908181526020018383602002808284376000920191909152509295949360208101935035915050600160201b8111156200057357600080fd5b8201836020820111156200058657600080fd5b803590602001918460208302840111600160201b83111715620005a857600080fd5b9190808060200260200160405190810160405280939291908181526020018383602002808284376000920191909152509295949360208101935035915050600160201b811115620005f857600080fd5b8201836020820111156200060b57600080fd5b803590602001918460208302840111600160201b831117156200062d57600080fd5b9190808060200260200160405190810160405280939291908181526020018383602002808284376000920191909152509295949360208101935035915050600160201b8111156200067d57600080fd5b8201836020820111156200069057600080fd5b803590602001918460208302840111600160201b83111715620006b257600080fd5b919080806020026020016040519081016040528093929190818152602001838360200280828437600092019190915250929550620010ec945050505050565b620001876200134a565b6200018762001350565b6200018762001356565b4290565b60015481565b6001600160a01b03166000908152600c602052604090208054600182015460029092015460ff90911692565b6008602052600090815260409020546001600160a01b031681565b6000806200077160005484620007a8565b905060006200078360015485620007a8565b90506200079d81620007968785620013dc565b906200135c565b925050505b92915050565b600082620007b957506000620007a2565b81620007c857506001620007a2565b8160011415620007da575081620007a2565b60015b60018311156200085457620007f48360026200139d565b6200081c57620008058480620013dc565b9350620008148360026200135c565b92506200084e565b620008288482620013dc565b9050620008368480620013dc565b93506200084b6002620007968560016200143a565b92505b620007dd565b620008608482620013dc565b949350505050565b336000908152600860205260409020546001600160a01b031615620008bf5760405162461bcd60e51b815260040180806020018281038252602b81526020018062003816602b913960400191505060405180910390fd5b336000908152600a602052604090205460ff1615620009105760405162461bcd60e51b815260040180806020018281038252602a815260200180620036d5602a913960400191505060405180910390fd5b336000818152600a6020526040808220805460ff19166001179055517fb0b94cff8b84fc67513b977d68a5cdd67550bd9b8d99a34b570e3367b78437869190a2565b600d5490565b600a6020526000908152604090205460ff1681565b6000620007a26005548362000760565b60045481565b60075481565b600c6020526000908152604090208054600182015460029092015460ff909116919083565b600d8181548110620009bc57fe5b6000918252602090912001546001600160a01b0316905081565b6000620009ef600554620009e962000f3a565b62000760565b905090565b6001600160a01b038082166000908152600b6020908152604080832093871683529290529081205462000a2a5750600062000cd9565b6001600160a01b038281166000908152600860205260409020541615801562000a6c57506001600160a01b0382166000908152600a602052604090205460ff16155b1562000a7b5750600062000cd9565b6001600160a01b038481166000908152600860205260409020541662000aa45750600062000cd9565b6001600160a01b0380851660009081526008602090815260408083205481516370a0823160e01b815288861660048201529151939416926370a0823192602480840193919291829003018186803b15801562000aff57600080fd5b505afa15801562000b14573d6000803e3d6000fd5b505050506040513d602081101562000b2b57600080fd5b505190506001600160a01b03858116908416148062000b6257506001600160a01b0383166000908152600a602052604090205460ff165b1562000b7057905062000cd9565b6001600160a01b0380861660009081526008602090815260408083205481516370a0823160e01b815288861660048201529151939416926370a0823192602480840193919291829003018186803b15801562000bcb57600080fd5b505afa15801562000be0573d6000803e3d6000fd5b505050506040513d602081101562000bf757600080fd5b50516001600160a01b038086166000818152600b602090815260408083208c86168452825280832054848452600883528184205482516370a0823160e01b815260048101969096529151969750929562000caf9560649562000796959493909116926370a0823192602480840193829003018186803b15801562000c7a57600080fd5b505afa15801562000c8f573d6000803e3d6000fd5b505050506040513d602081101562000ca657600080fd5b505190620013dc565b90508181101562000cc7576000935050505062000cd9565b62000cd381836200143a565b93505050505b9392505050565b6003805460408051602060026001851615610100026000190190941693909304601f8101849004840282018401909252818152929183018282801562000d6a5780601f1062000d3e5761010080835404028352916020019162000d6a565b820191906000526020600020905b81548152906001019060200180831162000d4c57829003601f168201915b505050505081565b336000908152600860205260409020546001600160a01b031615158062000da85750336000908152600a602052604090205460ff165b62000de55760405162461bcd60e51b8152600401808060200182810382526031815260200180620036ff6031913960400191505060405180910390fd5b336001600160a01b038316141562000e41576040805162461bcd60e51b815260206004820152601a6024820152792cb7ba9031b0b713ba103ab73a393ab9ba103cb7bab939b2b63360311b604482015290519081900360640190fd5b6001600160a01b0382166000908152600a602052604090205460ff161562000eb0576040805162461bcd60e51b815260206004820152601f60248201527f596f752063616e277420747275737420616e206f7267616e697a6174696f6e00604482015290519081900360640190fd5b606481111562000ef25760405162461bcd60e51b8152600401808060200182810382526025815260200180620037c86025913960400191505060405180910390fd5b62000efe82826200147e565b5050565b6009602052600090815260409020546001600160a01b031681565b600b60209081526000928352604080842090915290825290205481565b6000620009ef60025462000796600654426200143a90919063ffffffff16565b336000908152600860205260409020546001600160a01b03161562000fc0576040805162461bcd60e51b8152602060048201526017602482015276596f752063616e2774207369676e20757020747769636560481b604482015290519081900360640190fd5b336000908152600a602052604090205460ff1615620010115760405162461bcd60e51b815260040180806020018281038252602b81526020018062003841602b913960400191505060405180910390fd5b600033604051620010229062001e4c565b6001600160a01b03909116815260405190819003602001906000f08015801562001050573d6000803e3d6000fd5b5033600081815260086020908152604080832080546001600160a01b0387166001600160a01b031991821681179092559084526009909252909120805490911682179055909150620010a49060646200147e565b604080516001600160a01b0383168152905133917f358ba8f768af134eb5af120e9a61dc1ef29b29f597f047b555fc3675064a0342919081900360200190a250565b60005481565b83518251146200112e5760405162461bcd60e51b815260040180806020018281038252602a81526020018062003730602a913960400191505060405180910390fd5b8351835114620011705760405162461bcd60e51b8152600401808060200182810382526029815260200180620036ac6029913960400191505060405180910390fd5b8351815114620011b25760405162461bcd60e51b815260040180806020018281038252602c8152602001806200375a602c913960400191505060405180910390fd5b60005b835181101562001337576000848281518110620011ce57fe5b602002602001015190506000848381518110620011e757fe5b6020026020010151905060008784815181106200120057fe5b6020026020010151905060008585815181106200121957fe5b60200260200101519050600062001232838686620009f4565b90508082111562001281576040805162461bcd60e51b8152602060048201526014602482015273151c9d5cdd081b1a5b5a5d08195e18d95959195960621b604482015290519081900360640190fd5b6200128e858584620014e0565b6001600160a01b0380841660009081526008602090815260408083205481516308299c0f60e21b81528a8616600482015289861660248201526044810188905291519416936320a6703c93606480840194938390030190829087803b158015620012f757600080fd5b505af11580156200130c573d6000803e3d6000fd5b505050506040513d60208110156200132357600080fd5b505060019095019450620011b59350505050565b5062001344835162001695565b50505050565b60065481565b60025481565b60055481565b600062000cd983836040518060400160405280601a815260200179536166654d6174683a206469766973696f6e206279207a65726f60301b81525062001c89565b600062000cd9838360405180604001604052806018815260200177536166654d6174683a206d6f64756c6f206279207a65726f60401b81525062001d30565b600082620013ed57506000620007a2565b82820282848281620013fb57fe5b041462000cd95760405162461bcd60e51b8152600401808060200182810382526021815260200180620037866021913960400191505060405180910390fd5b600062000cd983836040518060400160405280601e81526020017f536166654d6174683a207375627472616374696f6e206f766572666c6f77000081525062001d96565b336000818152600b602090815260408083206001600160a01b03871680855290835292819020859055805185815290519293927fe60c754dd8ab0b1b5fccba257d6ebcd7d09e360ab7dd7a6e58198ca1f57cdcec929181900390910190a35050565b6001600160a01b0383166000908152600c602052604090205460ff16156200154c576001600160a01b0383166000908152600c60205260409020600101546200152a908262001df3565b6001600160a01b0384166000908152600c6020526040902060010155620015b7565b6001600160a01b0383166000818152600c60205260408120805460ff191660019081178255908101849055600d805491820181559091527fd7b6990105719101dabeb77144f2a3385c8033acd3af97e9423a695e81ad1eb50180546001600160a01b03191690911790555b6001600160a01b0382166000908152600c602052604090205460ff161562001623576001600160a01b0382166000908152600c602052604090206002015462001601908262001df3565b6001600160a01b0383166000908152600c602052604090206002015562001690565b6001600160a01b0382166000818152600c60205260408120805460ff1916600190811782556002909101849055600d805491820181559091527fd7b6990105719101dabeb77144f2a3385c8033acd3af97e9423a695e81ad1eb50180546001600160a01b03191690911790555b505050565b60008060005b600d548110156200189157620016b062001e5a565b600c6000600d8481548110620016c257fe5b60009182526020808320909101546001600160a01b0316835282810193909352604091820190208151606081018352815460ff1615158152600182015493810184905260029091015491810182905292501015620017f3576001600160a01b03841615620017625760405162461bcd60e51b8152600401808060200182810382526021815260200180620037a76021913960400191505060405180910390fd5b336001600160a01b0316600d83815481106200177a57fe5b6000918252602090912001546001600160a01b031614620017cd5760405162461bcd60e51b8152600401808060200182810382526029815260200180620037ed6029913960400191505060405180910390fd5b600d8281548110620017db57fe5b6000918252602090912001546001600160a01b031693505b80602001518160400151111562001887576001600160a01b0383161562001861576040805162461bcd60e51b815260206004820181905260248201527f506174682073656e647320746f206d6f7265207468616e206f6e652064657374604482015290519081900360640190fd5b600d82815481106200186f57fe5b6000918252602090912001546001600160a01b031692505b506001016200169b565b506001600160a01b038216620018ec576040805162461bcd60e51b815260206004820152601b60248201527a5472616e73616374696f6e206d757374206861766520612073726360281b604482015290519081900360640190fd5b6001600160a01b03811662001948576040805162461bcd60e51b815260206004820152601c60248201527f5472616e73616374696f6e206d75737420686176652061206465737400000000604482015290519081900360640190fd5b6001600160a01b0382166000908152600c602052604090206002015415620019ad576040805162461bcd60e51b815260206004820152601360248201527253656e64657220697320726563656976696e6760681b604482015290519081900360640190fd5b6001600160a01b0381166000908152600c60205260409020600101541562001a13576040805162461bcd60e51b8152602060048201526014602482015273526563697069656e742069732073656e64696e6760601b604482015290519081900360640190fd5b6001600160a01b038082166000908152600c60205260408082206002015492851682529020600101541462001a7a5760405162461bcd60e51b81526004018080602001828103825260218152602001806200386c6021913960400191505060405180910390fd5b600d5460018401101562001acf576040805162461bcd60e51b81526020600482015260176024820152765365656e20746f6f206d616e792061646472657373657360481b604482015290519081900360640190fd5b6001600160a01b038281166000818152600c60209081526040918290206001015482519081529151938516937f8451019aab65b4193860ef723cb0d56b475a26a72b7bfc55c1dbd6121015285a9281900390910190a3600d545b6001811062001c3b576000600c6000600d600185038154811062001b4957fe5b60009182526020808320909101546001600160a01b03168352820192909252604001812060010191909155600d8054600c918391600019860190811062001b8c57fe5b60009182526020808320909101546001600160a01b03168352820192909252604001812060020191909155600d8054600c918391600019860190811062001bcf57fe5b6000918252602080832091909101546001600160a01b031683528201929092526040019020805460ff1916911515919091179055600d80548062001c0f57fe5b600082815260209020810160001990810180546001600160a01b03191690559081019091550162001b29565b50600d541562001690576040805162461bcd60e51b81526020600482015260146024820152735365656e2073686f756c6420626520656d70747960601b604482015290519081900360640190fd5b6000818362001d195760405162461bcd60e51b81526004018080602001828103825283818151815260200191508051906020019080838360005b8381101562001cdd57818101518382015260200162001cc3565b50505050905090810190601f16801562001d0b5780820380516001836020036101000a031916815260200191505b509250505060405180910390fd5b50600083858162001d2657fe5b0495945050505050565b6000818362001d825760405162461bcd60e51b815260206004820181815283516024840152835190928392604490910191908501908083836000831562001cdd57818101518382015260200162001cc3565b5082848162001d8d57fe5b06949350505050565b6000818484111562001deb5760405162461bcd60e51b815260206004820181815283516024840152835190928392604490910191908501908083836000831562001cdd57818101518382015260200162001cc3565b505050900390565b60008282018381101562000cd9576040805162461bcd60e51b815260206004820152601b60248201527a536166654d6174683a206164646974696f6e206f766572666c6f7760281b604482015290519081900360640190fd5b61182e8062001e7e83390190565b60405180606001604052806000151581526020016000815260200160008152509056fe60806040526004805461ff0019166112001790553480156200002057600080fd5b506040516200182e3803806200182e833981810160405260208110156200004657600080fd5b50516001600160a01b0381166200005c57600080fd5b600780546001600160a01b0383166001600160a01b03199182161790915560068054909116331790556200008f6200019e565b6005556200009c620001a2565b6008556006546040805163863623bb60e01b815290516001600160a01b039092169163863623bb91600480820192602092909190829003018186803b158015620000e557600080fd5b505afa158015620000fa573d6000803e3d6000fd5b505050506040513d60208110156200011157600080fd5b505160095560065460408051630cf96a5b60e31b81529051620001979284926001600160a01b03909116916367cb52d891600480820192602092909190829003018186803b1580156200016357600080fd5b505afa15801562000178573d6000803e3d6000fd5b505050506040513d60208110156200018f57600080fd5b505162000221565b50620005e1565b4290565b600080620001f6620001b362000330565b620001c4620001d8600182620003a9565b620003ef60201b62000b4d1790919060201c565b620001e262000453565b6200049960201b62000ba51790919060201c565b90506200021b620002066200019e565b82620004f760201b62000bfe1790919060201c565b91505090565b6001600160a01b0382166200027d576040805162461bcd60e51b815260206004820152601f60248201527f45524332303a206d696e7420746f20746865207a65726f206164647265737300604482015290519081900360640190fd5b6200028b6000838362000541565b620002a781600254620003ef60201b62000b4d1790919060201c565b6002556001600160a01b03821660009081526020818152604090912054620002da91839062000b4d620003ef821b17901c565b6001600160a01b0383166000818152602081815260408083209490945583518581529351929391927fddf252ad1be2c89b69c2b068fc378daa952ba7f163c4a11628f55a4df523b3ef9281900390910190a35050565b6006546040805163eae4c19f60e01b815290516000926001600160a01b03169163eae4c19f916004808301926020929190829003018186803b1580156200037657600080fd5b505afa1580156200038b573d6000803e3d6000fd5b505050506040513d6020811015620003a257600080fd5b5051905090565b6006546040805163526575a160e11b815290516000926001600160a01b03169163a4caeb42916004808301926020929190829003018186803b1580156200037657600080fd5b6000828201838110156200044a576040805162461bcd60e51b815260206004820152601b60248201527f536166654d6174683a206164646974696f6e206f766572666c6f770000000000604482015290519081900360640190fd5b90505b92915050565b6006546040805163ef78d4fd60e01b815290516000926001600160a01b03169163ef78d4fd916004808301926020929190829003018186803b1580156200037657600080fd5b600082620004aa575060006200044d565b82820282848281620004b857fe5b04146200044a5760405162461bcd60e51b81526004018080602001828103825260218152602001806200180d6021913960400191505060405180910390fd5b60006200044a83836040518060400160405280601e81526020017f536166654d6174683a207375627472616374696f6e206f766572666c6f7700008152506200054660201b60201c565b505050565b60008184841115620005d95760405162461bcd60e51b81526004018080602001828103825283818151815260200191508051906020019080838360005b838110156200059d57818101518382015260200162000583565b50505050905090810190601f168015620005cb5780820380516001836020036101000a031916815260200191505b509250505060405180910390fd5b505050900390565b61121c80620005f16000396000f3fe608060405234801561001057600080fd5b50600436106101595760003560e01c80636c050eae116100c95780636c050eae146102c457806370a08231146102cc57806370dea79a146102f257806375f12b21146102fa5780638b4eed81146103025780638da5cb5b1461030a57806395d89b4114610312578063a2e620451461038f578063a457c2d714610397578063a4caeb42146103c3578063a9059cbb146103cb578063d4048089146103f7578063dd62ed3e146103ff578063ef78d4fd1461042d57610159565b806307da68f51461015e578063095ea7b3146101685780630b0aaf27146101a8578063107129dd146101c257806316ada547146101ca57806318160ddd146101d257806320a6703c146101da57806323b872dd14610210578063313ce56714610246578063365a86fc1461026457806339509351146102885780633b6fe91f146102b457806341c30546146102bc575b600080fd5b610166610435565b005b6101946004803603604081101561017e57600080fd5b506001600160a01b03813516906020013561045b565b604080519115158252519081900360200190f35b6101b0610472565b60408051918252519081900360200190f35b6101b061049f565b6101b06104a5565b6101b06104a9565b610194600480360360608110156101f057600080fd5b506001600160a01b038135811691602081013590911690604001356104af565b6101946004803603606081101561022657600080fd5b506001600160a01b038135811691602081013590911690604001356104db565b61024e610544565b6040805160ff9092168252519081900360200190f35b61026c610552565b604080516001600160a01b039092168252519081900360200190f35b6101946004803603604081101561029e57600080fd5b506001600160a01b038135169060200135610561565b6101b0610597565b6101b061060d565b6101b0610659565b6101b0600480360360208110156102e257600080fd5b50356001600160a01b031661078f565b6101b06107aa565b6101946107ef565b6101b0610838565b61026c61083e565b61031a61084d565b6040805160208082528351818301528351919283929083019185019080838360005b8381101561035457818101518382015260200161033c565b50505050905090810190601f1680156103815780820380516001836020036101000a031916815260200191505b509250505060405180910390f35b610166610982565b610194600480360360408110156103ad57600080fd5b506001600160a01b038135169060200135610a37565b6101b0610a86565b610194600480360360408110156103e157600080fd5b506001600160a01b038135169060200135610acb565b6101b0610ad7565b6101b06004803603604081101561041557600080fd5b506001600160a01b0381358116916020013516610add565b6101b0610b08565b6007546001600160a01b0316331461044c57600080fd5b600a805460ff19166001179055565b6000610468338484610c40565b5060015b92915050565b600061049961047f610b08565b61049361048a610597565b60055490610bfe565b90610d2c565b90505b90565b60085481565b4290565b60025490565b6006546000906001600160a01b031633146104c957600080fd5b6104d4848484610d6b565b9392505050565b60006104e8848484610d6b565b61053a843361053585604051806060016040528060288152602001611151602891396001600160a01b038a1660009081526001602090815260408083203384529091529020549190610ec6565b610c40565b5060019392505050565b600454610100900460ff1681565b6006546001600160a01b031681565b3360008181526001602090815260408083206001600160a01b038716845290915281205490916104689185906105359086610b4d565b6006546040805163eae4c19f60e01b815290516000926001600160a01b03169163eae4c19f916004808301926020929190829003018186803b1580156105dc57600080fd5b505afa1580156105f0573d6000803e3d6000fd5b505050506040513d602081101561060657600080fd5b5051905090565b60008061063f61061b610597565b61062b610631600161062b610a86565b90610b4d565b610639610b08565b90610ba5565b905061065361064c6104a5565b8290610bfe565b91505090565b60006106636107ef565b156106705750600061049c565b600554600854600954600092919083610687610472565b90505b6106926104a5565b61069c8585610b4d565b1161075a576106b56106ae8484610ba5565b8690610b4d565b94506106c18484610b4d565b93506106cb610b08565b92506106d8816001610b4d565b600654604080516361c4b42160e01b81526004810184905290519293506001600160a01b03909116916361c4b42191602480820192602092909190829003018186803b15801561072757600080fd5b505afa15801561073b573d6000803e3d6000fd5b505050506040513d602081101561075157600080fd5b5051915061068a565b600061076e856107686104a5565b90610bfe565b905061078461077d8285610ba5565b8790610b4d565b965050505050505090565b6001600160a01b031660009081526020819052604090205490565b6006546040805163386f53cd60e11b815290516000926001600160a01b0316916370dea79a916004808301926020929190829003018186803b1580156105dc57600080fd5b600a5460009060ff16156108055750600161049c565b60006108156005546107686104a5565b905061081f6107aa565b81111561083057600191505061049c565b600091505090565b60055481565b6007546001600160a01b031681565b600654604080516395d89b4160e01b815290516060926001600160a01b0316916395d89b41916004808301926000929190829003018186803b15801561089257600080fd5b505afa1580156108a6573d6000803e3d6000fd5b505050506040513d6000823e601f3d908101601f1916820160405260208110156108cf57600080fd5b8101908080516040519392919084600160201b8211156108ee57600080fd5b90830190602082018581111561090357600080fd5b8251600160201b81118282018810171561091c57600080fd5b82525081516020918201929091019080838360005b83811015610949578181015183820152602001610931565b50505050905090810190601f1680156109765780820380516001836020036101000a031916815260200191505b50604052505050905090565b600061098c610659565b90508015610a345761099c61060d565b6008556109a76104a5565b6005556006546040805163863623bb60e01b815290516001600160a01b039092169163863623bb91600480820192602092909190829003018186803b1580156109ef57600080fd5b505afa158015610a03573d6000803e3d6000fd5b505050506040513d6020811015610a1957600080fd5b5051600955600754610a34906001600160a01b031682610f5d565b50565b60006104683384610535856040518060600160405280602581526020016111c2602591393360009081526001602090815260408083206001600160a01b038d1684529091529020549190610ec6565b6006546040805163526575a160e11b815290516000926001600160a01b03169163a4caeb42916004808301926020929190829003018186803b1580156105dc57600080fd5b60006104d4838361104d565b60095481565b6001600160a01b03918216600090815260016020908152604080832093909416825291909152205490565b6006546040805163ef78d4fd60e01b815290516000926001600160a01b03169163ef78d4fd916004808301926020929190829003018186803b1580156105dc57600080fd5b6000828201838110156104d4576040805162461bcd60e51b815260206004820152601b60248201527a536166654d6174683a206164646974696f6e206f766572666c6f7760281b604482015290519081900360640190fd5b600082610bb45750600061046c565b82820282848281610bc157fe5b04146104d45760405162461bcd60e51b81526004018080602001828103825260218152602001806111306021913960400191505060405180910390fd5b60006104d483836040518060400160405280601e81526020017f536166654d6174683a207375627472616374696f6e206f766572666c6f770000815250610ec6565b6001600160a01b038316610c855760405162461bcd60e51b815260040180806020018281038252602481526020018061119e6024913960400191505060405180910390fd5b6001600160a01b038216610cca5760405162461bcd60e51b81526004018080602001828103825260228152602001806110e86022913960400191505060405180910390fd5b6001600160a01b03808416600081815260016020908152604080832094871680845294825291829020859055815185815291517f8c5be1e5ebec7d5bd14f71427d1e84f3dd0314c0f7b2291e5b200ac8c7c3b9259281900390910190a3505050565b60006104d483836040518060400160405280601a815260200179536166654d6174683a206469766973696f6e206279207a65726f60301b81525061105a565b6001600160a01b038316610db05760405162461bcd60e51b81526004018080602001828103825260258152602001806111796025913960400191505060405180910390fd5b6001600160a01b038216610df55760405162461bcd60e51b81526004018080602001828103825260238152602001806110c56023913960400191505060405180910390fd5b610e008383836110bf565b610e3d8160405180606001604052806026815260200161110a602691396001600160a01b0386166000908152602081905260409020549190610ec6565b6001600160a01b038085166000908152602081905260408082209390935590841681522054610e6c9082610b4d565b6001600160a01b038084166000818152602081815260409182902094909455805185815290519193928716927fddf252ad1be2c89b69c2b068fc378daa952ba7f163c4a11628f55a4df523b3ef92918290030190a3505050565b60008184841115610f555760405162461bcd60e51b81526004018080602001828103825283818151815260200191508051906020019080838360005b83811015610f1a578181015183820152602001610f02565b50505050905090810190601f168015610f475780820380516001836020036101000a031916815260200191505b509250505060405180910390fd5b505050900390565b6001600160a01b038216610fb8576040805162461bcd60e51b815260206004820152601f60248201527f45524332303a206d696e7420746f20746865207a65726f206164647265737300604482015290519081900360640190fd5b610fc4600083836110bf565b600254610fd19082610b4d565b6002556001600160a01b038216600090815260208190526040902054610ff79082610b4d565b6001600160a01b0383166000818152602081815260408083209490945583518581529351929391927fddf252ad1be2c89b69c2b068fc378daa952ba7f163c4a11628f55a4df523b3ef9281900390910190a35050565b6000610468338484610d6b565b600081836110a95760405162461bcd60e51b8152602060048201818152835160248401528351909283926044909101919085019080838360008315610f1a578181015183820152602001610f02565b5060008385816110b557fe5b0495945050505050565b50505056fe45524332303a207472616e7366657220746f20746865207a65726f206164647265737345524332303a20617070726f766520746f20746865207a65726f206164647265737345524332303a207472616e7366657220616d6f756e7420657863656564732062616c616e6365536166654d6174683a206d756c7469706c69636174696f6e206f766572666c6f7745524332303a207472616e7366657220616d6f756e74206578636565647320616c6c6f77616e636545524332303a207472616e736665722066726f6d20746865207a65726f206164647265737345524332303a20617070726f76652066726f6d20746865207a65726f206164647265737345524332303a2064656372656173656420616c6c6f77616e63652062656c6f77207a65726fa26469706673582212202e22c1bdd05753be276c3183b7e4cdb038dbdf9ca4958ee4c21163799f13556264736f6c63430007010033536166654d6174683a206d756c7469706c69636174696f6e206f766572666c6f77546f6b656e73206172726179206c656e677468206d75737420657175616c2073726373206172726179596f752063616e2774207369676e20757020617320616e206f7267616e697a6174696f6e207477696365596f752063616e206f6e6c792074727573742070656f706c6520616674657220796f75277665207369676e656420757021546f6b656e73206172726179206c656e677468206d75737420657175616c206465737473206172726179546f6b656e73206172726179206c656e677468206d75737420657175616c20616d6f756e7473206172726179536166654d6174683a206d756c7469706c69636174696f6e206f766572666c6f77506174682073656e64732066726f6d206d6f7265207468616e206f6e65207372634c696d6974206d75737420626520612070657263656e74616765206f7574206f66203130305061746820646f65736e27742073656e642066726f6d207472616e73616374696f6e2073656e6465724e6f726d616c2075736572732063616e6e6f74207369676e7570206173206f7267616e697a6174696f6e734f7267616e697a6174696f6e732063616e6e6f74207369676e7570206173206e6f726d616c207573657273556e657175616c2073656e7420616e6420726563656976656420616d6f756e7473a2646970667358221220d479494cbfebcbb0b080069d97451595c885f89c9d64e52b59376021ade8991764736f6c63430007010033536166654d6174683a206d756c7469706c69636174696f6e206f766572666c6f77",
  "immutableReferences": {},
  "source": "// SPDX-License-Identifier: AGPL\npragma solidity ^0.7.0;\nimport \"../Hub.sol\";\n\ncontract MockHub is Hub {\n    constructor(\n        uint256 _inflation,\n        uint256 _period,\n        string memory _symbol,\n        uint256 _initialPayout,\n        uint256 _startingRate,\n        uint256 _timeout\n    )\n    Hub(_inflation, _period, _symbol, _initialPayout, _startingRate, _timeout)\n    {\n\n    }\n\n    function getSeen() public view returns (uint256) {\n        return seen.length;\n    }\n\n    function getValidation(address user) public view returns (bool, uint256, uint256) {\n        return (validation[user].seen, validation[user].sent, validation[user].received);\n    }\n}",
  "sourcePath": "/media/000/Documents/Circles/circles-contracts/contracts/mocks/MockHub.sol",
  "compiler": {
    "name": "solc",
    "version": "0.7.1+commit.f4a555be.Emscripten.clang"
  },
  "schemaVersion": "3.2.3",
  "updatedAt": "2020-09-29T18:05:28.811Z",
  "devdoc": {
    "kind": "dev",
    "methods": {
      "checkSendLimit(address,address,address)": {
        "details": "the goal of this function is to always return a sensible number, it's used to validate transfer throughs, and also heavily in the graph/pathfinding services",
        "params": {
          "dest": "the recipient of the tokens",
          "src": "the sender of the tokens",
          "tokenOwner": "the safe/owner that the token was minted to"
        },
        "returns": {
          "_0": "the amount of tokenowner's token src can send to dest"
        }
      },
      "inflate(uint256,uint256)": {
        "details": "this is basically the calculation for compound interest, with some adjustments because of integer math",
        "params": {
          "_initial": "the starting issuance rate",
          "_periods": "the step to calculate the issuance rate as of"
        },
        "returns": {
          "_0": "initial issuance rate as if interest (inflation) has been compounded period times"
        }
      },
      "issuance()": {
        "details": "current issuance is the initial issuance inflated by the amount of inflation periods since the hub was deployed",
        "returns": {
          "_0": "current issuance rate"
        }
      },
      "issuanceByStep(uint256)": {
        "params": {
          "_periods": "the step to calculate the issuance rate at"
        },
        "returns": {
          "_0": "inflation rate as of the given period"
        }
      },
      "organizationSignup()": {
        "details": "signup is permanent for organizations too, there's no way to unsignup"
      },
      "periods()": {
        "returns": {
          "_0": "the amount of periods since hub was deployed"
        }
      },
      "pow(uint256,uint256)": {
        "details": "this is an implementation of exponentiation by squares",
        "params": {
          "base": "the base to be used in the calculation",
          "exponent": "the exponent to be used in the calculation"
        },
        "returns": {
          "_0": "the result of the calculation"
        }
      },
      "signup()": {
        "details": "signup is permanent, there's no way to unsignup"
      },
      "time()": {
        "returns": {
          "_0": "the block timestamp"
        }
      },
      "transferThrough(address[],address[],address[],uint256[])": {
        "details": "tokenOwners[0], srcs[0], dests[0], and wads[0] constitute a transaction step",
        "params": {
          "dests": "the recipient of each transaction step",
          "srcs": "the sender of each transaction step",
          "tokenOwners": "the owner of the tokens being sent in each transaction step",
          "wads": "the amount for each transaction step"
        }
      },
      "trust(address,uint256)": {
        "details": "the trust graph is weighted and directed",
        "params": {
          "limit": "the amount this user is trusted, as a percentage of 100",
          "user": "the user to be trusted"
        }
      }
    },
    "version": 1
  },
  "userdoc": {
    "kind": "user",
    "methods": {
      "checkSendLimit(address,address,address)": {
        "notice": "finds the maximum amount of a specific token that can be sent between two users"
      },
      "inflate(uint256,uint256)": {
        "notice": "find the current issuance rate for any initial issuance and amount of periods"
      },
      "issuance()": {
        "notice": "calculates the current issuance rate per second"
      },
      "issuanceByStep(uint256)": {
        "notice": "finds the inflation rate at a given inflation period"
      },
      "organizationSignup()": {
        "notice": "register an organization address with the hub and join the trust graph"
      },
      "periods()": {
        "notice": "helper function for finding the amount of inflation periods since this hub was deployed"
      },
      "signup()": {
        "notice": "signup to this circles hub - create a circles token and join the trust graph"
      },
      "time()": {
        "notice": "helper function to return the block timestamp"
      },
      "transferThrough(address[],address[],address[],uint256[])": {
        "notice": "walks through tokenOwners, srcs, dests, and amounts array and executes transtive transfer"
      },
      "trust(address,uint256)": {
        "notice": "trust a user, calling this means you're able to receive tokens from this user transitively"
      }
    },
    "version": 1
  }
}