{
  "contractName": "MockHub",
  "abi": [
    {
      "inputs": [
        {
          "internalType": "uint256",
          "name": "_inflation",
          "type": "uint256"
        },
        {
          "internalType": "uint256",
          "name": "_period",
          "type": "uint256"
        },
        {
          "internalType": "string",
          "name": "_symbol",
          "type": "string"
        },
        {
          "internalType": "uint256",
          "name": "_initialPayout",
          "type": "uint256"
        },
        {
          "internalType": "uint256",
          "name": "_startingRate",
          "type": "uint256"
        },
        {
          "internalType": "uint256",
          "name": "_timeout",
          "type": "uint256"
        }
      ],
      "stateMutability": "nonpayable",
      "type": "constructor"
    },
    {
      "anonymous": false,
      "inputs": [
        {
          "indexed": true,
          "internalType": "address",
          "name": "from",
          "type": "address"
        },
        {
          "indexed": true,
          "internalType": "address",
          "name": "to",
          "type": "address"
        },
        {
          "indexed": false,
          "internalType": "uint256",
          "name": "amount",
          "type": "uint256"
        }
      ],
      "name": "HubTransfer",
      "type": "event"
    },
    {
      "anonymous": false,
      "inputs": [
        {
          "indexed": true,
          "internalType": "address",
          "name": "organization",
          "type": "address"
        }
      ],
      "name": "OrganizationSignup",
      "type": "event"
    },
    {
      "anonymous": false,
      "inputs": [
        {
          "indexed": true,
          "internalType": "address",
          "name": "user",
          "type": "address"
        },
        {
          "indexed": false,
          "internalType": "address",
          "name": "token",
          "type": "address"
        }
      ],
      "name": "Signup",
      "type": "event"
    },
    {
      "anonymous": false,
      "inputs": [
        {
          "indexed": true,
          "internalType": "address",
          "name": "canSendTo",
          "type": "address"
        },
        {
          "indexed": true,
          "internalType": "address",
          "name": "user",
          "type": "address"
        },
        {
          "indexed": false,
          "internalType": "uint256",
          "name": "limit",
          "type": "uint256"
        }
      ],
      "name": "Trust",
      "type": "event"
    },
    {
      "inputs": [
        {
          "internalType": "address",
          "name": "tokenOwner",
          "type": "address"
        },
        {
          "internalType": "address",
          "name": "src",
          "type": "address"
        },
        {
          "internalType": "address",
          "name": "dest",
          "type": "address"
        }
      ],
      "name": "checkSendLimit",
      "outputs": [
        {
          "internalType": "uint256",
          "name": "",
          "type": "uint256"
        }
      ],
      "stateMutability": "view",
      "type": "function"
    },
    {
      "inputs": [],
      "name": "deployedAt",
      "outputs": [
        {
          "internalType": "uint256",
          "name": "",
          "type": "uint256"
        }
      ],
      "stateMutability": "view",
      "type": "function"
    },
    {
      "inputs": [],
      "name": "divisor",
      "outputs": [
        {
          "internalType": "uint256",
          "name": "",
          "type": "uint256"
        }
      ],
      "stateMutability": "view",
      "type": "function"
    },
    {
      "inputs": [
        {
          "internalType": "uint256",
          "name": "_initial",
          "type": "uint256"
        },
        {
          "internalType": "uint256",
          "name": "_periods",
          "type": "uint256"
        }
      ],
      "name": "inflate",
      "outputs": [
        {
          "internalType": "uint256",
          "name": "",
          "type": "uint256"
        }
      ],
      "stateMutability": "view",
      "type": "function"
    },
    {
      "inputs": [],
      "name": "inflation",
      "outputs": [
        {
          "internalType": "uint256",
          "name": "",
          "type": "uint256"
        }
      ],
      "stateMutability": "view",
      "type": "function"
    },
    {
      "inputs": [],
      "name": "initialIssuance",
      "outputs": [
        {
          "internalType": "uint256",
          "name": "",
          "type": "uint256"
        }
      ],
      "stateMutability": "view",
      "type": "function"
    },
    {
      "inputs": [],
      "name": "issuance",
      "outputs": [
        {
          "internalType": "uint256",
          "name": "",
          "type": "uint256"
        }
      ],
      "stateMutability": "view",
      "type": "function"
    },
    {
      "inputs": [
        {
          "internalType": "uint256",
          "name": "_periods",
          "type": "uint256"
        }
      ],
      "name": "issuanceStep",
      "outputs": [
        {
          "internalType": "uint256",
          "name": "",
          "type": "uint256"
        }
      ],
      "stateMutability": "view",
      "type": "function"
    },
    {
      "inputs": [
        {
          "internalType": "address",
          "name": "",
          "type": "address"
        },
        {
          "internalType": "address",
          "name": "",
          "type": "address"
        }
      ],
      "name": "limits",
      "outputs": [
        {
          "internalType": "uint256",
          "name": "",
          "type": "uint256"
        }
      ],
      "stateMutability": "view",
      "type": "function"
    },
    {
      "inputs": [],
      "name": "organizationSignup",
      "outputs": [],
      "stateMutability": "nonpayable",
      "type": "function"
    },
    {
      "inputs": [
        {
          "internalType": "address",
          "name": "",
          "type": "address"
        }
      ],
      "name": "organizations",
      "outputs": [
        {
          "internalType": "bool",
          "name": "",
          "type": "bool"
        }
      ],
      "stateMutability": "view",
      "type": "function"
    },
    {
      "inputs": [],
      "name": "period",
      "outputs": [
        {
          "internalType": "uint256",
          "name": "",
          "type": "uint256"
        }
      ],
      "stateMutability": "view",
      "type": "function"
    },
    {
      "inputs": [],
      "name": "periods",
      "outputs": [
        {
          "internalType": "uint256",
          "name": "",
          "type": "uint256"
        }
      ],
      "stateMutability": "view",
      "type": "function"
    },
    {
      "inputs": [
        {
          "internalType": "uint256",
          "name": "base",
          "type": "uint256"
        },
        {
          "internalType": "uint256",
          "name": "exponent",
          "type": "uint256"
        }
      ],
      "name": "pow",
      "outputs": [
        {
          "internalType": "uint256",
          "name": "",
          "type": "uint256"
        }
      ],
      "stateMutability": "pure",
      "type": "function"
    },
    {
      "inputs": [
        {
          "internalType": "uint256",
          "name": "",
          "type": "uint256"
        }
      ],
      "name": "seen",
      "outputs": [
        {
          "internalType": "address",
          "name": "",
          "type": "address"
        }
      ],
      "stateMutability": "view",
      "type": "function"
    },
    {
      "inputs": [],
      "name": "signup",
      "outputs": [],
      "stateMutability": "nonpayable",
      "type": "function"
    },
    {
      "inputs": [],
      "name": "signupBonus",
      "outputs": [
        {
          "internalType": "uint256",
          "name": "",
          "type": "uint256"
        }
      ],
      "stateMutability": "view",
      "type": "function"
    },
    {
      "inputs": [],
      "name": "symbol",
      "outputs": [
        {
          "internalType": "string",
          "name": "",
          "type": "string"
        }
      ],
      "stateMutability": "view",
      "type": "function"
    },
    {
      "inputs": [],
      "name": "time",
      "outputs": [
        {
          "internalType": "uint256",
          "name": "",
          "type": "uint256"
        }
      ],
      "stateMutability": "view",
      "type": "function"
    },
    {
      "inputs": [],
      "name": "timeout",
      "outputs": [
        {
          "internalType": "uint256",
          "name": "",
          "type": "uint256"
        }
      ],
      "stateMutability": "view",
      "type": "function"
    },
    {
      "inputs": [
        {
          "internalType": "address",
          "name": "",
          "type": "address"
        }
      ],
      "name": "tokenToUser",
      "outputs": [
        {
          "internalType": "address",
          "name": "",
          "type": "address"
        }
      ],
      "stateMutability": "view",
      "type": "function"
    },
    {
      "inputs": [
        {
          "internalType": "address[]",
          "name": "tokenOwners",
          "type": "address[]"
        },
        {
          "internalType": "address[]",
          "name": "srcs",
          "type": "address[]"
        },
        {
          "internalType": "address[]",
          "name": "dests",
          "type": "address[]"
        },
        {
          "internalType": "uint256[]",
          "name": "wads",
          "type": "uint256[]"
        }
      ],
      "name": "transferThrough",
      "outputs": [],
      "stateMutability": "nonpayable",
      "type": "function"
    },
    {
      "inputs": [
        {
          "internalType": "address",
          "name": "user",
          "type": "address"
        },
        {
          "internalType": "uint256",
          "name": "limit",
          "type": "uint256"
        }
      ],
      "name": "trust",
      "outputs": [],
      "stateMutability": "nonpayable",
      "type": "function"
    },
    {
      "inputs": [
        {
          "internalType": "address",
          "name": "",
          "type": "address"
        }
      ],
      "name": "userToToken",
      "outputs": [
        {
          "internalType": "contract Token",
          "name": "",
          "type": "address"
        }
      ],
      "stateMutability": "view",
      "type": "function"
    },
    {
      "inputs": [
        {
          "internalType": "address",
          "name": "",
          "type": "address"
        }
      ],
      "name": "validation",
      "outputs": [
        {
          "internalType": "address",
          "name": "identity",
          "type": "address"
        },
        {
          "internalType": "uint256",
          "name": "sent",
          "type": "uint256"
        },
        {
          "internalType": "uint256",
          "name": "received",
          "type": "uint256"
        }
      ],
      "stateMutability": "view",
      "type": "function"
    },
    {
      "inputs": [],
      "name": "getSeen",
      "outputs": [
        {
          "internalType": "uint256",
          "name": "",
          "type": "uint256"
        }
      ],
      "stateMutability": "view",
      "type": "function"
    },
    {
      "inputs": [
        {
          "internalType": "address",
          "name": "user",
          "type": "address"
        }
      ],
      "name": "getValidation",
      "outputs": [
        {
          "internalType": "address",
          "name": "",
          "type": "address"
        },
        {
          "internalType": "uint256",
          "name": "",
          "type": "uint256"
        },
        {
          "internalType": "uint256",
          "name": "",
          "type": "uint256"
        }
      ],
      "stateMutability": "view",
      "type": "function"
    }
  ],
  "bytecode": "0x60806040523480156200001157600080fd5b5060405162003e9038038062003e90833981810160405260c08110156200003757600080fd5b815160208301516040808501805191519395929483019291846401000000008211156200006357600080fd5b9083019060208201858111156200007957600080fd5b82516401000000008111828201881017156200009457600080fd5b82525081516020918201929091019080838360005b83811015620000c3578181015183820152602001620000a9565b50505050905090810190601f168015620000f15780820380516001836020036101000a031916815260200191505b5060409081526020820151908201516060909201516000889055909350909150858585858585620001228662000160565b600155600285905583516200013f9060039060208701906200058e565b5060049290925560055542600655600755506200062a975050505050505050565b6000805b60096200018c62000177600a84620001b0565b85620002e860201b6200130a1790919060201c565b11156200019c5760010162000164565b620001a9600a82620001b0565b9392505050565b600082620001c157506000620002e2565b81620001d057506001620002e2565b8160011415620001e2575081620002e2565b60015b6001831115620002c4576200020a6002846200033260201b6200134b1790919060201c565b6200024e576200022984856200037c60201b6200138a1790919060201c565b935062000246600284620002e860201b6200130a1790919060201c565b9250620002be565b6200026881856200037c60201b6200138a1790919060201c565b90506200028484856200037c60201b6200138a1790919060201c565b9350620002bb6002620002a7600186620003da60201b620013e81790919060201c565b620002e860201b6200130a1790919060201c565b92505b620001e5565b620002de81856200037c60201b6200138a1790919060201c565b9150505b92915050565b6000620001a983836040518060400160405280601a81526020017f536166654d6174683a206469766973696f6e206279207a65726f0000000000008152506200042460201b60201c565b6000620001a983836040518060400160405280601881526020017f536166654d6174683a206d6f64756c6f206279207a65726f0000000000000000815250620004cb60201b60201c565b6000826200038d57506000620002e2565b828202828482816200039b57fe5b0414620001a95760405162461bcd60e51b815260040180806020018281038252602181526020018062003e6f6021913960400191505060405180910390fd5b6000620001a983836040518060400160405280601e81526020017f536166654d6174683a207375627472616374696f6e206f766572666c6f7700008152506200053160201b60201c565b60008183620004b45760405162461bcd60e51b81526004018080602001828103825283818151815260200191508051906020019080838360005b83811015620004785781810151838201526020016200045e565b50505050905090810190601f168015620004a65780820380516001836020036101000a031916815260200191505b509250505060405180910390fd5b506000838581620004c157fe5b0495945050505050565b600081836200051d5760405162461bcd60e51b8152602060048201818152835160248401528351909283926044909101919085019080838360008315620004785781810151838201526020016200045e565b508284816200052857fe5b06949350505050565b60008184841115620005865760405162461bcd60e51b8152602060048201818152835160248401528351909283926044909101919085019080838360008315620004785781810151838201526020016200045e565b505050900390565b828054600181600116156101000203166002900490600052602060002090601f016020900481019282601f10620005d157805160ff191683800117855562000601565b8280016001018555821562000601579182015b8281111562000601578251825591602001919060010190620005e4565b506200060f92915062000613565b5090565b5b808211156200060f576000815560010162000614565b613835806200063a6000396000f3fe60806040523480156200001157600080fd5b5060043610620001785760003560e01c8063863623bb11620000db578063863623bb14620003355780638a0ef184146200033f57806395d89b41146200037a5780639951d62f14620003fc578063a18b506b146200042b578063a3eb2b4a1462000454578063a4caeb421462000485578063afaa29df146200048f578063b7bc0f7314620004af578063be0522e014620004b9578063d62fd9a214620004c3578063eae4c19f14620006f9578063ef78d4fd1462000703578063fc22a9f8146200070d5762000178565b806316ada547146200017d5780631f2dc5ef146200019957806327cd4de114620001a357806328d249fe14620001f45780632a93834214620002395780632e4c697f146200025f5780633fbd653c14620002855780634ee94b1d14620002915780635a1f7406146200029b57806367cb52d814620002d857806370dea79a14620002e257806377ed63c214620002ec5780637f501d041462000315575b600080fd5b6200018762000717565b60408051918252519081900360200190f35b620001876200071b565b620001cc60048036036020811015620001bb57600080fd5b50356001600160a01b031662000721565b604080516001600160a01b039094168452602084019290925282820152519081900360600190f35b6200021d600480360360208110156200020c57600080fd5b50356001600160a01b03166200074f565b604080516001600160a01b039092168252519081900360200190f35b62000187600480360360408110156200025157600080fd5b50803590602001356200076a565b62000187600480360360408110156200027757600080fd5b5080359060200135620007b2565b6200028f62000872565b005b62000187620008e4565b620002c460048036036020811015620002b357600080fd5b50356001600160a01b0316620008ea565b604080519115158252519081900360200190f35b62000187620008ff565b6200018762000905565b620001cc600480360360208110156200030457600080fd5b50356001600160a01b03166200090b565b6200021d600480360360208110156200032d57600080fd5b503562000936565b620001876200095e565b62000187600480360360608110156200035757600080fd5b506001600160a01b0381358116916020810135821691604090910135166200097c565b6200038462000c60565b6040805160208082528351818301528351919283929083019185019080838360005b83811015620003c0578181015183820152602001620003a6565b50505050905090810190601f168015620003ee5780820380516001836020036101000a031916815260200191505b509250505060405180910390f35b6200028f600480360360408110156200041457600080fd5b506001600160a01b03813516906020013562000cf2565b6200021d600480360360208110156200044357600080fd5b50356001600160a01b031662000e82565b62000187600480360360408110156200046c57600080fd5b506001600160a01b038135811691602001351662000e9d565b6200018762000eba565b6200018760048036036020811015620004a757600080fd5b503562000eda565b6200028f62000eea565b6200018762000fe3565b6200028f60048036036080811015620004db57600080fd5b810190602081018135600160201b811115620004f657600080fd5b8201836020820111156200050957600080fd5b803590602001918460208302840111600160201b831117156200052b57600080fd5b9190808060200260200160405190810160405280939291908181526020018383602002808284376000920191909152509295949360208101935035915050600160201b8111156200057b57600080fd5b8201836020820111156200058e57600080fd5b803590602001918460208302840111600160201b83111715620005b057600080fd5b9190808060200260200160405190810160405280939291908181526020018383602002808284376000920191909152509295949360208101935035915050600160201b8111156200060057600080fd5b8201836020820111156200061357600080fd5b803590602001918460208302840111600160201b831117156200063557600080fd5b9190808060200260200160405190810160405280939291908181526020018383602002808284376000920191909152509295949360208101935035915050600160201b8111156200068557600080fd5b8201836020820111156200069857600080fd5b803590602001918460208302840111600160201b83111715620006ba57600080fd5b91908080602002602001604051908101604052809392919081815260200183836020028082843760009201919091525092955062000fe9945050505050565b62000187620012f8565b62000187620012fe565b6200018762001304565b4290565b60015481565b6001600160a01b038082166000908152600c6020526040902080546001820154600290920154921693909250565b6008602052600090815260409020546001600160a01b031681565b6000806200077b60005484620007b2565b905060006200078d60015485620007b2565b9050620007a781620007a087856200138a565b906200130a565b925050505b92915050565b600082620007c357506000620007ac565b81620007d257506001620007ac565b8160011415620007e4575081620007ac565b60015b60018311156200085e57620007fe8360026200134b565b62000826576200080f84806200138a565b93506200081e8360026200130a565b925062000858565b6200083284826200138a565b90506200084084806200138a565b9350620008556002620007a0856001620013e8565b92505b620007e7565b6200086a84826200138a565b949350505050565b336000908152600a602052604090205460ff16156200089057600080fd5b336000818152600a60205260409020805460ff19166001179055620008b79060646200142c565b60405133907fb0b94cff8b84fc67513b977d68a5cdd67550bd9b8d99a34b570e3367b784378690600090a2565b600d5490565b600a6020526000908152604090205460ff1681565b60045481565b60075481565b600c602052600090815260409020805460018201546002909201546001600160a01b03909116919083565b600d81815481106200094457fe5b6000918252602090912001546001600160a01b0316905081565b6000620009776005546200097162000eba565b6200076a565b905090565b6001600160a01b038082166000908152600b60209081526040808320938716835292905290812054620009b25750600062000c59565b6001600160a01b0382811660009081526008602052604090205416158015620009f457506001600160a01b0382166000908152600a602052604090205460ff16155b1562000a035750600062000c59565b6001600160a01b038481166000908152600860205260409020541662000a2c5750600062000c59565b6001600160a01b0380851660009081526008602090815260408083205481516370a0823160e01b815288861660048201529151939416926370a0823192602480840193919291829003018186803b15801562000a8757600080fd5b505afa15801562000a9c573d6000803e3d6000fd5b505050506040513d602081101562000ab357600080fd5b505190506001600160a01b03858116908416148062000aea57506001600160a01b0383166000908152600a602052604090205460ff165b1562000af857905062000c59565b6001600160a01b0380861660009081526008602090815260408083205481516370a0823160e01b815288861660048201529151939416926370a0823192602480840193919291829003018186803b15801562000b5357600080fd5b505afa15801562000b68573d6000803e3d6000fd5b505050506040513d602081101562000b7f57600080fd5b50516001600160a01b038086166000818152600b602090815260408083208c86168452825280832054938352600882528083205481516318160ddd60e01b81529151969750929562000c2f95606495620007a09590949116926318160ddd9260048083019392829003018186803b15801562000bfa57600080fd5b505afa15801562000c0f573d6000803e3d6000fd5b505050506040513d602081101562000c2657600080fd5b5051906200138a565b90508181101562000c47576000935050505062000c59565b62000c538183620013e8565b93505050505b9392505050565b6003805460408051602060026001851615610100026000190190941693909304601f8101849004840282018401909252818152929183018282801562000cea5780601f1062000cbe5761010080835404028352916020019162000cea565b820191906000526020600020905b81548152906001019060200180831162000ccc57829003601f168201915b505050505081565b336000908152600860205260409020546001600160a01b031615158062000d285750336000908152600a602052604090205460ff165b62000d655760405162461bcd60e51b8152600401808060200182810382526031815260200180620036c86031913960400191505060405180910390fd5b336001600160a01b038316141562000dc1576040805162461bcd60e51b815260206004820152601a6024820152792cb7ba9031b0b713ba103ab73a393ab9ba103cb7bab939b2b63360311b604482015290519081900360640190fd5b6001600160a01b0382166000908152600a602052604090205460ff161562000e30576040805162461bcd60e51b815260206004820152601f60248201527f596f752063616e277420747275737420616e206f7267616e697a6174696f6e00604482015290519081900360640190fd5b606481111562000e725760405162461bcd60e51b8152600401808060200182810382526025815260200180620037916025913960400191505060405180910390fd5b62000e7e82826200142c565b5050565b6009602052600090815260409020546001600160a01b031681565b600b60209081526000928352604080842090915290825290205481565b600062000977600254620007a060065442620013e890919063ffffffff16565b6000620007ac600554836200076a565b336000908152600860205260409020546001600160a01b03161562000f0e57600080fd5b60003360405162000f1f9062001da1565b6001600160a01b03909116815260405190819003602001906000f08015801562000f4d573d6000803e3d6000fd5b5033600081815260086020908152604080832080546001600160a01b0387166001600160a01b03199182168117909255908452600990925290912080549091168217905590915062000fa19060646200142c565b604080516001600160a01b0383168152905133917f358ba8f768af134eb5af120e9a61dc1ef29b29f597f047b555fc3675064a0342919081900360200190a250565b60005481565b83518251146200102b5760405162461bcd60e51b815260040180806020018281038252602a815260200180620036f9602a913960400191505060405180910390fd5b83518351146200106d5760405162461bcd60e51b81526004018080602001828103825260298152602001806200369f6029913960400191505060405180910390fd5b8351815114620010af5760405162461bcd60e51b815260040180806020018281038252602c81526020018062003723602c913960400191505060405180910390fd5b60005b8351811015620012e5576000848281518110620010cb57fe5b602002602001015190506000848381518110620010e457fe5b602002602001015190506000878481518110620010fd57fe5b6020026020010151905060008585815181106200111657fe5b60200260200101519050826001600160a01b0316826001600160a01b03161462001230576000620011498386866200097c565b6001600160a01b038085166000908152600860209081526040918290205482516370a0823160e01b8152898516600482015292519495508594620011e39488949216926370a082319260248082019391829003018186803b158015620011ae57600080fd5b505afa158015620011c3573d6000803e3d6000fd5b505050506040513d6020811015620011da57600080fd5b5051906200148e565b11156200122e576040805162461bcd60e51b8152602060048201526014602482015273151c9d5cdd081b1a5b5a5d08195e18d95959195960621b604482015290519081900360640190fd5b505b6200123d848483620014e7565b6001600160a01b0380831660009081526008602090815260408083205481516308299c0f60e21b8152898616600482015288861660248201526044810187905291519416936320a6703c93606480840194938390030190829087803b158015620012a657600080fd5b505af1158015620012bb573d6000803e3d6000fd5b505050506040513d6020811015620012d257600080fd5b505060019094019350620010b292505050565b50620012f283516200169a565b50505050565b60065481565b60025481565b60055481565b600062000c5983836040518060400160405280601a815260200179536166654d6174683a206469766973696f6e206279207a65726f60301b81525062001c37565b600062000c59838360405180604001604052806018815260200177536166654d6174683a206d6f64756c6f206279207a65726f60401b81525062001cde565b6000826200139b57506000620007ac565b82820282848281620013a957fe5b041462000c595760405162461bcd60e51b81526004018080602001828103825260218152602001806200374f6021913960400191505060405180910390fd5b600062000c5983836040518060400160405280601e81526020017f536166654d6174683a207375627472616374696f6e206f766572666c6f77000081525062001d44565b336000818152600b602090815260408083206001600160a01b03871680855290835292819020859055805185815290519293927fe60c754dd8ab0b1b5fccba257d6ebcd7d09e360ab7dd7a6e58198ca1f57cdcec929181900390910190a35050565b60008282018381101562000c59576040805162461bcd60e51b815260206004820152601b60248201527a536166654d6174683a206164646974696f6e206f766572666c6f7760281b604482015290519081900360640190fd5b6001600160a01b038381166000908152600c6020526040902054161562001552576001600160a01b0383166000908152600c60205260409020600101546200153090826200148e565b6001600160a01b0384166000908152600c6020526040902060010155620015bd565b6001600160a01b0383166000818152600c6020526040812080546001600160a01b0319908116841782556001918201859055600d805492830181559092527fd7b6990105719101dabeb77144f2a3385c8033acd3af97e9423a695e81ad1eb501805490911690911790555b6001600160a01b038281166000908152600c6020526040902054161562001628576001600160a01b0382166000908152600c60205260409020600201546200160690826200148e565b6001600160a01b0383166000908152600c602052604090206002015562001695565b6001600160a01b0382166000818152600c6020526040812080546001600160a01b0319908116841782556002909101849055600d805460018101825592527fd7b6990105719101dabeb77144f2a3385c8033acd3af97e9423a695e81ad1eb5909101805490911690911790555b505050565b60008060005b600d548110156200183357620016b562001daf565b600c6000600d8481548110620016c757fe5b60009182526020808320909101546001600160a01b0390811684528382019490945260409283019091208251606081018452815490941684526001810154918401829052600201549183018290529192501015620017b6576001600160a01b03841615620017675760405162461bcd60e51b8152600401808060200182810382526021815260200180620037706021913960400191505060405180910390fd5b80516001600160a01b03163314620017b15760405162461bcd60e51b8152600401808060200182810382526029815260200180620037b66029913960400191505060405180910390fd5b805193505b80602001518160400151111562001829576001600160a01b0383161562001824576040805162461bcd60e51b815260206004820181905260248201527f506174682073656e647320746f206d6f7265207468616e206f6e652064657374604482015290519081900360640190fd5b805192505b50600101620016a0565b506001600160a01b0382166200188e576040805162461bcd60e51b815260206004820152601b60248201527a5472616e73616374696f6e206d757374206861766520612073726360281b604482015290519081900360640190fd5b6001600160a01b038116620018ea576040805162461bcd60e51b815260206004820152601c60248201527f5472616e73616374696f6e206d75737420686176652061206465737400000000604482015290519081900360640190fd5b6001600160a01b0382166000908152600c6020526040902060020154156200194f576040805162461bcd60e51b815260206004820152601360248201527253656e64657220697320726563656976696e6760681b604482015290519081900360640190fd5b6001600160a01b0381166000908152600c602052604090206001015415620019b5576040805162461bcd60e51b8152602060048201526014602482015273526563697069656e742069732073656e64696e6760601b604482015290519081900360640190fd5b6001600160a01b038082166000908152600c60205260408082206002015492851682529020600101541462001a1c5760405162461bcd60e51b8152600401808060200182810382526021815260200180620037df6021913960400191505060405180910390fd5b600d5460018401101562001a71576040805162461bcd60e51b81526020600482015260176024820152765365656e20746f6f206d616e792061646472657373657360481b604482015290519081900360640190fd5b6001600160a01b038281166000818152600c60209081526040918290206001015482519081529151938516937f8451019aab65b4193860ef723cb0d56b475a26a72b7bfc55c1dbd6121015285a9281900390910190a3600d545b6001811062001be9576000600c6000600d600185038154811062001aeb57fe5b60009182526020808320909101546001600160a01b03168352820192909252604001812060010191909155600d8054600c918391600019860190811062001b2e57fe5b60009182526020808320909101546001600160a01b03168352820192909252604001812060020191909155600d8054600c918391600019860190811062001b7157fe5b6000918252602080832091909101546001600160a01b039081168452908301939093526040909101902080546001600160a01b03191692909116919091179055600d80548062001bbd57fe5b600082815260209020810160001990810180546001600160a01b03191690559081019091550162001acb565b50600d541562001695576040805162461bcd60e51b81526020600482015260146024820152735365656e2073686f756c6420626520656d70747960601b604482015290519081900360640190fd5b6000818362001cc75760405162461bcd60e51b81526004018080602001828103825283818151815260200191508051906020019080838360005b8381101562001c8b57818101518382015260200162001c71565b50505050905090810190601f16801562001cb95780820380516001836020036101000a031916815260200191505b509250505060405180910390fd5b50600083858162001cd457fe5b0495945050505050565b6000818362001d305760405162461bcd60e51b815260206004820181815283516024840152835190928392604490910191908501908083836000831562001c8b57818101518382015260200162001c71565b5082848162001d3b57fe5b06949350505050565b6000818484111562001d995760405162461bcd60e51b815260206004820181815283516024840152835190928392604490910191908501908083836000831562001c8b57818101518382015260200162001c71565b505050900390565b6118c58062001dda83390190565b604051806060016040528060006001600160a01b031681526020016000815260200160008152509056fe60806040526004805461ff0019166112001790553480156200002057600080fd5b50604051620018c5380380620018c5833981810160405260208110156200004657600080fd5b50516001600160a01b0381166200005c57600080fd5b600780546001600160a01b0383166001600160a01b03199182161790915560068054909116331790556200008f6200019e565b6005556200009c620001a2565b6008556006546040805163863623bb60e01b815290516001600160a01b039092169163863623bb91600480820192602092909190829003018186803b158015620000e557600080fd5b505afa158015620000fa573d6000803e3d6000fd5b505050506040513d60208110156200011157600080fd5b505160095560065460408051630cf96a5b60e31b81529051620001979284926001600160a01b03909116916367cb52d891600480820192602092909190829003018186803b1580156200016357600080fd5b505afa15801562000178573d6000803e3d6000fd5b505050506040513d60208110156200018f57600080fd5b50516200021c565b50620005dc565b4290565b600062000217620001b26200019e565b62000203620001c06200032b565b620001d1620001e5600182620003a4565b620003ea60201b62000be91790919060201c565b620001ef6200044e565b6200049460201b62000c411790919060201c565b620004f260201b62000c9a1790919060201c565b905090565b6001600160a01b03821662000278576040805162461bcd60e51b815260206004820152601f60248201527f45524332303a206d696e7420746f20746865207a65726f206164647265737300604482015290519081900360640190fd5b62000286600083836200053c565b620002a281600254620003ea60201b62000be91790919060201c565b6002556001600160a01b03821660009081526020818152604090912054620002d591839062000be9620003ea821b17901c565b6001600160a01b0383166000818152602081815260408083209490945583518581529351929391927fddf252ad1be2c89b69c2b068fc378daa952ba7f163c4a11628f55a4df523b3ef9281900390910190a35050565b6006546040805163eae4c19f60e01b815290516000926001600160a01b03169163eae4c19f916004808301926020929190829003018186803b1580156200037157600080fd5b505afa15801562000386573d6000803e3d6000fd5b505050506040513d60208110156200039d57600080fd5b5051905090565b6006546040805163526575a160e11b815290516000926001600160a01b03169163a4caeb42916004808301926020929190829003018186803b1580156200037157600080fd5b60008282018381101562000445576040805162461bcd60e51b815260206004820152601b60248201527f536166654d6174683a206164646974696f6e206f766572666c6f770000000000604482015290519081900360640190fd5b90505b92915050565b6006546040805163ef78d4fd60e01b815290516000926001600160a01b03169163ef78d4fd916004808301926020929190829003018186803b1580156200037157600080fd5b600082620004a55750600062000448565b82820282848281620004b357fe5b0414620004455760405162461bcd60e51b8152600401808060200182810382526021815260200180620018a46021913960400191505060405180910390fd5b60006200044583836040518060400160405280601e81526020017f536166654d6174683a207375627472616374696f6e206f766572666c6f7700008152506200054160201b60201c565b505050565b60008184841115620005d45760405162461bcd60e51b81526004018080602001828103825283818151815260200191508051906020019080838360005b83811015620005985781810151838201526020016200057e565b50505050905090810190601f168015620005c65780820380516001836020036101000a031916815260200191505b509250505060405180910390fd5b505050900390565b6112b880620005ec6000396000f3fe608060405234801561001057600080fd5b506004361061016f5760003560e01c806370a08231116100d457806370a08231146102e257806370dea79a1461030857806375f12b21146103105780637b89cecc146103185780638b4eed81146103205780638da5cb5b1461032857806395d89b4114610330578063a2e62045146103ad578063a457c2d7146103b5578063a4caeb42146103e1578063a9059cbb146103e9578063be0522e014610415578063d40480891461041d578063dd62ed3e14610425578063ef78d4fd146104535761016f565b806307da68f514610174578063095ea7b31461017e578063107129dd146101be57806316ada547146101d857806318160ddd146101e05780631f2dc5ef146101e857806320a6703c146101f057806323b872dd14610226578063313ce5671461025c578063365a86fc1461027a578063395093511461029e5780633b6fe91f146102ca57806341c30546146102d25780636c050eae146102da575b600080fd5b61017c61045b565b005b6101aa6004803603604081101561019457600080fd5b506001600160a01b038135169060200135610481565b604080519115158252519081900360200190f35b6101c6610498565b60408051918252519081900360200190f35b6101c661049e565b6101c66104a3565b6101c66104a9565b6101aa6004803603606081101561020657600080fd5b506001600160a01b0381358116916020810135909116906040013561051f565b6101aa6004803603606081101561023c57600080fd5b506001600160a01b0381358116916020810135909116906040013561054b565b6102646105b4565b6040805160ff9092168252519081900360200190f35b6102826105c2565b604080516001600160a01b039092168252519081900360200190f35b6101aa600480360360408110156102b457600080fd5b506001600160a01b0381351690602001356105d1565b6101c6610607565b6101c661064c565b6101c6610693565b6101c6600480360360208110156102f857600080fd5b50356001600160a01b03166107c3565b6101c66107de565b6101aa610823565b6101c6610868565b6101c661088f565b610282610895565b6103386108a4565b6040805160208082528351818301528351919283929083019185019080838360005b8381101561037257818101518382015260200161035a565b50505050905090810190601f16801561039f5780820380516001836020036101000a031916815260200191505b509250505060405180910390f35b61017c6109d9565b6101aa600480360360408110156103cb57600080fd5b506001600160a01b038135169060200135610a8e565b6101c6610add565b6101aa600480360360408110156103ff57600080fd5b506001600160a01b038135169060200135610b22565b6101c6610b2e565b6101c6610b73565b6101c66004803603604081101561043b57600080fd5b506001600160a01b0381358116916020013516610b79565b6101c6610ba4565b6007546001600160a01b0316331461047257600080fd5b600a805460ff19166001179055565b600061048e338484610cdc565b5060015b92915050565b60085481565b425b90565b60025490565b60065460408051631f2dc5ef60e01b815290516000926001600160a01b031691631f2dc5ef916004808301926020929190829003018186803b1580156104ee57600080fd5b505afa158015610502573d6000803e3d6000fd5b505050506040513d602081101561051857600080fd5b5051905090565b6006546000906001600160a01b0316331461053957600080fd5b610544848484610dc8565b9392505050565b6000610558848484610dc8565b6105aa84336105a5856040518060600160405280602881526020016111ed602891396001600160a01b038a1660009081526001602090815260408083203384529091529020549190610f23565b610cdc565b5060019392505050565b600454610100900460ff1681565b6006546001600160a01b031681565b3360008181526001602090815260408083206001600160a01b0387168452909152812054909161048e9185906105a59086610be9565b6006546040805163eae4c19f60e01b815290516000926001600160a01b03169163eae4c19f916004808301926020929190829003018186803b1580156104ee57600080fd5b600061068e61065961049e565b610688610664610607565b61067461067a6001610674610add565b90610be9565b610682610ba4565b90610c41565b90610c9a565b905090565b600061069d610823565b156106aa575060006104a0565b6005546008546009546000929190836106c1610868565b90505b6106cc61049e565b6106d68585610be9565b11610794576106ef6106e88484610c41565b8690610be9565b94506106fb8484610be9565b9350610705610ba4565b9250610712816001610be9565b6006546040805163afaa29df60e01b81526004810184905290519293506001600160a01b039091169163afaa29df91602480820192602092909190829003018186803b15801561076157600080fd5b505afa158015610775573d6000803e3d6000fd5b505050506040513d602081101561078b57600080fd5b505191506106c4565b60006107a28561068861049e565b90506107b86107b18285610c41565b8790610be9565b965050505050505090565b6001600160a01b031660009081526020819052604090205490565b6006546040805163386f53cd60e11b815290516000926001600160a01b0316916370dea79a916004808301926020929190829003018186803b1580156104ee57600080fd5b600a5460009060ff1615610839575060016104a0565b600061084960055461068861049e565b90506108536107de565b8111156108645760019150506104a0565b5090565b600061068e610875610ba4565b610889610880610607565b60055490610c9a565b90610fba565b60055481565b6007546001600160a01b031681565b600654604080516395d89b4160e01b815290516060926001600160a01b0316916395d89b41916004808301926000929190829003018186803b1580156108e957600080fd5b505afa1580156108fd573d6000803e3d6000fd5b505050506040513d6000823e601f3d908101601f19168201604052602081101561092657600080fd5b8101908080516040519392919084600160201b82111561094557600080fd5b90830190602082018581111561095a57600080fd5b8251600160201b81118282018810171561097357600080fd5b82525081516020918201929091019080838360005b838110156109a0578181015183820152602001610988565b50505050905090810190601f1680156109cd5780820380516001836020036101000a031916815260200191505b50604052505050905090565b60006109e3610693565b90508015610a8b576109f361064c565b6008556109fe61049e565b6005556006546040805163863623bb60e01b815290516001600160a01b039092169163863623bb91600480820192602092909190829003018186803b158015610a4657600080fd5b505afa158015610a5a573d6000803e3d6000fd5b505050506040513d6020811015610a7057600080fd5b5051600955600754610a8b906001600160a01b031682610ff9565b50565b600061048e33846105a58560405180606001604052806025815260200161125e602591393360009081526001602090815260408083206001600160a01b038d1684529091529020549190610f23565b6006546040805163526575a160e11b815290516000926001600160a01b03169163a4caeb42916004808301926020929190829003018186803b1580156104ee57600080fd5b600061054483836110e9565b600654604080516305f0291760e51b815290516000926001600160a01b03169163be0522e0916004808301926020929190829003018186803b1580156104ee57600080fd5b60095481565b6001600160a01b03918216600090815260016020908152604080832093909416825291909152205490565b6006546040805163ef78d4fd60e01b815290516000926001600160a01b03169163ef78d4fd916004808301926020929190829003018186803b1580156104ee57600080fd5b600082820183811015610544576040805162461bcd60e51b815260206004820152601b60248201527a536166654d6174683a206164646974696f6e206f766572666c6f7760281b604482015290519081900360640190fd5b600082610c5057506000610492565b82820282848281610c5d57fe5b04146105445760405162461bcd60e51b81526004018080602001828103825260218152602001806111cc6021913960400191505060405180910390fd5b600061054483836040518060400160405280601e81526020017f536166654d6174683a207375627472616374696f6e206f766572666c6f770000815250610f23565b6001600160a01b038316610d215760405162461bcd60e51b815260040180806020018281038252602481526020018061123a6024913960400191505060405180910390fd5b6001600160a01b038216610d665760405162461bcd60e51b81526004018080602001828103825260228152602001806111846022913960400191505060405180910390fd5b6001600160a01b03808416600081815260016020908152604080832094871680845294825291829020859055815185815291517f8c5be1e5ebec7d5bd14f71427d1e84f3dd0314c0f7b2291e5b200ac8c7c3b9259281900390910190a3505050565b6001600160a01b038316610e0d5760405162461bcd60e51b81526004018080602001828103825260258152602001806112156025913960400191505060405180910390fd5b6001600160a01b038216610e525760405162461bcd60e51b81526004018080602001828103825260238152602001806111616023913960400191505060405180910390fd5b610e5d8383836110f6565b610e9a816040518060600160405280602681526020016111a6602691396001600160a01b0386166000908152602081905260409020549190610f23565b6001600160a01b038085166000908152602081905260408082209390935590841681522054610ec99082610be9565b6001600160a01b038084166000818152602081815260409182902094909455805185815290519193928716927fddf252ad1be2c89b69c2b068fc378daa952ba7f163c4a11628f55a4df523b3ef92918290030190a3505050565b60008184841115610fb25760405162461bcd60e51b81526004018080602001828103825283818151815260200191508051906020019080838360005b83811015610f77578181015183820152602001610f5f565b50505050905090810190601f168015610fa45780820380516001836020036101000a031916815260200191505b509250505060405180910390fd5b505050900390565b600061054483836040518060400160405280601a815260200179536166654d6174683a206469766973696f6e206279207a65726f60301b8152506110fb565b6001600160a01b038216611054576040805162461bcd60e51b815260206004820152601f60248201527f45524332303a206d696e7420746f20746865207a65726f206164647265737300604482015290519081900360640190fd5b611060600083836110f6565b60025461106d9082610be9565b6002556001600160a01b0382166000908152602081905260409020546110939082610be9565b6001600160a01b0383166000818152602081815260408083209490945583518581529351929391927fddf252ad1be2c89b69c2b068fc378daa952ba7f163c4a11628f55a4df523b3ef9281900390910190a35050565b600061048e338484610dc8565b505050565b6000818361114a5760405162461bcd60e51b8152602060048201818152835160248401528351909283926044909101919085019080838360008315610f77578181015183820152602001610f5f565b50600083858161115657fe5b049594505050505056fe45524332303a207472616e7366657220746f20746865207a65726f206164647265737345524332303a20617070726f766520746f20746865207a65726f206164647265737345524332303a207472616e7366657220616d6f756e7420657863656564732062616c616e6365536166654d6174683a206d756c7469706c69636174696f6e206f766572666c6f7745524332303a207472616e7366657220616d6f756e74206578636565647320616c6c6f77616e636545524332303a207472616e736665722066726f6d20746865207a65726f206164647265737345524332303a20617070726f76652066726f6d20746865207a65726f206164647265737345524332303a2064656372656173656420616c6c6f77616e63652062656c6f77207a65726fa2646970667358221220a6d24f33e3579ffd2eeebf48e80e45b96dbe52cd3ce33ef1b05d972104f2b2a564736f6c63430007010033536166654d6174683a206d756c7469706c69636174696f6e206f766572666c6f77546f6b656e73206172726179206c656e677468206d75737420657175616c2073726373206172726179596f752063616e206f6e6c792074727573742070656f706c6520616674657220796f75277665207369676e656420757021546f6b656e73206172726179206c656e677468206d75737420657175616c206465737473206172726179546f6b656e73206172726179206c656e677468206d75737420657175616c20616d6f756e7473206172726179536166654d6174683a206d756c7469706c69636174696f6e206f766572666c6f77506174682073656e64732066726f6d206d6f7265207468616e206f6e65207372634c696d6974206d75737420626520612070657263656e74616765206f7574206f66203130305061746820646f65736e27742073656e642066726f6d207472616e73616374696f6e2073656e646572556e657175616c2073656e7420616e6420726563656976656420616d6f756e7473a2646970667358221220798788efea2e89815f39b45041c30d1bb00e5d253dc5256075f7a24e9bed2ffd64736f6c63430007010033536166654d6174683a206d756c7469706c69636174696f6e206f766572666c6f77",
  "immutableReferences": {},
  "source": "// SPDX-License-Identifier: AGPL\npragma solidity ^0.7.0;\nimport \"../Hub.sol\";\n\ncontract MockHub is Hub {\n    constructor(\n        uint256 _inflation,\n        uint256 _period,\n        string memory _symbol,\n        uint256 _initialPayout,\n        uint256 _startingRate,\n        uint256 _timeout\n    )\n    Hub(_inflation, _period, _symbol, _initialPayout, _startingRate, _timeout)\n    {\n\n    }\n\n    function getSeen() public view returns (uint256) {\n        return seen.length;\n    }\n\n    function getValidation(address user) public view returns (address, uint256, uint256) {\n        return (validation[user].identity, validation[user].sent, validation[user].received);\n    }\n}",
  "sourcePath": "/media/000/Documents/Circles/circles-contracts/contracts/mocks/MockHub.sol",
  "compiler": {
    "name": "solc",
    "version": "0.7.1+commit.f4a555be.Emscripten.clang"
  },
  "schemaVersion": "3.2.3",
  "updatedAt": "2020-09-24T15:33:59.413Z",
  "devdoc": {
    "kind": "dev",
    "methods": {
      "checkSendLimit(address,address,address)": {
        "returns": {
          "_0": "the amount of tokenowner's token src can send to dest"
        }
      },
      "inflate(uint256,uint256)": {
        "returns": {
          "_0": "initial issuance rate as if interest (inflation) has been compounded period times"
        }
      },
      "issuance()": {
        "returns": {
          "_0": "current issuance rate"
        }
      },
      "issuanceStep(uint256)": {
        "returns": {
          "_0": "what the issuance would be at a particular amount of periods"
        }
      },
      "periods()": {
        "returns": {
          "_0": "the amount of periods since hub was deployed"
        }
      }
    },
    "version": 1
  },
  "userdoc": {
    "kind": "user",
    "methods": {},
    "version": 1
  }
}