{
  "contractName": "MockHub",
  "abi": [
    {
      "inputs": [
        {
          "internalType": "uint256",
          "name": "_inflation",
          "type": "uint256"
        },
        {
          "internalType": "uint256",
          "name": "_period",
          "type": "uint256"
        },
        {
          "internalType": "string",
          "name": "_symbol",
          "type": "string"
        },
        {
          "internalType": "string",
          "name": "_name",
          "type": "string"
        },
        {
          "internalType": "uint256",
          "name": "_initialPayout",
          "type": "uint256"
        },
        {
          "internalType": "uint256",
          "name": "_startingRate",
          "type": "uint256"
        },
        {
          "internalType": "uint256",
          "name": "_timeout",
          "type": "uint256"
        }
      ],
      "stateMutability": "nonpayable",
      "type": "constructor"
    },
    {
      "anonymous": false,
      "inputs": [
        {
          "indexed": true,
          "internalType": "address",
          "name": "from",
          "type": "address"
        },
        {
          "indexed": true,
          "internalType": "address",
          "name": "to",
          "type": "address"
        },
        {
          "indexed": false,
          "internalType": "uint256",
          "name": "amount",
          "type": "uint256"
        }
      ],
      "name": "HubTransfer",
      "type": "event"
    },
    {
      "anonymous": false,
      "inputs": [
        {
          "indexed": true,
          "internalType": "address",
          "name": "organization",
          "type": "address"
        }
      ],
      "name": "OrganizationSignup",
      "type": "event"
    },
    {
      "anonymous": false,
      "inputs": [
        {
          "indexed": true,
          "internalType": "address",
          "name": "user",
          "type": "address"
        },
        {
          "indexed": false,
          "internalType": "address",
          "name": "token",
          "type": "address"
        }
      ],
      "name": "Signup",
      "type": "event"
    },
    {
      "anonymous": false,
      "inputs": [
        {
          "indexed": true,
          "internalType": "address",
          "name": "canSendTo",
          "type": "address"
        },
        {
          "indexed": true,
          "internalType": "address",
          "name": "user",
          "type": "address"
        },
        {
          "indexed": false,
          "internalType": "uint256",
          "name": "limit",
          "type": "uint256"
        }
      ],
      "name": "Trust",
      "type": "event"
    },
    {
      "inputs": [
        {
          "internalType": "address",
          "name": "tokenOwner",
          "type": "address"
        },
        {
          "internalType": "address",
          "name": "src",
          "type": "address"
        },
        {
          "internalType": "address",
          "name": "dest",
          "type": "address"
        }
      ],
      "name": "checkSendLimit",
      "outputs": [
        {
          "internalType": "uint256",
          "name": "",
          "type": "uint256"
        }
      ],
      "stateMutability": "view",
      "type": "function"
    },
    {
      "inputs": [],
      "name": "deployedAt",
      "outputs": [
        {
          "internalType": "uint256",
          "name": "",
          "type": "uint256"
        }
      ],
      "stateMutability": "view",
      "type": "function"
    },
    {
      "inputs": [],
      "name": "divisor",
      "outputs": [
        {
          "internalType": "uint256",
          "name": "",
          "type": "uint256"
        }
      ],
      "stateMutability": "view",
      "type": "function"
    },
    {
      "inputs": [
        {
          "internalType": "uint256",
          "name": "_initial",
          "type": "uint256"
        },
        {
          "internalType": "uint256",
          "name": "_periods",
          "type": "uint256"
        }
      ],
      "name": "inflate",
      "outputs": [
        {
          "internalType": "uint256",
          "name": "",
          "type": "uint256"
        }
      ],
      "stateMutability": "view",
      "type": "function"
    },
    {
      "inputs": [],
      "name": "inflation",
      "outputs": [
        {
          "internalType": "uint256",
          "name": "",
          "type": "uint256"
        }
      ],
      "stateMutability": "view",
      "type": "function"
    },
    {
      "inputs": [],
      "name": "initialIssuance",
      "outputs": [
        {
          "internalType": "uint256",
          "name": "",
          "type": "uint256"
        }
      ],
      "stateMutability": "view",
      "type": "function"
    },
    {
      "inputs": [],
      "name": "issuance",
      "outputs": [
        {
          "internalType": "uint256",
          "name": "",
          "type": "uint256"
        }
      ],
      "stateMutability": "view",
      "type": "function"
    },
    {
      "inputs": [
        {
          "internalType": "uint256",
          "name": "_periods",
          "type": "uint256"
        }
      ],
      "name": "issuanceByStep",
      "outputs": [
        {
          "internalType": "uint256",
          "name": "",
          "type": "uint256"
        }
      ],
      "stateMutability": "view",
      "type": "function"
    },
    {
      "inputs": [
        {
          "internalType": "address",
          "name": "",
          "type": "address"
        },
        {
          "internalType": "address",
          "name": "",
          "type": "address"
        }
      ],
      "name": "limits",
      "outputs": [
        {
          "internalType": "uint256",
          "name": "",
          "type": "uint256"
        }
      ],
      "stateMutability": "view",
      "type": "function"
    },
    {
      "inputs": [],
      "name": "name",
      "outputs": [
        {
          "internalType": "string",
          "name": "",
          "type": "string"
        }
      ],
      "stateMutability": "view",
      "type": "function"
    },
    {
      "inputs": [],
      "name": "organizationSignup",
      "outputs": [],
      "stateMutability": "nonpayable",
      "type": "function"
    },
    {
      "inputs": [
        {
          "internalType": "address",
          "name": "",
          "type": "address"
        }
      ],
      "name": "organizations",
      "outputs": [
        {
          "internalType": "bool",
          "name": "",
          "type": "bool"
        }
      ],
      "stateMutability": "view",
      "type": "function"
    },
    {
      "inputs": [],
      "name": "period",
      "outputs": [
        {
          "internalType": "uint256",
          "name": "",
          "type": "uint256"
        }
      ],
      "stateMutability": "view",
      "type": "function"
    },
    {
      "inputs": [],
      "name": "periods",
      "outputs": [
        {
          "internalType": "uint256",
          "name": "",
          "type": "uint256"
        }
      ],
      "stateMutability": "view",
      "type": "function"
    },
    {
      "inputs": [
        {
          "internalType": "uint256",
          "name": "base",
          "type": "uint256"
        },
        {
          "internalType": "uint256",
          "name": "exponent",
          "type": "uint256"
        }
      ],
      "name": "pow",
      "outputs": [
        {
          "internalType": "uint256",
          "name": "",
          "type": "uint256"
        }
      ],
      "stateMutability": "pure",
      "type": "function"
    },
    {
      "inputs": [
        {
          "internalType": "uint256",
          "name": "",
          "type": "uint256"
        }
      ],
      "name": "seen",
      "outputs": [
        {
          "internalType": "address",
          "name": "",
          "type": "address"
        }
      ],
      "stateMutability": "view",
      "type": "function"
    },
    {
      "inputs": [],
      "name": "signup",
      "outputs": [],
      "stateMutability": "nonpayable",
      "type": "function"
    },
    {
      "inputs": [],
      "name": "signupBonus",
      "outputs": [
        {
          "internalType": "uint256",
          "name": "",
          "type": "uint256"
        }
      ],
      "stateMutability": "view",
      "type": "function"
    },
    {
      "inputs": [],
      "name": "symbol",
      "outputs": [
        {
          "internalType": "string",
          "name": "",
          "type": "string"
        }
      ],
      "stateMutability": "view",
      "type": "function"
    },
    {
      "inputs": [],
      "name": "timeout",
      "outputs": [
        {
          "internalType": "uint256",
          "name": "",
          "type": "uint256"
        }
      ],
      "stateMutability": "view",
      "type": "function"
    },
    {
      "inputs": [
        {
          "internalType": "address",
          "name": "",
          "type": "address"
        }
      ],
      "name": "tokenToUser",
      "outputs": [
        {
          "internalType": "address",
          "name": "",
          "type": "address"
        }
      ],
      "stateMutability": "view",
      "type": "function"
    },
    {
      "inputs": [
        {
          "internalType": "address[]",
          "name": "tokenOwners",
          "type": "address[]"
        },
        {
          "internalType": "address[]",
          "name": "srcs",
          "type": "address[]"
        },
        {
          "internalType": "address[]",
          "name": "dests",
          "type": "address[]"
        },
        {
          "internalType": "uint256[]",
          "name": "wads",
          "type": "uint256[]"
        }
      ],
      "name": "transferThrough",
      "outputs": [],
      "stateMutability": "nonpayable",
      "type": "function"
    },
    {
      "inputs": [
        {
          "internalType": "address",
          "name": "user",
          "type": "address"
        },
        {
          "internalType": "uint256",
          "name": "limit",
          "type": "uint256"
        }
      ],
      "name": "trust",
      "outputs": [],
      "stateMutability": "nonpayable",
      "type": "function"
    },
    {
      "inputs": [
        {
          "internalType": "address",
          "name": "",
          "type": "address"
        }
      ],
      "name": "userToToken",
      "outputs": [
        {
          "internalType": "contract Token",
          "name": "",
          "type": "address"
        }
      ],
      "stateMutability": "view",
      "type": "function"
    },
    {
      "inputs": [
        {
          "internalType": "address",
          "name": "",
          "type": "address"
        }
      ],
      "name": "validation",
      "outputs": [
        {
          "internalType": "bool",
          "name": "seen",
          "type": "bool"
        },
        {
          "internalType": "uint256",
          "name": "sent",
          "type": "uint256"
        },
        {
          "internalType": "uint256",
          "name": "received",
          "type": "uint256"
        }
      ],
      "stateMutability": "view",
      "type": "function"
    },
    {
      "inputs": [],
      "name": "getSeen",
      "outputs": [
        {
          "internalType": "uint256",
          "name": "",
          "type": "uint256"
        }
      ],
      "stateMutability": "view",
      "type": "function"
    },
    {
      "inputs": [
        {
          "internalType": "address",
          "name": "user",
          "type": "address"
        }
      ],
      "name": "getValidation",
      "outputs": [
        {
          "internalType": "bool",
          "name": "",
          "type": "bool"
        },
        {
          "internalType": "uint256",
          "name": "",
          "type": "uint256"
        },
        {
          "internalType": "uint256",
          "name": "",
          "type": "uint256"
        }
      ],
      "stateMutability": "view",
      "type": "function"
    }
  ],
  "bytecode": "0x6101606040523480156200001257600080fd5b50604051620042f1380380620042f1833981810160405260e08110156200003857600080fd5b815160208301516040808501805191519395929483019291846401000000008211156200006457600080fd5b9083019060208201858111156200007a57600080fd5b82516401000000008111828201881017156200009557600080fd5b82525081516020918201929091019080838360005b83811015620000c4578181015183820152602001620000aa565b50505050905090810190601f168015620000f25780820380516001836020036101000a031916815260200191505b50604052602001805160405193929190846401000000008211156200011657600080fd5b9083019060208201858111156200012c57600080fd5b82516401000000008111828201881017156200014757600080fd5b82525081516020918201929091019080838360005b83811015620001765781810151838201526020016200015c565b50505050905090810190601f168015620001a45780820380516001836020036101000a031916815260200191505b506040908152602082015190820151606090920151608089905290935090915086868686868686620001d6876200022f565b60a05260c08690528451620001f39060009060208801906200065d565b508351620002099060019060208701906200065d565b5060e0929092526101005242610120526101405250620006f99950505050505050505050565b6000805b60096200025b62000246600a846200027f565b85620003b760201b620015321790919060201c565b11156200026b5760010162000233565b62000278600a826200027f565b9392505050565b6000826200029057506000620003b1565b816200029f57506001620003b1565b8160011415620002b1575081620003b1565b60015b60018311156200039357620002d96002846200040160201b620015731790919060201c565b6200031d57620002f884856200044b60201b620015b21790919060201c565b935062000315600284620003b760201b620015321790919060201c565b92506200038d565b6200033781856200044b60201b620015b21790919060201c565b90506200035384856200044b60201b620015b21790919060201c565b93506200038a600262000376600186620004a960201b620016101790919060201c565b620003b760201b620015321790919060201c565b92505b620002b4565b620003ad81856200044b60201b620015b21790919060201c565b9150505b92915050565b60006200027883836040518060400160405280601a81526020017f536166654d6174683a206469766973696f6e206279207a65726f000000000000815250620004f360201b60201c565b60006200027883836040518060400160405280601881526020017f536166654d6174683a206d6f64756c6f206279207a65726f00000000000000008152506200059a60201b60201c565b6000826200045c57506000620003b1565b828202828482816200046a57fe5b0414620002785760405162461bcd60e51b8152600401808060200182810382526021815260200180620042d06021913960400191505060405180910390fd5b60006200027883836040518060400160405280601e81526020017f536166654d6174683a207375627472616374696f6e206f766572666c6f7700008152506200060060201b60201c565b60008183620005835760405162461bcd60e51b81526004018080602001828103825283818151815260200191508051906020019080838360005b83811015620005475781810151838201526020016200052d565b50505050905090810190601f168015620005755780820380516001836020036101000a031916815260200191505b509250505060405180910390fd5b5060008385816200059057fe5b0495945050505050565b60008183620005ec5760405162461bcd60e51b8152602060048201818152835160248401528351909283926044909101919085019080838360008315620005475781810151838201526020016200052d565b50828481620005f757fe5b06949350505050565b60008184841115620006555760405162461bcd60e51b8152602060048201818152835160248401528351909283926044909101919085019080838360008315620005475781810151838201526020016200052d565b505050900390565b828054600181600116156101000203166002900490600052602060002090601f016020900481019282601f10620006a057805160ff1916838001178555620006d0565b82800160010185558215620006d0579182015b82811115620006d0578251825591602001919060010190620006b3565b50620006de929150620006e2565b5090565b5b80821115620006de5760008155600101620006e3565b60805160a05160c05160e051610100516101205161014051613b656200076b60003980610aa852508061109352806114c8525080610a5c5280610b1f5280611510525080610a8452508061106d52806114ec5250806107a2528061084452508061081452806112465250613b656000f3fe60806040523480156200001157600080fd5b5060043610620001785760003560e01c80637f501d0411620000db5780637f501d0414620003a5578063863623bb14620003c55780638a0ef18414620003cf57806395d89b41146200040a5780639951d62f1462000414578063a18b506b1462000443578063a3eb2b4a146200046c578063a4caeb42146200049d578063b7bc0f7314620004a7578063be0522e014620004b1578063d62fd9a214620004bb578063eae4c19f14620006f1578063ef78d4fd14620006fb578063fc22a9f814620007055762000178565b806306fdde03146200017d5780631f2dc5ef14620001ff57806327cd4de1146200021b57806328d249fe14620002645780632a93834214620002a95780632e4c697f14620002cf5780633fbd653c14620002f55780634ee94b1d14620003015780635a1f7406146200030b57806361c4b421146200034857806367cb52d8146200036857806370dea79a146200037257806377ed63c2146200037c575b600080fd5b620001876200070f565b6040805160208082528351818301528351919283929083019185019080838360005b83811015620001c3578181015183820152602001620001a9565b50505050905090810190601f168015620001f15780820380516001836020036101000a031916815260200191505b509250505060405180910390f35b62000209620007a0565b60408051918252519081900360200190f35b62000244600480360360208110156200023357600080fd5b50356001600160a01b0316620007c4565b604080519315158452602084019290925282820152519081900360600190f35b6200028d600480360360208110156200027c57600080fd5b50356001600160a01b0316620007f0565b604080516001600160a01b039092168252519081900360200190f35b6200020960048036036040811015620002c157600080fd5b50803590602001356200080b565b6200020960048036036040811015620002e757600080fd5b50803590602001356200088f565b620002ff6200094f565b005b6200020962000a39565b62000334600480360360208110156200032357600080fd5b50356001600160a01b031662000a3f565b604080519115158252519081900360200190f35b62000209600480360360208110156200036057600080fd5b503562000a54565b6200020962000a82565b6200020962000aa6565b62000244600480360360208110156200039457600080fd5b50356001600160a01b031662000aca565b6200028d60048036036020811015620003bd57600080fd5b503562000aef565b6200020962000b17565b6200020960048036036060811015620003e757600080fd5b506001600160a01b03813581169160208101358216916040909101351662000b53565b6200018762000e3f565b620002ff600480360360408110156200042c57600080fd5b506001600160a01b03813516906020013562000e9d565b6200028d600480360360208110156200045b57600080fd5b50356001600160a01b03166200102d565b62000209600480360360408110156200048457600080fd5b506001600160a01b038135811691602001351662001048565b6200020962001065565b620002ff620010b8565b6200020962001244565b620002ff60048036036080811015620004d357600080fd5b810190602081018135600160201b811115620004ee57600080fd5b8201836020820111156200050157600080fd5b803590602001918460208302840111600160201b831117156200052357600080fd5b9190808060200260200160405190810160405280939291908181526020018383602002808284376000920191909152509295949360208101935035915050600160201b8111156200057357600080fd5b8201836020820111156200058657600080fd5b803590602001918460208302840111600160201b83111715620005a857600080fd5b9190808060200260200160405190810160405280939291908181526020018383602002808284376000920191909152509295949360208101935035915050600160201b811115620005f857600080fd5b8201836020820111156200060b57600080fd5b803590602001918460208302840111600160201b831117156200062d57600080fd5b9190808060200260200160405190810160405280939291908181526020018383602002808284376000920191909152509295949360208101935035915050600160201b8111156200067d57600080fd5b8201836020820111156200069057600080fd5b803590602001918460208302840111600160201b83111715620006b257600080fd5b91908080602002602001604051908101604052809392919081815260200183836020028082843760009201919091525092955062001268945050505050565b62000209620014c6565b62000209620014ea565b620002096200150e565b60018054604080516020600284861615610100026000190190941693909304601f81018490048402820184019092528181529291830182828015620007985780601f106200076c5761010080835404028352916020019162000798565b820191906000526020600020905b8154815290600101906020018083116200077a57829003601f168201915b505050505081565b7f000000000000000000000000000000000000000000000000000000000000000081565b6001600160a01b031660009081526006602052604090208054600182015460029092015460ff90911692565b6002602052600090815260409020546001600160a01b031681565b6000806200083a7f0000000000000000000000000000000000000000000000000000000000000000846200088f565b905060006200086a7f0000000000000000000000000000000000000000000000000000000000000000856200088f565b905062000884816200087d8785620015b2565b9062001532565b925050505b92915050565b600082620008a05750600062000889565b81620008af5750600162000889565b8160011415620008c157508162000889565b60015b60018311156200093b57620008db83600262001573565b6200090357620008ec8480620015b2565b9350620008fb83600262001532565b925062000935565b6200090f8482620015b2565b90506200091d8480620015b2565b93506200093260026200087d85600162001610565b92505b620008c4565b620009478482620015b2565b949350505050565b336000908152600260205260409020546001600160a01b031615620009a65760405162461bcd60e51b815260040180806020018281038252602b81526020018062003ab9602b913960400191505060405180910390fd5b3360009081526004602052604090205460ff1615620009f75760405162461bcd60e51b815260040180806020018281038252602a81526020018062003978602a913960400191505060405180910390fd5b33600081815260046020526040808220805460ff19166001179055517fb0b94cff8b84fc67513b977d68a5cdd67550bd9b8d99a34b570e3367b78437869190a2565b60075490565b60046020526000908152604090205460ff1681565b6000620008897f0000000000000000000000000000000000000000000000000000000000000000836200080b565b7f000000000000000000000000000000000000000000000000000000000000000081565b7f000000000000000000000000000000000000000000000000000000000000000081565b60066020526000908152604090208054600182015460029092015460ff909116919083565b6007818154811062000afd57fe5b6000918252602090912001546001600160a01b0316905081565b600062000b4e7f000000000000000000000000000000000000000000000000000000000000000062000b4862001065565b6200080b565b905090565b6001600160a01b03808216600090815260056020908152604080832093871683529290529081205462000b895750600062000e38565b6001600160a01b038281166000908152600260205260409020541615801562000bcb57506001600160a01b03821660009081526004602052604090205460ff16155b1562000bda5750600062000e38565b6001600160a01b038481166000908152600260205260409020541662000c035750600062000e38565b6001600160a01b0380851660009081526002602090815260408083205481516370a0823160e01b815288861660048201529151939416926370a0823192602480840193919291829003018186803b15801562000c5e57600080fd5b505afa15801562000c73573d6000803e3d6000fd5b505050506040513d602081101562000c8a57600080fd5b505190506001600160a01b03858116908416148062000cc157506001600160a01b03831660009081526004602052604090205460ff165b1562000ccf57905062000e38565b6001600160a01b0380861660009081526002602090815260408083205481516370a0823160e01b815288861660048201529151939416926370a0823192602480840193919291829003018186803b15801562000d2a57600080fd5b505afa15801562000d3f573d6000803e3d6000fd5b505050506040513d602081101562000d5657600080fd5b50516001600160a01b0380861660008181526005602090815260408083208c86168452825280832054848452600283528184205482516370a0823160e01b815260048101969096529151969750929562000e0e956064956200087d959493909116926370a0823192602480840193829003018186803b15801562000dd957600080fd5b505afa15801562000dee573d6000803e3d6000fd5b505050506040513d602081101562000e0557600080fd5b505190620015b2565b90508181101562000e26576000935050505062000e38565b62000e32818362001610565b93505050505b9392505050565b6000805460408051602060026001851615610100026000190190941693909304601f81018490048402820184019092528181529291830182828015620007985780601f106200076c5761010080835404028352916020019162000798565b336000908152600260205260409020546001600160a01b031615158062000ed357503360009081526004602052604090205460ff165b62000f105760405162461bcd60e51b8152600401808060200182810382526031815260200180620039a26031913960400191505060405180910390fd5b336001600160a01b038316141562000f6c576040805162461bcd60e51b815260206004820152601a6024820152792cb7ba9031b0b713ba103ab73a393ab9ba103cb7bab939b2b63360311b604482015290519081900360640190fd5b6001600160a01b03821660009081526004602052604090205460ff161562000fdb576040805162461bcd60e51b815260206004820152601f60248201527f596f752063616e277420747275737420616e206f7267616e697a6174696f6e00604482015290519081900360640190fd5b60648111156200101d5760405162461bcd60e51b815260040180806020018281038252602581526020018062003a6b6025913960400191505060405180910390fd5b62001029828262001654565b5050565b6003602052600090815260409020546001600160a01b031681565b600560209081526000928352604080842090915290825290205481565b600062000b4e7f00000000000000000000000000000000000000000000000000000000000000006200087d427f000000000000000000000000000000000000000000000000000000000000000062001610565b336000908152600260205260409020546001600160a01b0316156200111e576040805162461bcd60e51b8152602060048201526017602482015276596f752063616e2774207369676e20757020747769636560481b604482015290519081900360640190fd5b3360009081526004602052604090205460ff16156200116f5760405162461bcd60e51b815260040180806020018281038252602b81526020018062003ae4602b913960400191505060405180910390fd5b600033604051620011809062002022565b6001600160a01b03909116815260405190819003602001906000f080158015620011ae573d6000803e3d6000fd5b5033600081815260026020908152604080832080546001600160a01b0387166001600160a01b0319918216811790925590845260039092529091208054909116821790559091506200120290606462001654565b604080516001600160a01b0383168152905133917f358ba8f768af134eb5af120e9a61dc1ef29b29f597f047b555fc3675064a0342919081900360200190a250565b7f000000000000000000000000000000000000000000000000000000000000000081565b8351825114620012aa5760405162461bcd60e51b815260040180806020018281038252602a815260200180620039d3602a913960400191505060405180910390fd5b8351835114620012ec5760405162461bcd60e51b81526004018080602001828103825260298152602001806200394f6029913960400191505060405180910390fd5b83518151146200132e5760405162461bcd60e51b815260040180806020018281038252602c815260200180620039fd602c913960400191505060405180910390fd5b60005b8351811015620014b35760008482815181106200134a57fe5b6020026020010151905060008483815181106200136357fe5b6020026020010151905060008784815181106200137c57fe5b6020026020010151905060008585815181106200139557fe5b602002602001015190506000620013ae83868662000b53565b905080821115620013fd576040805162461bcd60e51b8152602060048201526014602482015273151c9d5cdd081b1a5b5a5d08195e18d95959195960621b604482015290519081900360640190fd5b6200140a858584620016b6565b6001600160a01b0380841660009081526002602090815260408083205481516308299c0f60e21b81528a8616600482015289861660248201526044810188905291519416936320a6703c93606480840194938390030190829087803b1580156200147357600080fd5b505af115801562001488573d6000803e3d6000fd5b505050506040513d60208110156200149f57600080fd5b505060019095019450620013319350505050565b50620014c083516200186b565b50505050565b7f000000000000000000000000000000000000000000000000000000000000000081565b7f000000000000000000000000000000000000000000000000000000000000000081565b7f000000000000000000000000000000000000000000000000000000000000000081565b600062000e3883836040518060400160405280601a815260200179536166654d6174683a206469766973696f6e206279207a65726f60301b81525062001e5f565b600062000e38838360405180604001604052806018815260200177536166654d6174683a206d6f64756c6f206279207a65726f60401b81525062001f06565b600082620015c35750600062000889565b82820282848281620015d157fe5b041462000e385760405162461bcd60e51b815260040180806020018281038252602181526020018062003a296021913960400191505060405180910390fd5b600062000e3883836040518060400160405280601e81526020017f536166654d6174683a207375627472616374696f6e206f766572666c6f77000081525062001f6c565b3360008181526005602090815260408083206001600160a01b03871680855290835292819020859055805185815290519293927fe60c754dd8ab0b1b5fccba257d6ebcd7d09e360ab7dd7a6e58198ca1f57cdcec929181900390910190a35050565b6001600160a01b03831660009081526006602052604090205460ff161562001722576001600160a01b03831660009081526006602052604090206001015462001700908262001fc9565b6001600160a01b0384166000908152600660205260409020600101556200178d565b6001600160a01b0383166000818152600660205260408120805460ff1916600190811782559081018490556007805491820181559091527fa66cc928b5edb82af9bd49922954155ab7b0942694bea4ce44661d9a8736c6880180546001600160a01b03191690911790555b6001600160a01b03821660009081526006602052604090205460ff1615620017f9576001600160a01b038216600090815260066020526040902060020154620017d7908262001fc9565b6001600160a01b03831660009081526006602052604090206002015562001866565b6001600160a01b0382166000818152600660205260408120805460ff19166001908117825560029091018490556007805491820181559091527fa66cc928b5edb82af9bd49922954155ab7b0942694bea4ce44661d9a8736c6880180546001600160a01b03191690911790555b505050565b60008060005b60075481101562001a67576200188662002030565b60066000600784815481106200189857fe5b60009182526020808320909101546001600160a01b0316835282810193909352604091820190208151606081018352815460ff1615158152600182015493810184905260029091015491810182905292501015620019c9576001600160a01b03841615620019385760405162461bcd60e51b815260040180806020018281038252602181526020018062003a4a6021913960400191505060405180910390fd5b336001600160a01b0316600783815481106200195057fe5b6000918252602090912001546001600160a01b031614620019a35760405162461bcd60e51b815260040180806020018281038252602981526020018062003a906029913960400191505060405180910390fd5b60078281548110620019b157fe5b6000918252602090912001546001600160a01b031693505b80602001518160400151111562001a5d576001600160a01b0383161562001a37576040805162461bcd60e51b815260206004820181905260248201527f506174682073656e647320746f206d6f7265207468616e206f6e652064657374604482015290519081900360640190fd5b6007828154811062001a4557fe5b6000918252602090912001546001600160a01b031692505b5060010162001871565b506001600160a01b03821662001ac2576040805162461bcd60e51b815260206004820152601b60248201527a5472616e73616374696f6e206d757374206861766520612073726360281b604482015290519081900360640190fd5b6001600160a01b03811662001b1e576040805162461bcd60e51b815260206004820152601c60248201527f5472616e73616374696f6e206d75737420686176652061206465737400000000604482015290519081900360640190fd5b6001600160a01b0382166000908152600660205260409020600201541562001b83576040805162461bcd60e51b815260206004820152601360248201527253656e64657220697320726563656976696e6760681b604482015290519081900360640190fd5b6001600160a01b0381166000908152600660205260409020600101541562001be9576040805162461bcd60e51b8152602060048201526014602482015273526563697069656e742069732073656e64696e6760601b604482015290519081900360640190fd5b6001600160a01b038082166000908152600660205260408082206002015492851682529020600101541462001c505760405162461bcd60e51b815260040180806020018281038252602181526020018062003b0f6021913960400191505060405180910390fd5b60075460018401101562001ca5576040805162461bcd60e51b81526020600482015260176024820152765365656e20746f6f206d616e792061646472657373657360481b604482015290519081900360640190fd5b6001600160a01b038281166000818152600660209081526040918290206001015482519081529151938516937f8451019aab65b4193860ef723cb0d56b475a26a72b7bfc55c1dbd6121015285a9281900390910190a36007545b6001811062001e11576000600660006007600185038154811062001d1f57fe5b60009182526020808320909101546001600160a01b03168352820192909252604001812060010191909155600780546006918391600019860190811062001d6257fe5b60009182526020808320909101546001600160a01b03168352820192909252604001812060020191909155600780546006918391600019860190811062001da557fe5b6000918252602080832091909101546001600160a01b031683528201929092526040019020805460ff1916911515919091179055600780548062001de557fe5b600082815260209020810160001990810180546001600160a01b03191690559081019091550162001cff565b506007541562001866576040805162461bcd60e51b81526020600482015260146024820152735365656e2073686f756c6420626520656d70747960601b604482015290519081900360640190fd5b6000818362001eef5760405162461bcd60e51b81526004018080602001828103825283818151815260200191508051906020019080838360005b8381101562001eb357818101518382015260200162001e99565b50505050905090810190601f16801562001ee15780820380516001836020036101000a031916815260200191505b509250505060405180910390fd5b50600083858162001efc57fe5b0495945050505050565b6000818362001f585760405162461bcd60e51b815260206004820181815283516024840152835190928392604490910191908501908083836000831562001eb357818101518382015260200162001e99565b5082848162001f6357fe5b06949350505050565b6000818484111562001fc15760405162461bcd60e51b815260206004820181815283516024840152835190928392604490910191908501908083836000831562001eb357818101518382015260200162001e99565b505050900390565b60008282018381101562000e38576040805162461bcd60e51b815260206004820152601b60248201527a536166654d6174683a206164646974696f6e206f766572666c6f7760281b604482015290519081900360640190fd5b6118fb806200205483390190565b60405180606001604052806000151581526020016000815260200160008152509056fe60c0604052600960f91b6080523480156200001957600080fd5b50604051620018fb380380620018fb833981810160405260208110156200003f57600080fd5b50516001600160a01b0381166200005557600080fd5b6001600160601b0319606082901b1660a052600680546001600160a01b031916331790556200008362000192565b6005556200009062000196565b6007556006546040805163863623bb60e01b815290516001600160a01b039092169163863623bb91600480820192602092909190829003018186803b158015620000d957600080fd5b505afa158015620000ee573d6000803e3d6000fd5b505050506040513d60208110156200010557600080fd5b505160085560065460408051630cf96a5b60e31b815290516200018b9284926001600160a01b03909116916367cb52d891600480820192602092909190829003018186803b1580156200015757600080fd5b505afa1580156200016c573d6000803e3d6000fd5b505050506040513d60208110156200018357600080fd5b505162000215565b50620005d5565b4290565b600080620001ea620001a762000324565b620001b8620001cc6001826200039d565b620003e360201b62000c021790919060201c565b620001d662000447565b6200048d60201b62000c5a1790919060201c565b90506200020f620001fa62000192565b82620004eb60201b62000cb31790919060201c565b91505090565b6001600160a01b03821662000271576040805162461bcd60e51b815260206004820152601f60248201527f45524332303a206d696e7420746f20746865207a65726f206164647265737300604482015290519081900360640190fd5b6200027f6000838362000535565b6200029b81600254620003e360201b62000c021790919060201c565b6002556001600160a01b03821660009081526020818152604090912054620002ce91839062000c02620003e3821b17901c565b6001600160a01b0383166000818152602081815260408083209490945583518581529351929391927fddf252ad1be2c89b69c2b068fc378daa952ba7f163c4a11628f55a4df523b3ef9281900390910190a35050565b6006546040805163eae4c19f60e01b815290516000926001600160a01b03169163eae4c19f916004808301926020929190829003018186803b1580156200036a57600080fd5b505afa1580156200037f573d6000803e3d6000fd5b505050506040513d60208110156200039657600080fd5b5051905090565b6006546040805163526575a160e11b815290516000926001600160a01b03169163a4caeb42916004808301926020929190829003018186803b1580156200036a57600080fd5b6000828201838110156200043e576040805162461bcd60e51b815260206004820152601b60248201527f536166654d6174683a206164646974696f6e206f766572666c6f770000000000604482015290519081900360640190fd5b90505b92915050565b6006546040805163ef78d4fd60e01b815290516000926001600160a01b03169163ef78d4fd916004808301926020929190829003018186803b1580156200036a57600080fd5b6000826200049e5750600062000441565b82820282848281620004ac57fe5b04146200043e5760405162461bcd60e51b8152600401808060200182810382526021815260200180620018da6021913960400191505060405180910390fd5b60006200043e83836040518060400160405280601e81526020017f536166654d6174683a207375627472616374696f6e206f766572666c6f7700008152506200053a60201b60201c565b505050565b60008184841115620005cd5760405162461bcd60e51b81526004018080602001828103825283818151815260200191508051906020019080838360005b838110156200059157818101518382015260200162000577565b50505050905090810190601f168015620005bf5780820380516001836020036101000a031916815260200191505b509250505060405180910390fd5b505050900390565b60805160f81c60a05160601c6112d1620006096000398061058952806109bc5280610ac45250806106ac52506112d16000f3fe608060405234801561001057600080fd5b50600436106101645760003560e01c80636c050eae116100c95780636c050eae1461034c57806370a082311461035457806370dea79a1461037a57806375f12b21146103825780638b4eed811461038a5780638da5cb5b1461039257806395d89b411461039a578063a2e62045146103a2578063a457c2d7146103aa578063a4caeb42146103d6578063a9059cbb146103de578063d40480891461040a578063dd62ed3e14610412578063ef78d4fd1461044057610164565b806306fdde031461016957806307da68f5146101e6578063095ea7b3146101f05780630b0aaf2714610230578063107129dd1461024a57806316ada5471461025257806318160ddd1461025a57806320a6703c1461026257806323b872dd14610298578063313ce567146102ce578063365a86fc146102ec57806339509351146103105780633b6fe91f1461033c57806341c3054614610344575b600080fd5b610171610448565b6040805160208082528351818301528351919283929083019185019080838360005b838110156101ab578181015183820152602001610193565b50505050905090810190601f1680156101d85780820380516001836020036101000a031916815260200191505b509250505060405180910390f35b6101ee61057e565b005b61021c6004803603604081101561020657600080fd5b506001600160a01b0381351690602001356105c2565b604080519115158252519081900360200190f35b6102386105d9565b60408051918252519081900360200190f35b610238610605565b61023861060b565b61023861060f565b61021c6004803603606081101561027857600080fd5b506001600160a01b03813581169160208101359091169060400135610615565b61021c600480360360608110156102ae57600080fd5b506001600160a01b03813581169160208101359091169060400135610641565b6102d66106aa565b6040805160ff9092168252519081900360200190f35b6102f46106ce565b604080516001600160a01b039092168252519081900360200190f35b61021c6004803603604081101561032657600080fd5b506001600160a01b0381351690602001356106dd565b610238610713565b610238610789565b6102386107d5565b6102386004803603602081101561036a57600080fd5b50356001600160a01b031661090b565b610238610926565b61021c61096b565b6102386109b4565b6102f46109ba565b6101716109de565b6101ee610a23565b61021c600480360360408110156103c057600080fd5b506001600160a01b038135169060200135610aec565b610238610b3b565b61021c600480360360408110156103f457600080fd5b506001600160a01b038135169060200135610b80565b610238610b8c565b6102386004803603604081101561042857600080fd5b506001600160a01b0381358116916020013516610b92565b610238610bbd565b600654604080516306fdde0360e01b815290516060926001600160a01b0316916306fdde03916004808301926000929190829003018186803b15801561048d57600080fd5b505afa1580156104a1573d6000803e3d6000fd5b505050506040513d6000823e601f3d908101601f1916820160405260208110156104ca57600080fd5b8101908080516040519392919084600160201b8211156104e957600080fd5b9083019060208201858111156104fe57600080fd5b8251600160201b81118282018810171561051757600080fd5b82525081516020918201929091019080838360005b8381101561054457818101518382015260200161052c565b50505050905090810190601f1680156105715780820380516001836020036101000a031916815260200191505b5060405250505090505b90565b336001600160a01b037f000000000000000000000000000000000000000000000000000000000000000016146105b357600080fd5b6009805460ff19166001179055565b60006105cf338484610cf5565b5060015b92915050565b60006106006105e6610bbd565b6105fa6105f1610713565b60055490610cb3565b90610de1565b905090565b60075481565b4290565b60025490565b6006546000906001600160a01b0316331461062f57600080fd5b61063a848484610e20565b9392505050565b600061064e848484610e20565b6106a0843361069b85604051806060016040528060288152602001611206602891396001600160a01b038a1660009081526001602090815260408083203384529091529020549190610f7b565b610cf5565b5060019392505050565b7f000000000000000000000000000000000000000000000000000000000000000081565b6006546001600160a01b031681565b3360008181526001602090815260408083206001600160a01b038716845290915281205490916105cf91859061069b9086610c02565b6006546040805163eae4c19f60e01b815290516000926001600160a01b03169163eae4c19f916004808301926020929190829003018186803b15801561075857600080fd5b505afa15801561076c573d6000803e3d6000fd5b505050506040513d602081101561078257600080fd5b5051905090565b6000806107bb610797610713565b6107a76107ad60016107a7610b3b565b90610c02565b6107b5610bbd565b90610c5a565b90506107cf6107c861060b565b8290610cb3565b91505090565b60006107df61096b565b156107ec5750600061057b565b6005546007546008546000929190836108036105d9565b90505b61080e61060b565b6108188585610c02565b116108d65761083161082a8484610c5a565b8690610c02565b945061083d8484610c02565b9350610847610bbd565b9250610854816001610c02565b600654604080516361c4b42160e01b81526004810184905290519293506001600160a01b03909116916361c4b42191602480820192602092909190829003018186803b1580156108a357600080fd5b505afa1580156108b7573d6000803e3d6000fd5b505050506040513d60208110156108cd57600080fd5b50519150610806565b60006108ea856108e461060b565b90610cb3565b90506109006108f98285610c5a565b8790610c02565b965050505050505090565b6001600160a01b031660009081526020819052604090205490565b6006546040805163386f53cd60e11b815290516000926001600160a01b0316916370dea79a916004808301926020929190829003018186803b15801561075857600080fd5b60095460009060ff16156109815750600161057b565b60006109916005546108e461060b565b905061099b610926565b8111156109ac57600191505061057b565b600091505090565b60055481565b7f000000000000000000000000000000000000000000000000000000000000000081565b600654604080516395d89b4160e01b815290516060926001600160a01b0316916395d89b41916004808301926000929190829003018186803b15801561048d57600080fd5b6000610a2d6107d5565b90508015610ae957610a3d610789565b600755610a4861060b565b6005556006546040805163863623bb60e01b815290516001600160a01b039092169163863623bb91600480820192602092909190829003018186803b158015610a9057600080fd5b505afa158015610aa4573d6000803e3d6000fd5b505050506040513d6020811015610aba57600080fd5b5051600855610ae97f000000000000000000000000000000000000000000000000000000000000000082611012565b50565b60006105cf338461069b85604051806060016040528060258152602001611277602591393360009081526001602090815260408083206001600160a01b038d1684529091529020549190610f7b565b6006546040805163526575a160e11b815290516000926001600160a01b03169163a4caeb42916004808301926020929190829003018186803b15801561075857600080fd5b600061063a8383611102565b60085481565b6001600160a01b03918216600090815260016020908152604080832093909416825291909152205490565b6006546040805163ef78d4fd60e01b815290516000926001600160a01b03169163ef78d4fd916004808301926020929190829003018186803b15801561075857600080fd5b60008282018381101561063a576040805162461bcd60e51b815260206004820152601b60248201527a536166654d6174683a206164646974696f6e206f766572666c6f7760281b604482015290519081900360640190fd5b600082610c69575060006105d3565b82820282848281610c7657fe5b041461063a5760405162461bcd60e51b81526004018080602001828103825260218152602001806111e56021913960400191505060405180910390fd5b600061063a83836040518060400160405280601e81526020017f536166654d6174683a207375627472616374696f6e206f766572666c6f770000815250610f7b565b6001600160a01b038316610d3a5760405162461bcd60e51b81526004018080602001828103825260248152602001806112536024913960400191505060405180910390fd5b6001600160a01b038216610d7f5760405162461bcd60e51b815260040180806020018281038252602281526020018061119d6022913960400191505060405180910390fd5b6001600160a01b03808416600081815260016020908152604080832094871680845294825291829020859055815185815291517f8c5be1e5ebec7d5bd14f71427d1e84f3dd0314c0f7b2291e5b200ac8c7c3b9259281900390910190a3505050565b600061063a83836040518060400160405280601a815260200179536166654d6174683a206469766973696f6e206279207a65726f60301b81525061110f565b6001600160a01b038316610e655760405162461bcd60e51b815260040180806020018281038252602581526020018061122e6025913960400191505060405180910390fd5b6001600160a01b038216610eaa5760405162461bcd60e51b815260040180806020018281038252602381526020018061117a6023913960400191505060405180910390fd5b610eb5838383611174565b610ef2816040518060600160405280602681526020016111bf602691396001600160a01b0386166000908152602081905260409020549190610f7b565b6001600160a01b038085166000908152602081905260408082209390935590841681522054610f219082610c02565b6001600160a01b038084166000818152602081815260409182902094909455805185815290519193928716927fddf252ad1be2c89b69c2b068fc378daa952ba7f163c4a11628f55a4df523b3ef92918290030190a3505050565b6000818484111561100a5760405162461bcd60e51b81526004018080602001828103825283818151815260200191508051906020019080838360005b83811015610fcf578181015183820152602001610fb7565b50505050905090810190601f168015610ffc5780820380516001836020036101000a031916815260200191505b509250505060405180910390fd5b505050900390565b6001600160a01b03821661106d576040805162461bcd60e51b815260206004820152601f60248201527f45524332303a206d696e7420746f20746865207a65726f206164647265737300604482015290519081900360640190fd5b61107960008383611174565b6002546110869082610c02565b6002556001600160a01b0382166000908152602081905260409020546110ac9082610c02565b6001600160a01b0383166000818152602081815260408083209490945583518581529351929391927fddf252ad1be2c89b69c2b068fc378daa952ba7f163c4a11628f55a4df523b3ef9281900390910190a35050565b60006105cf338484610e20565b6000818361115e5760405162461bcd60e51b8152602060048201818152835160248401528351909283926044909101919085019080838360008315610fcf578181015183820152602001610fb7565b50600083858161116a57fe5b0495945050505050565b50505056fe45524332303a207472616e7366657220746f20746865207a65726f206164647265737345524332303a20617070726f766520746f20746865207a65726f206164647265737345524332303a207472616e7366657220616d6f756e7420657863656564732062616c616e6365536166654d6174683a206d756c7469706c69636174696f6e206f766572666c6f7745524332303a207472616e7366657220616d6f756e74206578636565647320616c6c6f77616e636545524332303a207472616e736665722066726f6d20746865207a65726f206164647265737345524332303a20617070726f76652066726f6d20746865207a65726f206164647265737345524332303a2064656372656173656420616c6c6f77616e63652062656c6f77207a65726fa26469706673582212206b19c112093694420366321b280d9996642f1cc6f64a9b06257d5f7a151065db64736f6c63430007010033536166654d6174683a206d756c7469706c69636174696f6e206f766572666c6f77546f6b656e73206172726179206c656e677468206d75737420657175616c2073726373206172726179596f752063616e2774207369676e20757020617320616e206f7267616e697a6174696f6e207477696365596f752063616e206f6e6c792074727573742070656f706c6520616674657220796f75277665207369676e656420757021546f6b656e73206172726179206c656e677468206d75737420657175616c206465737473206172726179546f6b656e73206172726179206c656e677468206d75737420657175616c20616d6f756e7473206172726179536166654d6174683a206d756c7469706c69636174696f6e206f766572666c6f77506174682073656e64732066726f6d206d6f7265207468616e206f6e65207372634c696d6974206d75737420626520612070657263656e74616765206f7574206f66203130305061746820646f65736e27742073656e642066726f6d207472616e73616374696f6e2073656e6465724e6f726d616c2075736572732063616e6e6f74207369676e7570206173206f7267616e697a6174696f6e734f7267616e697a6174696f6e732063616e6e6f74207369676e7570206173206e6f726d616c207573657273556e657175616c2073656e7420616e6420726563656976656420616d6f756e7473a2646970667358221220b3589ece41052f9b8aabd01ed8be51ecb2015204a9c9b1a3a8c44c895223d99464736f6c63430007010033536166654d6174683a206d756c7469706c69636174696f6e206f766572666c6f77",
  "immutableReferences": {
    "489": [
      {
        "length": 32,
        "start": 2068
      },
      {
        "length": 32,
        "start": 4678
      }
    ],
    "491": [
      {
        "length": 32,
        "start": 1954
      },
      {
        "length": 32,
        "start": 2116
      }
    ],
    "493": [
      {
        "length": 32,
        "start": 4205
      },
      {
        "length": 32,
        "start": 5356
      }
    ],
    "499": [
      {
        "length": 32,
        "start": 2692
      }
    ],
    "501": [
      {
        "length": 32,
        "start": 2652
      },
      {
        "length": 32,
        "start": 2847
      },
      {
        "length": 32,
        "start": 5392
      }
    ],
    "503": [
      {
        "length": 32,
        "start": 4243
      },
      {
        "length": 32,
        "start": 5320
      }
    ],
    "505": [
      {
        "length": 32,
        "start": 2728
      }
    ]
  },
  "source": "// SPDX-License-Identifier: AGPL\npragma solidity ^0.7.0;\nimport \"../Hub.sol\";\n\ncontract MockHub is Hub {\n    constructor(\n        uint256 _inflation,\n        uint256 _period,\n        string memory _symbol,\n        string memory _name,\n        uint256 _initialPayout,\n        uint256 _startingRate,\n        uint256 _timeout\n    )\n    Hub(_inflation, _period, _symbol, _name, _initialPayout, _startingRate, _timeout)\n    {\n\n    }\n\n    function getSeen() public view returns (uint256) {\n        return seen.length;\n    }\n\n    function getValidation(address user) public view returns (bool, uint256, uint256) {\n        return (validation[user].seen, validation[user].sent, validation[user].received);\n    }\n}",
  "sourcePath": "/media/000/Documents/Circles/circles-contracts/contracts/mocks/MockHub.sol",
  "compiler": {
    "name": "solc",
    "version": "0.7.1+commit.f4a555be.Emscripten.clang"
  },
  "schemaVersion": "3.2.3",
  "updatedAt": "2020-10-13T14:21:38.734Z",
  "devdoc": {
    "kind": "dev",
    "methods": {
      "checkSendLimit(address,address,address)": {
        "details": "the goal of this function is to always return a sensible number, it's used to validate transfer throughs, and also heavily in the graph/pathfinding services",
        "params": {
          "dest": "the recipient of the tokens",
          "src": "the sender of the tokens",
          "tokenOwner": "the safe/owner that the token was minted to"
        },
        "returns": {
          "_0": "the amount of tokenowner's token src can send to dest"
        }
      },
      "inflate(uint256,uint256)": {
        "details": "this is basically the calculation for compound interest, with some adjustments because of integer math",
        "params": {
          "_initial": "the starting issuance rate",
          "_periods": "the step to calculate the issuance rate as of"
        },
        "returns": {
          "_0": "initial issuance rate as if interest (inflation) has been compounded period times"
        }
      },
      "issuance()": {
        "details": "current issuance is the initial issuance inflated by the amount of inflation periods since the hub was deployed",
        "returns": {
          "_0": "current issuance rate"
        }
      },
      "issuanceByStep(uint256)": {
        "params": {
          "_periods": "the step to calculate the issuance rate at"
        },
        "returns": {
          "_0": "inflation rate as of the given period"
        }
      },
      "organizationSignup()": {
        "details": "signup is permanent for organizations too, there's no way to unsignup"
      },
      "periods()": {
        "returns": {
          "_0": "the amount of periods since hub was deployed"
        }
      },
      "pow(uint256,uint256)": {
        "details": "this is an implementation of exponentiation by squares",
        "params": {
          "base": "the base to be used in the calculation",
          "exponent": "the exponent to be used in the calculation"
        },
        "returns": {
          "_0": "the result of the calculation"
        }
      },
      "signup()": {
        "details": "signup is permanent, there's no way to unsignup"
      },
      "transferThrough(address[],address[],address[],uint256[])": {
        "details": "tokenOwners[0], srcs[0], dests[0], and wads[0] constitute a transaction step",
        "params": {
          "dests": "the recipient of each transaction step",
          "srcs": "the sender of each transaction step",
          "tokenOwners": "the owner of the tokens being sent in each transaction step",
          "wads": "the amount for each transaction step"
        }
      },
      "trust(address,uint256)": {
        "details": "the trust graph is weighted and directed",
        "params": {
          "limit": "the amount this user is trusted, as a percentage of 100",
          "user": "the user to be trusted"
        }
      }
    },
    "version": 1
  },
  "userdoc": {
    "kind": "user",
    "methods": {
      "checkSendLimit(address,address,address)": {
        "notice": "finds the maximum amount of a specific token that can be sent between two users"
      },
      "inflate(uint256,uint256)": {
        "notice": "find the current issuance rate for any initial issuance and amount of periods"
      },
      "issuance()": {
        "notice": "calculates the current issuance rate per second"
      },
      "issuanceByStep(uint256)": {
        "notice": "finds the inflation rate at a given inflation period"
      },
      "organizationSignup()": {
        "notice": "register an organization address with the hub and join the trust graph"
      },
      "periods()": {
        "notice": "helper function for finding the amount of inflation periods since this hub was deployed"
      },
      "signup()": {
        "notice": "signup to this circles hub - create a circles token and join the trust graph"
      },
      "transferThrough(address[],address[],address[],uint256[])": {
        "notice": "walks through tokenOwners, srcs, dests, and amounts array and executes transtive transfer"
      },
      "trust(address,uint256)": {
        "notice": "trust a user, calling this means you're able to receive tokens from this user transitively"
      }
    },
    "version": 1
  }
}