{
  "contractName": "MockHub",
  "abi": [
    {
      "constant": true,
      "inputs": [],
      "name": "time",
      "outputs": [
        {
          "name": "",
          "type": "uint256"
        }
      ],
      "payable": false,
      "stateMutability": "view",
      "type": "function"
    },
    {
      "constant": true,
      "inputs": [],
      "name": "divisor",
      "outputs": [
        {
          "name": "",
          "type": "uint256"
        }
      ],
      "payable": false,
      "stateMutability": "view",
      "type": "function"
    },
    {
      "constant": true,
      "inputs": [
        {
          "name": "",
          "type": "address"
        }
      ],
      "name": "userToToken",
      "outputs": [
        {
          "name": "",
          "type": "address"
        }
      ],
      "payable": false,
      "stateMutability": "view",
      "type": "function"
    },
    {
      "constant": true,
      "inputs": [
        {
          "name": "_initial",
          "type": "uint256"
        },
        {
          "name": "_periods",
          "type": "uint256"
        }
      ],
      "name": "inflate",
      "outputs": [
        {
          "name": "",
          "type": "uint256"
        }
      ],
      "payable": false,
      "stateMutability": "view",
      "type": "function"
    },
    {
      "constant": false,
      "inputs": [
        {
          "name": "_inflation",
          "type": "uint256"
        }
      ],
      "name": "updateInflation",
      "outputs": [
        {
          "name": "",
          "type": "bool"
        }
      ],
      "payable": false,
      "stateMutability": "nonpayable",
      "type": "function"
    },
    {
      "constant": true,
      "inputs": [
        {
          "name": "base",
          "type": "uint256"
        },
        {
          "name": "exponent",
          "type": "uint256"
        }
      ],
      "name": "pow",
      "outputs": [
        {
          "name": "",
          "type": "uint256"
        }
      ],
      "payable": false,
      "stateMutability": "pure",
      "type": "function"
    },
    {
      "constant": true,
      "inputs": [],
      "name": "initialPayout",
      "outputs": [
        {
          "name": "",
          "type": "uint256"
        }
      ],
      "payable": false,
      "stateMutability": "view",
      "type": "function"
    },
    {
      "constant": true,
      "inputs": [],
      "name": "startingRate",
      "outputs": [
        {
          "name": "",
          "type": "uint256"
        }
      ],
      "payable": false,
      "stateMutability": "view",
      "type": "function"
    },
    {
      "constant": false,
      "inputs": [
        {
          "name": "_name",
          "type": "string"
        }
      ],
      "name": "signup",
      "outputs": [
        {
          "name": "",
          "type": "bool"
        }
      ],
      "payable": false,
      "stateMutability": "nonpayable",
      "type": "function"
    },
    {
      "constant": false,
      "inputs": [
        {
          "name": "_symbol",
          "type": "string"
        }
      ],
      "name": "updateSymbol",
      "outputs": [
        {
          "name": "",
          "type": "bool"
        }
      ],
      "payable": false,
      "stateMutability": "nonpayable",
      "type": "function"
    },
    {
      "constant": true,
      "inputs": [
        {
          "name": "",
          "type": "address"
        }
      ],
      "name": "validation",
      "outputs": [
        {
          "name": "identity",
          "type": "address"
        },
        {
          "name": "sent",
          "type": "uint256"
        },
        {
          "name": "received",
          "type": "uint256"
        }
      ],
      "payable": false,
      "stateMutability": "view",
      "type": "function"
    },
    {
      "constant": true,
      "inputs": [
        {
          "name": "",
          "type": "uint256"
        }
      ],
      "name": "seen",
      "outputs": [
        {
          "name": "",
          "type": "address"
        }
      ],
      "payable": false,
      "stateMutability": "view",
      "type": "function"
    },
    {
      "constant": true,
      "inputs": [],
      "name": "issuance",
      "outputs": [
        {
          "name": "",
          "type": "uint256"
        }
      ],
      "payable": false,
      "stateMutability": "view",
      "type": "function"
    },
    {
      "constant": true,
      "inputs": [
        {
          "name": "tokenOwner",
          "type": "address"
        },
        {
          "name": "src",
          "type": "address"
        },
        {
          "name": "dest",
          "type": "address"
        }
      ],
      "name": "checkSendLimit",
      "outputs": [
        {
          "name": "",
          "type": "uint256"
        }
      ],
      "payable": false,
      "stateMutability": "view",
      "type": "function"
    },
    {
      "constant": true,
      "inputs": [],
      "name": "owner",
      "outputs": [
        {
          "name": "",
          "type": "address"
        }
      ],
      "payable": false,
      "stateMutability": "view",
      "type": "function"
    },
    {
      "constant": true,
      "inputs": [],
      "name": "symbol",
      "outputs": [
        {
          "name": "",
          "type": "string"
        }
      ],
      "payable": false,
      "stateMutability": "view",
      "type": "function"
    },
    {
      "constant": false,
      "inputs": [
        {
          "name": "user",
          "type": "address"
        },
        {
          "name": "limit",
          "type": "uint256"
        }
      ],
      "name": "trust",
      "outputs": [],
      "payable": false,
      "stateMutability": "nonpayable",
      "type": "function"
    },
    {
      "constant": true,
      "inputs": [
        {
          "name": "",
          "type": "address"
        }
      ],
      "name": "tokenToUser",
      "outputs": [
        {
          "name": "",
          "type": "address"
        }
      ],
      "payable": false,
      "stateMutability": "view",
      "type": "function"
    },
    {
      "constant": true,
      "inputs": [
        {
          "name": "",
          "type": "address"
        },
        {
          "name": "",
          "type": "address"
        }
      ],
      "name": "limits",
      "outputs": [
        {
          "name": "",
          "type": "uint256"
        }
      ],
      "payable": false,
      "stateMutability": "view",
      "type": "function"
    },
    {
      "constant": true,
      "inputs": [],
      "name": "periods",
      "outputs": [
        {
          "name": "",
          "type": "uint256"
        }
      ],
      "payable": false,
      "stateMutability": "view",
      "type": "function"
    },
    {
      "constant": false,
      "inputs": [
        {
          "name": "_newOwner",
          "type": "address"
        }
      ],
      "name": "changeOwner",
      "outputs": [
        {
          "name": "",
          "type": "bool"
        }
      ],
      "payable": false,
      "stateMutability": "nonpayable",
      "type": "function"
    },
    {
      "constant": true,
      "inputs": [],
      "name": "inflation",
      "outputs": [
        {
          "name": "",
          "type": "uint256"
        }
      ],
      "payable": false,
      "stateMutability": "view",
      "type": "function"
    },
    {
      "constant": false,
      "inputs": [
        {
          "name": "tokenOwners",
          "type": "address[]"
        },
        {
          "name": "srcs",
          "type": "address[]"
        },
        {
          "name": "dests",
          "type": "address[]"
        },
        {
          "name": "wads",
          "type": "uint256[]"
        }
      ],
      "name": "transferThrough",
      "outputs": [],
      "payable": false,
      "stateMutability": "nonpayable",
      "type": "function"
    },
    {
      "constant": true,
      "inputs": [],
      "name": "deployedAt",
      "outputs": [
        {
          "name": "",
          "type": "uint256"
        }
      ],
      "payable": false,
      "stateMutability": "view",
      "type": "function"
    },
    {
      "constant": true,
      "inputs": [],
      "name": "period",
      "outputs": [
        {
          "name": "",
          "type": "uint256"
        }
      ],
      "payable": false,
      "stateMutability": "view",
      "type": "function"
    },
    {
      "inputs": [
        {
          "name": "_owner",
          "type": "address"
        },
        {
          "name": "_inflation",
          "type": "uint256"
        },
        {
          "name": "_period",
          "type": "uint256"
        },
        {
          "name": "_symbol",
          "type": "string"
        },
        {
          "name": "_initialPayout",
          "type": "uint256"
        },
        {
          "name": "_startingRate",
          "type": "uint256"
        }
      ],
      "payable": false,
      "stateMutability": "nonpayable",
      "type": "constructor"
    },
    {
      "anonymous": false,
      "inputs": [
        {
          "indexed": true,
          "name": "user",
          "type": "address"
        },
        {
          "indexed": false,
          "name": "token",
          "type": "address"
        }
      ],
      "name": "Signup",
      "type": "event"
    },
    {
      "anonymous": false,
      "inputs": [
        {
          "indexed": true,
          "name": "canSendTo",
          "type": "address"
        },
        {
          "indexed": true,
          "name": "user",
          "type": "address"
        },
        {
          "indexed": false,
          "name": "limit",
          "type": "uint256"
        }
      ],
      "name": "Trust",
      "type": "event"
    },
    {
      "anonymous": false,
      "inputs": [
        {
          "indexed": true,
          "name": "from",
          "type": "address"
        },
        {
          "indexed": true,
          "name": "to",
          "type": "address"
        },
        {
          "indexed": false,
          "name": "amount",
          "type": "uint256"
        }
      ],
      "name": "HubTransfer",
      "type": "event"
    },
    {
      "constant": true,
      "inputs": [],
      "name": "getSeen",
      "outputs": [
        {
          "name": "",
          "type": "uint256"
        }
      ],
      "payable": false,
      "stateMutability": "view",
      "type": "function"
    },
    {
      "constant": true,
      "inputs": [
        {
          "name": "user",
          "type": "address"
        }
      ],
      "name": "getValidation",
      "outputs": [
        {
          "name": "",
          "type": "address"
        },
        {
          "name": "",
          "type": "uint256"
        },
        {
          "name": "",
          "type": "uint256"
        }
      ],
      "payable": false,
      "stateMutability": "view",
      "type": "function"
    }
  ],
  "bytecode": "0x60806040523480156200001157600080fd5b506040516200606938038062006069833981018060405260c08110156200003757600080fd5b8101908080519060200190929190805190602001909291908051906020019092919080516401000000008111156200006e57600080fd5b828101905060208101848111156200008557600080fd5b8151856001820283011164010000000082111715620000a357600080fd5b50509291906020018051906020019092919080519060200190929190505050858585858585600073ffffffffffffffffffffffffffffffffffffffff168673ffffffffffffffffffffffffffffffffffffffff1614156200010357600080fd5b856000806101000a81548173ffffffffffffffffffffffffffffffffffffffff021916908373ffffffffffffffffffffffffffffffffffffffff160217905550846001819055506200015b85620001a860201b60201c565b6002819055508360038190555082600490805190602001906200018092919062000400565b50816005819055508060068190555042600781905550505050505050505050505050620004af565b600080600090505b6009620001de620001c9600a846200020c60201b60201c565b856200035660201b620022e71790919060201c565b1115620001f157600181019050620001b0565b62000204600a826200020c60201b60201c565b915050919050565b60008083141562000221576000905062000350565b600082141562000235576001905062000350565b6001821415620002485782905062000350565b6000600190505b600183111562000332576000620002766002856200037e60201b6200230f1790919060201c565b1415620002bc57620002978485620003a160201b620022a91790919060201c565b9350620002b46002846200035660201b620022e71790919060201c565b92506200032c565b620002d68185620003a160201b620022a91790919060201c565b9050620002f28485620003a160201b620022a91790919060201c565b935062000329600262000315600186620003df60201b620023321790919060201c565b6200035660201b620022e71790919060201c565b92505b6200024f565b6200034c8185620003a160201b620022a91790919060201c565b9150505b92915050565b60008082116200036557600080fd5b60008284816200037157fe5b0490508091505092915050565b6000808214156200038e57600080fd5b8183816200039857fe5b06905092915050565b600080831415620003b65760009050620003d9565b6000828402905082848281620003c857fe5b0414620003d457600080fd5b809150505b92915050565b600082821115620003ef57600080fd5b600082840390508091505092915050565b828054600181600116156101000203166002900490600052602060002090601f016020900481019282601f106200044357805160ff191683800117855562000474565b8280016001018555821562000474579182015b828111156200047357825182559160200191906001019062000456565b5b50905062000483919062000487565b5090565b620004ac91905b80821115620004a85760008160009055506001016200048e565b5090565b90565b615baa80620004bf6000396000f3fe60806040523480156200001157600080fd5b5060043610620001d25760003560e01c80637f501d041162000111578063a3eb2b4a11620000a5578063be0522e0116200007b578063be0522e01462000a93578063d62fd9a21462000ab3578063eae4c19f1462000d36578063ef78d4fd1462000d5657620001d2565b8063a3eb2b4a1462000999578063a4caeb421462000a14578063a6f9dae11462000a3457620001d2565b80638da5cb5b11620000e75780638da5cb5b14620007ed57806395d89b4114620008395780639951d62f14620008c1578063a18b506b146200091257620001d2565b80637f501d0414620006c1578063863623bb14620007325780638a0ef184146200075257620001d2565b80632e4c697f11620001895780634ee94b1d116200015f5780634ee94b1d146200045a578063519c6377146200047a578063537f5312146200055357806377ed63c2146200062c57620001d2565b80632e4c697f14620003cb57806330387a4f146200041a57806339ee514c146200043a57620001d2565b806316ada54714620001d75780631f2dc5ef14620001f757806327cd4de1146200021757806328d249fe14620002ac5780632a93834214620003335780632ad3b3c31462000382575b600080fd5b620001e162000d76565b6040518082815260200191505060405180910390f35b6200020162000d7e565b6040518082815260200191505060405180910390f35b6200025c600480360360208110156200022f57600080fd5b81019080803573ffffffffffffffffffffffffffffffffffffffff16906020019092919050505062000d84565b604051808473ffffffffffffffffffffffffffffffffffffffff1673ffffffffffffffffffffffffffffffffffffffff168152602001838152602001828152602001935050505060405180910390f35b620002f160048036036020811015620002c457600080fd5b81019080803573ffffffffffffffffffffffffffffffffffffffff16906020019092919050505062000e7f565b604051808273ffffffffffffffffffffffffffffffffffffffff1673ffffffffffffffffffffffffffffffffffffffff16815260200191505060405180910390f35b6200036c600480360360408110156200034b57600080fd5b81019080803590602001909291908035906020019092919050505062000eb2565b6040518082815260200191505060405180910390f35b620003b1600480360360208110156200039a57600080fd5b810190808035906020019092919050505062000f0a565b604051808215151515815260200191505060405180910390f35b6200040460048036036040811015620003e357600080fd5b81019080803590602001909291908035906020019092919050505062000f76565b6040518082815260200191505060405180910390f35b6200042462001098565b6040518082815260200191505060405180910390f35b620004446200109e565b6040518082815260200191505060405180910390f35b62000464620010a4565b6040518082815260200191505060405180910390f35b62000539600480360360208110156200049257600080fd5b8101908080359060200190640100000000811115620004b057600080fd5b820183602082011115620004c357600080fd5b80359060200191846001830284011164010000000083111715620004e657600080fd5b91908080601f016020809104026020016040519081016040528093929190818152602001838380828437600081840152601f19601f820116905080830192505050505050509192919290505050620010b1565b604051808215151515815260200191505060405180910390f35b62000612600480360360208110156200056b57600080fd5b81019080803590602001906401000000008111156200058957600080fd5b8201836020820111156200059c57600080fd5b80359060200191846001830284011164010000000083111715620005bf57600080fd5b91908080601f016020809104026020016040519081016040528093929190818152602001838380828437600081840152601f19601f820116905080830192505050505050509192919290505050620013b9565b604051808215151515815260200191505060405180910390f35b62000671600480360360208110156200064457600080fd5b81019080803573ffffffffffffffffffffffffffffffffffffffff16906020019092919050505062001437565b604051808473ffffffffffffffffffffffffffffffffffffffff1673ffffffffffffffffffffffffffffffffffffffff168152602001838152602001828152602001935050505060405180910390f35b620006f060048036036020811015620006d957600080fd5b810190808035906020019092919050505062001481565b604051808273ffffffffffffffffffffffffffffffffffffffff1673ffffffffffffffffffffffffffffffffffffffff16815260200191505060405180910390f35b6200073c620014be565b6040518082815260200191505060405180910390f35b620007d7600480360360608110156200076a57600080fd5b81019080803573ffffffffffffffffffffffffffffffffffffffff169060200190929190803573ffffffffffffffffffffffffffffffffffffffff169060200190929190803573ffffffffffffffffffffffffffffffffffffffff169060200190929190505050620014dc565b6040518082815260200191505060405180910390f35b620007f762001a4c565b604051808273ffffffffffffffffffffffffffffffffffffffff1673ffffffffffffffffffffffffffffffffffffffff16815260200191505060405180910390f35b6200084362001a71565b6040518080602001828103825283818151815260200191508051906020019080838360005b838110156200088557808201518184015260208101905062000868565b50505050905090810190601f168015620008b35780820380516001836020036101000a031916815260200191505b509250505060405180910390f35b6200091060048036036040811015620008d957600080fd5b81019080803573ffffffffffffffffffffffffffffffffffffffff1690602001909291908035906020019092919050505062001b13565b005b62000957600480360360208110156200092a57600080fd5b81019080803573ffffffffffffffffffffffffffffffffffffffff16906020019092919050505062001bc6565b604051808273ffffffffffffffffffffffffffffffffffffffff1673ffffffffffffffffffffffffffffffffffffffff16815260200191505060405180910390f35b620009fe60048036036040811015620009b157600080fd5b81019080803573ffffffffffffffffffffffffffffffffffffffff169060200190929190803573ffffffffffffffffffffffffffffffffffffffff16906020019092919050505062001bf9565b6040518082815260200191505060405180910390f35b62000a1e62001c1e565b6040518082815260200191505060405180910390f35b62000a796004803603602081101562000a4c57600080fd5b81019080803573ffffffffffffffffffffffffffffffffffffffff16906020019092919050505062001c52565b604051808215151515815260200191505060405180910390f35b62000a9d62001d32565b6040518082815260200191505060405180910390f35b62000d346004803603608081101562000acb57600080fd5b810190808035906020019064010000000081111562000ae957600080fd5b82018360208201111562000afc57600080fd5b8035906020019184602083028401116401000000008311171562000b1f57600080fd5b919080806020026020016040519081016040528093929190818152602001838360200280828437600081840152601f19601f8201169050808301925050505050505091929192908035906020019064010000000081111562000b8057600080fd5b82018360208201111562000b9357600080fd5b8035906020019184602083028401116401000000008311171562000bb657600080fd5b919080806020026020016040519081016040528093929190818152602001838360200280828437600081840152601f19601f8201169050808301925050505050505091929192908035906020019064010000000081111562000c1757600080fd5b82018360208201111562000c2a57600080fd5b8035906020019184602083028401116401000000008311171562000c4d57600080fd5b919080806020026020016040519081016040528093929190818152602001838360200280828437600081840152601f19601f8201169050808301925050505050505091929192908035906020019064010000000081111562000cae57600080fd5b82018360208201111562000cc157600080fd5b8035906020019184602083028401116401000000008311171562000ce457600080fd5b919080806020026020016040519081016040528093929190818152602001838360200280828437600081840152601f19601f82011690508083019250505050505050919291929050505062001d38565b005b62000d406200229d565b6040518082815260200191505060405180910390f35b62000d60620022a3565b6040518082815260200191505060405180910390f35b600042905090565b60025481565b6000806000600b60008573ffffffffffffffffffffffffffffffffffffffff1673ffffffffffffffffffffffffffffffffffffffff16815260200190815260200160002060000160009054906101000a900473ffffffffffffffffffffffffffffffffffffffff16600b60008673ffffffffffffffffffffffffffffffffffffffff1673ffffffffffffffffffffffffffffffffffffffff16815260200190815260200160002060010154600b60008773ffffffffffffffffffffffffffffffffffffffff1673ffffffffffffffffffffffffffffffffffffffff168152602001908152602001600020600201549250925092509193909250565b60086020528060005260406000206000915054906101000a900473ffffffffffffffffffffffffffffffffffffffff1681565b60008062000ec36001548462000f76565b9050600062000ed56002548562000f76565b905062000f008162000ef18488620022a990919063ffffffff16565b620022e790919063ffffffff16565b9250505092915050565b60008060009054906101000a900473ffffffffffffffffffffffffffffffffffffffff1673ffffffffffffffffffffffffffffffffffffffff163373ffffffffffffffffffffffffffffffffffffffff161462000f6657600080fd5b8160018190555060019050919050565b60008083141562000f8b576000905062001092565b600082141562000f9f576001905062001092565b600182141562000fb25782905062001092565b6000600190505b60018311156200107957600062000fdb6002856200230f90919063ffffffff16565b1415620010175762000ff78485620022a990919063ffffffff16565b93506200100f600284620022e790919063ffffffff16565b925062001073565b6200102c8185620022a990919063ffffffff16565b9050620010438485620022a990919063ffffffff16565b9350620010706002620010616001866200233290919063ffffffff16565b620022e790919063ffffffff16565b92505b62000fb9565b6200108e8185620022a990919063ffffffff16565b9150505b92915050565b60055481565b60065481565b6000600c80549050905090565b60008073ffffffffffffffffffffffffffffffffffffffff16600860003373ffffffffffffffffffffffffffffffffffffffff1673ffffffffffffffffffffffffffffffffffffffff16815260200190815260200160002060009054906101000a900473ffffffffffffffffffffffffffffffffffffffff1673ffffffffffffffffffffffffffffffffffffffff16146200114b57600080fd5b600033836005546040516200116090620033a0565b808473ffffffffffffffffffffffffffffffffffffffff1673ffffffffffffffffffffffffffffffffffffffff16815260200180602001838152602001828103825284818151815260200191508051906020019080838360005b83811015620011d7578082015181840152602081019050620011ba565b50505050905090810190601f168015620012055780820380516001836020036101000a031916815260200191505b50945050505050604051809103906000f08015801562001229573d6000803e3d6000fd5b50905080600860003373ffffffffffffffffffffffffffffffffffffffff1673ffffffffffffffffffffffffffffffffffffffff16815260200190815260200160002060006101000a81548173ffffffffffffffffffffffffffffffffffffffff021916908373ffffffffffffffffffffffffffffffffffffffff16021790555033600960008373ffffffffffffffffffffffffffffffffffffffff1673ffffffffffffffffffffffffffffffffffffffff16815260200190815260200160002060006101000a81548173ffffffffffffffffffffffffffffffffffffffff021916908373ffffffffffffffffffffffffffffffffffffffff1602179055506200133533606462002353565b3373ffffffffffffffffffffffffffffffffffffffff167f358ba8f768af134eb5af120e9a61dc1ef29b29f597f047b555fc3675064a034282604051808273ffffffffffffffffffffffffffffffffffffffff1673ffffffffffffffffffffffffffffffffffffffff16815260200191505060405180910390a26001915050919050565b60008060009054906101000a900473ffffffffffffffffffffffffffffffffffffffff1673ffffffffffffffffffffffffffffffffffffffff163373ffffffffffffffffffffffffffffffffffffffff16146200141557600080fd5b81600490805190602001906200142d929190620033ae565b5060019050919050565b600b6020528060005260406000206000915090508060000160009054906101000a900473ffffffffffffffffffffffffffffffffffffffff16908060010154908060020154905083565b600c81815481106200148f57fe5b906000526020600020016000915054906101000a900473ffffffffffffffffffffffffffffffffffffffff1681565b6000620014d7600654620014d162001c1e565b62000eb2565b905090565b60008073ffffffffffffffffffffffffffffffffffffffff16600860008673ffffffffffffffffffffffffffffffffffffffff1673ffffffffffffffffffffffffffffffffffffffff16815260200190815260200160002060009054906101000a900473ffffffffffffffffffffffffffffffffffffffff1673ffffffffffffffffffffffffffffffffffffffff1614156200157c576000905062001a45565b6000600860008673ffffffffffffffffffffffffffffffffffffffff1673ffffffffffffffffffffffffffffffffffffffff16815260200190815260200160002060009054906101000a900473ffffffffffffffffffffffffffffffffffffffff1673ffffffffffffffffffffffffffffffffffffffff166370a08231856040518263ffffffff1660e01b8152600401808273ffffffffffffffffffffffffffffffffffffffff1673ffffffffffffffffffffffffffffffffffffffff16815260200191505060206040518083038186803b1580156200165b57600080fd5b505afa15801562001670573d6000803e3d6000fd5b505050506040513d60208110156200168757600080fd5b810190808051906020019092919050505090508273ffffffffffffffffffffffffffffffffffffffff168573ffffffffffffffffffffffffffffffffffffffff161415620016d9578091505062001a45565b6000600a60008573ffffffffffffffffffffffffffffffffffffffff1673ffffffffffffffffffffffffffffffffffffffff16815260200190815260200160002060008773ffffffffffffffffffffffffffffffffffffffff1673ffffffffffffffffffffffffffffffffffffffff1681526020019081526020016000205414156200176a57600091505062001a45565b6000620018f46064620018e5600a60008873ffffffffffffffffffffffffffffffffffffffff1673ffffffffffffffffffffffffffffffffffffffff16815260200190815260200160002060008a73ffffffffffffffffffffffffffffffffffffffff1673ffffffffffffffffffffffffffffffffffffffff16815260200190815260200160002054600860008973ffffffffffffffffffffffffffffffffffffffff1673ffffffffffffffffffffffffffffffffffffffff16815260200190815260200160002060009054906101000a900473ffffffffffffffffffffffffffffffffffffffff1673ffffffffffffffffffffffffffffffffffffffff166318160ddd6040518163ffffffff1660e01b815260040160206040518083038186803b1580156200189957600080fd5b505afa158015620018ae573d6000803e3d6000fd5b505050506040513d6020811015620018c557600080fd5b8101908080519060200190929190505050620022a990919063ffffffff16565b620022e790919063ffffffff16565b90506000600860008873ffffffffffffffffffffffffffffffffffffffff1673ffffffffffffffffffffffffffffffffffffffff16815260200190815260200160002060009054906101000a900473ffffffffffffffffffffffffffffffffffffffff1673ffffffffffffffffffffffffffffffffffffffff166370a08231866040518263ffffffff1660e01b8152600401808273ffffffffffffffffffffffffffffffffffffffff1673ffffffffffffffffffffffffffffffffffffffff16815260200191505060206040518083038186803b158015620019d557600080fd5b505afa158015620019ea573d6000803e3d6000fd5b505050506040513d602081101562001a0157600080fd5b810190808051906020019092919050505090508082101562001a2a576000935050505062001a45565b62001a3f81836200233290919063ffffffff16565b93505050505b9392505050565b6000809054906101000a900473ffffffffffffffffffffffffffffffffffffffff1681565b60048054600181600116156101000203166002900480601f01602080910402602001604051908101604052809291908181526020018280546001816001161561010002031660029004801562001b0b5780601f1062001adf5761010080835404028352916020019162001b0b565b820191906000526020600020905b81548152906001019060200180831162001aed57829003601f168201915b505050505081565b8173ffffffffffffffffffffffffffffffffffffffff163373ffffffffffffffffffffffffffffffffffffffff16141562001bb6576040517f08c379a000000000000000000000000000000000000000000000000000000000815260040180806020018281038252601a8152602001807f596f752063616e277420756e747275737420796f757273656c6600000000000081525060200191505060405180910390fd5b62001bc2828262002353565b5050565b60096020528060005260406000206000915054906101000a900473ffffffffffffffffffffffffffffffffffffffff1681565b600a602052816000526040600020602052806000526040600020600091509150505481565b600062001c4d60035462001c3e600754426200233290919063ffffffff16565b620022e790919063ffffffff16565b905090565b60008060009054906101000a900473ffffffffffffffffffffffffffffffffffffffff1673ffffffffffffffffffffffffffffffffffffffff163373ffffffffffffffffffffffffffffffffffffffff161462001cae57600080fd5b600073ffffffffffffffffffffffffffffffffffffffff168273ffffffffffffffffffffffffffffffffffffffff16141562001ce957600080fd5b816000806101000a81548173ffffffffffffffffffffffffffffffffffffffff021916908373ffffffffffffffffffffffffffffffffffffffff16021790555060019050919050565b60015481565b60058351111562001db1576040517f08c379a00000000000000000000000000000000000000000000000000000000081526004018080602001828103825260108152602001807f546f6f20636f6d706c657820706174680000000000000000000000000000000081525060200191505060405180910390fd5b835182511462001e0d576040517f08c379a000000000000000000000000000000000000000000000000000000000815260040180806020018281038252602a81526020018062005abe602a913960400191505060405180910390fd5b835183511462001e69576040517f08c379a000000000000000000000000000000000000000000000000000000000815260040180806020018281038252602981526020018062005a956029913960400191505060405180910390fd5b835181511462001ec5576040517f08c379a000000000000000000000000000000000000000000000000000000000815260040180806020018281038252602c81526020018062005ae8602c913960400191505060405180910390fd5b60008090505b83518110156200228a57600084828151811062001ee457fe5b60200260200101519050600084838151811062001efd57fe5b60200260200101519050600087848151811062001f1657fe5b60200260200101519050600085858151811062001f2f57fe5b602002602001015190508273ffffffffffffffffffffffffffffffffffffffff168273ffffffffffffffffffffffffffffffffffffffff16146200211257600062001f7c838686620014dc565b90508082600860008673ffffffffffffffffffffffffffffffffffffffff1673ffffffffffffffffffffffffffffffffffffffff16815260200190815260200160002060009054906101000a900473ffffffffffffffffffffffffffffffffffffffff1673ffffffffffffffffffffffffffffffffffffffff166370a08231876040518263ffffffff1660e01b8152600401808273ffffffffffffffffffffffffffffffffffffffff1673ffffffffffffffffffffffffffffffffffffffff16815260200191505060206040518083038186803b1580156200205d57600080fd5b505afa15801562002072573d6000803e3d6000fd5b505050506040513d60208110156200208957600080fd5b810190808051906020019092919050505001111562002110576040517f08c379a00000000000000000000000000000000000000000000000000000000081526004018080602001828103825260148152602001807f5472757374206c696d697420657863656564656400000000000000000000000081525060200191505060405180910390fd5b505b6200211f8484836200243d565b600860008373ffffffffffffffffffffffffffffffffffffffff1673ffffffffffffffffffffffffffffffffffffffff16815260200190815260200160002060009054906101000a900473ffffffffffffffffffffffffffffffffffffffff1673ffffffffffffffffffffffffffffffffffffffff166320a6703c8585846040518463ffffffff1660e01b8152600401808473ffffffffffffffffffffffffffffffffffffffff1673ffffffffffffffffffffffffffffffffffffffff1681526020018373ffffffffffffffffffffffffffffffffffffffff1673ffffffffffffffffffffffffffffffffffffffff1681526020018281526020019350505050602060405180830381600087803b1580156200223a57600080fd5b505af11580156200224f573d6000803e3d6000fd5b505050506040513d60208110156200226657600080fd5b81019080805190602001909291905050505050505050808060010191505062001ecb565b5062002297835162002914565b50505050565b60075481565b60035481565b600080831415620022be5760009050620022e1565b6000828402905082848281620022d057fe5b0414620022dc57600080fd5b809150505b92915050565b6000808211620022f657600080fd5b60008284816200230257fe5b0490508091505092915050565b6000808214156200231f57600080fd5b8183816200232957fe5b06905092915050565b6000828211156200234257600080fd5b600082840390508091505092915050565b80600a60003373ffffffffffffffffffffffffffffffffffffffff1673ffffffffffffffffffffffffffffffffffffffff16815260200190815260200160002060008473ffffffffffffffffffffffffffffffffffffffff1673ffffffffffffffffffffffffffffffffffffffff168152602001908152602001600020819055508173ffffffffffffffffffffffffffffffffffffffff163373ffffffffffffffffffffffffffffffffffffffff167fe60c754dd8ab0b1b5fccba257d6ebcd7d09e360ab7dd7a6e58198ca1f57cdcec836040518082815260200191505060405180910390a35050565b600073ffffffffffffffffffffffffffffffffffffffff16600b60008573ffffffffffffffffffffffffffffffffffffffff1673ffffffffffffffffffffffffffffffffffffffff16815260200190815260200160002060000160009054906101000a900473ffffffffffffffffffffffffffffffffffffffff1673ffffffffffffffffffffffffffffffffffffffff161462002577576200252b81600b60008673ffffffffffffffffffffffffffffffffffffffff1673ffffffffffffffffffffffffffffffffffffffff168152602001908152602001600020600101546200338090919063ffffffff16565b600b60008573ffffffffffffffffffffffffffffffffffffffff1673ffffffffffffffffffffffffffffffffffffffff16815260200190815260200160002060010181905550620026a6565b82600b60008573ffffffffffffffffffffffffffffffffffffffff1673ffffffffffffffffffffffffffffffffffffffff16815260200190815260200160002060000160006101000a81548173ffffffffffffffffffffffffffffffffffffffff021916908373ffffffffffffffffffffffffffffffffffffffff16021790555080600b60008573ffffffffffffffffffffffffffffffffffffffff1673ffffffffffffffffffffffffffffffffffffffff16815260200190815260200160002060010181905550600c8390806001815401808255809150509060018203906000526020600020016000909192909190916101000a81548173ffffffffffffffffffffffffffffffffffffffff021916908373ffffffffffffffffffffffffffffffffffffffff160217905550505b600073ffffffffffffffffffffffffffffffffffffffff16600b60008473ffffffffffffffffffffffffffffffffffffffff1673ffffffffffffffffffffffffffffffffffffffff16815260200190815260200160002060000160009054906101000a900473ffffffffffffffffffffffffffffffffffffffff1673ffffffffffffffffffffffffffffffffffffffff1614620027e0576200279481600b60008573ffffffffffffffffffffffffffffffffffffffff1673ffffffffffffffffffffffffffffffffffffffff168152602001908152602001600020600201546200338090919063ffffffff16565b600b60008473ffffffffffffffffffffffffffffffffffffffff1673ffffffffffffffffffffffffffffffffffffffff168152602001908152602001600020600201819055506200290f565b81600b60008473ffffffffffffffffffffffffffffffffffffffff1673ffffffffffffffffffffffffffffffffffffffff16815260200190815260200160002060000160006101000a81548173ffffffffffffffffffffffffffffffffffffffff021916908373ffffffffffffffffffffffffffffffffffffffff16021790555080600b60008473ffffffffffffffffffffffffffffffffffffffff1673ffffffffffffffffffffffffffffffffffffffff16815260200190815260200160002060020181905550600c8290806001815401808255809150509060018203906000526020600020016000909192909190916101000a81548173ffffffffffffffffffffffffffffffffffffffff021916908373ffffffffffffffffffffffffffffffffffffffff160217905550505b505050565b60008060008090505b600c8054905081101562002c18576200293562003435565b600b6000600c84815481106200294757fe5b9060005260206000200160009054906101000a900473ffffffffffffffffffffffffffffffffffffffff1673ffffffffffffffffffffffffffffffffffffffff1673ffffffffffffffffffffffffffffffffffffffff1681526020019081526020016000206040518060600160405290816000820160009054906101000a900473ffffffffffffffffffffffffffffffffffffffff1673ffffffffffffffffffffffffffffffffffffffff1673ffffffffffffffffffffffffffffffffffffffff16815260200160018201548152602001600282015481525050905080604001518160200151111562002b4d57600073ffffffffffffffffffffffffffffffffffffffff168473ffffffffffffffffffffffffffffffffffffffff161462002abb576040517f08c379a000000000000000000000000000000000000000000000000000000000815260040180806020018281038252602181526020018062005b146021913960400191505060405180910390fd5b3373ffffffffffffffffffffffffffffffffffffffff16816000015173ffffffffffffffffffffffffffffffffffffffff161462002b45576040517f08c379a000000000000000000000000000000000000000000000000000000000815260040180806020018281038252602981526020018062005b356029913960400191505060405180910390fd5b806000015193505b80602001518160400151111562002c0957600073ffffffffffffffffffffffffffffffffffffffff168373ffffffffffffffffffffffffffffffffffffffff161462002c01576040517f08c379a00000000000000000000000000000000000000000000000000000000081526004018080602001828103825260208152602001807f506174682073656e647320746f206d6f7265207468616e206f6e65206465737481525060200191505060405180910390fd5b806000015192505b5080806001019150506200291d565b50600073ffffffffffffffffffffffffffffffffffffffff168273ffffffffffffffffffffffffffffffffffffffff16141562002cbd576040517f08c379a000000000000000000000000000000000000000000000000000000000815260040180806020018281038252601b8152602001807f5472616e73616374696f6e206d7573742068617665206120737263000000000081525060200191505060405180910390fd5b600073ffffffffffffffffffffffffffffffffffffffff168173ffffffffffffffffffffffffffffffffffffffff16141562002d61576040517f08c379a000000000000000000000000000000000000000000000000000000000815260040180806020018281038252601c8152602001807f5472616e73616374696f6e206d7573742068617665206120646573740000000081525060200191505060405180910390fd5b6000600b60008473ffffffffffffffffffffffffffffffffffffffff1673ffffffffffffffffffffffffffffffffffffffff168152602001908152602001600020600201541462002e1a576040517f08c379a00000000000000000000000000000000000000000000000000000000081526004018080602001828103825260138152602001807f53656e64657220697320726563656976696e670000000000000000000000000081525060200191505060405180910390fd5b6000600b60008373ffffffffffffffffffffffffffffffffffffffff1673ffffffffffffffffffffffffffffffffffffffff168152602001908152602001600020600101541462002ed3576040517f08c379a00000000000000000000000000000000000000000000000000000000081526004018080602001828103825260148152602001807f526563697069656e742069732073656e64696e6700000000000000000000000081525060200191505060405180910390fd5b600b60008273ffffffffffffffffffffffffffffffffffffffff1673ffffffffffffffffffffffffffffffffffffffff16815260200190815260200160002060020154600b60008473ffffffffffffffffffffffffffffffffffffffff1673ffffffffffffffffffffffffffffffffffffffff168152602001908152602001600020600101541462002fb1576040517f08c379a000000000000000000000000000000000000000000000000000000000815260040180806020018281038252602181526020018062005b5e6021913960400191505060405180910390fd5b60018301600c80549050111562003030576040517f08c379a00000000000000000000000000000000000000000000000000000000081526004018080602001828103825260178152602001807f5365656e20746f6f206d616e792061646472657373657300000000000000000081525060200191505060405180910390fd5b8073ffffffffffffffffffffffffffffffffffffffff168273ffffffffffffffffffffffffffffffffffffffff167f8451019aab65b4193860ef723cb0d56b475a26a72b7bfc55c1dbd6121015285a600b60008673ffffffffffffffffffffffffffffffffffffffff1673ffffffffffffffffffffffffffffffffffffffff168152602001908152602001600020600101546040518082815260200191505060405180910390a36000600c8054905090505b60018110620032fe576000600b6000600c60018503815481106200310257fe5b9060005260206000200160009054906101000a900473ffffffffffffffffffffffffffffffffffffffff1673ffffffffffffffffffffffffffffffffffffffff1673ffffffffffffffffffffffffffffffffffffffff168152602001908152602001600020600101819055506000600b6000600c60018503815481106200318557fe5b9060005260206000200160009054906101000a900473ffffffffffffffffffffffffffffffffffffffff1673ffffffffffffffffffffffffffffffffffffffff1673ffffffffffffffffffffffffffffffffffffffff168152602001908152602001600020600201819055506000600b6000600c60018503815481106200320857fe5b9060005260206000200160009054906101000a900473ffffffffffffffffffffffffffffffffffffffff1673ffffffffffffffffffffffffffffffffffffffff1673ffffffffffffffffffffffffffffffffffffffff16815260200190815260200160002060000160006101000a81548173ffffffffffffffffffffffffffffffffffffffff021916908373ffffffffffffffffffffffffffffffffffffffff160217905550600c805480620032ba57fe5b6001900381819060005260206000200160006101000a81549073ffffffffffffffffffffffffffffffffffffffff02191690559055808060019003915050620030e2565b506000600c80549050146200337b576040517f08c379a00000000000000000000000000000000000000000000000000000000081526004018080602001828103825260148152602001807f5365656e2073686f756c6420626520656d70747900000000000000000000000081525060200191505060405180910390fd5b505050565b6000808284019050838110156200339657600080fd5b8091505092915050565b612600806200349583390190565b828054600181600116156101000203166002900490600052602060002090601f016020900481019282601f10620033f157805160ff191683800117855562003422565b8280016001018555821562003422579182015b828111156200342157825182559160200191906001019062003404565b5b5090506200343191906200346c565b5090565b6040518060600160405280600073ffffffffffffffffffffffffffffffffffffffff16815260200160008152602001600081525090565b6200349191905b808211156200348d57600081600090555060010162003473565b5090565b9056fe60806040526012600360006101000a81548160ff021916908360ff1602179055503480156200002d57600080fd5b506040516200260038038062002600833981018060405260608110156200005357600080fd5b810190808051906020019092919080516401000000008111156200007657600080fd5b828101905060208101848111156200008d57600080fd5b8151856001820283011164010000000082111715620000ab57600080fd5b505092919060200180519060200190929190505050600073ffffffffffffffffffffffffffffffffffffffff168373ffffffffffffffffffffffffffffffffffffffff161415620000fb57600080fd5b81600490805190602001906200011392919062000721565b5082600760006101000a81548173ffffffffffffffffffffffffffffffffffffffff021916908373ffffffffffffffffffffffffffffffffffffffff16021790555033600660006101000a81548173ffffffffffffffffffffffffffffffffffffffff021916908373ffffffffffffffffffffffffffffffffffffffff160217905550620001a66200028960201b60201c565b600581905550620001bc6200029160201b60201c565b600881905550600660009054906101000a900473ffffffffffffffffffffffffffffffffffffffff1673ffffffffffffffffffffffffffffffffffffffff1663863623bb6040518163ffffffff1660e01b815260040160206040518083038186803b1580156200022b57600080fd5b505afa15801562000240573d6000803e3d6000fd5b505050506040513d60208110156200025757600080fd5b81019080805190602001909291905050506009819055506200028083826200033a60201b60201c565b505050620007d0565b600042905090565b600062000335620002a76200028960201b60201c565b62000321620002bb6200049b60201b60201c565b6200030d620002e96001620002d56200054860201b60201c565b620005f560201b62001c321790919060201c565b620002f96200061560201b60201c565b620006c260201b62001c511790919060201c565b620005f560201b62001c321790919060201c565b6200070060201b62001c121790919060201c565b905090565b600073ffffffffffffffffffffffffffffffffffffffff168273ffffffffffffffffffffffffffffffffffffffff1614156200037557600080fd5b6200039181600254620005f560201b62001c321790919060201c565b600281905550620003ef816000808573ffffffffffffffffffffffffffffffffffffffff1673ffffffffffffffffffffffffffffffffffffffff16815260200190815260200160002054620005f560201b62001c321790919060201c565b6000808473ffffffffffffffffffffffffffffffffffffffff1673ffffffffffffffffffffffffffffffffffffffff168152602001908152602001600020819055508173ffffffffffffffffffffffffffffffffffffffff16600073ffffffffffffffffffffffffffffffffffffffff167fddf252ad1be2c89b69c2b068fc378daa952ba7f163c4a11628f55a4df523b3ef836040518082815260200191505060405180910390a35050565b6000600660009054906101000a900473ffffffffffffffffffffffffffffffffffffffff1673ffffffffffffffffffffffffffffffffffffffff1663eae4c19f6040518163ffffffff1660e01b815260040160206040518083038186803b1580156200050657600080fd5b505afa1580156200051b573d6000803e3d6000fd5b505050506040513d60208110156200053257600080fd5b8101908080519060200190929190505050905090565b6000600660009054906101000a900473ffffffffffffffffffffffffffffffffffffffff1673ffffffffffffffffffffffffffffffffffffffff1663a4caeb426040518163ffffffff1660e01b815260040160206040518083038186803b158015620005b357600080fd5b505afa158015620005c8573d6000803e3d6000fd5b505050506040513d6020811015620005df57600080fd5b8101908080519060200190929190505050905090565b6000808284019050838110156200060b57600080fd5b8091505092915050565b6000600660009054906101000a900473ffffffffffffffffffffffffffffffffffffffff1673ffffffffffffffffffffffffffffffffffffffff1663ef78d4fd6040518163ffffffff1660e01b815260040160206040518083038186803b1580156200068057600080fd5b505afa15801562000695573d6000803e3d6000fd5b505050506040513d6020811015620006ac57600080fd5b8101908080519060200190929190505050905090565b600080831415620006d75760009050620006fa565b6000828402905082848281620006e957fe5b0414620006f557600080fd5b809150505b92915050565b6000828211156200071057600080fd5b600082840390508091505092915050565b828054600181600116156101000203166002900490600052602060002090601f016020900481019282601f106200076457805160ff191683800117855562000795565b8280016001018555821562000795579182015b828111156200079457825182559160200191906001019062000777565b5b509050620007a49190620007a8565b5090565b620007cd91905b80821115620007c9576000816000905550600101620007af565b5090565b90565b611e2080620007e06000396000f3fe608060405234801561001057600080fd5b506004361061018e5760003560e01c80636c050eae116100de578063a457c2d711610097578063be0522e011610071578063be0522e014610779578063dd62ed3e14610797578063ef78d4fd1461080f578063f9f8bdb71461082d5761018e565b8063a457c2d71461068f578063a4caeb42146106f5578063a9059cbb146107135761018e565b80636c050eae1461051057806370a082311461052e5780638b4eed81146105865780638da5cb5b146105a457806395d89b41146105ee578063a2e62045146106715761018e565b80631f2dc5ef1161014b578063313ce56711610125578063313ce5671461041e578063365a86fc14610442578063395093511461048c57806341c30546146104f25761018e565b80631f2dc5ef146102f457806320a6703c1461031257806323b872dd146103985761018e565b806306f09ab01461019357806306fdde03146101b1578063095ea7b314610234578063107129dd1461029a57806316ada547146102b857806318160ddd146102d6575b600080fd5b61019b61084b565b6040518082815260200191505060405180910390f35b6101b96108f5565b6040518080602001828103825283818151815260200191508051906020019080838360005b838110156101f95780820151818401526020810190506101de565b50505050905090810190601f1680156102265780820380516001836020036101000a031916815260200191505b509250505060405180910390f35b6102806004803603604081101561024a57600080fd5b81019080803573ffffffffffffffffffffffffffffffffffffffff16906020019092919080359060200190929190505050610993565b604051808215151515815260200191505060405180910390f35b6102a2610abe565b6040518082815260200191505060405180910390f35b6102c0610ac4565b6040518082815260200191505060405180910390f35b6102de610acc565b6040518082815260200191505060405180910390f35b6102fc610ad6565b6040518082815260200191505060405180910390f35b61037e6004803603606081101561032857600080fd5b81019080803573ffffffffffffffffffffffffffffffffffffffff169060200190929190803573ffffffffffffffffffffffffffffffffffffffff16906020019092919080359060200190929190505050610b80565b604051808215151515815260200191505060405180910390f35b610404600480360360608110156103ae57600080fd5b81019080803573ffffffffffffffffffffffffffffffffffffffff169060200190929190803573ffffffffffffffffffffffffffffffffffffffff16906020019092919080359060200190929190505050610bee565b604051808215151515815260200191505060405180910390f35b610426610df6565b604051808260ff1660ff16815260200191505060405180910390f35b61044a610e09565b604051808273ffffffffffffffffffffffffffffffffffffffff1673ffffffffffffffffffffffffffffffffffffffff16815260200191505060405180910390f35b6104d8600480360360408110156104a257600080fd5b81019080803573ffffffffffffffffffffffffffffffffffffffff16906020019092919080359060200190929190505050610e2f565b604051808215151515815260200191505060405180910390f35b6104fa611064565b6040518082815260200191505060405180910390f35b6105186110d1565b6040518082815260200191505060405180910390f35b6105706004803603602081101561054457600080fd5b81019080803573ffffffffffffffffffffffffffffffffffffffff16906020019092919050505061125c565b6040518082815260200191505060405180910390f35b61058e6112a4565b6040518082815260200191505060405180910390f35b6105ac6112aa565b604051808273ffffffffffffffffffffffffffffffffffffffff1673ffffffffffffffffffffffffffffffffffffffff16815260200191505060405180910390f35b6105f66112d0565b6040518080602001828103825283818151815260200191508051906020019080838360005b8381101561063657808201518184015260208101905061061b565b50505050905090810190601f1680156106635780820380516001836020036101000a031916815260200191505b509250505060405180910390f35b6106796113d0565b6040518082815260200191505060405180910390f35b6106db600480360360408110156106a557600080fd5b81019080803573ffffffffffffffffffffffffffffffffffffffff169060200190929190803590602001909291905050506114dc565b604051808215151515815260200191505060405180910390f35b6106fd611711565b6040518082815260200191505060405180910390f35b61075f6004803603604081101561072957600080fd5b81019080803573ffffffffffffffffffffffffffffffffffffffff169060200190929190803590602001909291905050506117bb565b604051808215151515815260200191505060405180910390f35b610781611867565b6040518082815260200191505060405180910390f35b6107f9600480360360408110156107ad57600080fd5b81019080803573ffffffffffffffffffffffffffffffffffffffff169060200190929190803573ffffffffffffffffffffffffffffffffffffffff169060200190929190505050611911565b6040518082815260200191505060405180910390f35b610817611998565b6040518082815260200191505060405180910390f35b610835611a42565b6040518082815260200191505060405180910390f35b6000600660009054906101000a900473ffffffffffffffffffffffffffffffffffffffff1673ffffffffffffffffffffffffffffffffffffffff1663eae4c19f6040518163ffffffff1660e01b815260040160206040518083038186803b1580156108b557600080fd5b505afa1580156108c9573d6000803e3d6000fd5b505050506040513d60208110156108df57600080fd5b8101908080519060200190929190505050905090565b60048054600181600116156101000203166002900480601f01602080910402602001604051908101604052809291908181526020018280546001816001161561010002031660029004801561098b5780601f106109605761010080835404028352916020019161098b565b820191906000526020600020905b81548152906001019060200180831161096e57829003601f168201915b505050505081565b60008073ffffffffffffffffffffffffffffffffffffffff168373ffffffffffffffffffffffffffffffffffffffff1614156109ce57600080fd5b81600160003373ffffffffffffffffffffffffffffffffffffffff1673ffffffffffffffffffffffffffffffffffffffff16815260200190815260200160002060008573ffffffffffffffffffffffffffffffffffffffff1673ffffffffffffffffffffffffffffffffffffffff168152602001908152602001600020819055508273ffffffffffffffffffffffffffffffffffffffff163373ffffffffffffffffffffffffffffffffffffffff167f8c5be1e5ebec7d5bd14f71427d1e84f3dd0314c0f7b2291e5b200ac8c7c3b925846040518082815260200191505060405180910390a36001905092915050565b60085481565b600042905090565b6000600254905090565b6000600660009054906101000a900473ffffffffffffffffffffffffffffffffffffffff1673ffffffffffffffffffffffffffffffffffffffff16631f2dc5ef6040518163ffffffff1660e01b815260040160206040518083038186803b158015610b4057600080fd5b505afa158015610b54573d6000803e3d6000fd5b505050506040513d6020811015610b6a57600080fd5b8101908080519060200190929190505050905090565b6000600660009054906101000a900473ffffffffffffffffffffffffffffffffffffffff1673ffffffffffffffffffffffffffffffffffffffff163373ffffffffffffffffffffffffffffffffffffffff1614610bdc57600080fd5b610be7848484611a48565b9392505050565b6000610c7f82600160008773ffffffffffffffffffffffffffffffffffffffff1673ffffffffffffffffffffffffffffffffffffffff16815260200190815260200160002060003373ffffffffffffffffffffffffffffffffffffffff1673ffffffffffffffffffffffffffffffffffffffff16815260200190815260200160002054611c1290919063ffffffff16565b600160008673ffffffffffffffffffffffffffffffffffffffff1673ffffffffffffffffffffffffffffffffffffffff16815260200190815260200160002060003373ffffffffffffffffffffffffffffffffffffffff1673ffffffffffffffffffffffffffffffffffffffff16815260200190815260200160002081905550610d0a848484611a48565b3373ffffffffffffffffffffffffffffffffffffffff168473ffffffffffffffffffffffffffffffffffffffff167f8c5be1e5ebec7d5bd14f71427d1e84f3dd0314c0f7b2291e5b200ac8c7c3b925600160008873ffffffffffffffffffffffffffffffffffffffff1673ffffffffffffffffffffffffffffffffffffffff16815260200190815260200160002060003373ffffffffffffffffffffffffffffffffffffffff1673ffffffffffffffffffffffffffffffffffffffff168152602001908152602001600020546040518082815260200191505060405180910390a3600190509392505050565b600360009054906101000a900460ff1681565b600660009054906101000a900473ffffffffffffffffffffffffffffffffffffffff1681565b60008073ffffffffffffffffffffffffffffffffffffffff168373ffffffffffffffffffffffffffffffffffffffff161415610e6a57600080fd5b610ef982600160003373ffffffffffffffffffffffffffffffffffffffff1673ffffffffffffffffffffffffffffffffffffffff16815260200190815260200160002060008673ffffffffffffffffffffffffffffffffffffffff1673ffffffffffffffffffffffffffffffffffffffff16815260200190815260200160002054611c3290919063ffffffff16565b600160003373ffffffffffffffffffffffffffffffffffffffff1673ffffffffffffffffffffffffffffffffffffffff16815260200190815260200160002060008573ffffffffffffffffffffffffffffffffffffffff1673ffffffffffffffffffffffffffffffffffffffff168152602001908152602001600020819055508273ffffffffffffffffffffffffffffffffffffffff163373ffffffffffffffffffffffffffffffffffffffff167f8c5be1e5ebec7d5bd14f71427d1e84f3dd0314c0f7b2291e5b200ac8c7c3b925600160003373ffffffffffffffffffffffffffffffffffffffff1673ffffffffffffffffffffffffffffffffffffffff16815260200190815260200160002060008773ffffffffffffffffffffffffffffffffffffffff1673ffffffffffffffffffffffffffffffffffffffff168152602001908152602001600020546040518082815260200191505060405180910390a36001905092915050565b60006110cc611071610ac4565b6110be61107c61084b565b6110b061109a600161108c611711565b611c3290919063ffffffff16565b6110a2611998565b611c5190919063ffffffff16565b611c3290919063ffffffff16565b611c1290919063ffffffff16565b905090565b600080600090506000600554905060006008549050600060095490505b6110f6610ac4565b6111098385611c3290919063ffffffff16565b11611212576111336111248284611c5190919063ffffffff16565b85611c3290919063ffffffff16565b93506111488284611c3290919063ffffffff16565b9250611152611998565b9150600660009054906101000a900473ffffffffffffffffffffffffffffffffffffffff1673ffffffffffffffffffffffffffffffffffffffff16632a9383428260016040518363ffffffff1660e01b8152600401808381526020018281526020019250505060206040518083038186803b1580156111d057600080fd5b505afa1580156111e4573d6000803e3d6000fd5b505050506040513d60208110156111fa57600080fd5b810190808051906020019092919050505090506110ee565b6112506112418261123386611225610ac4565b611c1290919063ffffffff16565b611c5190919063ffffffff16565b85611c3290919063ffffffff16565b93508394505050505090565b60008060008373ffffffffffffffffffffffffffffffffffffffff1673ffffffffffffffffffffffffffffffffffffffff168152602001908152602001600020549050919050565b60055481565b600760009054906101000a900473ffffffffffffffffffffffffffffffffffffffff1681565b6060600660009054906101000a900473ffffffffffffffffffffffffffffffffffffffff1673ffffffffffffffffffffffffffffffffffffffff166395d89b416040518163ffffffff1660e01b815260040160006040518083038186803b15801561133a57600080fd5b505afa15801561134e573d6000803e3d6000fd5b505050506040513d6000823e3d601f19601f82011682018060405250602081101561137857600080fd5b81019080805164010000000081111561139057600080fd5b828101905060208101848111156113a657600080fd5b81518560018202830111640100000000821117156113c357600080fd5b5050929190505050905090565b6000806113db6110d1565b905060008111156114d8576113ee611064565b6008819055506113fc610ac4565b600581905550600660009054906101000a900473ffffffffffffffffffffffffffffffffffffffff1673ffffffffffffffffffffffffffffffffffffffff1663863623bb6040518163ffffffff1660e01b815260040160206040518083038186803b15801561146a57600080fd5b505afa15801561147e573d6000803e3d6000fd5b505050506040513d602081101561149457600080fd5b81019080805190602001909291905050506009819055506114d7600760009054906101000a900473ffffffffffffffffffffffffffffffffffffffff1682611c8b565b5b5090565b60008073ffffffffffffffffffffffffffffffffffffffff168373ffffffffffffffffffffffffffffffffffffffff16141561151757600080fd5b6115a682600160003373ffffffffffffffffffffffffffffffffffffffff1673ffffffffffffffffffffffffffffffffffffffff16815260200190815260200160002060008673ffffffffffffffffffffffffffffffffffffffff1673ffffffffffffffffffffffffffffffffffffffff16815260200190815260200160002054611c1290919063ffffffff16565b600160003373ffffffffffffffffffffffffffffffffffffffff1673ffffffffffffffffffffffffffffffffffffffff16815260200190815260200160002060008573ffffffffffffffffffffffffffffffffffffffff1673ffffffffffffffffffffffffffffffffffffffff168152602001908152602001600020819055508273ffffffffffffffffffffffffffffffffffffffff163373ffffffffffffffffffffffffffffffffffffffff167f8c5be1e5ebec7d5bd14f71427d1e84f3dd0314c0f7b2291e5b200ac8c7c3b925600160003373ffffffffffffffffffffffffffffffffffffffff1673ffffffffffffffffffffffffffffffffffffffff16815260200190815260200160002060008773ffffffffffffffffffffffffffffffffffffffff1673ffffffffffffffffffffffffffffffffffffffff168152602001908152602001600020546040518082815260200191505060405180910390a36001905092915050565b6000600660009054906101000a900473ffffffffffffffffffffffffffffffffffffffff1673ffffffffffffffffffffffffffffffffffffffff1663a4caeb426040518163ffffffff1660e01b815260040160206040518083038186803b15801561177b57600080fd5b505afa15801561178f573d6000803e3d6000fd5b505050506040513d60208110156117a557600080fd5b8101908080519060200190929190505050905090565b6000600760009054906101000a900473ffffffffffffffffffffffffffffffffffffffff1673ffffffffffffffffffffffffffffffffffffffff163373ffffffffffffffffffffffffffffffffffffffff1614156118555733600760006101000a81548173ffffffffffffffffffffffffffffffffffffffff021916908373ffffffffffffffffffffffffffffffffffffffff1602179055505b61185f8383611ddd565b905092915050565b6000600660009054906101000a900473ffffffffffffffffffffffffffffffffffffffff1673ffffffffffffffffffffffffffffffffffffffff1663be0522e06040518163ffffffff1660e01b815260040160206040518083038186803b1580156118d157600080fd5b505afa1580156118e5573d6000803e3d6000fd5b505050506040513d60208110156118fb57600080fd5b8101908080519060200190929190505050905090565b6000600160008473ffffffffffffffffffffffffffffffffffffffff1673ffffffffffffffffffffffffffffffffffffffff16815260200190815260200160002060008373ffffffffffffffffffffffffffffffffffffffff1673ffffffffffffffffffffffffffffffffffffffff16815260200190815260200160002054905092915050565b6000600660009054906101000a900473ffffffffffffffffffffffffffffffffffffffff1673ffffffffffffffffffffffffffffffffffffffff1663ef78d4fd6040518163ffffffff1660e01b815260040160206040518083038186803b158015611a0257600080fd5b505afa158015611a16573d6000803e3d6000fd5b505050506040513d6020811015611a2c57600080fd5b8101908080519060200190929190505050905090565b60095481565b600073ffffffffffffffffffffffffffffffffffffffff168273ffffffffffffffffffffffffffffffffffffffff161415611a8257600080fd5b611ad3816000808673ffffffffffffffffffffffffffffffffffffffff1673ffffffffffffffffffffffffffffffffffffffff16815260200190815260200160002054611c1290919063ffffffff16565b6000808573ffffffffffffffffffffffffffffffffffffffff1673ffffffffffffffffffffffffffffffffffffffff16815260200190815260200160002081905550611b66816000808573ffffffffffffffffffffffffffffffffffffffff1673ffffffffffffffffffffffffffffffffffffffff16815260200190815260200160002054611c3290919063ffffffff16565b6000808473ffffffffffffffffffffffffffffffffffffffff1673ffffffffffffffffffffffffffffffffffffffff168152602001908152602001600020819055508173ffffffffffffffffffffffffffffffffffffffff168373ffffffffffffffffffffffffffffffffffffffff167fddf252ad1be2c89b69c2b068fc378daa952ba7f163c4a11628f55a4df523b3ef836040518082815260200191505060405180910390a3505050565b600082821115611c2157600080fd5b600082840390508091505092915050565b600080828401905083811015611c4757600080fd5b8091505092915050565b600080831415611c645760009050611c85565b6000828402905082848281611c7557fe5b0414611c8057600080fd5b809150505b92915050565b600073ffffffffffffffffffffffffffffffffffffffff168273ffffffffffffffffffffffffffffffffffffffff161415611cc557600080fd5b611cda81600254611c3290919063ffffffff16565b600281905550611d31816000808573ffffffffffffffffffffffffffffffffffffffff1673ffffffffffffffffffffffffffffffffffffffff16815260200190815260200160002054611c3290919063ffffffff16565b6000808473ffffffffffffffffffffffffffffffffffffffff1673ffffffffffffffffffffffffffffffffffffffff168152602001908152602001600020819055508173ffffffffffffffffffffffffffffffffffffffff16600073ffffffffffffffffffffffffffffffffffffffff167fddf252ad1be2c89b69c2b068fc378daa952ba7f163c4a11628f55a4df523b3ef836040518082815260200191505060405180910390a35050565b6000611dea338484611a48565b600190509291505056fea165627a7a72305820b853f5ffa6c25c2bbeb5063f401b469d38e20f89c57041ad0d6c93557e42fe8b0029546f6b656e73206172726179206c656e677468206d75737420657175616c2073726373206172726179546f6b656e73206172726179206c656e677468206d75737420657175616c206465737473206172726179546f6b656e73206172726179206c656e677468206d75737420657175616c20616d6f756e7473206172726179506174682073656e64732066726f6d206d6f7265207468616e206f6e65207372635061746820646f65736e27742073656e642066726f6d207472616e73616374696f6e2073656e646572556e657175616c2073656e7420616e6420726563656976656420616d6f756e7473a165627a7a72305820fca68ae5085d82ede8cb5f30fb437d69104acf8df70e43d73b3aa92deb7f827b0029",
  "source": "pragma solidity ^0.5.0;\nimport \"../Hub.sol\";\n\ncontract MockHub is Hub {\n    constructor(address _owner, uint256 _inflation, uint256 _period, string memory _symbol, uint256 _initialPayout, uint256 _startingRate)\n    Hub(_owner, _inflation, _period, _symbol, _initialPayout, _startingRate)\n    public {\n\n    }\n\n    function getSeen() public view returns (uint256) {\n        return seen.length;\n    }\n\n    function getValidation(address user) public view returns (address, uint256, uint256) {\n        return (validation[user].identity, validation[user].sent, validation[user].received);\n    }\n}",
  "sourcePath": "/media/000/Documents/Circles/circles-contracts/contracts/mocks/MockHub.sol",
  "compiler": {
    "name": "solc",
    "version": "0.5.8+commit.23d335f2.Emscripten.clang"
  },
  "schemaVersion": "3.0.15",
  "updatedAt": "2020-01-27T21:25:08.273Z",
  "devdoc": {
    "methods": {}
  },
  "userdoc": {
    "methods": {}
  }
}