{
  "contractName": "Token",
  "abi": [
    {
      "inputs": [
        {
          "internalType": "address",
          "name": "_owner",
          "type": "address"
        },
        {
          "internalType": "uint256",
          "name": "initialPayout",
          "type": "uint256"
        }
      ],
      "stateMutability": "nonpayable",
      "type": "constructor"
    },
    {
      "anonymous": false,
      "inputs": [
        {
          "indexed": true,
          "internalType": "address",
          "name": "owner",
          "type": "address"
        },
        {
          "indexed": true,
          "internalType": "address",
          "name": "spender",
          "type": "address"
        },
        {
          "indexed": false,
          "internalType": "uint256",
          "name": "value",
          "type": "uint256"
        }
      ],
      "name": "Approval",
      "type": "event"
    },
    {
      "anonymous": false,
      "inputs": [
        {
          "indexed": true,
          "internalType": "address",
          "name": "from",
          "type": "address"
        },
        {
          "indexed": true,
          "internalType": "address",
          "name": "to",
          "type": "address"
        },
        {
          "indexed": false,
          "internalType": "uint256",
          "name": "value",
          "type": "uint256"
        }
      ],
      "name": "Transfer",
      "type": "event"
    },
    {
      "inputs": [
        {
          "internalType": "address",
          "name": "owner",
          "type": "address"
        },
        {
          "internalType": "address",
          "name": "spender",
          "type": "address"
        }
      ],
      "name": "allowance",
      "outputs": [
        {
          "internalType": "uint256",
          "name": "",
          "type": "uint256"
        }
      ],
      "stateMutability": "view",
      "type": "function"
    },
    {
      "inputs": [
        {
          "internalType": "address",
          "name": "spender",
          "type": "address"
        },
        {
          "internalType": "uint256",
          "name": "amount",
          "type": "uint256"
        }
      ],
      "name": "approve",
      "outputs": [
        {
          "internalType": "bool",
          "name": "",
          "type": "bool"
        }
      ],
      "stateMutability": "nonpayable",
      "type": "function"
    },
    {
      "inputs": [
        {
          "internalType": "address",
          "name": "account",
          "type": "address"
        }
      ],
      "name": "balanceOf",
      "outputs": [
        {
          "internalType": "uint256",
          "name": "",
          "type": "uint256"
        }
      ],
      "stateMutability": "view",
      "type": "function"
    },
    {
      "inputs": [],
      "name": "currentIssuance",
      "outputs": [
        {
          "internalType": "uint256",
          "name": "",
          "type": "uint256"
        }
      ],
      "stateMutability": "view",
      "type": "function"
    },
    {
      "inputs": [],
      "name": "decimals",
      "outputs": [
        {
          "internalType": "uint8",
          "name": "",
          "type": "uint8"
        }
      ],
      "stateMutability": "view",
      "type": "function"
    },
    {
      "inputs": [
        {
          "internalType": "address",
          "name": "spender",
          "type": "address"
        },
        {
          "internalType": "uint256",
          "name": "subtractedValue",
          "type": "uint256"
        }
      ],
      "name": "decreaseAllowance",
      "outputs": [
        {
          "internalType": "bool",
          "name": "",
          "type": "bool"
        }
      ],
      "stateMutability": "nonpayable",
      "type": "function"
    },
    {
      "inputs": [],
      "name": "hub",
      "outputs": [
        {
          "internalType": "address",
          "name": "",
          "type": "address"
        }
      ],
      "stateMutability": "view",
      "type": "function"
    },
    {
      "inputs": [
        {
          "internalType": "address",
          "name": "spender",
          "type": "address"
        },
        {
          "internalType": "uint256",
          "name": "addedValue",
          "type": "uint256"
        }
      ],
      "name": "increaseAllowance",
      "outputs": [
        {
          "internalType": "bool",
          "name": "",
          "type": "bool"
        }
      ],
      "stateMutability": "nonpayable",
      "type": "function"
    },
    {
      "inputs": [],
      "name": "inflationOffset",
      "outputs": [
        {
          "internalType": "uint256",
          "name": "",
          "type": "uint256"
        }
      ],
      "stateMutability": "view",
      "type": "function"
    },
    {
      "inputs": [],
      "name": "lastTouched",
      "outputs": [
        {
          "internalType": "uint256",
          "name": "",
          "type": "uint256"
        }
      ],
      "stateMutability": "view",
      "type": "function"
    },
    {
      "inputs": [],
      "name": "owner",
      "outputs": [
        {
          "internalType": "address",
          "name": "",
          "type": "address"
        }
      ],
      "stateMutability": "view",
      "type": "function"
    },
    {
      "inputs": [],
      "name": "totalSupply",
      "outputs": [
        {
          "internalType": "uint256",
          "name": "",
          "type": "uint256"
        }
      ],
      "stateMutability": "view",
      "type": "function"
    },
    {
      "inputs": [
        {
          "internalType": "address",
          "name": "sender",
          "type": "address"
        },
        {
          "internalType": "address",
          "name": "recipient",
          "type": "address"
        },
        {
          "internalType": "uint256",
          "name": "amount",
          "type": "uint256"
        }
      ],
      "name": "transferFrom",
      "outputs": [
        {
          "internalType": "bool",
          "name": "",
          "type": "bool"
        }
      ],
      "stateMutability": "nonpayable",
      "type": "function"
    },
    {
      "inputs": [],
      "name": "time",
      "outputs": [
        {
          "internalType": "uint256",
          "name": "",
          "type": "uint256"
        }
      ],
      "stateMutability": "view",
      "type": "function"
    },
    {
      "inputs": [],
      "name": "symbol",
      "outputs": [
        {
          "internalType": "string",
          "name": "",
          "type": "string"
        }
      ],
      "stateMutability": "view",
      "type": "function"
    },
    {
      "inputs": [],
      "name": "inflation",
      "outputs": [
        {
          "internalType": "uint256",
          "name": "",
          "type": "uint256"
        }
      ],
      "stateMutability": "view",
      "type": "function"
    },
    {
      "inputs": [],
      "name": "divisor",
      "outputs": [
        {
          "internalType": "uint256",
          "name": "",
          "type": "uint256"
        }
      ],
      "stateMutability": "view",
      "type": "function"
    },
    {
      "inputs": [],
      "name": "period",
      "outputs": [
        {
          "internalType": "uint256",
          "name": "",
          "type": "uint256"
        }
      ],
      "stateMutability": "view",
      "type": "function"
    },
    {
      "inputs": [],
      "name": "periods",
      "outputs": [
        {
          "internalType": "uint256",
          "name": "",
          "type": "uint256"
        }
      ],
      "stateMutability": "view",
      "type": "function"
    },
    {
      "inputs": [],
      "name": "timeout",
      "outputs": [
        {
          "internalType": "uint256",
          "name": "",
          "type": "uint256"
        }
      ],
      "stateMutability": "view",
      "type": "function"
    },
    {
      "inputs": [],
      "name": "periodsLastTouched",
      "outputs": [
        {
          "internalType": "uint256",
          "name": "",
          "type": "uint256"
        }
      ],
      "stateMutability": "view",
      "type": "function"
    },
    {
      "inputs": [],
      "name": "hubDeploy",
      "outputs": [
        {
          "internalType": "uint256",
          "name": "",
          "type": "uint256"
        }
      ],
      "stateMutability": "view",
      "type": "function"
    },
    {
      "inputs": [],
      "name": "stop",
      "outputs": [],
      "stateMutability": "nonpayable",
      "type": "function"
    },
    {
      "inputs": [],
      "name": "stopped",
      "outputs": [
        {
          "internalType": "bool",
          "name": "",
          "type": "bool"
        }
      ],
      "stateMutability": "view",
      "type": "function"
    },
    {
      "inputs": [],
      "name": "findInflationOffset",
      "outputs": [
        {
          "internalType": "uint256",
          "name": "",
          "type": "uint256"
        }
      ],
      "stateMutability": "view",
      "type": "function"
    },
    {
      "inputs": [],
      "name": "look",
      "outputs": [
        {
          "internalType": "uint256",
          "name": "",
          "type": "uint256"
        }
      ],
      "stateMutability": "view",
      "type": "function"
    },
    {
      "inputs": [],
      "name": "update",
      "outputs": [],
      "stateMutability": "nonpayable",
      "type": "function"
    },
    {
      "inputs": [
        {
          "internalType": "address",
          "name": "from",
          "type": "address"
        },
        {
          "internalType": "address",
          "name": "to",
          "type": "address"
        },
        {
          "internalType": "uint256",
          "name": "amount",
          "type": "uint256"
        }
      ],
      "name": "hubTransfer",
      "outputs": [
        {
          "internalType": "bool",
          "name": "",
          "type": "bool"
        }
      ],
      "stateMutability": "nonpayable",
      "type": "function"
    },
    {
      "inputs": [
        {
          "internalType": "address",
          "name": "dst",
          "type": "address"
        },
        {
          "internalType": "uint256",
          "name": "wad",
          "type": "uint256"
        }
      ],
      "name": "transfer",
      "outputs": [
        {
          "internalType": "bool",
          "name": "",
          "type": "bool"
        }
      ],
      "stateMutability": "nonpayable",
      "type": "function"
    }
  ],
  "bytecode": "0x60806040526004805461ff0019166112001790553480156200002057600080fd5b50604051620018e6380380620018e6833981810160405260408110156200004657600080fd5b5080516020909101516001600160a01b0382166200006357600080fd5b600780546001600160a01b0384166001600160a01b03199182161790915560068054909116331790556200009662000131565b600555620000a362000135565b6008556006546040805163863623bb60e01b815290516001600160a01b039092169163863623bb91600480820192602092909190829003018186803b158015620000ec57600080fd5b505afa15801562000101573d6000803e3d6000fd5b505050506040513d60208110156200011857600080fd5b5051600955620001298282620001af565b50506200056f565b4290565b6000620001aa6200014562000131565b6200019662000153620002be565b620001646200017860018262000337565b6200037d60201b62000c721790919060201c565b62000182620003e1565b6200042760201b62000ccc1790919060201c565b6200048560201b62000d251790919060201c565b905090565b6001600160a01b0382166200020b576040805162461bcd60e51b815260206004820152601f60248201527f45524332303a206d696e7420746f20746865207a65726f206164647265737300604482015290519081900360640190fd5b6200021960008383620004cf565b62000235816002546200037d60201b62000c721790919060201c565b6002556001600160a01b038216600090815260208181526040909120546200026891839062000c726200037d821b17901c565b6001600160a01b0383166000818152602081815260408083209490945583518581529351929391927fddf252ad1be2c89b69c2b068fc378daa952ba7f163c4a11628f55a4df523b3ef9281900390910190a35050565b6006546040805163eae4c19f60e01b815290516000926001600160a01b03169163eae4c19f916004808301926020929190829003018186803b1580156200030457600080fd5b505afa15801562000319573d6000803e3d6000fd5b505050506040513d60208110156200033057600080fd5b5051905090565b6006546040805163526575a160e11b815290516000926001600160a01b03169163a4caeb42916004808301926020929190829003018186803b1580156200030457600080fd5b600082820183811015620003d8576040805162461bcd60e51b815260206004820152601b60248201527f536166654d6174683a206164646974696f6e206f766572666c6f770000000000604482015290519081900360640190fd5b90505b92915050565b6006546040805163ef78d4fd60e01b815290516000926001600160a01b03169163ef78d4fd916004808301926020929190829003018186803b1580156200030457600080fd5b6000826200043857506000620003db565b828202828482816200044657fe5b0414620003d85760405162461bcd60e51b8152600401808060200182810382526021815260200180620018c56021913960400191505060405180910390fd5b6000620003d883836040518060400160405280601e81526020017f536166654d6174683a207375627472616374696f6e206f766572666c6f770000815250620004d460201b60201c565b505050565b60008184841115620005675760405162461bcd60e51b81526004018080602001828103825283818151815260200191508051906020019080838360005b838110156200052b57818101518382015260200162000511565b50505050905090810190601f168015620005595780820380516001836020036101000a031916815260200191505b509250505060405180910390fd5b505050900390565b611346806200057f6000396000f3fe608060405234801561001057600080fd5b50600436106101cf5760003560e01c80636c050eae11610104578063a2e62045116100a2578063be0522e011610071578063be0522e014610475578063d40480891461047d578063dd62ed3e14610485578063ef78d4fd146104b3576101cf565b8063a2e620451461040d578063a457c2d714610415578063a4caeb4214610441578063a9059cbb14610449576101cf565b806375f12b21116100de57806375f12b21146103785780638b4eed81146103805780638da5cb5b1461038857806395d89b4114610390576101cf565b80636c050eae1461034257806370a082311461034a57806370dea79a14610370576101cf565b80631f2dc5ef11610171578063313ce5671161014b578063313ce567146102cc578063365a86fc146102ea578063395093511461030e57806341c305461461033a576101cf565b80631f2dc5ef1461025857806320a6703c1461026057806323b872dd14610296576101cf565b80630f487c21116101ad5780630f487c2114610238578063107129dd1461024057806316ada5471461024857806318160ddd14610250576101cf565b806306f09ab0146101d457806307da68f5146101ee578063095ea7b3146101f8575b600080fd5b6101dc6104bb565b60408051918252519081900360200190f35b6101f6610532565b005b6102246004803603604081101561020e57600080fd5b506001600160a01b038135169060200135610558565b604080519115158252519081900360200190f35b6101dc61056f565b6101dc61059b565b6101dc6105a1565b6101dc6105a5565b6101dc6105ab565b6102246004803603606081101561027657600080fd5b506001600160a01b038135811691602081013590911690604001356105f0565b610224600480360360608110156102ac57600080fd5b506001600160a01b0381358116916020810135909116906040013561061c565b6102d4610685565b6040805160ff9092168252519081900360200190f35b6102f2610693565b604080516001600160a01b039092168252519081900360200190f35b6102246004803603604081101561032457600080fd5b506001600160a01b0381351690602001356106a2565b6101dc6106d8565b6101dc61071a565b6101dc6004803603602081101561036057600080fd5b50356001600160a01b031661084a565b6101dc610865565b6102246108aa565b6101dc6108ef565b6102f26108f5565b610398610904565b6040805160208082528351818301528351919283929083019185019080838360005b838110156103d25781810151838201526020016103ba565b50505050905090810190601f1680156103ff5780820380516001836020036101000a031916815260200191505b509250505060405180910390f35b6101f6610a3b565b6102246004803603604081101561042b57600080fd5b506001600160a01b038135169060200135610af0565b6101dc610b3f565b6102246004803603604081101561045f57600080fd5b506001600160a01b038135169060200135610b84565b6101dc610bb7565b6101dc610bfc565b6101dc6004803603604081101561049b57600080fd5b506001600160a01b0381358116916020013516610c02565b6101dc610c2d565b6006546040805163eae4c19f60e01b815290516000926001600160a01b03169163eae4c19f916004808301926020929190829003018186803b15801561050057600080fd5b505afa158015610514573d6000803e3d6000fd5b505050506040513d602081101561052a57600080fd5b505190505b90565b6007546001600160a01b0316331461054957600080fd5b600a805460ff19166001179055565b6000610565338484610d67565b5060015b92915050565b600061059661057c610c2d565b6105906105876104bb565b60055490610d25565b90610e53565b905090565b60085481565b4290565b60025490565b60065460408051631f2dc5ef60e01b815290516000926001600160a01b031691631f2dc5ef916004808301926020929190829003018186803b15801561050057600080fd5b6006546000906001600160a01b0316331461060a57600080fd5b610615848484610e95565b9392505050565b6000610629848484610e95565b61067b84336106768560405180606001604052806028815260200161127b602891396001600160a01b038a1660009081526001602090815260408083203384529091529020549190610ff0565b610d67565b5060019392505050565b600454610100900460ff1681565b6006546001600160a01b031681565b3360008181526001602090815260408083206001600160a01b038716845290915281205490916105659185906106769086610c72565b60006105966106e56105a1565b6107146106f06104bb565b6107006107066001610700610b3f565b90610c72565b61070e610c2d565b90610ccc565b90610d25565b60006107246108aa565b156107315750600061052f565b60055460085460095460009291908361074861056f565b90505b6107536105a1565b61075d8585610c72565b1161081b5761077661076f8484610ccc565b8690610c72565b94506107828484610c72565b935061078c610c2d565b9250610799816001610c72565b6006546040805163afaa29df60e01b81526004810184905290519293506001600160a01b039091169163afaa29df91602480820192602092909190829003018186803b1580156107e857600080fd5b505afa1580156107fc573d6000803e3d6000fd5b505050506040513d602081101561081257600080fd5b5051915061074b565b6000610829856107146105a1565b905061083f6108388285610ccc565b8790610c72565b965050505050505090565b6001600160a01b031660009081526020819052604090205490565b6006546040805163386f53cd60e11b815290516000926001600160a01b0316916370dea79a916004808301926020929190829003018186803b15801561050057600080fd5b600a5460009060ff16156108c05750600161052f565b60006108d06005546107146105a1565b90506108da610865565b8111156108eb57600191505061052f565b5090565b60055481565b6007546001600160a01b031681565b600654604080516395d89b4160e01b815290516060926001600160a01b0316916395d89b41916004808301926000929190829003018186803b15801561094957600080fd5b505afa15801561095d573d6000803e3d6000fd5b505050506040513d6000823e601f3d908101601f19168201604052602081101561098657600080fd5b81019080805160405193929190846401000000008211156109a657600080fd5b9083019060208201858111156109bb57600080fd5b82516401000000008111828201881017156109d557600080fd5b82525081516020918201929091019080838360005b83811015610a025781810151838201526020016109ea565b50505050905090810190601f168015610a2f5780820380516001836020036101000a031916815260200191505b50604052505050905090565b6000610a4561071a565b90508015610aed57610a556106d8565b600855610a606105a1565b6005556006546040805163863623bb60e01b815290516001600160a01b039092169163863623bb91600480820192602092909190829003018186803b158015610aa857600080fd5b505afa158015610abc573d6000803e3d6000fd5b505050506040513d6020811015610ad257600080fd5b5051600955600754610aed906001600160a01b031682611087565b50565b60006105653384610676856040518060600160405280602581526020016112ec602591393360009081526001602090815260408083206001600160a01b038d1684529091529020549190610ff0565b6006546040805163526575a160e11b815290516000926001600160a01b03169163a4caeb42916004808301926020929190829003018186803b15801561050057600080fd5b6007546000906001600160a01b0316331415610bad57600780546001600160a01b031916331790555b6106158383611177565b600654604080516305f0291760e51b815290516000926001600160a01b03169163be0522e0916004808301926020929190829003018186803b15801561050057600080fd5b60095481565b6001600160a01b03918216600090815260016020908152604080832093909416825291909152205490565b6006546040805163ef78d4fd60e01b815290516000926001600160a01b03169163ef78d4fd916004808301926020929190829003018186803b15801561050057600080fd5b600082820183811015610615576040805162461bcd60e51b815260206004820152601b60248201527f536166654d6174683a206164646974696f6e206f766572666c6f770000000000604482015290519081900360640190fd5b600082610cdb57506000610569565b82820282848281610ce857fe5b04146106155760405162461bcd60e51b815260040180806020018281038252602181526020018061125a6021913960400191505060405180910390fd5b600061061583836040518060400160405280601e81526020017f536166654d6174683a207375627472616374696f6e206f766572666c6f770000815250610ff0565b6001600160a01b038316610dac5760405162461bcd60e51b81526004018080602001828103825260248152602001806112c86024913960400191505060405180910390fd5b6001600160a01b038216610df15760405162461bcd60e51b81526004018080602001828103825260228152602001806112126022913960400191505060405180910390fd5b6001600160a01b03808416600081815260016020908152604080832094871680845294825291829020859055815185815291517f8c5be1e5ebec7d5bd14f71427d1e84f3dd0314c0f7b2291e5b200ac8c7c3b9259281900390910190a3505050565b600061061583836040518060400160405280601a81526020017f536166654d6174683a206469766973696f6e206279207a65726f000000000000815250611184565b6001600160a01b038316610eda5760405162461bcd60e51b81526004018080602001828103825260258152602001806112a36025913960400191505060405180910390fd5b6001600160a01b038216610f1f5760405162461bcd60e51b81526004018080602001828103825260238152602001806111ef6023913960400191505060405180910390fd5b610f2a8383836111e9565b610f6781604051806060016040528060268152602001611234602691396001600160a01b0386166000908152602081905260409020549190610ff0565b6001600160a01b038085166000908152602081905260408082209390935590841681522054610f969082610c72565b6001600160a01b038084166000818152602081815260409182902094909455805185815290519193928716927fddf252ad1be2c89b69c2b068fc378daa952ba7f163c4a11628f55a4df523b3ef92918290030190a3505050565b6000818484111561107f5760405162461bcd60e51b81526004018080602001828103825283818151815260200191508051906020019080838360005b8381101561104457818101518382015260200161102c565b50505050905090810190601f1680156110715780820380516001836020036101000a031916815260200191505b509250505060405180910390fd5b505050900390565b6001600160a01b0382166110e2576040805162461bcd60e51b815260206004820152601f60248201527f45524332303a206d696e7420746f20746865207a65726f206164647265737300604482015290519081900360640190fd5b6110ee600083836111e9565b6002546110fb9082610c72565b6002556001600160a01b0382166000908152602081905260409020546111219082610c72565b6001600160a01b0383166000818152602081815260408083209490945583518581529351929391927fddf252ad1be2c89b69c2b068fc378daa952ba7f163c4a11628f55a4df523b3ef9281900390910190a35050565b6000610565338484610e95565b600081836111d35760405162461bcd60e51b815260206004820181815283516024840152835190928392604490910191908501908083836000831561104457818101518382015260200161102c565b5060008385816111df57fe5b0495945050505050565b50505056fe45524332303a207472616e7366657220746f20746865207a65726f206164647265737345524332303a20617070726f766520746f20746865207a65726f206164647265737345524332303a207472616e7366657220616d6f756e7420657863656564732062616c616e6365536166654d6174683a206d756c7469706c69636174696f6e206f766572666c6f7745524332303a207472616e7366657220616d6f756e74206578636565647320616c6c6f77616e636545524332303a207472616e736665722066726f6d20746865207a65726f206164647265737345524332303a20617070726f76652066726f6d20746865207a65726f206164647265737345524332303a2064656372656173656420616c6c6f77616e63652062656c6f77207a65726fa2646970667358221220ba6a04e080ef0a7c22d15277cff7213db74c1ef376f536b0babd98c7bd0bfed764736f6c63430007010033536166654d6174683a206d756c7469706c69636174696f6e206f766572666c6f77",
  "immutableReferences": {},
  "source": "// SPDX-License-Identifier: AGPL\npragma solidity ^0.7.0;\n\nimport \"@openzeppelin/contracts/math/SafeMath.sol\";\nimport \"./ERC20.sol\";\nimport \"./interfaces/HubI.sol\";\n\ncontract Token is ERC20 {\n    using SafeMath for uint256;\n\n    uint8 public override decimals = 18;\n\n    uint256 public lastTouched;\n    address public hub;\n    address public owner;\n    uint256 public inflationOffset;\n    uint256 public currentIssuance;\n    bool private manuallyStopped;\n\n    modifier onlyHub() {\n        require(msg.sender == hub);\n        _;\n    }\n\n    modifier onlyOwner() {\n        require(msg.sender == owner);\n        _;\n    }\n\n    constructor(address _owner, uint256 initialPayout) {\n        require(_owner != address(0));\n        owner = _owner;\n        hub = msg.sender;\n        lastTouched = time();\n        inflationOffset = findInflationOffset();\n        currentIssuance = HubI(hub).issuance();\n        _mint(_owner, initialPayout);\n    }\n\n    function time() public view returns (uint) {\n        return block.timestamp;\n    }\n\n    function symbol() public view override returns (string memory) {\n        return HubI(hub).symbol();\n    }\n\n    function inflation() public view returns (uint256) {\n        return HubI(hub).inflation();\n    }\n\n    function divisor() public view returns (uint256) {\n        return HubI(hub).divisor();\n    }\n\n    function period() public view returns (uint256) {\n        return HubI(hub).period();\n    }\n\n    function periods() public view returns (uint256) {\n        return HubI(hub).periods();\n    }\n\n    function timeout() public view returns (uint256) {\n        return HubI(hub).timeout();\n    }\n\n    function periodsLastTouched() public view returns (uint256) {\n        return (lastTouched.sub(hubDeploy())).div(period());\n    }\n\n    function hubDeploy() public view returns (uint256) {\n        return HubI(hub).deployedAt();\n    }\n\n    function stop() public onlyOwner {\n        manuallyStopped = true;\n    }\n\n    function stopped() public view returns (bool) {\n        if (manuallyStopped) return true;\n        uint256 secondsSinceLastTouched = time().sub(lastTouched);\n        if (secondsSinceLastTouched > timeout()) return true;\n    }\n\n    /// @return the amount of seconds until the next inflation step\n    function findInflationOffset() public view returns (uint256) {\n        return ((period().mul(periods().add(1))).add(hubDeploy())).sub(time());\n    }\n\n    /// @return how much ubi this token holder should receive\n    function look() public view returns (uint256) {\n        if (stopped()) return 0;\n        uint256 payout = 0;\n        uint256 clock = lastTouched;\n        uint256 offset = inflationOffset;\n        uint256 rate = currentIssuance;\n        uint256 p = periodsLastTouched();\n        while (clock.add(offset) <= time()) {\n            payout = payout.add(offset.mul(rate));\n            clock = clock.add(offset);\n            offset = period();\n            p = p.add(1);\n            rate = HubI(hub).issuanceStep(p);\n        }\n        uint256 timePassed = time().sub(clock);\n        payout = payout.add(timePassed.mul(rate));\n        return payout;\n    }\n\n    /// actually updates storage with new token balance\n    function update() public {\n        uint256 gift = look();\n        if (gift > 0) {\n            inflationOffset = findInflationOffset();\n            lastTouched = time();\n            currentIssuance = HubI(hub).issuance();\n            _mint(owner, gift);\n        }\n    }\n\n    function hubTransfer(\n        address from, address to, uint256 amount\n    ) public onlyHub returns (bool) {\n        _transfer(from, to, amount);\n    }\n\n    function transfer(address dst, uint wad) public override returns (bool) {\n        // this totally redundant code is covering what I believe is weird compiler\n        // eccentricity, making gnosis's revert message not correctly return the gas\n        // when this function only super() calls the inherited contract\n        if (msg.sender == owner) {\n            owner = msg.sender;\n        }\n        return super.transfer(dst, wad);\n    }\n}\n",
  "sourcePath": "/media/000/Documents/Circles/circles-contracts/contracts/Token.sol",
  "compiler": {
    "name": "solc",
    "version": "0.7.1+commit.f4a555be.Emscripten.clang"
  },
  "schemaVersion": "3.2.3",
  "updatedAt": "2020-09-18T23:05:42.573Z",
  "devdoc": {
    "kind": "dev",
    "methods": {
      "allowance(address,address)": {
        "details": "See {IERC20-allowance}."
      },
      "approve(address,uint256)": {
        "details": "See {IERC20-approve}. Requirements: - `spender` cannot be the zero address."
      },
      "balanceOf(address)": {
        "details": "See {IERC20-balanceOf}."
      },
      "decreaseAllowance(address,uint256)": {
        "details": "Atomically decreases the allowance granted to `spender` by the caller. This is an alternative to {approve} that can be used as a mitigation for problems described in {IERC20-approve}. Emits an {Approval} event indicating the updated allowance. Requirements: - `spender` cannot be the zero address. - `spender` must have allowance for the caller of at least `subtractedValue`."
      },
      "findInflationOffset()": {
        "returns": {
          "_0": "the amount of seconds until the next inflation step"
        }
      },
      "increaseAllowance(address,uint256)": {
        "details": "Atomically increases the allowance granted to `spender` by the caller. This is an alternative to {approve} that can be used as a mitigation for problems described in {IERC20-approve}. Emits an {Approval} event indicating the updated allowance. Requirements: - `spender` cannot be the zero address."
      },
      "look()": {
        "returns": {
          "_0": "how much ubi this token holder should receive"
        }
      },
      "symbol()": {
        "details": "Returns the symbol of the token, usually a shorter version of the name."
      },
      "totalSupply()": {
        "details": "See {IERC20-totalSupply}."
      },
      "transferFrom(address,address,uint256)": {
        "details": "See {IERC20-transferFrom}. Emits an {Approval} event indicating the updated allowance. This is not required by the EIP. See the note at the beginning of {ERC20}; Requirements: - `sender` and `recipient` cannot be the zero address. - `sender` must have a balance of at least `amount`. - the caller must have allowance for ``sender``'s tokens of at least `amount`."
      }
    },
    "stateVariables": {
      "decimals": {
        "details": "Returns the number of decimals used to get its user representation. For example, if `decimals` equals `2`, a balance of `505` tokens should be displayed to a user as `5,05` (`505 / 10 ** 2`). Tokens usually opt for a value of 18, imitating the relationship between Ether and Wei. This is the value {ERC20} uses, unless {_setupDecimals} is called. NOTE: This information is only used for _display_ purposes: it in no way affects any of the arithmetic of the contract, including {IERC20-balanceOf} and {IERC20-transfer}."
      }
    },
    "version": 1
  },
  "userdoc": {
    "kind": "user",
    "methods": {
      "update()": {
        "notice": "actually updates storage with new token balance"
      }
    },
    "version": 1
  }
}