{
  "contractName": "Token",
  "abi": [
    {
      "inputs": [
        {
          "internalType": "address",
          "name": "_owner",
          "type": "address"
        }
      ],
      "stateMutability": "nonpayable",
      "type": "constructor"
    },
    {
      "anonymous": false,
      "inputs": [
        {
          "indexed": true,
          "internalType": "address",
          "name": "owner",
          "type": "address"
        },
        {
          "indexed": true,
          "internalType": "address",
          "name": "spender",
          "type": "address"
        },
        {
          "indexed": false,
          "internalType": "uint256",
          "name": "value",
          "type": "uint256"
        }
      ],
      "name": "Approval",
      "type": "event"
    },
    {
      "anonymous": false,
      "inputs": [
        {
          "indexed": true,
          "internalType": "address",
          "name": "from",
          "type": "address"
        },
        {
          "indexed": true,
          "internalType": "address",
          "name": "to",
          "type": "address"
        },
        {
          "indexed": false,
          "internalType": "uint256",
          "name": "value",
          "type": "uint256"
        }
      ],
      "name": "Transfer",
      "type": "event"
    },
    {
      "inputs": [
        {
          "internalType": "address",
          "name": "owner",
          "type": "address"
        },
        {
          "internalType": "address",
          "name": "spender",
          "type": "address"
        }
      ],
      "name": "allowance",
      "outputs": [
        {
          "internalType": "uint256",
          "name": "",
          "type": "uint256"
        }
      ],
      "stateMutability": "view",
      "type": "function"
    },
    {
      "inputs": [
        {
          "internalType": "address",
          "name": "spender",
          "type": "address"
        },
        {
          "internalType": "uint256",
          "name": "amount",
          "type": "uint256"
        }
      ],
      "name": "approve",
      "outputs": [
        {
          "internalType": "bool",
          "name": "",
          "type": "bool"
        }
      ],
      "stateMutability": "nonpayable",
      "type": "function"
    },
    {
      "inputs": [
        {
          "internalType": "address",
          "name": "account",
          "type": "address"
        }
      ],
      "name": "balanceOf",
      "outputs": [
        {
          "internalType": "uint256",
          "name": "",
          "type": "uint256"
        }
      ],
      "stateMutability": "view",
      "type": "function"
    },
    {
      "inputs": [],
      "name": "currentIssuance",
      "outputs": [
        {
          "internalType": "uint256",
          "name": "",
          "type": "uint256"
        }
      ],
      "stateMutability": "view",
      "type": "function"
    },
    {
      "inputs": [],
      "name": "decimals",
      "outputs": [
        {
          "internalType": "uint8",
          "name": "",
          "type": "uint8"
        }
      ],
      "stateMutability": "view",
      "type": "function"
    },
    {
      "inputs": [
        {
          "internalType": "address",
          "name": "spender",
          "type": "address"
        },
        {
          "internalType": "uint256",
          "name": "subtractedValue",
          "type": "uint256"
        }
      ],
      "name": "decreaseAllowance",
      "outputs": [
        {
          "internalType": "bool",
          "name": "",
          "type": "bool"
        }
      ],
      "stateMutability": "nonpayable",
      "type": "function"
    },
    {
      "inputs": [],
      "name": "hub",
      "outputs": [
        {
          "internalType": "address",
          "name": "",
          "type": "address"
        }
      ],
      "stateMutability": "view",
      "type": "function"
    },
    {
      "inputs": [
        {
          "internalType": "address",
          "name": "spender",
          "type": "address"
        },
        {
          "internalType": "uint256",
          "name": "addedValue",
          "type": "uint256"
        }
      ],
      "name": "increaseAllowance",
      "outputs": [
        {
          "internalType": "bool",
          "name": "",
          "type": "bool"
        }
      ],
      "stateMutability": "nonpayable",
      "type": "function"
    },
    {
      "inputs": [],
      "name": "inflationOffset",
      "outputs": [
        {
          "internalType": "uint256",
          "name": "",
          "type": "uint256"
        }
      ],
      "stateMutability": "view",
      "type": "function"
    },
    {
      "inputs": [],
      "name": "lastTouched",
      "outputs": [
        {
          "internalType": "uint256",
          "name": "",
          "type": "uint256"
        }
      ],
      "stateMutability": "view",
      "type": "function"
    },
    {
      "inputs": [],
      "name": "owner",
      "outputs": [
        {
          "internalType": "address",
          "name": "",
          "type": "address"
        }
      ],
      "stateMutability": "view",
      "type": "function"
    },
    {
      "inputs": [],
      "name": "totalSupply",
      "outputs": [
        {
          "internalType": "uint256",
          "name": "",
          "type": "uint256"
        }
      ],
      "stateMutability": "view",
      "type": "function"
    },
    {
      "inputs": [
        {
          "internalType": "address",
          "name": "sender",
          "type": "address"
        },
        {
          "internalType": "address",
          "name": "recipient",
          "type": "address"
        },
        {
          "internalType": "uint256",
          "name": "amount",
          "type": "uint256"
        }
      ],
      "name": "transferFrom",
      "outputs": [
        {
          "internalType": "bool",
          "name": "",
          "type": "bool"
        }
      ],
      "stateMutability": "nonpayable",
      "type": "function"
    },
    {
      "inputs": [],
      "name": "time",
      "outputs": [
        {
          "internalType": "uint256",
          "name": "",
          "type": "uint256"
        }
      ],
      "stateMutability": "view",
      "type": "function"
    },
    {
      "inputs": [],
      "name": "symbol",
      "outputs": [
        {
          "internalType": "string",
          "name": "",
          "type": "string"
        }
      ],
      "stateMutability": "view",
      "type": "function"
    },
    {
      "inputs": [],
      "name": "period",
      "outputs": [
        {
          "internalType": "uint256",
          "name": "",
          "type": "uint256"
        }
      ],
      "stateMutability": "view",
      "type": "function"
    },
    {
      "inputs": [],
      "name": "periods",
      "outputs": [
        {
          "internalType": "uint256",
          "name": "",
          "type": "uint256"
        }
      ],
      "stateMutability": "view",
      "type": "function"
    },
    {
      "inputs": [],
      "name": "timeout",
      "outputs": [
        {
          "internalType": "uint256",
          "name": "",
          "type": "uint256"
        }
      ],
      "stateMutability": "view",
      "type": "function"
    },
    {
      "inputs": [],
      "name": "periodsWhenLastTouched",
      "outputs": [
        {
          "internalType": "uint256",
          "name": "",
          "type": "uint256"
        }
      ],
      "stateMutability": "view",
      "type": "function"
    },
    {
      "inputs": [],
      "name": "hubDeployedAt",
      "outputs": [
        {
          "internalType": "uint256",
          "name": "",
          "type": "uint256"
        }
      ],
      "stateMutability": "view",
      "type": "function"
    },
    {
      "inputs": [],
      "name": "stop",
      "outputs": [],
      "stateMutability": "nonpayable",
      "type": "function"
    },
    {
      "inputs": [],
      "name": "stopped",
      "outputs": [
        {
          "internalType": "bool",
          "name": "",
          "type": "bool"
        }
      ],
      "stateMutability": "view",
      "type": "function"
    },
    {
      "inputs": [],
      "name": "findInflationOffset",
      "outputs": [
        {
          "internalType": "uint256",
          "name": "",
          "type": "uint256"
        }
      ],
      "stateMutability": "view",
      "type": "function"
    },
    {
      "inputs": [],
      "name": "look",
      "outputs": [
        {
          "internalType": "uint256",
          "name": "",
          "type": "uint256"
        }
      ],
      "stateMutability": "view",
      "type": "function"
    },
    {
      "inputs": [],
      "name": "update",
      "outputs": [],
      "stateMutability": "nonpayable",
      "type": "function"
    },
    {
      "inputs": [
        {
          "internalType": "address",
          "name": "from",
          "type": "address"
        },
        {
          "internalType": "address",
          "name": "to",
          "type": "address"
        },
        {
          "internalType": "uint256",
          "name": "amount",
          "type": "uint256"
        }
      ],
      "name": "hubTransfer",
      "outputs": [
        {
          "internalType": "bool",
          "name": "",
          "type": "bool"
        }
      ],
      "stateMutability": "nonpayable",
      "type": "function"
    },
    {
      "inputs": [
        {
          "internalType": "address",
          "name": "dst",
          "type": "address"
        },
        {
          "internalType": "uint256",
          "name": "wad",
          "type": "uint256"
        }
      ],
      "name": "transfer",
      "outputs": [
        {
          "internalType": "bool",
          "name": "",
          "type": "bool"
        }
      ],
      "stateMutability": "nonpayable",
      "type": "function"
    }
  ],
  "bytecode": "0x60806040526004805461ff0019166112001790553480156200002057600080fd5b506040516200182e3803806200182e833981810160405260208110156200004657600080fd5b50516001600160a01b0381166200005c57600080fd5b600780546001600160a01b0383166001600160a01b03199182161790915560068054909116331790556200008f6200019e565b6005556200009c620001a2565b6008556006546040805163863623bb60e01b815290516001600160a01b039092169163863623bb91600480820192602092909190829003018186803b158015620000e557600080fd5b505afa158015620000fa573d6000803e3d6000fd5b505050506040513d60208110156200011157600080fd5b505160095560065460408051630cf96a5b60e31b81529051620001979284926001600160a01b03909116916367cb52d891600480820192602092909190829003018186803b1580156200016357600080fd5b505afa15801562000178573d6000803e3d6000fd5b505050506040513d60208110156200018f57600080fd5b505162000221565b50620005e1565b4290565b600080620001f6620001b362000330565b620001c4620001d8600182620003a9565b620003ef60201b62000b4d1790919060201c565b620001e262000453565b6200049960201b62000ba51790919060201c565b90506200021b620002066200019e565b82620004f760201b62000bfe1790919060201c565b91505090565b6001600160a01b0382166200027d576040805162461bcd60e51b815260206004820152601f60248201527f45524332303a206d696e7420746f20746865207a65726f206164647265737300604482015290519081900360640190fd5b6200028b6000838362000541565b620002a781600254620003ef60201b62000b4d1790919060201c565b6002556001600160a01b03821660009081526020818152604090912054620002da91839062000b4d620003ef821b17901c565b6001600160a01b0383166000818152602081815260408083209490945583518581529351929391927fddf252ad1be2c89b69c2b068fc378daa952ba7f163c4a11628f55a4df523b3ef9281900390910190a35050565b6006546040805163eae4c19f60e01b815290516000926001600160a01b03169163eae4c19f916004808301926020929190829003018186803b1580156200037657600080fd5b505afa1580156200038b573d6000803e3d6000fd5b505050506040513d6020811015620003a257600080fd5b5051905090565b6006546040805163526575a160e11b815290516000926001600160a01b03169163a4caeb42916004808301926020929190829003018186803b1580156200037657600080fd5b6000828201838110156200044a576040805162461bcd60e51b815260206004820152601b60248201527f536166654d6174683a206164646974696f6e206f766572666c6f770000000000604482015290519081900360640190fd5b90505b92915050565b6006546040805163ef78d4fd60e01b815290516000926001600160a01b03169163ef78d4fd916004808301926020929190829003018186803b1580156200037657600080fd5b600082620004aa575060006200044d565b82820282848281620004b857fe5b04146200044a5760405162461bcd60e51b81526004018080602001828103825260218152602001806200180d6021913960400191505060405180910390fd5b60006200044a83836040518060400160405280601e81526020017f536166654d6174683a207375627472616374696f6e206f766572666c6f7700008152506200054660201b60201c565b505050565b60008184841115620005d95760405162461bcd60e51b81526004018080602001828103825283818151815260200191508051906020019080838360005b838110156200059d57818101518382015260200162000583565b50505050905090810190601f168015620005cb5780820380516001836020036101000a031916815260200191505b509250505060405180910390fd5b505050900390565b61121c80620005f16000396000f3fe608060405234801561001057600080fd5b50600436106101595760003560e01c80636c050eae116100c95780636c050eae146102c457806370a08231146102cc57806370dea79a146102f257806375f12b21146102fa5780638b4eed81146103025780638da5cb5b1461030a57806395d89b4114610312578063a2e620451461038f578063a457c2d714610397578063a4caeb42146103c3578063a9059cbb146103cb578063d4048089146103f7578063dd62ed3e146103ff578063ef78d4fd1461042d57610159565b806307da68f51461015e578063095ea7b3146101685780630b0aaf27146101a8578063107129dd146101c257806316ada547146101ca57806318160ddd146101d257806320a6703c146101da57806323b872dd14610210578063313ce56714610246578063365a86fc1461026457806339509351146102885780633b6fe91f146102b457806341c30546146102bc575b600080fd5b610166610435565b005b6101946004803603604081101561017e57600080fd5b506001600160a01b03813516906020013561045b565b604080519115158252519081900360200190f35b6101b0610472565b60408051918252519081900360200190f35b6101b061049f565b6101b06104a5565b6101b06104a9565b610194600480360360608110156101f057600080fd5b506001600160a01b038135811691602081013590911690604001356104af565b6101946004803603606081101561022657600080fd5b506001600160a01b038135811691602081013590911690604001356104db565b61024e610544565b6040805160ff9092168252519081900360200190f35b61026c610552565b604080516001600160a01b039092168252519081900360200190f35b6101946004803603604081101561029e57600080fd5b506001600160a01b038135169060200135610561565b6101b0610597565b6101b061060d565b6101b0610659565b6101b0600480360360208110156102e257600080fd5b50356001600160a01b031661078f565b6101b06107aa565b6101946107ef565b6101b0610838565b61026c61083e565b61031a61084d565b6040805160208082528351818301528351919283929083019185019080838360005b8381101561035457818101518382015260200161033c565b50505050905090810190601f1680156103815780820380516001836020036101000a031916815260200191505b509250505060405180910390f35b610166610982565b610194600480360360408110156103ad57600080fd5b506001600160a01b038135169060200135610a37565b6101b0610a86565b610194600480360360408110156103e157600080fd5b506001600160a01b038135169060200135610acb565b6101b0610ad7565b6101b06004803603604081101561041557600080fd5b506001600160a01b0381358116916020013516610add565b6101b0610b08565b6007546001600160a01b0316331461044c57600080fd5b600a805460ff19166001179055565b6000610468338484610c40565b5060015b92915050565b600061049961047f610b08565b61049361048a610597565b60055490610bfe565b90610d2c565b90505b90565b60085481565b4290565b60025490565b6006546000906001600160a01b031633146104c957600080fd5b6104d4848484610d6b565b9392505050565b60006104e8848484610d6b565b61053a843361053585604051806060016040528060288152602001611151602891396001600160a01b038a1660009081526001602090815260408083203384529091529020549190610ec6565b610c40565b5060019392505050565b600454610100900460ff1681565b6006546001600160a01b031681565b3360008181526001602090815260408083206001600160a01b038716845290915281205490916104689185906105359086610b4d565b6006546040805163eae4c19f60e01b815290516000926001600160a01b03169163eae4c19f916004808301926020929190829003018186803b1580156105dc57600080fd5b505afa1580156105f0573d6000803e3d6000fd5b505050506040513d602081101561060657600080fd5b5051905090565b60008061063f61061b610597565b61062b610631600161062b610a86565b90610b4d565b610639610b08565b90610ba5565b905061065361064c6104a5565b8290610bfe565b91505090565b60006106636107ef565b156106705750600061049c565b600554600854600954600092919083610687610472565b90505b6106926104a5565b61069c8585610b4d565b1161075a576106b56106ae8484610ba5565b8690610b4d565b94506106c18484610b4d565b93506106cb610b08565b92506106d8816001610b4d565b600654604080516361c4b42160e01b81526004810184905290519293506001600160a01b03909116916361c4b42191602480820192602092909190829003018186803b15801561072757600080fd5b505afa15801561073b573d6000803e3d6000fd5b505050506040513d602081101561075157600080fd5b5051915061068a565b600061076e856107686104a5565b90610bfe565b905061078461077d8285610ba5565b8790610b4d565b965050505050505090565b6001600160a01b031660009081526020819052604090205490565b6006546040805163386f53cd60e11b815290516000926001600160a01b0316916370dea79a916004808301926020929190829003018186803b1580156105dc57600080fd5b600a5460009060ff16156108055750600161049c565b60006108156005546107686104a5565b905061081f6107aa565b81111561083057600191505061049c565b600091505090565b60055481565b6007546001600160a01b031681565b600654604080516395d89b4160e01b815290516060926001600160a01b0316916395d89b41916004808301926000929190829003018186803b15801561089257600080fd5b505afa1580156108a6573d6000803e3d6000fd5b505050506040513d6000823e601f3d908101601f1916820160405260208110156108cf57600080fd5b8101908080516040519392919084600160201b8211156108ee57600080fd5b90830190602082018581111561090357600080fd5b8251600160201b81118282018810171561091c57600080fd5b82525081516020918201929091019080838360005b83811015610949578181015183820152602001610931565b50505050905090810190601f1680156109765780820380516001836020036101000a031916815260200191505b50604052505050905090565b600061098c610659565b90508015610a345761099c61060d565b6008556109a76104a5565b6005556006546040805163863623bb60e01b815290516001600160a01b039092169163863623bb91600480820192602092909190829003018186803b1580156109ef57600080fd5b505afa158015610a03573d6000803e3d6000fd5b505050506040513d6020811015610a1957600080fd5b5051600955600754610a34906001600160a01b031682610f5d565b50565b60006104683384610535856040518060600160405280602581526020016111c2602591393360009081526001602090815260408083206001600160a01b038d1684529091529020549190610ec6565b6006546040805163526575a160e11b815290516000926001600160a01b03169163a4caeb42916004808301926020929190829003018186803b1580156105dc57600080fd5b60006104d4838361104d565b60095481565b6001600160a01b03918216600090815260016020908152604080832093909416825291909152205490565b6006546040805163ef78d4fd60e01b815290516000926001600160a01b03169163ef78d4fd916004808301926020929190829003018186803b1580156105dc57600080fd5b6000828201838110156104d4576040805162461bcd60e51b815260206004820152601b60248201527a536166654d6174683a206164646974696f6e206f766572666c6f7760281b604482015290519081900360640190fd5b600082610bb45750600061046c565b82820282848281610bc157fe5b04146104d45760405162461bcd60e51b81526004018080602001828103825260218152602001806111306021913960400191505060405180910390fd5b60006104d483836040518060400160405280601e81526020017f536166654d6174683a207375627472616374696f6e206f766572666c6f770000815250610ec6565b6001600160a01b038316610c855760405162461bcd60e51b815260040180806020018281038252602481526020018061119e6024913960400191505060405180910390fd5b6001600160a01b038216610cca5760405162461bcd60e51b81526004018080602001828103825260228152602001806110e86022913960400191505060405180910390fd5b6001600160a01b03808416600081815260016020908152604080832094871680845294825291829020859055815185815291517f8c5be1e5ebec7d5bd14f71427d1e84f3dd0314c0f7b2291e5b200ac8c7c3b9259281900390910190a3505050565b60006104d483836040518060400160405280601a815260200179536166654d6174683a206469766973696f6e206279207a65726f60301b81525061105a565b6001600160a01b038316610db05760405162461bcd60e51b81526004018080602001828103825260258152602001806111796025913960400191505060405180910390fd5b6001600160a01b038216610df55760405162461bcd60e51b81526004018080602001828103825260238152602001806110c56023913960400191505060405180910390fd5b610e008383836110bf565b610e3d8160405180606001604052806026815260200161110a602691396001600160a01b0386166000908152602081905260409020549190610ec6565b6001600160a01b038085166000908152602081905260408082209390935590841681522054610e6c9082610b4d565b6001600160a01b038084166000818152602081815260409182902094909455805185815290519193928716927fddf252ad1be2c89b69c2b068fc378daa952ba7f163c4a11628f55a4df523b3ef92918290030190a3505050565b60008184841115610f555760405162461bcd60e51b81526004018080602001828103825283818151815260200191508051906020019080838360005b83811015610f1a578181015183820152602001610f02565b50505050905090810190601f168015610f475780820380516001836020036101000a031916815260200191505b509250505060405180910390fd5b505050900390565b6001600160a01b038216610fb8576040805162461bcd60e51b815260206004820152601f60248201527f45524332303a206d696e7420746f20746865207a65726f206164647265737300604482015290519081900360640190fd5b610fc4600083836110bf565b600254610fd19082610b4d565b6002556001600160a01b038216600090815260208190526040902054610ff79082610b4d565b6001600160a01b0383166000818152602081815260408083209490945583518581529351929391927fddf252ad1be2c89b69c2b068fc378daa952ba7f163c4a11628f55a4df523b3ef9281900390910190a35050565b6000610468338484610d6b565b600081836110a95760405162461bcd60e51b8152602060048201818152835160248401528351909283926044909101919085019080838360008315610f1a578181015183820152602001610f02565b5060008385816110b557fe5b0495945050505050565b50505056fe45524332303a207472616e7366657220746f20746865207a65726f206164647265737345524332303a20617070726f766520746f20746865207a65726f206164647265737345524332303a207472616e7366657220616d6f756e7420657863656564732062616c616e6365536166654d6174683a206d756c7469706c69636174696f6e206f766572666c6f7745524332303a207472616e7366657220616d6f756e74206578636565647320616c6c6f77616e636545524332303a207472616e736665722066726f6d20746865207a65726f206164647265737345524332303a20617070726f76652066726f6d20746865207a65726f206164647265737345524332303a2064656372656173656420616c6c6f77616e63652062656c6f77207a65726fa26469706673582212202e22c1bdd05753be276c3183b7e4cdb038dbdf9ca4958ee4c21163799f13556264736f6c63430007010033536166654d6174683a206d756c7469706c69636174696f6e206f766572666c6f77",
  "immutableReferences": {},
  "source": "// SPDX-License-Identifier: AGPL\npragma solidity ^0.7.0;\n\nimport \"@openzeppelin/contracts/math/SafeMath.sol\";\nimport \"./ERC20.sol\";\nimport \"./interfaces/HubI.sol\";\n\ncontract Token is ERC20 {\n    using SafeMath for uint256;\n\n    uint8 public override decimals = 18;\n\n    uint256 public lastTouched; // the timestamp of the last ubi payout\n    address public hub; // the address of the hub this token was deployed through\n    address public owner; // the safe that deployed this token\n    uint256 public inflationOffset; // the amount of seconds until the next inflation step\n    uint256 public currentIssuance; // issanceRate at the time this token was deployed\n    bool private manuallyStopped; // true if this token has been stopped by it's owner\n\n    /// @dev modifier allowing function to be only called through the hub\n    modifier onlyHub() {\n        require(msg.sender == hub);\n        _;\n    }\n\n    /// @dev modifier allowing function to be only called by the token owner\n    modifier onlyOwner() {\n        require(msg.sender == owner);\n        _;\n    }\n\n    constructor(address _owner) {\n        require(_owner != address(0));\n        owner = _owner;\n        hub = msg.sender;\n        lastTouched = time();\n        inflationOffset = findInflationOffset();\n        currentIssuance = HubI(hub).issuance();\n        _mint(_owner, HubI(hub).signupBonus());\n    }\n\n    /// @notice helper function for block timestamp\n    /// @return the block timestamp\n    function time() public view returns (uint) {\n        return block.timestamp;\n    }\n\n    /// @notice helper function for the token symbol\n    /// @dev all circles tokens should have the same symbol\n    /// @return the token symbol\n    function symbol() public view override returns (string memory) {\n        return HubI(hub).symbol();\n    }\n\n    /// @notice helper function for fetching the period length from the hub\n    /// @return period length in seconds\n    function period() public view returns (uint256) {\n        return HubI(hub).period();\n    }\n\n    /// @notice helper function for fetching the number of periods from the hub\n    /// @return the number of periods since the hub was deployed\n    function periods() public view returns (uint256) {\n        return HubI(hub).periods();\n    }\n\n    /// @notice helper function for fetching the timeout from the hub\n    /// @return the number of seconds the token can go without being updated before it's deactivated\n    function timeout() public view returns (uint256) {\n        return HubI(hub).timeout();\n    }\n\n    /// @notice find the inflation step when ubi was last payed out\n    /// @dev ie. if ubi was last payed out during the second inflation step, returns two\n    /// @return the inflation step by count\n    function periodsWhenLastTouched() public view returns (uint256) {\n        return (lastTouched.sub(hubDeployedAt())).div(period());\n    }\n\n    /// @notice helper functio for getting the hub deployment time\n    /// @return the timestamp the hub was deployed at\n    function hubDeployedAt() public view returns (uint256) {\n        return HubI(hub).deployedAt();\n    }\n\n    /// @notice Caution! manually deactivates or stops this token, no ubi will be payed out after this is called\n    /// @dev intended for use in case of key loss, system failure, or migration to new contracts\n    function stop() public onlyOwner {\n        manuallyStopped = true;\n    }\n\n    /// @notice checks whether this token has been either stopped manually, or whether it has timed out\n    /// @dev combines the manual stop variable with a dead man's switch\n    /// @return true is the token is still paying out ubi, otherwise false\n    function stopped() public view returns (bool) {\n        if (manuallyStopped) return true;\n        uint256 secondsSinceLastTouched = time().sub(lastTouched);\n        if (secondsSinceLastTouched > timeout()) return true;\n        return false;\n    }\n\n    /// @notice the amount of seconds until the ubi payout is next inflated\n    /// @dev ubi is payed out continuously between inflation steps\n    /// @return the amount of seconds until the next inflation step\n    function findInflationOffset() public view returns (uint256) {\n        // finds the timestamp of the next inflation step, and subtracts the current timestamp\n        uint256 nextInflation = ((period().mul(periods().add(1))).add(hubDeployedAt()));\n        return nextInflation.sub(time());\n    }\n\n    /// @notice checks how much ubi this token holder is owed, but doesn't update their balance\n    /// @dev is called in the update method to write the new balance to state, but also useful in wallets\n    /// @return how much ubi this token holder is owed\n    function look() public view returns (uint256) {\n        // don't payout ubi if the token has been deactivated/stopped\n        if (stopped()) return 0;\n        uint256 payout = 0;\n        uint256 clock = lastTouched;\n        uint256 offset = inflationOffset;\n        uint256 rate = currentIssuance;\n        uint256 p = periodsWhenLastTouched();\n        // this while loop gets executed only when we're rolling over an inflation step \n        // in the course of a ubi payout aka while we have to pay out ubi for more time\n        // than lastTouched + inflationOffset\n        while (clock.add(offset) <= time()) {\n            // add the remaining offset time to the payout total at the current rate\n            payout = payout.add(offset.mul(rate));\n            // adjust clock to the timestamp of the next inflation step\n            clock = clock.add(offset);\n            // the offset is now the length of 1 period\n            offset = period();\n            // increment the period we are paying out for\n            p = p.add(1);\n            // find the issuance rate as of the next period\n            rate = HubI(hub).issuanceByStep(p);\n        }\n        // at this point, time() - clock should always be less than 1 period\n        uint256 timeSinceLastPayout = time().sub(clock);\n        payout = payout.add(timeSinceLastPayout.mul(rate));\n        return payout;\n    }\n\n    /// @notice receive a ubi payout\n    /// @dev this is the method to actually update storage with new token balance\n    function update() public {\n        uint256 gift = look();\n        // does nothing if there's no ubi to be payed out\n        if (gift > 0) {\n            // update the state variables used to calculate ubi, then mint\n            inflationOffset = findInflationOffset();\n            lastTouched = time();\n            currentIssuance = HubI(hub).issuance();\n            _mint(owner, gift);\n        }\n    }\n\n    /// @notice special method called by the hub to execute a transitive transaction\n    /// @param from the address the tokens are being transfered from\n    /// @param to the address the tokens are being transferred to\n    /// @param amount the amount of tokens to transfer\n    function hubTransfer(\n        address from, address to, uint256 amount\n    ) public onlyHub returns (bool) {\n        _transfer(from, to, amount);\n    }\n\n    function transfer(address dst, uint wad) public override returns (bool) {\n        // this code shouldn't be necessary, but when it's removed the gas estimation methods\n        // in the gnosis safe no longer work, still true as of solidity 7.1\n        return super.transfer(dst, wad);\n    }\n}\n",
  "sourcePath": "/media/000/Documents/Circles/circles-contracts/contracts/Token.sol",
  "compiler": {
    "name": "solc",
    "version": "0.7.1+commit.f4a555be.Emscripten.clang"
  },
  "schemaVersion": "3.2.3",
  "updatedAt": "2020-10-14T13:42:13.179Z",
  "devdoc": {
    "kind": "dev",
    "methods": {
      "allowance(address,address)": {
        "details": "See {IERC20-allowance}."
      },
      "approve(address,uint256)": {
        "details": "See {IERC20-approve}. Requirements: - `spender` cannot be the zero address."
      },
      "balanceOf(address)": {
        "details": "See {IERC20-balanceOf}."
      },
      "decreaseAllowance(address,uint256)": {
        "details": "Atomically decreases the allowance granted to `spender` by the caller. This is an alternative to {approve} that can be used as a mitigation for problems described in {IERC20-approve}. Emits an {Approval} event indicating the updated allowance. Requirements: - `spender` cannot be the zero address. - `spender` must have allowance for the caller of at least `subtractedValue`."
      },
      "findInflationOffset()": {
        "details": "ubi is payed out continuously between inflation steps",
        "returns": {
          "_0": "the amount of seconds until the next inflation step"
        }
      },
      "hubDeployedAt()": {
        "returns": {
          "_0": "the timestamp the hub was deployed at"
        }
      },
      "hubTransfer(address,address,uint256)": {
        "params": {
          "amount": "the amount of tokens to transfer",
          "from": "the address the tokens are being transfered from",
          "to": "the address the tokens are being transferred to"
        }
      },
      "increaseAllowance(address,uint256)": {
        "details": "Atomically increases the allowance granted to `spender` by the caller. This is an alternative to {approve} that can be used as a mitigation for problems described in {IERC20-approve}. Emits an {Approval} event indicating the updated allowance. Requirements: - `spender` cannot be the zero address."
      },
      "look()": {
        "details": "is called in the update method to write the new balance to state, but also useful in wallets",
        "returns": {
          "_0": "how much ubi this token holder is owed"
        }
      },
      "period()": {
        "returns": {
          "_0": "period length in seconds"
        }
      },
      "periods()": {
        "returns": {
          "_0": "the number of periods since the hub was deployed"
        }
      },
      "periodsWhenLastTouched()": {
        "details": "ie. if ubi was last payed out during the second inflation step, returns two",
        "returns": {
          "_0": "the inflation step by count"
        }
      },
      "stop()": {
        "details": "intended for use in case of key loss, system failure, or migration to new contracts"
      },
      "stopped()": {
        "details": "combines the manual stop variable with a dead man's switch",
        "returns": {
          "_0": "true is the token is still paying out ubi, otherwise false"
        }
      },
      "symbol()": {
        "details": "all circles tokens should have the same symbol",
        "returns": {
          "_0": "the token symbol"
        }
      },
      "time()": {
        "returns": {
          "_0": "the block timestamp"
        }
      },
      "timeout()": {
        "returns": {
          "_0": "the number of seconds the token can go without being updated before it's deactivated"
        }
      },
      "totalSupply()": {
        "details": "See {IERC20-totalSupply}."
      },
      "transferFrom(address,address,uint256)": {
        "details": "See {IERC20-transferFrom}. Emits an {Approval} event indicating the updated allowance. This is not required by the EIP. See the note at the beginning of {ERC20}; Requirements: - `sender` and `recipient` cannot be the zero address. - `sender` must have a balance of at least `amount`. - the caller must have allowance for ``sender``'s tokens of at least `amount`."
      },
      "update()": {
        "details": "this is the method to actually update storage with new token balance"
      }
    },
    "stateVariables": {
      "decimals": {
        "details": "Returns the number of decimals used to get its user representation. For example, if `decimals` equals `2`, a balance of `505` tokens should be displayed to a user as `5,05` (`505 / 10 ** 2`). Tokens usually opt for a value of 18, imitating the relationship between Ether and Wei. This is the value {ERC20} uses, unless {_setupDecimals} is called. NOTE: This information is only used for _display_ purposes: it in no way affects any of the arithmetic of the contract, including {IERC20-balanceOf} and {IERC20-transfer}."
      }
    },
    "version": 1
  },
  "userdoc": {
    "kind": "user",
    "methods": {
      "findInflationOffset()": {
        "notice": "the amount of seconds until the ubi payout is next inflated"
      },
      "hubDeployedAt()": {
        "notice": "helper functio for getting the hub deployment time"
      },
      "hubTransfer(address,address,uint256)": {
        "notice": "special method called by the hub to execute a transitive transaction"
      },
      "look()": {
        "notice": "checks how much ubi this token holder is owed, but doesn't update their balance"
      },
      "period()": {
        "notice": "helper function for fetching the period length from the hub"
      },
      "periods()": {
        "notice": "helper function for fetching the number of periods from the hub"
      },
      "periodsWhenLastTouched()": {
        "notice": "find the inflation step when ubi was last payed out"
      },
      "stop()": {
        "notice": "Caution! manually deactivates or stops this token, no ubi will be payed out after this is called"
      },
      "stopped()": {
        "notice": "checks whether this token has been either stopped manually, or whether it has timed out"
      },
      "symbol()": {
        "notice": "helper function for the token symbol"
      },
      "time()": {
        "notice": "helper function for block timestamp"
      },
      "timeout()": {
        "notice": "helper function for fetching the timeout from the hub"
      },
      "update()": {
        "notice": "receive a ubi payout"
      }
    },
    "version": 1
  }
}