{
  "contractName": "Token",
  "abi": [
    {
      "inputs": [
        {
          "internalType": "address",
          "name": "_owner",
          "type": "address"
        },
        {
          "internalType": "uint256",
          "name": "initialPayout",
          "type": "uint256"
        }
      ],
      "stateMutability": "nonpayable",
      "type": "constructor"
    },
    {
      "anonymous": false,
      "inputs": [
        {
          "indexed": true,
          "internalType": "address",
          "name": "owner",
          "type": "address"
        },
        {
          "indexed": true,
          "internalType": "address",
          "name": "spender",
          "type": "address"
        },
        {
          "indexed": false,
          "internalType": "uint256",
          "name": "value",
          "type": "uint256"
        }
      ],
      "name": "Approval",
      "type": "event"
    },
    {
      "anonymous": false,
      "inputs": [
        {
          "indexed": true,
          "internalType": "address",
          "name": "from",
          "type": "address"
        },
        {
          "indexed": true,
          "internalType": "address",
          "name": "to",
          "type": "address"
        },
        {
          "indexed": false,
          "internalType": "uint256",
          "name": "value",
          "type": "uint256"
        }
      ],
      "name": "Transfer",
      "type": "event"
    },
    {
      "inputs": [
        {
          "internalType": "address",
          "name": "owner",
          "type": "address"
        },
        {
          "internalType": "address",
          "name": "spender",
          "type": "address"
        }
      ],
      "name": "allowance",
      "outputs": [
        {
          "internalType": "uint256",
          "name": "",
          "type": "uint256"
        }
      ],
      "stateMutability": "view",
      "type": "function"
    },
    {
      "inputs": [
        {
          "internalType": "address",
          "name": "spender",
          "type": "address"
        },
        {
          "internalType": "uint256",
          "name": "amount",
          "type": "uint256"
        }
      ],
      "name": "approve",
      "outputs": [
        {
          "internalType": "bool",
          "name": "",
          "type": "bool"
        }
      ],
      "stateMutability": "nonpayable",
      "type": "function"
    },
    {
      "inputs": [
        {
          "internalType": "address",
          "name": "account",
          "type": "address"
        }
      ],
      "name": "balanceOf",
      "outputs": [
        {
          "internalType": "uint256",
          "name": "",
          "type": "uint256"
        }
      ],
      "stateMutability": "view",
      "type": "function"
    },
    {
      "inputs": [],
      "name": "currentIssuance",
      "outputs": [
        {
          "internalType": "uint256",
          "name": "",
          "type": "uint256"
        }
      ],
      "stateMutability": "view",
      "type": "function"
    },
    {
      "inputs": [],
      "name": "decimals",
      "outputs": [
        {
          "internalType": "uint8",
          "name": "",
          "type": "uint8"
        }
      ],
      "stateMutability": "view",
      "type": "function"
    },
    {
      "inputs": [
        {
          "internalType": "address",
          "name": "spender",
          "type": "address"
        },
        {
          "internalType": "uint256",
          "name": "subtractedValue",
          "type": "uint256"
        }
      ],
      "name": "decreaseAllowance",
      "outputs": [
        {
          "internalType": "bool",
          "name": "",
          "type": "bool"
        }
      ],
      "stateMutability": "nonpayable",
      "type": "function"
    },
    {
      "inputs": [],
      "name": "hub",
      "outputs": [
        {
          "internalType": "address",
          "name": "",
          "type": "address"
        }
      ],
      "stateMutability": "view",
      "type": "function"
    },
    {
      "inputs": [
        {
          "internalType": "address",
          "name": "spender",
          "type": "address"
        },
        {
          "internalType": "uint256",
          "name": "addedValue",
          "type": "uint256"
        }
      ],
      "name": "increaseAllowance",
      "outputs": [
        {
          "internalType": "bool",
          "name": "",
          "type": "bool"
        }
      ],
      "stateMutability": "nonpayable",
      "type": "function"
    },
    {
      "inputs": [],
      "name": "inflationOffset",
      "outputs": [
        {
          "internalType": "uint256",
          "name": "",
          "type": "uint256"
        }
      ],
      "stateMutability": "view",
      "type": "function"
    },
    {
      "inputs": [],
      "name": "lastTouched",
      "outputs": [
        {
          "internalType": "uint256",
          "name": "",
          "type": "uint256"
        }
      ],
      "stateMutability": "view",
      "type": "function"
    },
    {
      "inputs": [],
      "name": "owner",
      "outputs": [
        {
          "internalType": "address",
          "name": "",
          "type": "address"
        }
      ],
      "stateMutability": "view",
      "type": "function"
    },
    {
      "inputs": [],
      "name": "totalSupply",
      "outputs": [
        {
          "internalType": "uint256",
          "name": "",
          "type": "uint256"
        }
      ],
      "stateMutability": "view",
      "type": "function"
    },
    {
      "inputs": [
        {
          "internalType": "address",
          "name": "sender",
          "type": "address"
        },
        {
          "internalType": "address",
          "name": "recipient",
          "type": "address"
        },
        {
          "internalType": "uint256",
          "name": "amount",
          "type": "uint256"
        }
      ],
      "name": "transferFrom",
      "outputs": [
        {
          "internalType": "bool",
          "name": "",
          "type": "bool"
        }
      ],
      "stateMutability": "nonpayable",
      "type": "function"
    },
    {
      "inputs": [],
      "name": "time",
      "outputs": [
        {
          "internalType": "uint256",
          "name": "",
          "type": "uint256"
        }
      ],
      "stateMutability": "view",
      "type": "function"
    },
    {
      "inputs": [],
      "name": "symbol",
      "outputs": [
        {
          "internalType": "string",
          "name": "",
          "type": "string"
        }
      ],
      "stateMutability": "view",
      "type": "function"
    },
    {
      "inputs": [],
      "name": "inflation",
      "outputs": [
        {
          "internalType": "uint256",
          "name": "",
          "type": "uint256"
        }
      ],
      "stateMutability": "view",
      "type": "function"
    },
    {
      "inputs": [],
      "name": "divisor",
      "outputs": [
        {
          "internalType": "uint256",
          "name": "",
          "type": "uint256"
        }
      ],
      "stateMutability": "view",
      "type": "function"
    },
    {
      "inputs": [],
      "name": "period",
      "outputs": [
        {
          "internalType": "uint256",
          "name": "",
          "type": "uint256"
        }
      ],
      "stateMutability": "view",
      "type": "function"
    },
    {
      "inputs": [],
      "name": "periods",
      "outputs": [
        {
          "internalType": "uint256",
          "name": "",
          "type": "uint256"
        }
      ],
      "stateMutability": "view",
      "type": "function"
    },
    {
      "inputs": [],
      "name": "periodsLastTouched",
      "outputs": [
        {
          "internalType": "uint256",
          "name": "",
          "type": "uint256"
        }
      ],
      "stateMutability": "view",
      "type": "function"
    },
    {
      "inputs": [],
      "name": "hubDeploy",
      "outputs": [
        {
          "internalType": "uint256",
          "name": "",
          "type": "uint256"
        }
      ],
      "stateMutability": "view",
      "type": "function"
    },
    {
      "inputs": [],
      "name": "findInflationOffset",
      "outputs": [
        {
          "internalType": "uint256",
          "name": "",
          "type": "uint256"
        }
      ],
      "stateMutability": "view",
      "type": "function"
    },
    {
      "inputs": [],
      "name": "look",
      "outputs": [
        {
          "internalType": "uint256",
          "name": "",
          "type": "uint256"
        }
      ],
      "stateMutability": "view",
      "type": "function"
    },
    {
      "inputs": [],
      "name": "update",
      "outputs": [],
      "stateMutability": "nonpayable",
      "type": "function"
    },
    {
      "inputs": [
        {
          "internalType": "address",
          "name": "from",
          "type": "address"
        },
        {
          "internalType": "address",
          "name": "to",
          "type": "address"
        },
        {
          "internalType": "uint256",
          "name": "amount",
          "type": "uint256"
        }
      ],
      "name": "hubTransfer",
      "outputs": [
        {
          "internalType": "bool",
          "name": "",
          "type": "bool"
        }
      ],
      "stateMutability": "nonpayable",
      "type": "function"
    },
    {
      "inputs": [
        {
          "internalType": "address",
          "name": "dst",
          "type": "address"
        },
        {
          "internalType": "uint256",
          "name": "wad",
          "type": "uint256"
        }
      ],
      "name": "transfer",
      "outputs": [
        {
          "internalType": "bool",
          "name": "",
          "type": "bool"
        }
      ],
      "stateMutability": "nonpayable",
      "type": "function"
    }
  ],
  "bytecode": "0x60806040526012600460016101000a81548160ff021916908360ff1602179055503480156200002d57600080fd5b506040516200290a3803806200290a833981810160405260408110156200005357600080fd5b810190808051906020019092919080519060200190929190505050600073ffffffffffffffffffffffffffffffffffffffff168273ffffffffffffffffffffffffffffffffffffffff161415620000a957600080fd5b81600760006101000a81548173ffffffffffffffffffffffffffffffffffffffff021916908373ffffffffffffffffffffffffffffffffffffffff16021790555033600660006101000a81548173ffffffffffffffffffffffffffffffffffffffff021916908373ffffffffffffffffffffffffffffffffffffffff1602179055506200013b6200021d60201b60201c565b600581905550620001516200022560201b60201c565b600881905550600660009054906101000a900473ffffffffffffffffffffffffffffffffffffffff1673ffffffffffffffffffffffffffffffffffffffff1663863623bb6040518163ffffffff1660e01b815260040160206040518083038186803b158015620001c057600080fd5b505afa158015620001d5573d6000803e3d6000fd5b505050506040513d6020811015620001ec57600080fd5b8101908080519060200190929190505050600981905550620002158282620002ce60201b60201c565b5050620008e2565b600042905090565b6000620002c96200023b6200021d60201b60201c565b620002b56200024f620004ac60201b60201c565b620002a16200027d6001620002696200055960201b60201c565b6200060660201b62001ae11790919060201c565b6200028d6200068f60201b60201c565b6200073c60201b62001b691790919060201c565b6200060660201b62001ae11790919060201c565b620007c760201b620016cc1790919060201c565b905090565b600073ffffffffffffffffffffffffffffffffffffffff168273ffffffffffffffffffffffffffffffffffffffff16141562000372576040517f08c379a000000000000000000000000000000000000000000000000000000000815260040180806020018281038252601f8152602001807f45524332303a206d696e7420746f20746865207a65726f20616464726573730081525060200191505060405180910390fd5b62000386600083836200081960201b60201c565b620003a2816002546200060660201b62001ae11790919060201c565b60028190555062000400816000808573ffffffffffffffffffffffffffffffffffffffff1673ffffffffffffffffffffffffffffffffffffffff168152602001908152602001600020546200060660201b62001ae11790919060201c565b6000808473ffffffffffffffffffffffffffffffffffffffff1673ffffffffffffffffffffffffffffffffffffffff168152602001908152602001600020819055508173ffffffffffffffffffffffffffffffffffffffff16600073ffffffffffffffffffffffffffffffffffffffff167fddf252ad1be2c89b69c2b068fc378daa952ba7f163c4a11628f55a4df523b3ef836040518082815260200191505060405180910390a35050565b6000600660009054906101000a900473ffffffffffffffffffffffffffffffffffffffff1673ffffffffffffffffffffffffffffffffffffffff1663eae4c19f6040518163ffffffff1660e01b815260040160206040518083038186803b1580156200051757600080fd5b505afa1580156200052c573d6000803e3d6000fd5b505050506040513d60208110156200054357600080fd5b8101908080519060200190929190505050905090565b6000600660009054906101000a900473ffffffffffffffffffffffffffffffffffffffff1673ffffffffffffffffffffffffffffffffffffffff1663a4caeb426040518163ffffffff1660e01b815260040160206040518083038186803b158015620005c457600080fd5b505afa158015620005d9573d6000803e3d6000fd5b505050506040513d6020811015620005f057600080fd5b8101908080519060200190929190505050905090565b60008082840190508381101562000685576040517f08c379a000000000000000000000000000000000000000000000000000000000815260040180806020018281038252601b8152602001807f536166654d6174683a206164646974696f6e206f766572666c6f77000000000081525060200191505060405180910390fd5b8091505092915050565b6000600660009054906101000a900473ffffffffffffffffffffffffffffffffffffffff1673ffffffffffffffffffffffffffffffffffffffff1663ef78d4fd6040518163ffffffff1660e01b815260040160206040518083038186803b158015620006fa57600080fd5b505afa1580156200070f573d6000803e3d6000fd5b505050506040513d60208110156200072657600080fd5b8101908080519060200190929190505050905090565b600080831415620007515760009050620007c1565b60008284029050828482816200076357fe5b0414620007bc576040517f08c379a0000000000000000000000000000000000000000000000000000000008152600401808060200182810382526021815260200180620028e96021913960400191505060405180910390fd5b809150505b92915050565b60006200081183836040518060400160405280601e81526020017f536166654d6174683a207375627472616374696f6e206f766572666c6f7700008152506200081e60201b60201c565b905092915050565b505050565b6000838311158290620008cf576040517f08c379a00000000000000000000000000000000000000000000000000000000081526004018080602001828103825283818151815260200191508051906020019080838360005b838110156200089357808201518184015260208101905062000876565b50505050905090810190601f168015620008c15780820380516001836020036101000a031916815260200191505b509250505060405180910390fd5b5060008385039050809150509392505050565b611ff780620008f26000396000f3fe608060405234801561001057600080fd5b506004361061018e5760003560e01c80636c050eae116100de578063a457c2d711610097578063be0522e011610071578063be0522e014610700578063d40480891461071e578063dd62ed3e1461073c578063ef78d4fd146107b45761018e565b8063a457c2d714610616578063a4caeb421461067c578063a9059cbb1461069a5761018e565b80636c050eae146104ab57806370a08231146104c95780638b4eed81146105215780638da5cb5b1461053f57806395d89b4114610589578063a2e620451461060c5761018e565b80631f2dc5ef1161014b578063313ce56711610125578063313ce567146103b9578063365a86fc146103dd578063395093511461042757806341c305461461048d5761018e565b80631f2dc5ef1461028f57806320a6703c146102ad57806323b872dd146103335761018e565b806306f09ab014610193578063095ea7b3146101b15780630f487c2114610217578063107129dd1461023557806316ada5471461025357806318160ddd14610271575b600080fd5b61019b6107d2565b6040518082815260200191505060405180910390f35b6101fd600480360360408110156101c757600080fd5b81019080803573ffffffffffffffffffffffffffffffffffffffff1690602001909291908035906020019092919050505061087c565b604051808215151515815260200191505060405180910390f35b61021f61089a565b6040518082815260200191505060405180910390f35b61023d6108d6565b6040518082815260200191505060405180910390f35b61025b6108dc565b6040518082815260200191505060405180910390f35b6102796108e4565b6040518082815260200191505060405180910390f35b6102976108ee565b6040518082815260200191505060405180910390f35b610319600480360360608110156102c357600080fd5b81019080803573ffffffffffffffffffffffffffffffffffffffff169060200190929190803573ffffffffffffffffffffffffffffffffffffffff16906020019092919080359060200190929190505050610998565b604051808215151515815260200191505060405180910390f35b61039f6004803603606081101561034957600080fd5b81019080803573ffffffffffffffffffffffffffffffffffffffff169060200190929190803573ffffffffffffffffffffffffffffffffffffffff16906020019092919080359060200190929190505050610a06565b604051808215151515815260200191505060405180910390f35b6103c1610adf565b604051808260ff1660ff16815260200191505060405180910390f35b6103e5610af2565b604051808273ffffffffffffffffffffffffffffffffffffffff1673ffffffffffffffffffffffffffffffffffffffff16815260200191505060405180910390f35b6104736004803603604081101561043d57600080fd5b81019080803573ffffffffffffffffffffffffffffffffffffffff16906020019092919080359060200190929190505050610b18565b604051808215151515815260200191505060405180910390f35b610495610bcb565b6040518082815260200191505060405180910390f35b6104b3610c38565b6040518082815260200191505060405180910390f35b61050b600480360360208110156104df57600080fd5b81019080803573ffffffffffffffffffffffffffffffffffffffff169060200190929190505050610de3565b6040518082815260200191505060405180910390f35b610529610e2b565b6040518082815260200191505060405180910390f35b610547610e31565b604051808273ffffffffffffffffffffffffffffffffffffffff1673ffffffffffffffffffffffffffffffffffffffff16815260200191505060405180910390f35b610591610e57565b6040518080602001828103825283818151815260200191508051906020019080838360005b838110156105d15780820151818401526020810190506105b6565b50505050905090810190601f1680156105fe5780820380516001836020036101000a031916815260200191505b509250505060405180910390f35b610614610fbf565b005b6106626004803603604081101561062c57600080fd5b81019080803573ffffffffffffffffffffffffffffffffffffffff169060200190929190803590602001909291905050506110c9565b604051808215151515815260200191505060405180910390f35b610684611196565b6040518082815260200191505060405180910390f35b6106e6600480360360408110156106b057600080fd5b81019080803573ffffffffffffffffffffffffffffffffffffffff16906020019092919080359060200190929190505050611240565b604051808215151515815260200191505060405180910390f35b6107086112ec565b6040518082815260200191505060405180910390f35b610726611396565b6040518082815260200191505060405180910390f35b61079e6004803603604081101561075257600080fd5b81019080803573ffffffffffffffffffffffffffffffffffffffff169060200190929190803573ffffffffffffffffffffffffffffffffffffffff16906020019092919050505061139c565b6040518082815260200191505060405180910390f35b6107bc611423565b6040518082815260200191505060405180910390f35b6000600660009054906101000a900473ffffffffffffffffffffffffffffffffffffffff1673ffffffffffffffffffffffffffffffffffffffff1663eae4c19f6040518163ffffffff1660e01b815260040160206040518083038186803b15801561083c57600080fd5b505afa158015610850573d6000803e3d6000fd5b505050506040513d602081101561086657600080fd5b8101908080519060200190929190505050905090565b60006108906108896114cd565b84846114d5565b6001905092915050565b60006108d16108a7611423565b6108c36108b26107d2565b6005546116cc90919063ffffffff16565b61171690919063ffffffff16565b905090565b60085481565b600042905090565b6000600254905090565b6000600660009054906101000a900473ffffffffffffffffffffffffffffffffffffffff1673ffffffffffffffffffffffffffffffffffffffff16631f2dc5ef6040518163ffffffff1660e01b815260040160206040518083038186803b15801561095857600080fd5b505afa15801561096c573d6000803e3d6000fd5b505050506040513d602081101561098257600080fd5b8101908080519060200190929190505050905090565b6000600660009054906101000a900473ffffffffffffffffffffffffffffffffffffffff1673ffffffffffffffffffffffffffffffffffffffff163373ffffffffffffffffffffffffffffffffffffffff16146109f457600080fd5b6109ff848484611760565b9392505050565b6000610a13848484611760565b610ad484610a1f6114cd565b610acf85604051806060016040528060288152602001611f2c60289139600160008b73ffffffffffffffffffffffffffffffffffffffff1673ffffffffffffffffffffffffffffffffffffffff1681526020019081526020016000206000610a856114cd565b73ffffffffffffffffffffffffffffffffffffffff1673ffffffffffffffffffffffffffffffffffffffff16815260200190815260200160002054611a219092919063ffffffff16565b6114d5565b600190509392505050565b600460019054906101000a900460ff1681565b600660009054906101000a900473ffffffffffffffffffffffffffffffffffffffff1681565b6000610bc1610b256114cd565b84610bbc8560016000610b366114cd565b73ffffffffffffffffffffffffffffffffffffffff1673ffffffffffffffffffffffffffffffffffffffff16815260200190815260200160002060008973ffffffffffffffffffffffffffffffffffffffff1673ffffffffffffffffffffffffffffffffffffffff16815260200190815260200160002054611ae190919063ffffffff16565b6114d5565b6001905092915050565b6000610c33610bd86108dc565b610c25610be36107d2565b610c17610c016001610bf3611196565b611ae190919063ffffffff16565b610c09611423565b611b6990919063ffffffff16565b611ae190919063ffffffff16565b6116cc90919063ffffffff16565b905090565b600080600090506000600554905060006008549050600060095490506000610c5e61089a565b90505b610c696108dc565b610c7c8486611ae190919063ffffffff16565b11610d9257610ca6610c978385611b6990919063ffffffff16565b86611ae190919063ffffffff16565b9450610cbb8385611ae190919063ffffffff16565b9350610cc5611423565b9250610cdb600182611ae190919063ffffffff16565b9050600660009054906101000a900473ffffffffffffffffffffffffffffffffffffffff1673ffffffffffffffffffffffffffffffffffffffff1663afaa29df826040518263ffffffff1660e01b81526004018082815260200191505060206040518083038186803b158015610d5057600080fd5b505afa158015610d64573d6000803e3d6000fd5b505050506040513d6020811015610d7a57600080fd5b81019080805190602001909291905050509150610c61565b6000610dae85610da06108dc565b6116cc90919063ffffffff16565b9050610dd5610dc68483611b6990919063ffffffff16565b87611ae190919063ffffffff16565b955085965050505050505090565b60008060008373ffffffffffffffffffffffffffffffffffffffff1673ffffffffffffffffffffffffffffffffffffffff168152602001908152602001600020549050919050565b60055481565b600760009054906101000a900473ffffffffffffffffffffffffffffffffffffffff1681565b6060600660009054906101000a900473ffffffffffffffffffffffffffffffffffffffff1673ffffffffffffffffffffffffffffffffffffffff166395d89b416040518163ffffffff1660e01b815260040160006040518083038186803b158015610ec157600080fd5b505afa158015610ed5573d6000803e3d6000fd5b505050506040513d6000823e3d601f19601f820116820180604052506020811015610eff57600080fd5b8101908080516040519392919084640100000000821115610f1f57600080fd5b83820191506020820185811115610f3557600080fd5b8251866001820283011164010000000082111715610f5257600080fd5b8083526020830192505050908051906020019080838360005b83811015610f86578082015181840152602081019050610f6b565b50505050905090810190601f168015610fb35780820380516001836020036101000a031916815260200191505b50604052505050905090565b6000610fc9610c38565b905060008111156110c657610fdc610bcb565b600881905550610fea6108dc565b600581905550600660009054906101000a900473ffffffffffffffffffffffffffffffffffffffff1673ffffffffffffffffffffffffffffffffffffffff1663863623bb6040518163ffffffff1660e01b815260040160206040518083038186803b15801561105857600080fd5b505afa15801561106c573d6000803e3d6000fd5b505050506040513d602081101561108257600080fd5b81019080805190602001909291905050506009819055506110c5600760009054906101000a900473ffffffffffffffffffffffffffffffffffffffff1682611bef565b5b50565b600061118c6110d66114cd565b8461118785604051806060016040528060258152602001611f9d60259139600160006111006114cd565b73ffffffffffffffffffffffffffffffffffffffff1673ffffffffffffffffffffffffffffffffffffffff16815260200190815260200160002060008a73ffffffffffffffffffffffffffffffffffffffff1673ffffffffffffffffffffffffffffffffffffffff16815260200190815260200160002054611a219092919063ffffffff16565b6114d5565b6001905092915050565b6000600660009054906101000a900473ffffffffffffffffffffffffffffffffffffffff1673ffffffffffffffffffffffffffffffffffffffff1663a4caeb426040518163ffffffff1660e01b815260040160206040518083038186803b15801561120057600080fd5b505afa158015611214573d6000803e3d6000fd5b505050506040513d602081101561122a57600080fd5b8101908080519060200190929190505050905090565b6000600760009054906101000a900473ffffffffffffffffffffffffffffffffffffffff1673ffffffffffffffffffffffffffffffffffffffff163373ffffffffffffffffffffffffffffffffffffffff1614156112da5733600760006101000a81548173ffffffffffffffffffffffffffffffffffffffff021916908373ffffffffffffffffffffffffffffffffffffffff1602179055505b6112e48383611db6565b905092915050565b6000600660009054906101000a900473ffffffffffffffffffffffffffffffffffffffff1673ffffffffffffffffffffffffffffffffffffffff1663be0522e06040518163ffffffff1660e01b815260040160206040518083038186803b15801561135657600080fd5b505afa15801561136a573d6000803e3d6000fd5b505050506040513d602081101561138057600080fd5b8101908080519060200190929190505050905090565b60095481565b6000600160008473ffffffffffffffffffffffffffffffffffffffff1673ffffffffffffffffffffffffffffffffffffffff16815260200190815260200160002060008373ffffffffffffffffffffffffffffffffffffffff1673ffffffffffffffffffffffffffffffffffffffff16815260200190815260200160002054905092915050565b6000600660009054906101000a900473ffffffffffffffffffffffffffffffffffffffff1673ffffffffffffffffffffffffffffffffffffffff1663ef78d4fd6040518163ffffffff1660e01b815260040160206040518083038186803b15801561148d57600080fd5b505afa1580156114a1573d6000803e3d6000fd5b505050506040513d60208110156114b757600080fd5b8101908080519060200190929190505050905090565b600033905090565b600073ffffffffffffffffffffffffffffffffffffffff168373ffffffffffffffffffffffffffffffffffffffff16141561155b576040517f08c379a0000000000000000000000000000000000000000000000000000000008152600401808060200182810382526024815260200180611f796024913960400191505060405180910390fd5b600073ffffffffffffffffffffffffffffffffffffffff168273ffffffffffffffffffffffffffffffffffffffff1614156115e1576040517f08c379a0000000000000000000000000000000000000000000000000000000008152600401808060200182810382526022815260200180611ec36022913960400191505060405180910390fd5b80600160008573ffffffffffffffffffffffffffffffffffffffff1673ffffffffffffffffffffffffffffffffffffffff16815260200190815260200160002060008473ffffffffffffffffffffffffffffffffffffffff1673ffffffffffffffffffffffffffffffffffffffff168152602001908152602001600020819055508173ffffffffffffffffffffffffffffffffffffffff168373ffffffffffffffffffffffffffffffffffffffff167f8c5be1e5ebec7d5bd14f71427d1e84f3dd0314c0f7b2291e5b200ac8c7c3b925836040518082815260200191505060405180910390a3505050565b600061170e83836040518060400160405280601e81526020017f536166654d6174683a207375627472616374696f6e206f766572666c6f770000815250611a21565b905092915050565b600061175883836040518060400160405280601a81526020017f536166654d6174683a206469766973696f6e206279207a65726f000000000000815250611dd4565b905092915050565b600073ffffffffffffffffffffffffffffffffffffffff168373ffffffffffffffffffffffffffffffffffffffff1614156117e6576040517f08c379a0000000000000000000000000000000000000000000000000000000008152600401808060200182810382526025815260200180611f546025913960400191505060405180910390fd5b600073ffffffffffffffffffffffffffffffffffffffff168273ffffffffffffffffffffffffffffffffffffffff16141561186c576040517f08c379a0000000000000000000000000000000000000000000000000000000008152600401808060200182810382526023815260200180611ea06023913960400191505060405180910390fd5b611877838383611e9a565b6118e281604051806060016040528060268152602001611ee5602691396000808773ffffffffffffffffffffffffffffffffffffffff1673ffffffffffffffffffffffffffffffffffffffff16815260200190815260200160002054611a219092919063ffffffff16565b6000808573ffffffffffffffffffffffffffffffffffffffff1673ffffffffffffffffffffffffffffffffffffffff16815260200190815260200160002081905550611975816000808573ffffffffffffffffffffffffffffffffffffffff1673ffffffffffffffffffffffffffffffffffffffff16815260200190815260200160002054611ae190919063ffffffff16565b6000808473ffffffffffffffffffffffffffffffffffffffff1673ffffffffffffffffffffffffffffffffffffffff168152602001908152602001600020819055508173ffffffffffffffffffffffffffffffffffffffff168373ffffffffffffffffffffffffffffffffffffffff167fddf252ad1be2c89b69c2b068fc378daa952ba7f163c4a11628f55a4df523b3ef836040518082815260200191505060405180910390a3505050565b6000838311158290611ace576040517f08c379a00000000000000000000000000000000000000000000000000000000081526004018080602001828103825283818151815260200191508051906020019080838360005b83811015611a93578082015181840152602081019050611a78565b50505050905090810190601f168015611ac05780820380516001836020036101000a031916815260200191505b509250505060405180910390fd5b5060008385039050809150509392505050565b600080828401905083811015611b5f576040517f08c379a000000000000000000000000000000000000000000000000000000000815260040180806020018281038252601b8152602001807f536166654d6174683a206164646974696f6e206f766572666c6f77000000000081525060200191505060405180910390fd5b8091505092915050565b600080831415611b7c5760009050611be9565b6000828402905082848281611b8d57fe5b0414611be4576040517f08c379a0000000000000000000000000000000000000000000000000000000008152600401808060200182810382526021815260200180611f0b6021913960400191505060405180910390fd5b809150505b92915050565b600073ffffffffffffffffffffffffffffffffffffffff168273ffffffffffffffffffffffffffffffffffffffff161415611c92576040517f08c379a000000000000000000000000000000000000000000000000000000000815260040180806020018281038252601f8152602001807f45524332303a206d696e7420746f20746865207a65726f20616464726573730081525060200191505060405180910390fd5b611c9e60008383611e9a565b611cb381600254611ae190919063ffffffff16565b600281905550611d0a816000808573ffffffffffffffffffffffffffffffffffffffff1673ffffffffffffffffffffffffffffffffffffffff16815260200190815260200160002054611ae190919063ffffffff16565b6000808473ffffffffffffffffffffffffffffffffffffffff1673ffffffffffffffffffffffffffffffffffffffff168152602001908152602001600020819055508173ffffffffffffffffffffffffffffffffffffffff16600073ffffffffffffffffffffffffffffffffffffffff167fddf252ad1be2c89b69c2b068fc378daa952ba7f163c4a11628f55a4df523b3ef836040518082815260200191505060405180910390a35050565b6000611dca611dc36114cd565b8484611760565b6001905092915050565b60008083118290611e80576040517f08c379a00000000000000000000000000000000000000000000000000000000081526004018080602001828103825283818151815260200191508051906020019080838360005b83811015611e45578082015181840152602081019050611e2a565b50505050905090810190601f168015611e725780820380516001836020036101000a031916815260200191505b509250505060405180910390fd5b506000838581611e8c57fe5b049050809150509392505050565b50505056fe45524332303a207472616e7366657220746f20746865207a65726f206164647265737345524332303a20617070726f766520746f20746865207a65726f206164647265737345524332303a207472616e7366657220616d6f756e7420657863656564732062616c616e6365536166654d6174683a206d756c7469706c69636174696f6e206f766572666c6f7745524332303a207472616e7366657220616d6f756e74206578636565647320616c6c6f77616e636545524332303a207472616e736665722066726f6d20746865207a65726f206164647265737345524332303a20617070726f76652066726f6d20746865207a65726f206164647265737345524332303a2064656372656173656420616c6c6f77616e63652062656c6f77207a65726fa264697066735822122032c3749ae29e088ca89eb295ee6b4aaa9113c2573aaed772ee923fa56946f7b164736f6c63430006060033536166654d6174683a206d756c7469706c69636174696f6e206f766572666c6f77",
  "immutableReferences": {},
  "source": "pragma solidity ^0.6.0;\n\nimport \"@openzeppelin/contracts/math/SafeMath.sol\";\nimport \"./ERC20.sol\";\nimport \"./interfaces/HubI.sol\";\n\ncontract Token is ERC20 {\n    using SafeMath for uint256;\n\n    uint8 public override decimals = 18;\n\n    uint256 public lastTouched;\n    address public hub;\n    address public owner;\n    uint256 public inflationOffset;\n    uint256 public currentIssuance;\n\n    modifier onlyHub() {\n        require(msg.sender == hub);\n        _;\n    }\n\n    modifier onlyOwner() {\n        require(msg.sender == owner);\n        _;\n    }\n\n    constructor(address _owner, uint256 initialPayout) public {\n        require(_owner != address(0));\n        owner = _owner;\n        hub = msg.sender;\n        lastTouched = time();\n        inflationOffset = findInflationOffset();\n        currentIssuance = HubI(hub).issuance();\n        _mint(_owner, initialPayout);\n    }\n\n    function time() public view returns (uint) {\n        return block.timestamp;\n    }\n\n    function symbol() public view override returns (string memory) {\n        return HubI(hub).symbol();\n    }\n\n    function inflation() public view returns (uint256) {\n        return HubI(hub).inflation();\n    }\n\n    function divisor() public view returns (uint256) {\n        return HubI(hub).divisor();\n    }\n\n    function period() public view returns (uint256) {\n        return HubI(hub).period();\n    }\n\n    function periods() public view returns (uint256) {\n        return HubI(hub).periods();\n    }\n\n    function periodsLastTouched() public view returns (uint256) {\n        return (lastTouched.sub(hubDeploy())).div(period());\n    }\n\n    function hubDeploy() public view returns (uint256) {\n        return HubI(hub).deployedAt();\n    }\n\n    /// @return the amount of seconds until the next inflation step\n    function findInflationOffset() public view returns (uint256) {\n        return ((period().mul(periods().add(1))).add(hubDeploy())).sub(time());\n    }\n\n    /// @return how much ubi this token holder should receive\n    function look() public view returns (uint256) {\n        uint256 payout = 0;\n        uint256 clock = lastTouched;\n        uint256 offset = inflationOffset;\n        uint256 rate = currentIssuance;\n        uint256 p = periodsLastTouched();\n        while (clock.add(offset) <= time()) {\n            payout = payout.add(offset.mul(rate));\n            clock = clock.add(offset);\n            offset = period();\n            p = p.add(1);\n            rate = HubI(hub).issuanceStep(p);\n        }\n        uint256 timePassed = time().sub(clock);\n        payout = payout.add(timePassed.mul(rate));\n        return payout;\n    }\n\n    /// actually updates storage with new token balance\n    function update() public {\n        uint256 gift = look();\n        if (gift > 0) {\n            inflationOffset = findInflationOffset();\n            lastTouched = time();\n            currentIssuance = HubI(hub).issuance();\n            _mint(owner, gift);\n        }\n    }\n\n    function hubTransfer(\n        address from, address to, uint256 amount\n    ) public onlyHub returns (bool) {\n        _transfer(from, to, amount);\n    }\n\n    function transfer(address dst, uint wad) public override returns (bool) {\n        // this totally redundant code is covering what I believe is weird compiler\n        // eccentricity, making gnosis's revert message not correctly return the gas\n        // when this function only super() calls the inherited contract\n        if (msg.sender == owner) {\n            owner = msg.sender;\n        }\n        return super.transfer(dst, wad);\n    }\n}\n",
  "sourcePath": "/media/000/Documents/Circles/circles-contracts/contracts/Token.sol",
  "compiler": {
    "name": "solc",
    "version": "0.6.6+commit.6c089d02.Emscripten.clang"
  },
  "schemaVersion": "3.2.3",
  "updatedAt": "2020-08-14T17:52:03.785Z",
  "devdoc": {
    "methods": {
      "allowance(address,address)": {
        "details": "See {IERC20-allowance}."
      },
      "approve(address,uint256)": {
        "details": "See {IERC20-approve}.     * Requirements:     * - `spender` cannot be the zero address."
      },
      "balanceOf(address)": {
        "details": "See {IERC20-balanceOf}."
      },
      "decreaseAllowance(address,uint256)": {
        "details": "Atomically decreases the allowance granted to `spender` by the caller.     * This is an alternative to {approve} that can be used as a mitigation for problems described in {IERC20-approve}.     * Emits an {Approval} event indicating the updated allowance.     * Requirements:     * - `spender` cannot be the zero address. - `spender` must have allowance for the caller of at least `subtractedValue`."
      },
      "increaseAllowance(address,uint256)": {
        "details": "Atomically increases the allowance granted to `spender` by the caller.     * This is an alternative to {approve} that can be used as a mitigation for problems described in {IERC20-approve}.     * Emits an {Approval} event indicating the updated allowance.     * Requirements:     * - `spender` cannot be the zero address."
      },
      "totalSupply()": {
        "details": "See {IERC20-totalSupply}."
      },
      "transferFrom(address,address,uint256)": {
        "details": "See {IERC20-transferFrom}.     * Emits an {Approval} event indicating the updated allowance. This is not required by the EIP. See the note at the beginning of {ERC20};     * Requirements: - `sender` and `recipient` cannot be the zero address. - `sender` must have a balance of at least `amount`. - the caller must have allowance for ``sender``'s tokens of at least `amount`."
      }
    }
  },
  "userdoc": {
    "methods": {
      "update()": {
        "notice": "actually updates storage with new token balance"
      }
    }
  }
}