{
  "contractName": "Token",
  "abi": [
    {
      "inputs": [
        {
          "internalType": "address",
          "name": "_owner",
          "type": "address"
        }
      ],
      "stateMutability": "nonpayable",
      "type": "constructor"
    },
    {
      "anonymous": false,
      "inputs": [
        {
          "indexed": true,
          "internalType": "address",
          "name": "owner",
          "type": "address"
        },
        {
          "indexed": true,
          "internalType": "address",
          "name": "spender",
          "type": "address"
        },
        {
          "indexed": false,
          "internalType": "uint256",
          "name": "value",
          "type": "uint256"
        }
      ],
      "name": "Approval",
      "type": "event"
    },
    {
      "anonymous": false,
      "inputs": [
        {
          "indexed": true,
          "internalType": "address",
          "name": "from",
          "type": "address"
        },
        {
          "indexed": true,
          "internalType": "address",
          "name": "to",
          "type": "address"
        },
        {
          "indexed": false,
          "internalType": "uint256",
          "name": "value",
          "type": "uint256"
        }
      ],
      "name": "Transfer",
      "type": "event"
    },
    {
      "inputs": [
        {
          "internalType": "address",
          "name": "owner",
          "type": "address"
        },
        {
          "internalType": "address",
          "name": "spender",
          "type": "address"
        }
      ],
      "name": "allowance",
      "outputs": [
        {
          "internalType": "uint256",
          "name": "",
          "type": "uint256"
        }
      ],
      "stateMutability": "view",
      "type": "function"
    },
    {
      "inputs": [
        {
          "internalType": "address",
          "name": "spender",
          "type": "address"
        },
        {
          "internalType": "uint256",
          "name": "amount",
          "type": "uint256"
        }
      ],
      "name": "approve",
      "outputs": [
        {
          "internalType": "bool",
          "name": "",
          "type": "bool"
        }
      ],
      "stateMutability": "nonpayable",
      "type": "function"
    },
    {
      "inputs": [
        {
          "internalType": "address",
          "name": "account",
          "type": "address"
        }
      ],
      "name": "balanceOf",
      "outputs": [
        {
          "internalType": "uint256",
          "name": "",
          "type": "uint256"
        }
      ],
      "stateMutability": "view",
      "type": "function"
    },
    {
      "inputs": [],
      "name": "currentIssuance",
      "outputs": [
        {
          "internalType": "uint256",
          "name": "",
          "type": "uint256"
        }
      ],
      "stateMutability": "view",
      "type": "function"
    },
    {
      "inputs": [],
      "name": "decimals",
      "outputs": [
        {
          "internalType": "uint8",
          "name": "",
          "type": "uint8"
        }
      ],
      "stateMutability": "view",
      "type": "function"
    },
    {
      "inputs": [
        {
          "internalType": "address",
          "name": "spender",
          "type": "address"
        },
        {
          "internalType": "uint256",
          "name": "subtractedValue",
          "type": "uint256"
        }
      ],
      "name": "decreaseAllowance",
      "outputs": [
        {
          "internalType": "bool",
          "name": "",
          "type": "bool"
        }
      ],
      "stateMutability": "nonpayable",
      "type": "function"
    },
    {
      "inputs": [],
      "name": "hub",
      "outputs": [
        {
          "internalType": "address",
          "name": "",
          "type": "address"
        }
      ],
      "stateMutability": "view",
      "type": "function"
    },
    {
      "inputs": [
        {
          "internalType": "address",
          "name": "spender",
          "type": "address"
        },
        {
          "internalType": "uint256",
          "name": "addedValue",
          "type": "uint256"
        }
      ],
      "name": "increaseAllowance",
      "outputs": [
        {
          "internalType": "bool",
          "name": "",
          "type": "bool"
        }
      ],
      "stateMutability": "nonpayable",
      "type": "function"
    },
    {
      "inputs": [],
      "name": "inflationOffset",
      "outputs": [
        {
          "internalType": "uint256",
          "name": "",
          "type": "uint256"
        }
      ],
      "stateMutability": "view",
      "type": "function"
    },
    {
      "inputs": [],
      "name": "lastTouched",
      "outputs": [
        {
          "internalType": "uint256",
          "name": "",
          "type": "uint256"
        }
      ],
      "stateMutability": "view",
      "type": "function"
    },
    {
      "inputs": [],
      "name": "owner",
      "outputs": [
        {
          "internalType": "address",
          "name": "",
          "type": "address"
        }
      ],
      "stateMutability": "view",
      "type": "function"
    },
    {
      "inputs": [],
      "name": "totalSupply",
      "outputs": [
        {
          "internalType": "uint256",
          "name": "",
          "type": "uint256"
        }
      ],
      "stateMutability": "view",
      "type": "function"
    },
    {
      "inputs": [
        {
          "internalType": "address",
          "name": "sender",
          "type": "address"
        },
        {
          "internalType": "address",
          "name": "recipient",
          "type": "address"
        },
        {
          "internalType": "uint256",
          "name": "amount",
          "type": "uint256"
        }
      ],
      "name": "transferFrom",
      "outputs": [
        {
          "internalType": "bool",
          "name": "",
          "type": "bool"
        }
      ],
      "stateMutability": "nonpayable",
      "type": "function"
    },
    {
      "inputs": [],
      "name": "time",
      "outputs": [
        {
          "internalType": "uint256",
          "name": "",
          "type": "uint256"
        }
      ],
      "stateMutability": "view",
      "type": "function"
    },
    {
      "inputs": [],
      "name": "symbol",
      "outputs": [
        {
          "internalType": "string",
          "name": "",
          "type": "string"
        }
      ],
      "stateMutability": "view",
      "type": "function"
    },
    {
      "inputs": [],
      "name": "inflation",
      "outputs": [
        {
          "internalType": "uint256",
          "name": "",
          "type": "uint256"
        }
      ],
      "stateMutability": "view",
      "type": "function"
    },
    {
      "inputs": [],
      "name": "divisor",
      "outputs": [
        {
          "internalType": "uint256",
          "name": "",
          "type": "uint256"
        }
      ],
      "stateMutability": "view",
      "type": "function"
    },
    {
      "inputs": [],
      "name": "period",
      "outputs": [
        {
          "internalType": "uint256",
          "name": "",
          "type": "uint256"
        }
      ],
      "stateMutability": "view",
      "type": "function"
    },
    {
      "inputs": [],
      "name": "periods",
      "outputs": [
        {
          "internalType": "uint256",
          "name": "",
          "type": "uint256"
        }
      ],
      "stateMutability": "view",
      "type": "function"
    },
    {
      "inputs": [],
      "name": "timeout",
      "outputs": [
        {
          "internalType": "uint256",
          "name": "",
          "type": "uint256"
        }
      ],
      "stateMutability": "view",
      "type": "function"
    },
    {
      "inputs": [],
      "name": "periodsSinceLastTouched",
      "outputs": [
        {
          "internalType": "uint256",
          "name": "",
          "type": "uint256"
        }
      ],
      "stateMutability": "view",
      "type": "function"
    },
    {
      "inputs": [],
      "name": "hubDeployedAt",
      "outputs": [
        {
          "internalType": "uint256",
          "name": "",
          "type": "uint256"
        }
      ],
      "stateMutability": "view",
      "type": "function"
    },
    {
      "inputs": [],
      "name": "stop",
      "outputs": [],
      "stateMutability": "nonpayable",
      "type": "function"
    },
    {
      "inputs": [],
      "name": "stopped",
      "outputs": [
        {
          "internalType": "bool",
          "name": "",
          "type": "bool"
        }
      ],
      "stateMutability": "view",
      "type": "function"
    },
    {
      "inputs": [],
      "name": "findInflationOffset",
      "outputs": [
        {
          "internalType": "uint256",
          "name": "",
          "type": "uint256"
        }
      ],
      "stateMutability": "view",
      "type": "function"
    },
    {
      "inputs": [],
      "name": "look",
      "outputs": [
        {
          "internalType": "uint256",
          "name": "",
          "type": "uint256"
        }
      ],
      "stateMutability": "view",
      "type": "function"
    },
    {
      "inputs": [],
      "name": "update",
      "outputs": [],
      "stateMutability": "nonpayable",
      "type": "function"
    },
    {
      "inputs": [
        {
          "internalType": "address",
          "name": "from",
          "type": "address"
        },
        {
          "internalType": "address",
          "name": "to",
          "type": "address"
        },
        {
          "internalType": "uint256",
          "name": "amount",
          "type": "uint256"
        }
      ],
      "name": "hubTransfer",
      "outputs": [
        {
          "internalType": "bool",
          "name": "",
          "type": "bool"
        }
      ],
      "stateMutability": "nonpayable",
      "type": "function"
    },
    {
      "inputs": [
        {
          "internalType": "address",
          "name": "dst",
          "type": "address"
        },
        {
          "internalType": "uint256",
          "name": "wad",
          "type": "uint256"
        }
      ],
      "name": "transfer",
      "outputs": [
        {
          "internalType": "bool",
          "name": "",
          "type": "bool"
        }
      ],
      "stateMutability": "nonpayable",
      "type": "function"
    }
  ],
  "bytecode": "0x60806040526004805461ff0019166112001790553480156200002057600080fd5b50604051620018c5380380620018c5833981810160405260208110156200004657600080fd5b50516001600160a01b0381166200005c57600080fd5b600780546001600160a01b0383166001600160a01b03199182161790915560068054909116331790556200008f6200019e565b6005556200009c620001a2565b6008556006546040805163863623bb60e01b815290516001600160a01b039092169163863623bb91600480820192602092909190829003018186803b158015620000e557600080fd5b505afa158015620000fa573d6000803e3d6000fd5b505050506040513d60208110156200011157600080fd5b505160095560065460408051630cf96a5b60e31b81529051620001979284926001600160a01b03909116916367cb52d891600480820192602092909190829003018186803b1580156200016357600080fd5b505afa15801562000178573d6000803e3d6000fd5b505050506040513d60208110156200018f57600080fd5b50516200021c565b50620005dc565b4290565b600062000217620001b26200019e565b62000203620001c06200032b565b620001d1620001e5600182620003a4565b620003ea60201b62000be91790919060201c565b620001ef6200044e565b6200049460201b62000c411790919060201c565b620004f260201b62000c9a1790919060201c565b905090565b6001600160a01b03821662000278576040805162461bcd60e51b815260206004820152601f60248201527f45524332303a206d696e7420746f20746865207a65726f206164647265737300604482015290519081900360640190fd5b62000286600083836200053c565b620002a281600254620003ea60201b62000be91790919060201c565b6002556001600160a01b03821660009081526020818152604090912054620002d591839062000be9620003ea821b17901c565b6001600160a01b0383166000818152602081815260408083209490945583518581529351929391927fddf252ad1be2c89b69c2b068fc378daa952ba7f163c4a11628f55a4df523b3ef9281900390910190a35050565b6006546040805163eae4c19f60e01b815290516000926001600160a01b03169163eae4c19f916004808301926020929190829003018186803b1580156200037157600080fd5b505afa15801562000386573d6000803e3d6000fd5b505050506040513d60208110156200039d57600080fd5b5051905090565b6006546040805163526575a160e11b815290516000926001600160a01b03169163a4caeb42916004808301926020929190829003018186803b1580156200037157600080fd5b60008282018381101562000445576040805162461bcd60e51b815260206004820152601b60248201527f536166654d6174683a206164646974696f6e206f766572666c6f770000000000604482015290519081900360640190fd5b90505b92915050565b6006546040805163ef78d4fd60e01b815290516000926001600160a01b03169163ef78d4fd916004808301926020929190829003018186803b1580156200037157600080fd5b600082620004a55750600062000448565b82820282848281620004b357fe5b0414620004455760405162461bcd60e51b8152600401808060200182810382526021815260200180620018a46021913960400191505060405180910390fd5b60006200044583836040518060400160405280601e81526020017f536166654d6174683a207375627472616374696f6e206f766572666c6f7700008152506200054160201b60201c565b505050565b60008184841115620005d45760405162461bcd60e51b81526004018080602001828103825283818151815260200191508051906020019080838360005b83811015620005985781810151838201526020016200057e565b50505050905090810190601f168015620005c65780820380516001836020036101000a031916815260200191505b509250505060405180910390fd5b505050900390565b6112b880620005ec6000396000f3fe608060405234801561001057600080fd5b506004361061016f5760003560e01c806370a08231116100d457806370a08231146102e257806370dea79a1461030857806375f12b21146103105780637b89cecc146103185780638b4eed81146103205780638da5cb5b1461032857806395d89b4114610330578063a2e62045146103ad578063a457c2d7146103b5578063a4caeb42146103e1578063a9059cbb146103e9578063be0522e014610415578063d40480891461041d578063dd62ed3e14610425578063ef78d4fd146104535761016f565b806307da68f514610174578063095ea7b31461017e578063107129dd146101be57806316ada547146101d857806318160ddd146101e05780631f2dc5ef146101e857806320a6703c146101f057806323b872dd14610226578063313ce5671461025c578063365a86fc1461027a578063395093511461029e5780633b6fe91f146102ca57806341c30546146102d25780636c050eae146102da575b600080fd5b61017c61045b565b005b6101aa6004803603604081101561019457600080fd5b506001600160a01b038135169060200135610481565b604080519115158252519081900360200190f35b6101c6610498565b60408051918252519081900360200190f35b6101c661049e565b6101c66104a3565b6101c66104a9565b6101aa6004803603606081101561020657600080fd5b506001600160a01b0381358116916020810135909116906040013561051f565b6101aa6004803603606081101561023c57600080fd5b506001600160a01b0381358116916020810135909116906040013561054b565b6102646105b4565b6040805160ff9092168252519081900360200190f35b6102826105c2565b604080516001600160a01b039092168252519081900360200190f35b6101aa600480360360408110156102b457600080fd5b506001600160a01b0381351690602001356105d1565b6101c6610607565b6101c661064c565b6101c6610693565b6101c6600480360360208110156102f857600080fd5b50356001600160a01b03166107c3565b6101c66107de565b6101aa610823565b6101c6610868565b6101c661088f565b610282610895565b6103386108a4565b6040805160208082528351818301528351919283929083019185019080838360005b8381101561037257818101518382015260200161035a565b50505050905090810190601f16801561039f5780820380516001836020036101000a031916815260200191505b509250505060405180910390f35b61017c6109d9565b6101aa600480360360408110156103cb57600080fd5b506001600160a01b038135169060200135610a8e565b6101c6610add565b6101aa600480360360408110156103ff57600080fd5b506001600160a01b038135169060200135610b22565b6101c6610b2e565b6101c6610b73565b6101c66004803603604081101561043b57600080fd5b506001600160a01b0381358116916020013516610b79565b6101c6610ba4565b6007546001600160a01b0316331461047257600080fd5b600a805460ff19166001179055565b600061048e338484610cdc565b5060015b92915050565b60085481565b425b90565b60025490565b60065460408051631f2dc5ef60e01b815290516000926001600160a01b031691631f2dc5ef916004808301926020929190829003018186803b1580156104ee57600080fd5b505afa158015610502573d6000803e3d6000fd5b505050506040513d602081101561051857600080fd5b5051905090565b6006546000906001600160a01b0316331461053957600080fd5b610544848484610dc8565b9392505050565b6000610558848484610dc8565b6105aa84336105a5856040518060600160405280602881526020016111ed602891396001600160a01b038a1660009081526001602090815260408083203384529091529020549190610f23565b610cdc565b5060019392505050565b600454610100900460ff1681565b6006546001600160a01b031681565b3360008181526001602090815260408083206001600160a01b0387168452909152812054909161048e9185906105a59086610be9565b6006546040805163eae4c19f60e01b815290516000926001600160a01b03169163eae4c19f916004808301926020929190829003018186803b1580156104ee57600080fd5b600061068e61065961049e565b610688610664610607565b61067461067a6001610674610add565b90610be9565b610682610ba4565b90610c41565b90610c9a565b905090565b600061069d610823565b156106aa575060006104a0565b6005546008546009546000929190836106c1610868565b90505b6106cc61049e565b6106d68585610be9565b11610794576106ef6106e88484610c41565b8690610be9565b94506106fb8484610be9565b9350610705610ba4565b9250610712816001610be9565b600654604080516361c4b42160e01b81526004810184905290519293506001600160a01b03909116916361c4b42191602480820192602092909190829003018186803b15801561076157600080fd5b505afa158015610775573d6000803e3d6000fd5b505050506040513d602081101561078b57600080fd5b505191506106c4565b60006107a28561068861049e565b90506107b86107b18285610c41565b8790610be9565b965050505050505090565b6001600160a01b031660009081526020819052604090205490565b6006546040805163386f53cd60e11b815290516000926001600160a01b0316916370dea79a916004808301926020929190829003018186803b1580156104ee57600080fd5b600a5460009060ff1615610839575060016104a0565b600061084960055461068861049e565b90506108536107de565b8111156108645760019150506104a0565b5090565b600061068e610875610ba4565b610889610880610607565b60055490610c9a565b90610fba565b60055481565b6007546001600160a01b031681565b600654604080516395d89b4160e01b815290516060926001600160a01b0316916395d89b41916004808301926000929190829003018186803b1580156108e957600080fd5b505afa1580156108fd573d6000803e3d6000fd5b505050506040513d6000823e601f3d908101601f19168201604052602081101561092657600080fd5b8101908080516040519392919084600160201b82111561094557600080fd5b90830190602082018581111561095a57600080fd5b8251600160201b81118282018810171561097357600080fd5b82525081516020918201929091019080838360005b838110156109a0578181015183820152602001610988565b50505050905090810190601f1680156109cd5780820380516001836020036101000a031916815260200191505b50604052505050905090565b60006109e3610693565b90508015610a8b576109f361064c565b6008556109fe61049e565b6005556006546040805163863623bb60e01b815290516001600160a01b039092169163863623bb91600480820192602092909190829003018186803b158015610a4657600080fd5b505afa158015610a5a573d6000803e3d6000fd5b505050506040513d6020811015610a7057600080fd5b5051600955600754610a8b906001600160a01b031682610ff9565b50565b600061048e33846105a58560405180606001604052806025815260200161125e602591393360009081526001602090815260408083206001600160a01b038d1684529091529020549190610f23565b6006546040805163526575a160e11b815290516000926001600160a01b03169163a4caeb42916004808301926020929190829003018186803b1580156104ee57600080fd5b600061054483836110e9565b600654604080516305f0291760e51b815290516000926001600160a01b03169163be0522e0916004808301926020929190829003018186803b1580156104ee57600080fd5b60095481565b6001600160a01b03918216600090815260016020908152604080832093909416825291909152205490565b6006546040805163ef78d4fd60e01b815290516000926001600160a01b03169163ef78d4fd916004808301926020929190829003018186803b1580156104ee57600080fd5b600082820183811015610544576040805162461bcd60e51b815260206004820152601b60248201527a536166654d6174683a206164646974696f6e206f766572666c6f7760281b604482015290519081900360640190fd5b600082610c5057506000610492565b82820282848281610c5d57fe5b04146105445760405162461bcd60e51b81526004018080602001828103825260218152602001806111cc6021913960400191505060405180910390fd5b600061054483836040518060400160405280601e81526020017f536166654d6174683a207375627472616374696f6e206f766572666c6f770000815250610f23565b6001600160a01b038316610d215760405162461bcd60e51b815260040180806020018281038252602481526020018061123a6024913960400191505060405180910390fd5b6001600160a01b038216610d665760405162461bcd60e51b81526004018080602001828103825260228152602001806111846022913960400191505060405180910390fd5b6001600160a01b03808416600081815260016020908152604080832094871680845294825291829020859055815185815291517f8c5be1e5ebec7d5bd14f71427d1e84f3dd0314c0f7b2291e5b200ac8c7c3b9259281900390910190a3505050565b6001600160a01b038316610e0d5760405162461bcd60e51b81526004018080602001828103825260258152602001806112156025913960400191505060405180910390fd5b6001600160a01b038216610e525760405162461bcd60e51b81526004018080602001828103825260238152602001806111616023913960400191505060405180910390fd5b610e5d8383836110f6565b610e9a816040518060600160405280602681526020016111a6602691396001600160a01b0386166000908152602081905260409020549190610f23565b6001600160a01b038085166000908152602081905260408082209390935590841681522054610ec99082610be9565b6001600160a01b038084166000818152602081815260409182902094909455805185815290519193928716927fddf252ad1be2c89b69c2b068fc378daa952ba7f163c4a11628f55a4df523b3ef92918290030190a3505050565b60008184841115610fb25760405162461bcd60e51b81526004018080602001828103825283818151815260200191508051906020019080838360005b83811015610f77578181015183820152602001610f5f565b50505050905090810190601f168015610fa45780820380516001836020036101000a031916815260200191505b509250505060405180910390fd5b505050900390565b600061054483836040518060400160405280601a815260200179536166654d6174683a206469766973696f6e206279207a65726f60301b8152506110fb565b6001600160a01b038216611054576040805162461bcd60e51b815260206004820152601f60248201527f45524332303a206d696e7420746f20746865207a65726f206164647265737300604482015290519081900360640190fd5b611060600083836110f6565b60025461106d9082610be9565b6002556001600160a01b0382166000908152602081905260409020546110939082610be9565b6001600160a01b0383166000818152602081815260408083209490945583518581529351929391927fddf252ad1be2c89b69c2b068fc378daa952ba7f163c4a11628f55a4df523b3ef9281900390910190a35050565b600061048e338484610dc8565b505050565b6000818361114a5760405162461bcd60e51b8152602060048201818152835160248401528351909283926044909101919085019080838360008315610f77578181015183820152602001610f5f565b50600083858161115657fe5b049594505050505056fe45524332303a207472616e7366657220746f20746865207a65726f206164647265737345524332303a20617070726f766520746f20746865207a65726f206164647265737345524332303a207472616e7366657220616d6f756e7420657863656564732062616c616e6365536166654d6174683a206d756c7469706c69636174696f6e206f766572666c6f7745524332303a207472616e7366657220616d6f756e74206578636565647320616c6c6f77616e636545524332303a207472616e736665722066726f6d20746865207a65726f206164647265737345524332303a20617070726f76652066726f6d20746865207a65726f206164647265737345524332303a2064656372656173656420616c6c6f77616e63652062656c6f77207a65726fa264697066735822122084b6e6d5d9bb9360428790ceeb61c41431f469737c2b391f47e56d1f33f272b964736f6c63430007010033536166654d6174683a206d756c7469706c69636174696f6e206f766572666c6f77",
  "immutableReferences": {},
  "source": "// SPDX-License-Identifier: AGPL\npragma solidity ^0.7.0;\n\nimport \"@openzeppelin/contracts/math/SafeMath.sol\";\nimport \"./ERC20.sol\";\nimport \"./interfaces/HubI.sol\";\n\ncontract Token is ERC20 {\n    using SafeMath for uint256;\n\n    uint8 public override decimals = 18;\n\n    uint256 public lastTouched;\n    address public hub;\n    address public owner;\n    uint256 public inflationOffset;\n    uint256 public currentIssuance;\n    bool private manuallyStopped;\n\n    modifier onlyHub() {\n        require(msg.sender == hub);\n        _;\n    }\n\n    modifier onlyOwner() {\n        require(msg.sender == owner);\n        _;\n    }\n\n    constructor(address _owner) {\n        require(_owner != address(0));\n        owner = _owner;\n        hub = msg.sender;\n        lastTouched = time();\n        inflationOffset = findInflationOffset();\n        currentIssuance = HubI(hub).issuance();\n        _mint(_owner, HubI(hub).signupBonus());\n    }\n\n    function time() public view returns (uint) {\n        return block.timestamp;\n    }\n\n    function symbol() public view override returns (string memory) {\n        return HubI(hub).symbol();\n    }\n\n    function inflation() public view returns (uint256) {\n        return HubI(hub).inflation();\n    }\n\n    function divisor() public view returns (uint256) {\n        return HubI(hub).divisor();\n    }\n\n    function period() public view returns (uint256) {\n        return HubI(hub).period();\n    }\n\n    function periods() public view returns (uint256) {\n        return HubI(hub).periods();\n    }\n\n    function timeout() public view returns (uint256) {\n        return HubI(hub).timeout();\n    }\n\n    function periodsSinceLastTouched() public view returns (uint256) {\n        return (lastTouched.sub(hubDeployedAt())).div(period());\n    }\n\n    function hubDeployedAt() public view returns (uint256) {\n        return HubI(hub).deployedAt();\n    }\n\n    function stop() public onlyOwner {\n        manuallyStopped = true;\n    }\n\n    function stopped() public view returns (bool) {\n        if (manuallyStopped) return true;\n        uint256 secondsSinceLastTouched = time().sub(lastTouched);\n        if (secondsSinceLastTouched > timeout()) return true;\n    }\n\n    /// @return the amount of seconds until the next inflation step\n    function findInflationOffset() public view returns (uint256) {\n        return ((period().mul(periods().add(1))).add(hubDeployedAt())).sub(time());\n    }\n\n    /// @return how much ubi this token holder should receive\n    function look() public view returns (uint256) {\n        if (stopped()) return 0;\n        uint256 payout = 0;\n        uint256 clock = lastTouched;\n        uint256 offset = inflationOffset;\n        uint256 rate = currentIssuance;\n        uint256 p = periodsSinceLastTouched();\n        while (clock.add(offset) <= time()) {\n            payout = payout.add(offset.mul(rate));\n            clock = clock.add(offset);\n            offset = period();\n            p = p.add(1);\n            rate = HubI(hub).issuanceByStep(p);\n        }\n        uint256 timePassed = time().sub(clock);\n        payout = payout.add(timePassed.mul(rate));\n        return payout;\n    }\n\n    /// actually updates storage with new token balance\n    function update() public {\n        uint256 gift = look();\n        if (gift > 0) {\n            inflationOffset = findInflationOffset();\n            lastTouched = time();\n            currentIssuance = HubI(hub).issuance();\n            _mint(owner, gift);\n        }\n    }\n\n    function hubTransfer(\n        address from, address to, uint256 amount\n    ) public onlyHub returns (bool) {\n        _transfer(from, to, amount);\n    }\n\n    function transfer(address dst, uint wad) public override returns (bool) {\n         return super.transfer(dst, wad);\n    }\n}\n",
  "sourcePath": "/media/000/Documents/Circles/circles-contracts/contracts/Token.sol",
  "compiler": {
    "name": "solc",
    "version": "0.7.1+commit.f4a555be.Emscripten.clang"
  },
  "schemaVersion": "3.2.3",
  "updatedAt": "2020-09-25T09:46:24.772Z",
  "devdoc": {
    "kind": "dev",
    "methods": {
      "allowance(address,address)": {
        "details": "See {IERC20-allowance}."
      },
      "approve(address,uint256)": {
        "details": "See {IERC20-approve}. Requirements: - `spender` cannot be the zero address."
      },
      "balanceOf(address)": {
        "details": "See {IERC20-balanceOf}."
      },
      "decreaseAllowance(address,uint256)": {
        "details": "Atomically decreases the allowance granted to `spender` by the caller. This is an alternative to {approve} that can be used as a mitigation for problems described in {IERC20-approve}. Emits an {Approval} event indicating the updated allowance. Requirements: - `spender` cannot be the zero address. - `spender` must have allowance for the caller of at least `subtractedValue`."
      },
      "findInflationOffset()": {
        "returns": {
          "_0": "the amount of seconds until the next inflation step"
        }
      },
      "increaseAllowance(address,uint256)": {
        "details": "Atomically increases the allowance granted to `spender` by the caller. This is an alternative to {approve} that can be used as a mitigation for problems described in {IERC20-approve}. Emits an {Approval} event indicating the updated allowance. Requirements: - `spender` cannot be the zero address."
      },
      "look()": {
        "returns": {
          "_0": "how much ubi this token holder should receive"
        }
      },
      "symbol()": {
        "details": "Returns the symbol of the token, usually a shorter version of the name."
      },
      "totalSupply()": {
        "details": "See {IERC20-totalSupply}."
      },
      "transferFrom(address,address,uint256)": {
        "details": "See {IERC20-transferFrom}. Emits an {Approval} event indicating the updated allowance. This is not required by the EIP. See the note at the beginning of {ERC20}; Requirements: - `sender` and `recipient` cannot be the zero address. - `sender` must have a balance of at least `amount`. - the caller must have allowance for ``sender``'s tokens of at least `amount`."
      }
    },
    "stateVariables": {
      "decimals": {
        "details": "Returns the number of decimals used to get its user representation. For example, if `decimals` equals `2`, a balance of `505` tokens should be displayed to a user as `5,05` (`505 / 10 ** 2`). Tokens usually opt for a value of 18, imitating the relationship between Ether and Wei. This is the value {ERC20} uses, unless {_setupDecimals} is called. NOTE: This information is only used for _display_ purposes: it in no way affects any of the arithmetic of the contract, including {IERC20-balanceOf} and {IERC20-transfer}."
      }
    },
    "version": 1
  },
  "userdoc": {
    "kind": "user",
    "methods": {
      "update()": {
        "notice": "actually updates storage with new token balance"
      }
    },
    "version": 1
  }
}